{
  "address": "0x31cd9fa35f0A1F6bDDEbe5A6ad5F46b2f0f24E4b",
  "abi": [
    {
      "inputs": [
        {
          "internalType": "contract IVolatilityToken",
          "name": "_volatilityToken",
          "type": "address"
        },
        {
          "internalType": "contract IUniswapV2Pair[]",
          "name": "_uniswapPairs",
          "type": "address[]"
        }
      ],
      "stateMutability": "nonpayable",
      "type": "constructor"
    },
    {
      "anonymous": false,
      "inputs": [
        {
          "indexed": true,
          "internalType": "address",
          "name": "previousOwner",
          "type": "address"
        },
        {
          "indexed": true,
          "internalType": "address",
          "name": "newOwner",
          "type": "address"
        }
      ],
      "name": "OwnershipTransferred",
      "type": "event"
    },
    {
      "inputs": [
        {
          "internalType": "bytes",
          "name": "",
          "type": "bytes"
        }
      ],
      "name": "checkUpkeep",
      "outputs": [
        {
          "internalType": "bool",
          "name": "upkeepNeeded",
          "type": "bool"
        },
        {
          "internalType": "bytes",
          "name": "performData",
          "type": "bytes"
        }
      ],
      "stateMutability": "view",
      "type": "function"
    },
    {
      "inputs": [],
      "name": "enableWhitelist",
      "outputs": [
        {
          "internalType": "bool",
          "name": "",
          "type": "bool"
        }
      ],
      "stateMutability": "view",
      "type": "function"
    },
    {
      "inputs": [],
      "name": "lastUpkeepTime",
      "outputs": [
        {
          "internalType": "uint256",
          "name": "",
          "type": "uint256"
        }
      ],
      "stateMutability": "view",
      "type": "function"
    },
    {
      "inputs": [],
      "name": "owner",
      "outputs": [
        {
          "internalType": "address",
          "name": "",
          "type": "address"
        }
      ],
      "stateMutability": "view",
      "type": "function"
    },
    {
      "inputs": [
        {
          "internalType": "uint256",
          "name": "",
          "type": "uint256"
        }
      ],
      "name": "pairs",
      "outputs": [
        {
          "internalType": "contract IUniswapV2Pair",
          "name": "",
          "type": "address"
        }
      ],
      "stateMutability": "view",
      "type": "function"
    },
    {
      "inputs": [
        {
          "internalType": "bytes",
          "name": "",
          "type": "bytes"
        }
      ],
      "name": "performUpkeep",
      "outputs": [],
      "stateMutability": "nonpayable",
      "type": "function"
    },
    {
      "inputs": [],
      "name": "rebase",
      "outputs": [],
      "stateMutability": "nonpayable",
      "type": "function"
    },
    {
      "inputs": [
        {
          "internalType": "address",
          "name": "",
          "type": "address"
        }
      ],
      "name": "rebasers",
      "outputs": [
        {
          "internalType": "bool",
          "name": "",
          "type": "bool"
        }
      ],
      "stateMutability": "view",
      "type": "function"
    },
    {
      "inputs": [],
      "name": "renounceOwnership",
      "outputs": [],
      "stateMutability": "nonpayable",
      "type": "function"
    },
    {
      "inputs": [
        {
          "internalType": "bool",
          "name": "_enableWhitelist",
          "type": "bool"
        }
      ],
      "name": "setEnableWhitelist",
      "outputs": [],
      "stateMutability": "nonpayable",
      "type": "function"
    },
    {
      "inputs": [
        {
          "internalType": "address",
          "name": "user",
          "type": "address"
        },
        {
          "internalType": "bool",
          "name": "isAllowed",
          "type": "bool"
        }
      ],
      "name": "setRebaserAddress",
      "outputs": [],
      "stateMutability": "nonpayable",
      "type": "function"
    },
    {
      "inputs": [
        {
          "internalType": "contract IUniswapV2Pair[]",
          "name": "_uniswapPairs",
          "type": "address[]"
        }
      ],
      "name": "setUniswapPairs",
      "outputs": [],
      "stateMutability": "nonpayable",
      "type": "function"
    },
    {
      "inputs": [
        {
          "internalType": "uint32",
          "name": "_upkeepInterval",
          "type": "uint32"
        }
      ],
      "name": "setUpkeepInterval",
      "outputs": [],
      "stateMutability": "nonpayable",
      "type": "function"
    },
    {
      "inputs": [
        {
          "internalType": "uint32",
          "name": "_upkeepTimeWindow",
          "type": "uint32"
        }
      ],
      "name": "setUpkeepTimeWindow",
      "outputs": [],
      "stateMutability": "nonpayable",
      "type": "function"
    },
    {
      "inputs": [
        {
          "internalType": "contract IVolatilityToken",
          "name": "_volatilityToken",
          "type": "address"
        }
      ],
      "name": "setVolatilityToken",
      "outputs": [],
      "stateMutability": "nonpayable",
      "type": "function"
    },
    {
      "inputs": [
        {
          "internalType": "address",
          "name": "newOwner",
          "type": "address"
        }
      ],
      "name": "transferOwnership",
      "outputs": [],
      "stateMutability": "nonpayable",
      "type": "function"
    },
    {
      "inputs": [],
      "name": "upkeepInterval",
      "outputs": [
        {
          "internalType": "uint32",
          "name": "",
          "type": "uint32"
        }
      ],
      "stateMutability": "view",
      "type": "function"
    },
    {
      "inputs": [],
      "name": "upkeepTimeWindow",
      "outputs": [
        {
          "internalType": "uint32",
          "name": "",
          "type": "uint32"
        }
      ],
      "stateMutability": "view",
      "type": "function"
    },
    {
      "inputs": [],
      "name": "volatilityToken",
      "outputs": [
        {
          "internalType": "contract IVolatilityToken",
          "name": "",
          "type": "address"
        }
      ],
      "stateMutability": "view",
      "type": "function"
    }
  ],
  "transactionHash": "0x42244d10e6820c8763594937a977c303236342306752b20204d91414291b17b3",
  "args": [
    "0x8096aD3107715747361acefE685943bFB427C722",
    [
      "0xeDE0CE8cdc65bcF6422f3Afb9d7cDb3e59C09658"
    ]
  ],
  "numDeployments": 1,
  "solcInputHash": "8d836039a3333aa7ff1a69dee5a5f235",
  "bytecode": "0x6080604052600480546001600160481b031916680100000384000151801790553480156200002c57600080fd5b5060405162001050380380620010508339810160408190526200004f916200019c565b81816200005c33620000b9565b600180546001600160a01b0319166001600160a01b03841617905580516200008c90600290602084019062000109565b506200009c620151804262000289565b620000ab9062015180620002aa565b600355506200030592505050565b600080546001600160a01b038381166001600160a01b0319831681178455604051919092169283917f8be0079c531659141344cd1fd0a4f28419497f9722a3daafe3b4186f6b6457e09190a35050565b82805482825590600052602060002090810192821562000161579160200282015b828111156200016157825182546001600160a01b0319166001600160a01b039091161782556020909201916001909101906200012a565b506200016f92915062000173565b5090565b5b808211156200016f576000815560010162000174565b80516200019781620002ec565b919050565b60008060408385031215620001af578182fd5b8251620001bc81620002ec565b602084810151919350906001600160401b0380821115620001db578384fd5b818601915086601f830112620001ef578384fd5b815181811115620002045762000204620002d6565b8060051b604051601f19603f830116810181811085821117156200022c576200022c620002d6565b604052828152858101935084860182860187018b10156200024b578788fd5b8795505b83861015620002785762000263816200018a565b8552600195909501949386019386016200024f565b508096505050505050509250929050565b600082620002a557634e487b7160e01b81526012600452602481fd5b500490565b6000816000190483118215151615620002d157634e487b7160e01b81526011600452602481fd5b500290565b634e487b7160e01b600052604160045260246000fd5b6001600160a01b03811681146200030257600080fd5b50565b610d3b80620003156000396000f3fe608060405234801561001057600080fd5b50600436106101215760003560e01c806398dfadab116100ad578063d338680911610071578063d338680914610274578063e2dbc0e71461028b578063f2fde38b146102a3578063f372b42a146102b6578063fc3db54e146102c957600080fd5b806398dfadab146101ff578063abd5b18114610212578063af14052c14610245578063b91ac7881461024d578063cdfb2b4e1461026057600080fd5b806378f9ccf2116100f457806378f9ccf21461018e578063817d6ae2146101a157806386a2b61e146101b45780638da5cb5b146101c757806395064101146101ec57600080fd5b80634585e33b146101265780635a74373c1461013b5780636e04ff0d14610165578063715018a614610186575b600080fd5b610139610134366004610b1b565b6102dc565b005b60045461014b9063ffffffff1681565b60405163ffffffff90911681526020015b60405180910390f35b610178610173366004610b1b565b6103c4565b60405161015c929190610bb2565b6101396103d9565b61013961019c366004610b01565b61040f565b6101396101af366004610a5d565b61045c565b6101396101c2366004610b8e565b6104b1565b6000546001600160a01b03165b6040516001600160a01b03909116815260200161015c565b6001546101d4906001600160a01b031681565b61013961020d366004610a91565b6104f7565b610235610220366004610a3a565b60056020526000908152604090205460ff1681565b604051901515815260200161015c565b610139610532565b6101d461025b366004610b76565b6107b4565b60045461023590600160401b900460ff1681565b61027d60035481565b60405190815260200161015c565b60045461014b90640100000000900463ffffffff1681565b6101396102b1366004610a3a565b6107de565b6101396102c4366004610a3a565b610876565b6101396102d7366004610b8e565b6108c2565b600454600160401b900460ff16158061030457503360009081526005602052604090205460ff165b6103555760405162461bcd60e51b815260206004820152601a60248201527f57686974656c697374656420616464726573736573206f6e6c7900000000000060448201526064015b60405180910390fd5b61035d610914565b61039b5760405162461bcd60e51b815260206004820152600f60248201526e4261642074696d652077696e646f7760881b604482015260640161034c565b6103a86201518042610c44565b6103b59062015180610c58565b6003556103c0610532565b5050565b600060606103d0610914565b91509250929050565b6000546001600160a01b031633146104035760405162461bcd60e51b815260040161034c90610c0f565b61040d600061095d565b565b6000546001600160a01b031633146104395760405162461bcd60e51b815260040161034c90610c0f565b60048054911515600160401b0268ff000000000000000019909216919091179055565b6000546001600160a01b031633146104865760405162461bcd60e51b815260040161034c90610c0f565b6001600160a01b03919091166000908152600560205260409020805460ff1916911515919091179055565b6000546001600160a01b031633146104db5760405162461bcd60e51b815260040161034c90610c0f565b6004805463ffffffff191663ffffffff92909216919091179055565b6000546001600160a01b031633146105215760405162461bcd60e51b815260040161034c90610c0f565b61052d600283836109ad565b505050565b600454600160401b900460ff16158061055a57503360009081526005602052604090205460ff165b6105a65760405162461bcd60e51b815260206004820152601a60248201527f57686974656c697374656420616464726573736573206f6e6c79000000000000604482015260640161034c565b6001546001600160a01b03166105f55760405162461bcd60e51b815260206004820152601460248201527329b2ba103b37b630ba34b634ba3c903a37b5b2b760611b604482015260640161034c565b600454640100000000900463ffffffff166106136201518042610cb0565b11156106535760405162461bcd60e51b815260206004820152600f60248201526e4261642074696d652077696e646f7760881b604482015260640161034c565b600160009054906101000a90046001600160a01b03166001600160a01b031663cf6caff36040518163ffffffff1660e01b8152600401600060405180830381600087803b1580156106a357600080fd5b505af11580156106b7573d6000803e3d6000fd5b5050505060005b60025461ffff821610156107b15760006001600160a01b031660028261ffff16815481106106fc57634e487b7160e01b600052603260045260246000fd5b6000918252602090912001546001600160a01b03161461079f5760028161ffff168154811061073b57634e487b7160e01b600052603260045260246000fd5b60009182526020822001546040805160016209351760e01b0319815290516001600160a01b039092169263fff6cae99260048084019382900301818387803b15801561078657600080fd5b505af115801561079a573d6000803e3d6000fd5b505050505b806107a981610c8e565b9150506106be565b50565b600281815481106107c457600080fd5b6000918252602090912001546001600160a01b0316905081565b6000546001600160a01b031633146108085760405162461bcd60e51b815260040161034c90610c0f565b6001600160a01b03811661086d5760405162461bcd60e51b815260206004820152602660248201527f4f776e61626c653a206e6577206f776e657220697320746865207a65726f206160448201526564647265737360d01b606482015260840161034c565b6107b18161095d565b6000546001600160a01b031633146108a05760405162461bcd60e51b815260040161034c90610c0f565b600180546001600160a01b0319166001600160a01b0392909216919091179055565b6000546001600160a01b031633146108ec5760405162461bcd60e51b815260040161034c90610c0f565b6004805463ffffffff9092166401000000000267ffffffff0000000019909216919091179055565b60045460035460009163ffffffff169061092e9042610c77565b101580156109585750600454640100000000900463ffffffff166109556201518042610cb0565b11155b905090565b600080546001600160a01b038381166001600160a01b0319831681178455604051919092169283917f8be0079c531659141344cd1fd0a4f28419497f9722a3daafe3b4186f6b6457e09190a35050565b828054828255906000526020600020908101928215610a00579160200282015b82811115610a005781546001600160a01b0319166001600160a01b038435161782556020909201916001909101906109cd565b50610a0c929150610a10565b5090565b5b80821115610a0c5760008155600101610a11565b80358015158114610a3557600080fd5b919050565b600060208284031215610a4b578081fd5b8135610a5681610cf0565b9392505050565b60008060408385031215610a6f578081fd5b8235610a7a81610cf0565b9150610a8860208401610a25565b90509250929050565b60008060208385031215610aa3578182fd5b823567ffffffffffffffff80821115610aba578384fd5b818501915085601f830112610acd578384fd5b813581811115610adb578485fd5b8660208260051b8501011115610aef578485fd5b60209290920196919550909350505050565b600060208284031215610b12578081fd5b610a5682610a25565b60008060208385031215610b2d578182fd5b823567ffffffffffffffff80821115610b44578384fd5b818501915085601f830112610b57578384fd5b813581811115610b65578485fd5b866020828501011115610aef578485fd5b600060208284031215610b87578081fd5b5035919050565b600060208284031215610b9f578081fd5b813563ffffffff81168114610a56578182fd5b8215158152600060206040818401528351806040850152825b81811015610be757858101830151858201606001528201610bcb565b81811115610bf85783606083870101525b50601f01601f191692909201606001949350505050565b6020808252818101527f4f776e61626c653a2063616c6c6572206973206e6f7420746865206f776e6572604082015260600190565b600082610c5357610c53610cda565b500490565b6000816000190483118215151615610c7257610c72610cc4565b500290565b600082821015610c8957610c89610cc4565b500390565b600061ffff80831681811415610ca657610ca6610cc4565b6001019392505050565b600082610cbf57610cbf610cda565b500690565b634e487b7160e01b600052601160045260246000fd5b634e487b7160e01b600052601260045260246000fd5b6001600160a01b03811681146107b157600080fdfea2646970667358221220a1901c3ee64357285274f055bc718b9ea3a90e48cb35bf10bff48eddf76837ca64736f6c63430008040033",
  "devdoc": {
    "kind": "dev",
    "methods": {
      "owner()": {
        "details": "Returns the address of the current owner."
      },
      "renounceOwnership()": {
        "details": "Leaves the contract without owner. It will not be possible to call `onlyOwner` functions anymore. Can only be called by the current owner. NOTE: Renouncing ownership will leave the contract without an owner, thereby removing any functionality that is only available to the owner."
      },
      "transferOwnership(address)": {
        "details": "Transfers ownership of the contract to a new account (`newOwner`). Can only be called by the current owner."
      }
    },
    "version": 1
  },
  "userdoc": {
    "kind": "user",
    "methods": {},
    "version": 1
  },
  "storageLayout": {
    "storage": [
      {
        "astId": 37156,
        "contract": "contracts/volatility-token/RebaserContracts.sol:CVIUSDCRebaser",
        "label": "_owner",
        "offset": 0,
        "slot": "0",
        "type": "t_address"
      },
      {
        "astId": 8685,
        "contract": "contracts/volatility-token/RebaserContracts.sol:CVIUSDCRebaser",
        "label": "volatilityToken",
        "offset": 0,
        "slot": "1",
        "type": "t_contract(IVolatilityToken)18697"
      },
      {
        "astId": 8689,
        "contract": "contracts/volatility-token/RebaserContracts.sol:CVIUSDCRebaser",
        "label": "pairs",
        "offset": 0,
        "slot": "2",
        "type": "t_array(t_contract(IUniswapV2Pair)15721)dyn_storage"
      },
      {
        "astId": 8691,
        "contract": "contracts/volatility-token/RebaserContracts.sol:CVIUSDCRebaser",
        "label": "lastUpkeepTime",
        "offset": 0,
        "slot": "3",
        "type": "t_uint256"
      },
      {
        "astId": 8694,
        "contract": "contracts/volatility-token/RebaserContracts.sol:CVIUSDCRebaser",
        "label": "upkeepInterval",
        "offset": 0,
        "slot": "4",
        "type": "t_uint32"
      },
      {
        "astId": 8697,
        "contract": "contracts/volatility-token/RebaserContracts.sol:CVIUSDCRebaser",
        "label": "upkeepTimeWindow",
        "offset": 4,
        "slot": "4",
        "type": "t_uint32"
      },
      {
        "astId": 8700,
        "contract": "contracts/volatility-token/RebaserContracts.sol:CVIUSDCRebaser",
        "label": "enableWhitelist",
        "offset": 8,
        "slot": "4",
        "type": "t_bool"
      },
      {
        "astId": 8704,
        "contract": "contracts/volatility-token/RebaserContracts.sol:CVIUSDCRebaser",
        "label": "rebasers",
        "offset": 0,
        "slot": "5",
        "type": "t_mapping(t_address,t_bool)"
      }
    ],
    "types": {
      "t_address": {
        "encoding": "inplace",
        "label": "address",
        "numberOfBytes": "20"
      },
      "t_array(t_contract(IUniswapV2Pair)15721)dyn_storage": {
        "base": "t_contract(IUniswapV2Pair)15721",
        "encoding": "dynamic_array",
        "label": "contract IUniswapV2Pair[]",
        "numberOfBytes": "32"
      },
      "t_bool": {
        "encoding": "inplace",
        "label": "bool",
        "numberOfBytes": "1"
      },
      "t_contract(IUniswapV2Pair)15721": {
        "encoding": "inplace",
        "label": "contract IUniswapV2Pair",
        "numberOfBytes": "20"
      },
      "t_contract(IVolatilityToken)18697": {
        "encoding": "inplace",
        "label": "contract IVolatilityToken",
        "numberOfBytes": "20"
      },
      "t_mapping(t_address,t_bool)": {
        "encoding": "mapping",
        "key": "t_address",
        "label": "mapping(address => bool)",
        "numberOfBytes": "32",
        "value": "t_bool"
      },
      "t_uint256": {
        "encoding": "inplace",
        "label": "uint256",
        "numberOfBytes": "32"
      },
      "t_uint32": {
        "encoding": "inplace",
        "label": "uint32",
        "numberOfBytes": "4"
      }
    }
  }
}