{
  "address": "0x569724E2Ef84aa42a06f86F51aAC75d813B90B2F",
  "abi": [
    {
      "inputs": [],
      "stateMutability": "nonpayable",
      "type": "constructor"
    },
    {
      "anonymous": false,
      "inputs": [
        {
          "indexed": true,
          "internalType": "address",
          "name": "owner",
          "type": "address"
        },
        {
          "indexed": true,
          "internalType": "address",
          "name": "spender",
          "type": "address"
        },
        {
          "indexed": false,
          "internalType": "uint256",
          "name": "value",
          "type": "uint256"
        }
      ],
      "name": "Approval",
      "type": "event"
    },
    {
      "anonymous": false,
      "inputs": [
        {
          "indexed": false,
          "internalType": "uint256",
          "name": "requestId",
          "type": "uint256"
        },
        {
          "indexed": true,
          "internalType": "address",
          "name": "account",
          "type": "address"
        },
        {
          "indexed": false,
          "internalType": "uint256",
          "name": "totalUSDCAmount",
          "type": "uint256"
        },
        {
          "indexed": false,
          "internalType": "uint256",
          "name": "platformLiquidityAmount",
          "type": "uint256"
        },
        {
          "indexed": false,
          "internalType": "uint256",
          "name": "dexVolTokenUSDCAmount",
          "type": "uint256"
        },
        {
          "indexed": false,
          "internalType": "uint256",
          "name": "dexVolTokenAmount",
          "type": "uint256"
        },
        {
          "indexed": false,
          "internalType": "uint256",
          "name": "dexUSDCAmount",
          "type": "uint256"
        },
        {
          "indexed": false,
          "internalType": "uint256",
          "name": "mintedThetaTokens",
          "type": "uint256"
        }
      ],
      "name": "FulfillDeposit",
      "type": "event"
    },
    {
      "anonymous": false,
      "inputs": [
        {
          "indexed": false,
          "internalType": "uint256",
          "name": "requestId",
          "type": "uint256"
        },
        {
          "indexed": true,
          "internalType": "address",
          "name": "account",
          "type": "address"
        },
        {
          "indexed": false,
          "internalType": "uint256",
          "name": "totalUSDCAmount",
          "type": "uint256"
        },
        {
          "indexed": false,
          "internalType": "uint256",
          "name": "platformLiquidityAmount",
          "type": "uint256"
        },
        {
          "indexed": false,
          "internalType": "uint256",
          "name": "dexVolTokenAmount",
          "type": "uint256"
        },
        {
          "indexed": false,
          "internalType": "uint256",
          "name": "dexUSDCVolTokenAmount",
          "type": "uint256"
        },
        {
          "indexed": false,
          "internalType": "uint256",
          "name": "dexUSDCAmount",
          "type": "uint256"
        },
        {
          "indexed": false,
          "internalType": "uint256",
          "name": "burnedThetaTokens",
          "type": "uint256"
        }
      ],
      "name": "FulfillWithdraw",
      "type": "event"
    },
    {
      "anonymous": false,
      "inputs": [
        {
          "indexed": false,
          "internalType": "uint8",
          "name": "version",
          "type": "uint8"
        }
      ],
      "name": "Initialized",
      "type": "event"
    },
    {
      "anonymous": false,
      "inputs": [
        {
          "indexed": false,
          "internalType": "uint256",
          "name": "requestId",
          "type": "uint256"
        },
        {
          "indexed": false,
          "internalType": "uint8",
          "name": "requestType",
          "type": "uint8"
        },
        {
          "indexed": true,
          "internalType": "address",
          "name": "account",
          "type": "address"
        },
        {
          "indexed": true,
          "internalType": "address",
          "name": "liquidator",
          "type": "address"
        },
        {
          "indexed": false,
          "internalType": "uint256",
          "name": "tokenAmount",
          "type": "uint256"
        }
      ],
      "name": "LiquidateRequest",
      "type": "event"
    },
    {
      "anonymous": false,
      "inputs": [
        {
          "indexed": true,
          "internalType": "address",
          "name": "previousOwner",
          "type": "address"
        },
        {
          "indexed": true,
          "internalType": "address",
          "name": "newOwner",
          "type": "address"
        }
      ],
      "name": "OwnershipTransferred",
      "type": "event"
    },
    {
      "anonymous": false,
      "inputs": [
        {
          "indexed": false,
          "internalType": "uint256",
          "name": "requestId",
          "type": "uint256"
        },
        {
          "indexed": false,
          "internalType": "uint8",
          "name": "requestType",
          "type": "uint8"
        },
        {
          "indexed": false,
          "internalType": "uint256",
          "name": "tokenAmount",
          "type": "uint256"
        },
        {
          "indexed": false,
          "internalType": "uint32",
          "name": "targetTimestamp",
          "type": "uint32"
        },
        {
          "indexed": true,
          "internalType": "address",
          "name": "account",
          "type": "address"
        },
        {
          "indexed": false,
          "internalType": "uint256",
          "name": "totalUSDCBalance",
          "type": "uint256"
        },
        {
          "indexed": false,
          "internalType": "uint256",
          "name": "totalSupply",
          "type": "uint256"
        }
      ],
      "name": "SubmitRequest",
      "type": "event"
    },
    {
      "anonymous": false,
      "inputs": [
        {
          "indexed": true,
          "internalType": "address",
          "name": "from",
          "type": "address"
        },
        {
          "indexed": true,
          "internalType": "address",
          "name": "to",
          "type": "address"
        },
        {
          "indexed": false,
          "internalType": "uint256",
          "name": "value",
          "type": "uint256"
        }
      ],
      "name": "Transfer",
      "type": "event"
    },
    {
      "inputs": [],
      "name": "DEPOSIT_REQUEST_TYPE",
      "outputs": [
        {
          "internalType": "uint8",
          "name": "",
          "type": "uint8"
        }
      ],
      "stateMutability": "view",
      "type": "function"
    },
    {
      "inputs": [],
      "name": "MAX_PERCENTAGE",
      "outputs": [
        {
          "internalType": "uint16",
          "name": "",
          "type": "uint16"
        }
      ],
      "stateMutability": "view",
      "type": "function"
    },
    {
      "inputs": [],
      "name": "PRECISION_DECIMALS",
      "outputs": [
        {
          "internalType": "uint256",
          "name": "",
          "type": "uint256"
        }
      ],
      "stateMutability": "view",
      "type": "function"
    },
    {
      "inputs": [],
      "name": "UNISWAP_REMOVE_MAX_FEE_PERCENTAGE",
      "outputs": [
        {
          "internalType": "uint16",
          "name": "",
          "type": "uint16"
        }
      ],
      "stateMutability": "view",
      "type": "function"
    },
    {
      "inputs": [],
      "name": "WITHDRAW_REQUEST_TYPE",
      "outputs": [
        {
          "internalType": "uint8",
          "name": "",
          "type": "uint8"
        }
      ],
      "stateMutability": "view",
      "type": "function"
    },
    {
      "inputs": [
        {
          "internalType": "address",
          "name": "owner",
          "type": "address"
        },
        {
          "internalType": "address",
          "name": "spender",
          "type": "address"
        }
      ],
      "name": "allowance",
      "outputs": [
        {
          "internalType": "uint256",
          "name": "",
          "type": "uint256"
        }
      ],
      "stateMutability": "view",
      "type": "function"
    },
    {
      "inputs": [
        {
          "internalType": "address",
          "name": "spender",
          "type": "address"
        },
        {
          "internalType": "uint256",
          "name": "amount",
          "type": "uint256"
        }
      ],
      "name": "approve",
      "outputs": [
        {
          "internalType": "bool",
          "name": "",
          "type": "bool"
        }
      ],
      "stateMutability": "nonpayable",
      "type": "function"
    },
    {
      "inputs": [
        {
          "internalType": "address",
          "name": "account",
          "type": "address"
        }
      ],
      "name": "balanceOf",
      "outputs": [
        {
          "internalType": "uint256",
          "name": "",
          "type": "uint256"
        }
      ],
      "stateMutability": "view",
      "type": "function"
    },
    {
      "inputs": [],
      "name": "decimals",
      "outputs": [
        {
          "internalType": "uint8",
          "name": "",
          "type": "uint8"
        }
      ],
      "stateMutability": "view",
      "type": "function"
    },
    {
      "inputs": [
        {
          "internalType": "address",
          "name": "spender",
          "type": "address"
        },
        {
          "internalType": "uint256",
          "name": "subtractedValue",
          "type": "uint256"
        }
      ],
      "name": "decreaseAllowance",
      "outputs": [
        {
          "internalType": "bool",
          "name": "",
          "type": "bool"
        }
      ],
      "stateMutability": "nonpayable",
      "type": "function"
    },
    {
      "inputs": [],
      "name": "depositCap",
      "outputs": [
        {
          "internalType": "uint256",
          "name": "",
          "type": "uint256"
        }
      ],
      "stateMutability": "view",
      "type": "function"
    },
    {
      "inputs": [],
      "name": "depositHoldingsPercentage",
      "outputs": [
        {
          "internalType": "uint16",
          "name": "",
          "type": "uint16"
        }
      ],
      "stateMutability": "view",
      "type": "function"
    },
    {
      "inputs": [],
      "name": "extraLiqidityPercentage",
      "outputs": [
        {
          "internalType": "uint16",
          "name": "",
          "type": "uint16"
        }
      ],
      "stateMutability": "view",
      "type": "function"
    },
    {
      "inputs": [
        {
          "internalType": "uint256",
          "name": "_requestId",
          "type": "uint256"
        }
      ],
      "name": "fulfillDepositRequest",
      "outputs": [
        {
          "internalType": "uint256",
          "name": "thetaTokensMinted",
          "type": "uint256"
        }
      ],
      "stateMutability": "nonpayable",
      "type": "function"
    },
    {
      "inputs": [
        {
          "internalType": "uint256",
          "name": "_requestId",
          "type": "uint256"
        }
      ],
      "name": "fulfillWithdrawRequest",
      "outputs": [
        {
          "internalType": "uint256",
          "name": "tokenWithdrawnAmount",
          "type": "uint256"
        }
      ],
      "stateMutability": "nonpayable",
      "type": "function"
    },
    {
      "inputs": [],
      "name": "fulfiller",
      "outputs": [
        {
          "internalType": "address",
          "name": "",
          "type": "address"
        }
      ],
      "stateMutability": "view",
      "type": "function"
    },
    {
      "inputs": [],
      "name": "getReserves",
      "outputs": [
        {
          "internalType": "uint256",
          "name": "volTokenAmount",
          "type": "uint256"
        },
        {
          "internalType": "uint256",
          "name": "usdcAmount",
          "type": "uint256"
        }
      ],
      "stateMutability": "view",
      "type": "function"
    },
    {
      "inputs": [
        {
          "internalType": "address",
          "name": "spender",
          "type": "address"
        },
        {
          "internalType": "uint256",
          "name": "addedValue",
          "type": "uint256"
        }
      ],
      "name": "increaseAllowance",
      "outputs": [
        {
          "internalType": "bool",
          "name": "",
          "type": "bool"
        }
      ],
      "stateMutability": "nonpayable",
      "type": "function"
    },
    {
      "inputs": [],
      "name": "initialTokenToThetaTokenRate",
      "outputs": [
        {
          "internalType": "uint256",
          "name": "",
          "type": "uint256"
        }
      ],
      "stateMutability": "view",
      "type": "function"
    },
    {
      "inputs": [
        {
          "internalType": "uint256",
          "name": "_initialTokenToThetaTokenRate",
          "type": "uint256"
        },
        {
          "internalType": "contract IPlatform",
          "name": "_platform",
          "type": "address"
        },
        {
          "internalType": "contract IVolatilityToken",
          "name": "_volToken",
          "type": "address"
        },
        {
          "internalType": "contract IRewardRouter",
          "name": "_rewardRouter",
          "type": "address"
        },
        {
          "internalType": "contract IERC20Upgradeable",
          "name": "_token",
          "type": "address"
        },
        {
          "internalType": "contract IUniswapV2Router02",
          "name": "_router",
          "type": "address"
        },
        {
          "internalType": "string",
          "name": "_lpTokenName",
          "type": "string"
        },
        {
          "internalType": "string",
          "name": "_lpTokenSymbolName",
          "type": "string"
        }
      ],
      "name": "initialize",
      "outputs": [],
      "stateMutability": "nonpayable",
      "type": "function"
    },
    {
      "inputs": [
        {
          "internalType": "address",
          "name": "",
          "type": "address"
        }
      ],
      "name": "lastDepositTimestamp",
      "outputs": [
        {
          "internalType": "uint256",
          "name": "",
          "type": "uint256"
        }
      ],
      "stateMutability": "view",
      "type": "function"
    },
    {
      "inputs": [
        {
          "internalType": "uint256",
          "name": "_requestId",
          "type": "uint256"
        }
      ],
      "name": "liquidateRequest",
      "outputs": [],
      "stateMutability": "nonpayable",
      "type": "function"
    },
    {
      "inputs": [],
      "name": "liquidationPeriod",
      "outputs": [
        {
          "internalType": "uint256",
          "name": "",
          "type": "uint256"
        }
      ],
      "stateMutability": "view",
      "type": "function"
    },
    {
      "inputs": [],
      "name": "lockupPeriod",
      "outputs": [
        {
          "internalType": "uint256",
          "name": "",
          "type": "uint256"
        }
      ],
      "stateMutability": "view",
      "type": "function"
    },
    {
      "inputs": [],
      "name": "maxMinRequestIncrements",
      "outputs": [
        {
          "internalType": "uint256",
          "name": "",
          "type": "uint256"
        }
      ],
      "stateMutability": "view",
      "type": "function"
    },
    {
      "inputs": [],
      "name": "minDepositAmount",
      "outputs": [
        {
          "internalType": "uint256",
          "name": "",
          "type": "uint256"
        }
      ],
      "stateMutability": "view",
      "type": "function"
    },
    {
      "inputs": [],
      "name": "minDexPercentageAllowed",
      "outputs": [
        {
          "internalType": "uint16",
          "name": "",
          "type": "uint16"
        }
      ],
      "stateMutability": "view",
      "type": "function"
    },
    {
      "inputs": [],
      "name": "minPoolSkewPercentage",
      "outputs": [
        {
          "internalType": "uint16",
          "name": "",
          "type": "uint16"
        }
      ],
      "stateMutability": "view",
      "type": "function"
    },
    {
      "inputs": [],
      "name": "minRequestId",
      "outputs": [
        {
          "internalType": "uint256",
          "name": "",
          "type": "uint256"
        }
      ],
      "stateMutability": "view",
      "type": "function"
    },
    {
      "inputs": [],
      "name": "minWithdrawAmount",
      "outputs": [
        {
          "internalType": "uint256",
          "name": "",
          "type": "uint256"
        }
      ],
      "stateMutability": "view",
      "type": "function"
    },
    {
      "inputs": [],
      "name": "name",
      "outputs": [
        {
          "internalType": "string",
          "name": "",
          "type": "string"
        }
      ],
      "stateMutability": "view",
      "type": "function"
    },
    {
      "inputs": [],
      "name": "nextRequestId",
      "outputs": [
        {
          "internalType": "uint256",
          "name": "",
          "type": "uint256"
        }
      ],
      "stateMutability": "view",
      "type": "function"
    },
    {
      "inputs": [],
      "name": "owner",
      "outputs": [
        {
          "internalType": "address",
          "name": "",
          "type": "address"
        }
      ],
      "stateMutability": "view",
      "type": "function"
    },
    {
      "inputs": [],
      "name": "platform",
      "outputs": [
        {
          "internalType": "contract IPlatform",
          "name": "",
          "type": "address"
        }
      ],
      "stateMutability": "view",
      "type": "function"
    },
    {
      "inputs": [],
      "name": "rebalance",
      "outputs": [],
      "stateMutability": "nonpayable",
      "type": "function"
    },
    {
      "inputs": [],
      "name": "renounceOwnership",
      "outputs": [],
      "stateMutability": "nonpayable",
      "type": "function"
    },
    {
      "inputs": [],
      "name": "requestDelay",
      "outputs": [
        {
          "internalType": "uint256",
          "name": "",
          "type": "uint256"
        }
      ],
      "stateMutability": "view",
      "type": "function"
    },
    {
      "inputs": [
        {
          "internalType": "uint256",
          "name": "",
          "type": "uint256"
        }
      ],
      "name": "requests",
      "outputs": [
        {
          "internalType": "uint8",
          "name": "requestType",
          "type": "uint8"
        },
        {
          "internalType": "uint168",
          "name": "tokenAmount",
          "type": "uint168"
        },
        {
          "internalType": "uint32",
          "name": "targetTimestamp",
          "type": "uint32"
        },
        {
          "internalType": "address",
          "name": "owner",
          "type": "address"
        },
        {
          "internalType": "bool",
          "name": "shouldStake",
          "type": "bool"
        }
      ],
      "stateMutability": "view",
      "type": "function"
    },
    {
      "inputs": [],
      "name": "rewardRouter",
      "outputs": [
        {
          "internalType": "contract IRewardRouter",
          "name": "",
          "type": "address"
        }
      ],
      "stateMutability": "view",
      "type": "function"
    },
    {
      "inputs": [],
      "name": "router",
      "outputs": [
        {
          "internalType": "contract IUniswapV2Router02",
          "name": "",
          "type": "address"
        }
      ],
      "stateMutability": "view",
      "type": "function"
    },
    {
      "inputs": [
        {
          "internalType": "uint256",
          "name": "_newDepositCap",
          "type": "uint256"
        }
      ],
      "name": "setDepositCap",
      "outputs": [],
      "stateMutability": "nonpayable",
      "type": "function"
    },
    {
      "inputs": [
        {
          "internalType": "uint16",
          "name": "_newDepositHoldingsPercentage",
          "type": "uint16"
        }
      ],
      "name": "setDepositHoldings",
      "outputs": [],
      "stateMutability": "nonpayable",
      "type": "function"
    },
    {
      "inputs": [
        {
          "internalType": "address",
          "name": "_newFulfiller",
          "type": "address"
        }
      ],
      "name": "setFulfiller",
      "outputs": [],
      "stateMutability": "nonpayable",
      "type": "function"
    },
    {
      "inputs": [
        {
          "internalType": "uint16",
          "name": "_newExtraLiquidityPercentage",
          "type": "uint16"
        },
        {
          "internalType": "uint16",
          "name": "_minDexPercentageAllowed",
          "type": "uint16"
        }
      ],
      "name": "setLiquidityPercentages",
      "outputs": [],
      "stateMutability": "nonpayable",
      "type": "function"
    },
    {
      "inputs": [
        {
          "internalType": "uint256",
          "name": "_newMinDepositAmount",
          "type": "uint256"
        },
        {
          "internalType": "uint256",
          "name": "_newMinWithdrawAmount",
          "type": "uint256"
        }
      ],
      "name": "setMinAmounts",
      "outputs": [],
      "stateMutability": "nonpayable",
      "type": "function"
    },
    {
      "inputs": [
        {
          "internalType": "uint16",
          "name": "_newMinPoolSkewPercentage",
          "type": "uint16"
        }
      ],
      "name": "setMinPoolSkew",
      "outputs": [],
      "stateMutability": "nonpayable",
      "type": "function"
    },
    {
      "inputs": [
        {
          "internalType": "uint256",
          "name": "_newLockupPeriod",
          "type": "uint256"
        },
        {
          "internalType": "uint256",
          "name": "_newLiquidationPeriod",
          "type": "uint256"
        }
      ],
      "name": "setPeriods",
      "outputs": [],
      "stateMutability": "nonpayable",
      "type": "function"
    },
    {
      "inputs": [
        {
          "internalType": "uint256",
          "name": "_newRequestDelay",
          "type": "uint256"
        }
      ],
      "name": "setRequestDelay",
      "outputs": [],
      "stateMutability": "nonpayable",
      "type": "function"
    },
    {
      "inputs": [
        {
          "internalType": "contract IRewardRouter",
          "name": "_rewardRouter",
          "type": "address"
        }
      ],
      "name": "setRewardRouter",
      "outputs": [],
      "stateMutability": "nonpayable",
      "type": "function"
    },
    {
      "inputs": [
        {
          "internalType": "uint168",
          "name": "_tokenAmount",
          "type": "uint168"
        }
      ],
      "name": "submitDepositRequest",
      "outputs": [
        {
          "internalType": "uint256",
          "name": "requestId",
          "type": "uint256"
        }
      ],
      "stateMutability": "nonpayable",
      "type": "function"
    },
    {
      "inputs": [
        {
          "internalType": "uint168",
          "name": "_thetaTokenAmount",
          "type": "uint168"
        }
      ],
      "name": "submitWithdrawRequest",
      "outputs": [
        {
          "internalType": "uint256",
          "name": "requestId",
          "type": "uint256"
        }
      ],
      "stateMutability": "nonpayable",
      "type": "function"
    },
    {
      "inputs": [],
      "name": "symbol",
      "outputs": [
        {
          "internalType": "string",
          "name": "",
          "type": "string"
        }
      ],
      "stateMutability": "view",
      "type": "function"
    },
    {
      "inputs": [],
      "name": "token",
      "outputs": [
        {
          "internalType": "contract IERC20Upgradeable",
          "name": "",
          "type": "address"
        }
      ],
      "stateMutability": "view",
      "type": "function"
    },
    {
      "inputs": [],
      "name": "totalBalance",
      "outputs": [
        {
          "internalType": "uint256",
          "name": "balance",
          "type": "uint256"
        },
        {
          "internalType": "uint256",
          "name": "usdcPlatformLiquidity",
          "type": "uint256"
        },
        {
          "internalType": "uint256",
          "name": "intrinsicDEXVolTokenBalance",
          "type": "uint256"
        },
        {
          "internalType": "uint256",
          "name": "volTokenPositionBalance",
          "type": "uint256"
        },
        {
          "internalType": "uint256",
          "name": "dexUSDCAmount",
          "type": "uint256"
        },
        {
          "internalType": "uint256",
          "name": "dexVolTokensAmount",
          "type": "uint256"
        }
      ],
      "stateMutability": "view",
      "type": "function"
    },
    {
      "inputs": [],
      "name": "totalDepositRequestsAmount",
      "outputs": [
        {
          "internalType": "uint256",
          "name": "",
          "type": "uint256"
        }
      ],
      "stateMutability": "view",
      "type": "function"
    },
    {
      "inputs": [],
      "name": "totalHoldingsAmount",
      "outputs": [
        {
          "internalType": "uint256",
          "name": "",
          "type": "uint256"
        }
      ],
      "stateMutability": "view",
      "type": "function"
    },
    {
      "inputs": [],
      "name": "totalSupply",
      "outputs": [
        {
          "internalType": "uint256",
          "name": "",
          "type": "uint256"
        }
      ],
      "stateMutability": "view",
      "type": "function"
    },
    {
      "inputs": [],
      "name": "totalVaultLeveragedAmount",
      "outputs": [
        {
          "internalType": "uint256",
          "name": "",
          "type": "uint256"
        }
      ],
      "stateMutability": "view",
      "type": "function"
    },
    {
      "inputs": [
        {
          "internalType": "address",
          "name": "to",
          "type": "address"
        },
        {
          "internalType": "uint256",
          "name": "amount",
          "type": "uint256"
        }
      ],
      "name": "transfer",
      "outputs": [
        {
          "internalType": "bool",
          "name": "",
          "type": "bool"
        }
      ],
      "stateMutability": "nonpayable",
      "type": "function"
    },
    {
      "inputs": [
        {
          "internalType": "address",
          "name": "from",
          "type": "address"
        },
        {
          "internalType": "address",
          "name": "to",
          "type": "address"
        },
        {
          "internalType": "uint256",
          "name": "amount",
          "type": "uint256"
        }
      ],
      "name": "transferFrom",
      "outputs": [
        {
          "internalType": "bool",
          "name": "",
          "type": "bool"
        }
      ],
      "stateMutability": "nonpayable",
      "type": "function"
    },
    {
      "inputs": [
        {
          "internalType": "address",
          "name": "newOwner",
          "type": "address"
        }
      ],
      "name": "transferOwnership",
      "outputs": [],
      "stateMutability": "nonpayable",
      "type": "function"
    },
    {
      "inputs": [],
      "name": "vaultPositionUnits",
      "outputs": [
        {
          "internalType": "uint256",
          "name": "",
          "type": "uint256"
        }
      ],
      "stateMutability": "view",
      "type": "function"
    },
    {
      "inputs": [],
      "name": "volToken",
      "outputs": [
        {
          "internalType": "contract IVolatilityToken",
          "name": "",
          "type": "address"
        }
      ],
      "stateMutability": "view",
      "type": "function"
    }
  ],
  "transactionHash": "0x5f2e72b10e1f877984c0b0c6e0dc9faeb46e9958dbdedd51bb50235073dd7cf8",
  "args": [],
  "numDeployments": 3,
  "solcInputHash": "bb48d386e0055c830c90e368ac7a790f",
  "bytecode": "0x608060405234801561001057600080fd5b506156bf80620000216000396000f3fe608060405234801561001057600080fd5b50600436106103c55760003560e01c806380b4ec9f116101ff578063ad7a672f1161011a578063e5f2eb5f116100ad578063f2fde38b1161007c578063f2fde38b146108b1578063f4b86023146108c4578063f887ea40146108d7578063fc0c546a146108ea57600080fd5b8063e5f2eb5f14610874578063ecd169ae14610887578063ee947a7c14610895578063f21d5bbf1461089e57600080fd5b8063dbd5edc7116100e9578063dbd5edc714610832578063dd62ed3e1461083b578063e1be525d1461084e578063e239e3f81461086157600080fd5b8063ad7a672f146107ce578063af03d9e114610803578063c3c9677214610816578063c98ece901461081f57600080fd5b806398ec20e511610192578063a457c2d711610161578063a457c2d714610796578063a5cfa15c146107a9578063a6eea7f3146107b2578063a9059cbb146107bb57600080fd5b806398ec20e5146107695780639a91ee1e146107715780639c6e009c14610784578063a08102161461078d57600080fd5b80638da5cb5b116101ce5780638da5cb5b1461071357806395d89b41146107245780639673fc4b14610748578063977b91d71461075657600080fd5b806380b4ec9f1461063357806381d12c581461064657806386651203146106ed5780638bf92bbe1461070057600080fd5b80634c255c97116102ef5780636a84a9851161028257806376b27f331161025157806376b27f33146105fb57806379a81656146106045780637b5d6fe3146106175780637d7c2a1c1461062b57600080fd5b80636a84a985146105ae57806370a08231146105b7578063715018a6146105e0578063767ac369146105e857600080fd5b806361176a0e116102be57806361176a0e14610569578063645006ca1461057c578063655d8dec1461058557806368378f86146105a557600080fd5b80634c255c97146105315780635a3bb9891461053a57806360e3fb6c1461055557806360ebfee61461055d57600080fd5b8063313ce567116103675780633e9bc3c9116103365780633e9bc3c9146104ed5780634568b3b1146104f5578063457e1a49146104fd5780634bde38c81461050657600080fd5b8063313ce5671461049d578063342273e4146104b257806339509351146104c55780633d43ef57146104d857600080fd5b80630cd34787116103a35780630cd347871461044457806318160ddd1461045b57806323b872dd14610463578063293d09151461047657600080fd5b806306fdde03146103ca5780630902f1ac14610404578063095ea7b314610421575b600080fd5b60408051808201909152600c81526b0546865746120435649204c560a41b60208201525b6040516103fb9190615256565b60405180910390f35b61040c6108fd565b604080519283526020830191909152016103fb565b61043461042f366004614d74565b6109c0565b60405190151581526020016103fb565b61044d60d15481565b6040519081526020016103fb565b60675461044d565b610434610471366004614d34565b6109da565b60d45461048a9062010000900461ffff1681565b60405161ffff90911681526020016103fb565b60125b60405160ff90911681526020016103fb565b61044d6104c0366004614ebd565b610a00565b6104346104d3366004614d74565b610a5b565b6104eb6104e63660046150c9565b610a7d565b005b6104a0600181565b61044d610ab2565b61044d60dc5481565b60cb54610519906001600160a01b031681565b6040516001600160a01b0390911681526020016103fb565b61048a61271081565b60de546105199064010000000090046001600160a01b031681565b6104a0600281565b61044d6402540be40081565b60cc54610519906001600160a01b031681565b61044d60db5481565b61044d610593366004614cc4565b60d06020526000908152604090205481565b61044d60d65481565b61044d60ce5481565b61044d6105c5366004614cc4565b6001600160a01b031660009081526065602052604090205490565b6104eb610e0f565b6104eb6105f63660046150c9565b610e45565b61044d60d95481565b6104eb610612366004614ea3565b610e7a565b60de5461048a9062010000900461ffff1681565b6104eb610ebc565b6104eb610641366004614f71565b610ef4565b6106a4610654366004614f71565b60cf602052600090815260409020805460019091015460ff8083169261010081046001600160a81b031692600160b01b90910463ffffffff16916001600160a01b03821691600160a01b90041685565b6040805160ff90961686526001600160a81b03909416602086015263ffffffff909216928401929092526001600160a01b0390911660608301521515608082015260a0016103fb565b6104eb6106fb366004614f71565b610ff1565b61044d61070e366004614ebd565b611020565b6033546001600160a01b0316610519565b6040805180820190915260088152670542d4356492d4c560c41b60208201526103ee565b60d45461048a9061ffff1681565b6104eb610764366004614cc4565b6110d3565b61048a600581565b6104eb61077f366004614f71565b61112b565b61044d60d35481565b61044d60d25481565b6104346107a4366004614d74565b61115a565b61044d60da5481565b61044d60d85481565b6104346107c9366004614d74565b6111e0565b6107d66111ee565b604080519687526020870195909552938501929092526060840152608083015260a082015260c0016103fb565b6104eb610811366004614f3f565b611223565b61044d60dd5481565b6104eb61082d366004614cc4565b61127d565b61044d60d55481565b61044d610849366004614cfc565b6112c9565b6104eb61085c366004614ea3565b6112f4565b61044d61086f366004614f71565b611336565b6104eb610882366004615001565b6115f5565b60de5461048a9061ffff1681565b61044d60d75481565b61044d6108ac366004614f71565b61185f565b6104eb6108bf366004614cc4565b611cea565b60c954610519906001600160a01b031681565b60cd54610519906001600160a01b031681565b60ca54610519906001600160a01b031681565b60008060008061090b611d85565b6001600160a01b0316630902f1ac6040518163ffffffff1660e01b815260040160606040518083038186803b15801561094357600080fd5b505afa158015610957573d6000803e3d6000fd5b505050506040513d601f19601f8201168201806040525081019061097b9190614e61565b5060ca5460cc546001600160701b0393841695509190921692506001600160a01b03918216911610156109b3578193508092506109ba565b8093508192505b50509091565b6000336109ce818585611e8e565b60019150505b92915050565b6000336109e8858285611fb2565b6109f385858561202c565b60019150505b9392505050565b600060db54826001600160a81b03161015610a4e5760405162461bcd60e51b8152602060048201526009602482015268151bdbc81cdb585b1b60ba1b60448201526064015b60405180910390fd5b6109d460018360006121fa565b6000336109ce818585610a6e83836112c9565b610a789190615455565b611e8e565b6033546001600160a01b03163314610aa75760405162461bcd60e51b8152600401610a45906152d7565b60db9190915560dc55565b600080610abd6108fd565b5090506000610aca611d85565b905060cc60009054906101000a90046001600160a01b03166001600160a01b03166318160ddd6040518163ffffffff1660e01b815260040160206040518083038186803b158015610b1a57600080fd5b505afa158015610b2e573d6000803e3d6000fd5b505050506040513d601f19601f82011682018060405250810190610b529190614f89565b1580610bcc5750806001600160a01b03166318160ddd6040518163ffffffff1660e01b815260040160206040518083038186803b158015610b9257600080fd5b505afa158015610ba6573d6000803e3d6000fd5b505050506040513d601f19601f82011682018060405250810190610bca9190614f89565b155b15610bda5760009250505090565b6000816001600160a01b03166318160ddd6040518163ffffffff1660e01b815260040160206040518083038186803b158015610c1557600080fd5b505afa158015610c29573d6000803e3d6000fd5b505050506040513d601f19601f82011682018060405250810190610c4d9190614f89565b6040516370a0823160e01b81523060048201526001600160a01b038416906370a082319060240160206040518083038186803b158015610c8c57600080fd5b505afa158015610ca0573d6000803e3d6000fd5b505050506040513d601f19601f82011682018060405250810190610cc49190614f89565b610cce908561557b565b610cd8919061546d565b60cb5460cc5460405163055f575160e41b81526001600160a01b0391821660048201529293506000929116906355f575109060240160a06040518083038186803b158015610d2557600080fd5b505afa158015610d39573d6000803e3d6000fd5b505050506040513d601f19601f82011682018060405250810190610d5d9190614ed9565b505050506001600160a81b0316905060cc60009054906101000a90046001600160a01b03166001600160a01b03166318160ddd6040518163ffffffff1660e01b815260040160206040518083038186803b158015610dba57600080fd5b505afa158015610dce573d6000803e3d6000fd5b505050506040513d601f19601f82011682018060405250810190610df29190614f89565b610dfc838361557b565b610e06919061546d565b94505050505090565b6033546001600160a01b03163314610e395760405162461bcd60e51b8152600401610a45906152d7565b610e43600061245d565b565b6033546001600160a01b03163314610e6f5760405162461bcd60e51b8152600401610a45906152d7565b60d79190915560d855565b6033546001600160a01b03163314610ea45760405162461bcd60e51b8152600401610a45906152d7565b60d4805461ffff191661ffff92909216919091179055565b6033546001600160a01b03163314610ee65760405162461bcd60e51b8152600401610a45906152d7565b610ef060006124af565b5050565b60026097541415610f175760405162461bcd60e51b8152600401610a4590615357565b6002609755600081815260cf6020908152604091829020825160a081018452815460ff80821680845261010083046001600160a81b031695840195909552600160b01b90910463ffffffff16948201949094526001909101546001600160a01b0381166060830152600160a01b900490921615156080830152610f9957600080fd5b610fa282612950565b610fdf5760405162461bcd60e51b815260206004820152600e60248201526d4e6f74206c697175696461626c6560901b6044820152606401610a45565b610fe882612984565b50506001609755565b6033546001600160a01b0316331461101b5760405162461bcd60e51b8152600401610a45906152d7565b60d555565b600060dc54826001600160a81b031610156110695760405162461bcd60e51b8152602060048201526009602482015268151bdbc81cdb585b1b60ba1b6044820152606401610a45565b60d75433600090815260d06020526040902054429161108791615455565b11156110c65760405162461bcd60e51b815260206004820152600e60248201526d11195c1bdcda5d081b1bd8dad95960921b6044820152606401610a45565b6109d460028360006121fa565b6033546001600160a01b031633146110fd5760405162461bcd60e51b8152600401610a45906152d7565b60de80546001600160a01b0390921664010000000002640100000000600160c01b0319909216919091179055565b6033546001600160a01b031633146111555760405162461bcd60e51b8152600401610a45906152d7565b60d655565b6000338161116882866112c9565b9050838110156111c85760405162461bcd60e51b815260206004820152602560248201527f45524332303a2064656372656173656420616c6c6f77616e63652062656c6f77604482015264207a65726f60d81b6064820152608401610a45565b6111d58286868403611e8e565b506001949350505050565b6000336109ce81858561202c565b6000806000806000806111ff612afa565b50929650909450925090506112148483612d4c565b90979096509394509192909190565b6033546001600160a01b0316331461124d5760405162461bcd60e51b8152600401610a45906152d7565b60d4805461ffff9384166201000090810263ffff0000199283161790925560de8054939094169091029116179055565b6033546001600160a01b031633146112a75760405162461bcd60e51b8152600401610a45906152d7565b60c980546001600160a01b0319166001600160a01b0392909216919091179055565b6001600160a01b03918216600090815260666020908152604080832093909416825291909152205490565b6033546001600160a01b0316331461131e5760405162461bcd60e51b8152600401610a45906152d7565b60de805461ffff191661ffff92909216919091179055565b600081815260cf60209081526040808320600180820154835160a081018552925460ff808216855261010082046001600160a81b031696850196909652600160b01b900463ffffffff16938301939093526001600160a01b0383166060830152600160a01b90920490921680151560808401528392839283929183916113bd918991612faa565b9196509450905080156113d7575060009695505050505050565b6113e0876130bf565b60006113f4866001600160a81b03166124af565b94509050600061140360675490565b1180156114105750600081115b15611443578061141f60675490565b611432906001600160a81b03891661557b565b61143c919061546d565b965061145c565b60d154611459906001600160a81b03881661557b565b96505b50506000851161146b57600080fd5b611475838661315f565b6001600160a01b038316600090815260d06020526040902042905560d2546001600160a81b03851611156114ad57600060d2556114ce565b836001600160a81b031660d260008282546114c8919061559a565b90915550505b60006114e3856001600160a81b03168461323e565b9050811561155a5760de54604051633174ff7d60e21b81526401000000009091046001600160a01b03169063c5d3fdf4906115279060009088908b90600401615217565b600060405180830381600087803b15801561154157600080fd5b505af1158015611555573d6000803e3d6000fd5b505050505b836001600160a01b03167fa7690d0009c94c00bb8bf9ac437b46aa227cf737189169782a3ab5d072bda2ff888784606001518560000151866040015187602001518d6040516115e397969594939291909687526001600160a81b0395909516602087015260408601939093526060850191909152608084015260a083015260c082015260e00190565b60405180910390a25050505050919050565b600061160160016135ec565b90508015611619576000805461ff0019166101001790555b6001600160a01b03881661162c57600080fd5b6001600160a01b03871661163f57600080fd5b6001600160a01b03851661165257600080fd5b6001600160a01b03841661166557600080fd5b6000891161167257600080fd5b600160ce81905560d95560d189905560d4805463ffffffff199081166305dc012c1790915560001960d55561070860d6556201518060d7556203f48060d855601e60da55620186a060db55662386f26fc1000060dc5560de8054909116630bb805dc1790556116df613679565b6116e76136a8565b6116f183836136d7565b60cb80546001600160a01b03808b166001600160a01b0319928316811790935560ca8054898316908416811790915560cc80548c841690851617905560cd805489841694169390931790925560de8054918a1664010000000002640100000000600160c01b031990921691909117905561176d91600019613708565b60cd5460ca5461178c916001600160a01b039182169116600019613708565b60cc5460ca546117ab916001600160a01b039182169116600019613708565b60cd5460cc546117ca916001600160a01b039182169116600019613708565b60cd546117f5906001600160a01b03166000196117e5611d85565b6001600160a01b03169190613708565b60cc5461180e906001600160a01b031680600019613708565b8015611854576000805461ff0019169055604051600181527f7f26b83ff96e1f2b6a682f133852f6798a09c465da95921460cefb38474024989060200160405180910390a15b505050505050505050565b600081815260cf60209081526040808320815160a081018352815460ff808216835261010082046001600160a81b031695830195909552600160b01b900463ffffffff1692810192909252600101546001600160a01b0381166060830152600160a01b9004909116151560808201528190819081906118e19086906002612faa565b92509250925080611ce2576118f660006124af565b505061192a6040518060a0016040528060008152602001600081526020016000815260200160008152602001600081525090565b60675460cb546040516370a0823160e01b81523060048201526001600160a01b03909116906370a082319060240160206040518083038186803b15801561197057600080fd5b505afa158015611984573d6000803e3d6000fd5b505050506040513d601f19601f820116820180604052508101906119a89190614f89565b6119bb906001600160a81b03871661557b565b6119c5919061546d565b602082015260006119d560675490565b6119dd611d85565b6040516370a0823160e01b81523060048201526001600160a01b0391909116906370a082319060240160206040518083038186803b158015611a1e57600080fd5b505afa158015611a32573d6000803e3d6000fd5b505050506040513d601f19601f82011682018060405250810190611a569190614f89565b611a69906001600160a81b03881661557b565b611a73919061546d565b90508015611b2d5760cd5460cc5460ca54604051635d5155ef60e11b81526001600160a01b039384169363baa2abde93611ac1939082169291169086906000908190309042906004016151d7565b6040805180830381600087803b158015611ada57600080fd5b505af1158015611aee573d6000803e3d6000fd5b505050506040513d601f19601f82011682018060405250810190611b1291906150ea565b606084015260408301819052611b2790613864565b60808301525b60cb54602083015160405163452d003f60e01b81526001600160a01b039092169163452d003f91611b649160040190815260200190565b6040805180830381600087803b158015611b7d57600080fd5b505af1158015611b91573d6000803e3d6000fd5b505050506040513d601f19601f82011682018060405250810190611bb591906150ea565b8352506000611bc360675490565b866001600160a81b031660dd54611bda919061557b565b611be4919061546d565b905082608001518360600151846000015183611c009190615455565b611c0a9190615455565b611c149190615455565b96508060dd6000828254611c28919061559a565b90915550611c419050306001600160a81b038816613903565b611c4a886130bf565b60ca54611c61906001600160a01b03168689613a51565b825160408085015160808087015160608089015185518f8152602081018f905280870197909752908601939093529084015260a08301526001600160a81b03881660c0830152516001600160a01b038716917f4574d70f7fcf4382fe2ec80c834752c2addb47b7a07d163dd71ca054be2dd741919081900360e00190a25050505b505050919050565b6033546001600160a01b03163314611d145760405162461bcd60e51b8152600401610a45906152d7565b6001600160a01b038116611d795760405162461bcd60e51b815260206004820152602660248201527f4f776e61626c653a206e6577206f776e657220697320746865207a65726f206160448201526564647265737360d01b6064820152608401610a45565b611d828161245d565b50565b60cd546040805163c45a015560e01b815290516000926001600160a01b03169163c45a0155916004808301926020929190829003018186803b158015611dca57600080fd5b505afa158015611dde573d6000803e3d6000fd5b505050506040513d601f19601f82011682018060405250810190611e029190614ce0565b60cc5460ca5460405163e6a4390560e01b81526001600160a01b039283166004820152908216602482015291169063e6a439059060440160206040518083038186803b158015611e5157600080fd5b505afa158015611e65573d6000803e3d6000fd5b505050506040513d601f19601f82011682018060405250810190611e899190614ce0565b905090565b6001600160a01b038316611ef05760405162461bcd60e51b8152602060048201526024808201527f45524332303a20617070726f76652066726f6d20746865207a65726f206164646044820152637265737360e01b6064820152608401610a45565b6001600160a01b038216611f515760405162461bcd60e51b815260206004820152602260248201527f45524332303a20617070726f766520746f20746865207a65726f206164647265604482015261737360f01b6064820152608401610a45565b6001600160a01b0383811660008181526066602090815260408083209487168084529482529182902085905590518481527f8c5be1e5ebec7d5bd14f71427d1e84f3dd0314c0f7b2291e5b200ac8c7c3b925910160405180910390a3505050565b6000611fbe84846112c9565b9050600019811461202657818110156120195760405162461bcd60e51b815260206004820152601d60248201527f45524332303a20696e73756666696369656e7420616c6c6f77616e63650000006044820152606401610a45565b6120268484848403611e8e565b50505050565b6001600160a01b0383166120905760405162461bcd60e51b815260206004820152602560248201527f45524332303a207472616e736665722066726f6d20746865207a65726f206164604482015264647265737360d81b6064820152608401610a45565b6001600160a01b0382166120f25760405162461bcd60e51b815260206004820152602360248201527f45524332303a207472616e7366657220746f20746865207a65726f206164647260448201526265737360e81b6064820152608401610a45565b6001600160a01b0383166000908152606560205260409020548181101561216a5760405162461bcd60e51b815260206004820152602660248201527f45524332303a207472616e7366657220616d6f756e7420657863656564732062604482015265616c616e636560d01b6064820152608401610a45565b6001600160a01b038085166000908152606560205260408082208585039055918516815290812080548492906121a1908490615455565b92505081905550826001600160a01b0316846001600160a01b03167fddf252ad1be2c89b69c2b068fc378daa952ba7f163c4a11628f55a4df523b3ef846040516121ed91815260200190565b60405180910390a3612026565b60006002609754141561221f5760405162461bcd60e51b8152600401610a4590615357565b60026097556001600160a81b03831661223757600080fd5b60006122416111ee565b509394505050505060ff8516600114156122b45760d55460d25461226e6001600160a81b03871684615455565b6122789190615455565b11156122b45760405162461bcd60e51b815260206004820152600b60248201526a10d85c081c995858da195960aa1b6044820152606401610a45565b60ce5491506122c4826001615455565b60ce5560d6546000906122d79042615455565b6040805160a08101825260ff808a168083526001600160a81b03808b16602080860191825263ffffffff80891687890190815233606089019081528e151560808a0190815260008f815260cf909552999093209751885494519151909216600160b01b0263ffffffff60b01b1991909516610100026001600160b01b03199094169190961617919091179390931617835590516001928301805494511515600160a01b026001600160a81b03199095166001600160a01b0392909216919091179390931790925591925014156123c857846001600160a81b031660d260008282546123c29190615455565b90915550505b6123db86866001600160a81b0316613a81565b337fbf4d2957ec4d507c14dcbff7e87761bcb7d387e35cab2dcbf05cb283906599ec848888858761240b60675490565b6040805196875260ff9590951660208701526001600160a81b03939093168585015263ffffffff919091166060850152608084015260a0830152519081900360c00190a2505060016097559392505050565b603380546001600160a01b038381166001600160a01b0319831681179093556040519116919082907f8be0079c531659141344cd1fd0a4f28419497f9722a3daafe3b4186f6b6457e090600090a35050565b60008060008060006124c086613b04565b60d4549499509097509095509093509150600090612710906124ec9062010000900461ffff168261542f565b61ffff1660cb60009054906101000a90046001600160a01b03166001600160a01b0316632f811c226040518163ffffffff1660e01b815260040160206040518083038186803b15801561253e57600080fd5b505afa158015612552573d6000803e3d6000fd5b505050506040513d601f19601f820116820180604052508101906125769190614f89565b612580919061557b565b61258a919061546d565b9050600060cb60009054906101000a90046001600160a01b03166001600160a01b0316638d4d7e316040518163ffffffff1660e01b815260040160206040518083038186803b1580156125dc57600080fd5b505afa1580156125f0573d6000803e3d6000fd5b505050506040513d601f19601f820116820180604052508101906126149190614f89565b905082156129465760db546126299083615455565b8111156126dc57600061263c838361559a565b60cb54604051630441a3e760e41b81526004810183905260001960248201529192506000916001600160a01b039091169063441a3e70906044016040805180830381600087803b15801561268f57600080fd5b505af11580156126a3573d6000803e3d6000fd5b505050506040513d601f19601f820116820180604052508101906126c791906150ea565b9150506126d4818961323e565b505050612931565b8160db54826126eb9190615455565b10156129315760006126fd828461559a565b90508061270a8588615455565b11801561274f575060de5462010000900461ffff16886127108361272e888b615455565b612738919061559a565b612742919061557b565b61274c919061546d565b10155b1561292f5760006127608588615455565b612768611d85565b6001600160a01b03166318160ddd6040518163ffffffff1660e01b815260040160206040518083038186803b1580156127a057600080fd5b505afa1580156127b4573d6000803e3d6000fd5b505050506040513d601f19601f820116820180604052508101906127d89190614f89565b6127e2908461557b565b6127ec919061546d565b60cd5460cc5460ca54604051635d5155ef60e11b815293945060009384936001600160a01b039081169363baa2abde9361283893918316921690889087908190309042906004016151d7565b6040805180830381600087803b15801561285157600080fd5b505af1158015612865573d6000803e3d6000fd5b505050506040513d601f19601f8201168201806040525081019061288991906150ea565b9150915060008161289984613864565b6128a39190615455565b60cb54604051631c57762b60e31b815260048101839052600060248201529192506001600160a01b03169063e2bbb15890604401602060405180830381600087803b1580156128f157600080fd5b505af1158015612905573d6000803e3d6000fd5b505050506040513d601f19601f820116820180604052508101906129299190614f89565b50505050505b505b6129396111ee565b50939a5098509650909350505b5050505050915091565b60d854600082815260cf60205260408120549091429161297d9190600160b01b900463ffffffff16615455565b1092915050565b600081815260cf6020908152604091829020825160a081018452815460ff80821680845261010083046001600160a81b031695840195909552600160b01b90910463ffffffff16948201949094526001918201546001600160a01b0381166060830152600160a01b9004909316151560808401521415612a235780602001516001600160a81b031660d26000828254612a1d919061559a565b90915550505b612a2c826130bf565b805160ff1660021415612a5c5760608101516020820151612a579130916001600160a81b0316613a51565b612a87565b6060810151602082015160ca54612a87926001600160a01b03909116916001600160a81b0316613a51565b60608101518151602083015160405133936001600160a01b0316927ff6f94f933b96f98ce5b3687b190c131a0c4ede50caec0a7b2f1ea76035eec97292612aee928892919092835260ff9190911660208301526001600160a81b0316604082015260600190565b60405180910390a35050565b6000806000806000612b0a6108fd565b60cb5460cc5460405163055f575160e41b81526001600160a01b0391821660048201529296509294506001926000929116906355f575109060240160a06040518083038186803b158015612b5d57600080fd5b505afa158015612b71573d6000803e3d6000fd5b505050506040513d601f19601f82011682018060405250810190612b959190614ed9565b505050506001600160a81b0316905080600014612c365760cb5460cc546040516329b2a60b60e21b81526001600160a01b03918216600482015291169063a6ca982c9060240160c06040518083038186803b158015612bf357600080fd5b505afa158015612c07573d6000803e3d6000fd5b505050506040513d601f19601f82011682018060405250810190612c2b9190614fa1565b509399509194505050505b81612c4057600080fd5b600084118015612c505750600085115b15612d435760cc60009054906101000a90046001600160a01b03166001600160a01b03166318160ddd6040518163ffffffff1660e01b815260040160206040518083038186803b158015612ca357600080fd5b505afa158015612cb7573d6000803e3d6000fd5b505050506040513d601f19601f82011682018060405250810190612cdb9190614f89565b612ce5878661557b565b612cef919061546d565b96506000858811612d0957612d04888761559a565b612d13565b612d13868961559a565b60d45490915061271090612d2b9061ffff168a61557b565b612d35919061546d565b811115612d4157600193505b505b50509091929394565b6000806000612d59611d85565b6040516370a0823160e01b81523060048201529091506000906001600160a01b038316906370a082319060240160206040518083038186803b158015612d9e57600080fd5b505afa158015612db2573d6000803e3d6000fd5b505050506040513d601f19601f82011682018060405250810190612dd69190614f89565b9050600080600083118015612e5b57506000846001600160a01b03166318160ddd6040518163ffffffff1660e01b815260040160206040518083038186803b158015612e2157600080fd5b505afa158015612e35573d6000803e3d6000fd5b505050506040513d601f19601f82011682018060405250810190612e599190614f89565b115b15612f6f57836001600160a01b03166318160ddd6040518163ffffffff1660e01b815260040160206040518083038186803b158015612e9957600080fd5b505afa158015612ead573d6000803e3d6000fd5b505050506040513d601f19601f82011682018060405250810190612ed19190614f89565b612edb848a61557b565b612ee5919061546d565b9150836001600160a01b03166318160ddd6040518163ffffffff1660e01b815260040160206040518083038186803b158015612f2057600080fd5b505afa158015612f34573d6000803e3d6000fd5b505050506040513d601f19601f82011682018060405250810190612f589190614f89565b612f62848961557b565b612f6c919061546d565b90505b612f77613b34565b945080828660dd54612f899190615455565b612f939190615455565b612f9d9190615455565b9550505050509250929050565b600080600060026097541415612fd25760405162461bcd60e51b8152600401610a4590615357565b600260975560608501516001600160a01b0316612fee57600080fd5b60c9546001600160a01b031633148061301c575084606001516001600160a01b0316336001600160a01b0316145b61302557600080fd5b8360ff16856000015160ff161461303b57600080fd5b846040015163ffffffff164210156130805760405162461bcd60e51b81526020600482015260086024820152672a37b79039b7b7b760c11b6044820152606401610a45565b61308986612950565b1561309f5761309786612984565b5060016130ae565b84602001519250846060015191505b600160978190555093509350939050565b600081815260cf6020526040812080546001600160d01b031916815560010180546001600160a81b031916905560d95490805b60ce5483108015613104575060da5482105b80156131285750600083815260cf60205260409020600101546001600160a01b0316155b15613151578161313781615618565b925050828061314590615618565b935050600190506130f2565b801561202657505060d95550565b6001600160a01b0382166131b55760405162461bcd60e51b815260206004820152601f60248201527f45524332303a206d696e7420746f20746865207a65726f2061646472657373006044820152606401610a45565b80606760008282546131c79190615455565b90915550506001600160a01b038216600090815260656020526040812080548392906131f4908490615455565b90915550506040518181526001600160a01b038316906000907fddf252ad1be2c89b69c2b068fc378daa952ba7f163c4a11628f55a4df523b3ef9060200160405180910390a35050565b6132706040518060a0016040528060008152602001600081526020016000815260200160008152602001600081525090565b60008061327b6108fd565b90925090506000806001841580613290575083155b1561329d57506000613473565b60cc60009054906101000a90046001600160a01b03166001600160a01b03166318160ddd6040518163ffffffff1660e01b815260040160206040518083038186803b1580156132eb57600080fd5b505afa1580156132ff573d6000803e3d6000fd5b505050506040513d601f19601f820116820180604052508101906133239190614f89565b60cc60009054906101000a90046001600160a01b03166001600160a01b031663313ce5676040518163ffffffff1660e01b815260040160206040518083038186803b15801561337157600080fd5b505afa158015613385573d6000803e3d6000fd5b505050506040513d601f19601f820116820180604052508101906133a991906151a1565b6133b490600a6154d0565b6133be908961557b565b6133c8919061546d565b91508460cc60009054906101000a90046001600160a01b03166001600160a01b031663313ce5676040518163ffffffff1660e01b815260040160206040518083038186803b15801561341957600080fd5b505afa15801561342d573d6000803e3d6000fd5b505050506040513d601f19601f8201168201806040525081019061345191906151a1565b61345c90600a6154d0565b613466908661557b565b613470919061546d565b92505b801561355357613484888484613cd9565b60808901819052606089019190915290875260dd80546000906134a8908490615455565b909155505060cb546060870151604051631c57762b60e31b81526004810191909152600060248201526001600160a01b039091169063e2bbb15890604401602060405180830381600087803b15801561350057600080fd5b505af1158015613514573d6000803e3d6000fd5b505050506040513d601f19601f820116820180604052508101906135389190614f89565b508551613544906140a9565b604088015260208701526135e1565b6060860188905260cb54604051631c57762b60e31b8152600481018a9052600060248201526001600160a01b039091169063e2bbb15890604401602060405180830381600087803b1580156135a757600080fd5b505af11580156135bb573d6000803e3d6000fd5b505050506040513d601f19601f820116820180604052508101906135df9190614f89565b505b505050505092915050565b60008054610100900460ff1615613633578160ff16600114801561360f5750303b155b61362b5760405162461bcd60e51b8152600401610a4590615289565b506000919050565b60005460ff80841691161061365a5760405162461bcd60e51b8152600401610a4590615289565b506000805460ff191660ff92909216919091179055600190565b919050565b600054610100900460ff166136a05760405162461bcd60e51b8152600401610a459061530c565b610e436141cc565b600054610100900460ff166136cf5760405162461bcd60e51b8152600401610a459061530c565b610e436141fa565b600054610100900460ff166136fe5760405162461bcd60e51b8152600401610a459061530c565b610ef0828261422a565b8015806137915750604051636eb1769f60e11b81523060048201526001600160a01b03838116602483015284169063dd62ed3e9060440160206040518083038186803b15801561375757600080fd5b505afa15801561376b573d6000803e3d6000fd5b505050506040513d601f19601f8201168201806040525081019061378f9190614f89565b155b6137fc5760405162461bcd60e51b815260206004820152603660248201527f5361666545524332303a20617070726f76652066726f6d206e6f6e2d7a65726f60448201527520746f206e6f6e2d7a65726f20616c6c6f77616e636560501b6064820152608401610a45565b6040516001600160a01b03831660248201526044810182905261385f90849063095ea7b360e01b906064015b60408051601f198184030181529190526020810180516001600160e01b03166001600160e01b031990931692909217909152614278565b505050565b6000816001600160a81b038116811461387c57600080fd5b60cc5460405163ec27050760e01b81526001600160a81b03831660048201526001600160a01b039091169063ec270507906024015b602060405180830381600087803b1580156138cb57600080fd5b505af11580156138df573d6000803e3d6000fd5b505050506040513d601f19601f820116820180604052508101906109f99190614f89565b6001600160a01b0382166139635760405162461bcd60e51b815260206004820152602160248201527f45524332303a206275726e2066726f6d20746865207a65726f206164647265736044820152607360f81b6064820152608401610a45565b6001600160a01b038216600090815260656020526040902054818110156139d75760405162461bcd60e51b815260206004820152602260248201527f45524332303a206275726e20616d6f756e7420657863656564732062616c616e604482015261636560f01b6064820152608401610a45565b6001600160a01b0383166000908152606560205260408120838303905560678054849290613a0690849061559a565b90915550506040518281526000906001600160a01b038516907fddf252ad1be2c89b69c2b068fc378daa952ba7f163c4a11628f55a4df523b3ef9060200160405180910390a3505050565b6040516001600160a01b03831660248201526044810182905261385f90849063a9059cbb60e01b90606401613828565b60ff821660021415613aec5733600090815260656020526040902054811115613ae05760405162461bcd60e51b81526020600482015260116024820152704e6f7420656e6f75676820746f6b656e7360781b6044820152606401610a45565b610ef03033818461434a565b60ca54610ef0906001600160a01b031633308461434a565b6000806000806000613b1586614382565b91945092509050613b268382612d4c565b909790965092945090925090565b60cb546040516370a0823160e01b815230600482015260009182916001600160a01b03909116906370a082319060240160206040518083038186803b158015613b7c57600080fd5b505afa158015613b90573d6000803e3d6000fd5b505050506040513d601f19601f82011682018060405250810190613bb49190614f89565b90508015613cd55760cb60009054906101000a90046001600160a01b03166001600160a01b03166318160ddd6040518163ffffffff1660e01b815260040160206040518083038186803b158015613c0a57600080fd5b505afa158015613c1e573d6000803e3d6000fd5b505050506040513d601f19601f82011682018060405250810190613c429190614f89565b60cb54604051630d9c362960e41b8152600160048201526001600160a01b039091169063d9c362909060240160206040518083038186803b158015613c8657600080fd5b505afa158015613c9a573d6000803e3d6000fd5b505050506040513d601f19601f82011682018060405250810190613cbe9190614f89565b613cc8908361557b565b613cd2919061546d565b91505b5090565b60de546000908190819061271090613cf59061ffff168861557b565b613cff919061546d565b90506000613d0d828861559a565b9050600060cb60009054906101000a90046001600160a01b03166001600160a01b0316636f7d78286040518163ffffffff1660e01b815260040160206040518083038186803b158015613d5f57600080fd5b505afa158015613d73573d6000803e3d6000fd5b505050506040513d601f19601f82011682018060405250810190613d979190614ce0565b6001600160a01b031663c1639a2b6040518163ffffffff1660e01b815260040160606040518083038186803b158015613dcf57600080fd5b505afa158015613de3573d6000803e3d6000fd5b505050506040513d601f19601f82011682018060405250810190613e079190615154565b505063ffffffff169050600060cb60009054906101000a90046001600160a01b03166001600160a01b031663d934c20b6040518163ffffffff1660e01b815260040160206040518083038186803b158015613e6157600080fd5b505afa158015613e75573d6000803e3d6000fd5b505050506040513d601f19601f82011682018060405250810190613e99919061513a565b60cb5460cc546040516329b2a60b60e21b81526001600160a01b03918216600482015263ffffffff93909316935060009291169063a6ca982c9060240160c06040518083038186803b158015613eee57600080fd5b505afa158015613f02573d6000803e3d6000fd5b505050506040513d601f19601f82011682018060405250810190613f269190614fa1565b5050505050905061271061ffff168289613f40919061557b565b613f4a8b8661557b565b613f549190615455565b613f5e919061557b565b60d4548390613f779062010000900461ffff168b61557b565b613f81919061557b565b613f8b9190615455565b84612710613f998b8761557b565b613fa3919061557b565b613fad919061557b565b613fb7919061546d565b965060008160cc60009054906101000a90046001600160a01b03166001600160a01b03166318160ddd6040518163ffffffff1660e01b815260040160206040518083038186803b15801561400a57600080fd5b505afa15801561401e573d6000803e3d6000fd5b505050506040513d601f19601f820116820180604052508101906140429190614f89565b61404c908a61557b565b614056919061546d565b90506000806140636108fd565b9092509050600082614075838661557b565b61407f919061546d565b90508061408c8c8a61559a565b614096919061559a565b9950505050505050505093509350939050565b6000806140b583614411565b90506000806140c26108fd565b90925090506000826140d4838661557b565b6140de919061546d565b60cd5460cc5460ca5460405162e8e33760e81b81526001600160a01b039283166004820152908216602482015260448101889052606481018490526084810188905260a481018490523060c48201524260e482015292935060009291169063e8e337009061010401606060405180830381600087803b15801561416057600080fd5b505af1158015614174573d6000803e3d6000fd5b505050506040513d601f19601f82011682018060405250810190614198919061510d565b50965090508186146141a957600080fd5b8481146141b557600080fd5b6141bd6108fd565b50959794965093945050505050565b600054610100900460ff166141f35760405162461bcd60e51b8152600401610a459061530c565b6001609755565b600054610100900460ff166142215760405162461bcd60e51b8152600401610a459061530c565b610e433361245d565b600054610100900460ff166142515760405162461bcd60e51b8152600401610a459061530c565b8151614264906068906020850190614b6b565b50805161385f906069906020840190614b6b565b60006142cd826040518060400160405280602081526020017f5361666545524332303a206c6f772d6c6576656c2063616c6c206661696c6564815250856001600160a01b03166144629092919063ffffffff16565b80519091501561385f57808060200190518101906142eb9190614e47565b61385f5760405162461bcd60e51b815260206004820152602a60248201527f5361666545524332303a204552433230206f7065726174696f6e20646964206e6044820152691bdd081cdd58d8d9595960b21b6064820152608401610a45565b6040516001600160a01b03808516602483015283166044820152606481018290526120269085906323b872dd60e01b90608401613828565b600080600080614390612afa565b9397509195509350909150508015614409576143ba60dd54866143b39190615455565b8584614479565b6143c2612afa565b93975091955093509091505080156144095760405162461bcd60e51b815260206004820152600a602482015269151bdbc81cdad95dd95960b21b6044820152606401610a45565b509193909250565b6000816001600160a81b038116811461442957600080fd5b60cc5460405163d4a56af160e01b81526001600160a81b03831660048201526001600160a01b039091169063d4a56af1906024016138b1565b60606144718484600085614a01565b949350505050565b600082821161449d57600261448e838561559a565b614498919061546d565b6144b3565b60026144a9848461559a565b6144b3919061546d565b905060008185101561466b5760006144cb868461559a565b60cb54604051630d9c362960e41b8152600160048201529192506001600160a01b03169063452d003f90829063d9c362909060240160206040518083038186803b15801561451857600080fd5b505afa15801561452c573d6000803e3d6000fd5b505050506040513d601f19601f820116820180604052508101906145509190614f89565b60cb60009054906101000a90046001600160a01b03166001600160a01b03166318160ddd6040518163ffffffff1660e01b815260040160206040518083038186803b15801561459e57600080fd5b505afa1580156145b2573d6000803e3d6000fd5b505050506040513d601f19601f820116820180604052508101906145d69190614f89565b6145e0908561557b565b6145ea919061546d565b6040518263ffffffff1660e01b815260040161460891815260200190565b6040805180830381600087803b15801561462157600080fd5b505af1158015614635573d6000803e3d6000fd5b505050506040513d601f19601f8201168201806040525081019061465991906150ea565b925061466790508683615455565b9250505b6000848411156147e857600061468084614411565b6040805160028082526060820183529293506000929091602083019080368337505060cc5482519293506001600160a01b0316918391506000906146d457634e487b7160e01b600052603260045260246000fd5b6001600160a01b03928316602091820292909201015260ca5482519116908290600190811061471357634e487b7160e01b600052603260045260246000fd5b6001600160a01b03928316602091820292909201015260cd546040516338ed173960e01b815260009291909116906338ed17399061475d908690859087903090429060040161538e565b600060405180830381600087803b15801561477757600080fd5b505af115801561478b573d6000803e3d6000fd5b505050506040513d6000823e601f3d908101601f191682016040526147b39190810190614d9f565b9050806001815181106147d657634e487b7160e01b600052603260045260246000fd5b6020026020010151935050505061494e565b604080516002808252606082018352600092602083019080368337505060ca5482519293506001600160a01b03169183915060009061483757634e487b7160e01b600052603260045260246000fd5b6001600160a01b03928316602091820292909201015260cc5482519116908290600190811061487657634e487b7160e01b600052603260045260246000fd5b6001600160a01b03928316602091820292909201015260cd546040516338ed173960e01b815260009291909116906338ed1739906148c0908890859087903090429060040161538e565b600060405180830381600087803b1580156148da57600080fd5b505af11580156148ee573d6000803e3d6000fd5b505050506040513d6000823e601f3d908101601f191682016040526149169190810190614d9f565b90506149498160018151811061493c57634e487b7160e01b600052603260045260246000fd5b6020026020010151613864565b925050505b82811161495a57600080fd5b60cb546001600160a01b031663e2bbb15883614976868561559a565b6149809190615455565b6040516001600160e01b031960e084901b168152600481019190915260006024820152604401602060405180830381600087803b1580156149c057600080fd5b505af11580156149d4573d6000803e3d6000fd5b505050506040513d601f19601f820116820180604052508101906149f89190614f89565b50505050505050565b606082471015614a625760405162461bcd60e51b815260206004820152602660248201527f416464726573733a20696e73756666696369656e742062616c616e636520666f6044820152651c8818d85b1b60d21b6064820152608401610a45565b6001600160a01b0385163b614ab95760405162461bcd60e51b815260206004820152601d60248201527f416464726573733a2063616c6c20746f206e6f6e2d636f6e74726163740000006044820152606401610a45565b600080866001600160a01b03168587604051614ad591906151bb565b60006040518083038185875af1925050503d8060008114614b12576040519150601f19603f3d011682016040523d82523d6000602084013e614b17565b606091505b5091509150614b27828286614b32565b979650505050505050565b60608315614b415750816109f9565b825115614b515782518084602001fd5b8160405162461bcd60e51b8152600401610a459190615256565b828054614b77906155dd565b90600052602060002090601f016020900481019282614b995760008555614bdf565b82601f10614bb257805160ff1916838001178555614bdf565b82800160010185558215614bdf579182015b82811115614bdf578251825591602001919060010190614bc4565b50613cd59291505b80821115613cd55760008155600101614be7565b8051801515811461367457600080fd5b600082601f830112614c1b578081fd5b813567ffffffffffffffff811115614c3557614c35615649565b614c48601f8201601f19166020016153fe565b818152846020838601011115614c5c578283fd5b816020850160208301379081016020019190915292915050565b80516001600160701b038116811461367457600080fd5b803561ffff8116811461367457600080fd5b805163ffffffff8116811461367457600080fd5b805160ff8116811461367457600080fd5b600060208284031215614cd5578081fd5b81356109f98161565f565b600060208284031215614cf1578081fd5b81516109f98161565f565b60008060408385031215614d0e578081fd5b8235614d198161565f565b91506020830135614d298161565f565b809150509250929050565b600080600060608486031215614d48578081fd5b8335614d538161565f565b92506020840135614d638161565f565b929592945050506040919091013590565b60008060408385031215614d86578182fd5b8235614d918161565f565b946020939093013593505050565b60006020808385031215614db1578182fd5b825167ffffffffffffffff80821115614dc8578384fd5b818501915085601f830112614ddb578384fd5b815181811115614ded57614ded615649565b8060051b9150614dfe8483016153fe565b8181528481019084860184860187018a1015614e18578788fd5b8795505b83861015614e3a578051835260019590950194918601918601614e1c565b5098975050505050505050565b600060208284031215614e58578081fd5b6109f982614bfb565b600080600060608486031215614e75578081fd5b614e7e84614c76565b9250614e8c60208501614c76565b9150614e9a60408501614c9f565b90509250925092565b600060208284031215614eb4578081fd5b6109f982614c8d565b600060208284031215614ece578081fd5b81356109f981615674565b600080600080600060a08688031215614ef0578283fd5b8551614efb81615674565b9450614f0960208701614cb3565b9350614f1760408701614c9f565b9250614f2560608701614c9f565b9150614f3360808701614c9f565b90509295509295909350565b60008060408385031215614f51578182fd5b614f5a83614c8d565b9150614f6860208401614c8d565b90509250929050565b600060208284031215614f82578081fd5b5035919050565b600060208284031215614f9a578081fd5b5051919050565b60008060008060008060c08789031215614fb9578384fd5b86519550614fc960208801614bfb565b94506040870151614fd981615674565b9350614fe760608801614cb3565b92506080870151915060a087015190509295509295509295565b600080600080600080600080610100898b03121561501d578586fd5b88359750602089013561502f8161565f565b9650604089013561503f8161565f565b9550606089013561504f8161565f565b9450608089013561505f8161565f565b935060a089013561506f8161565f565b925060c089013567ffffffffffffffff8082111561508b578384fd5b6150978c838d01614c0b565b935060e08b01359150808211156150ac578283fd5b506150b98b828c01614c0b565b9150509295985092959890939650565b600080604083850312156150db578182fd5b50508035926020909101359150565b600080604083850312156150fc578182fd5b505080516020909101519092909150565b600080600060608486031215615121578081fd5b8351925060208401519150604084015190509250925092565b60006020828403121561514b578081fd5b6109f982614c9f565b600080600060608486031215615168578081fd5b61517184614c9f565b9250602084015169ffffffffffffffffffff8116811461518f578182fd5b80925050604084015190509250925092565b6000602082840312156151b2578081fd5b6109f982614cb3565b600082516151cd8184602087016155b1565b9190910192915050565b6001600160a01b039788168152958716602087015260408601949094526060850192909252608084015290921660a082015260c081019190915260e00190565b606081016004851061523957634e487b7160e01b600052602160045260246000fd5b9381526001600160a01b0392909216602083015260409091015290565b60208152600082518060208401526152758160408501602087016155b1565b601f01601f19169190910160400192915050565b6020808252602e908201527f496e697469616c697a61626c653a20636f6e747261637420697320616c72656160408201526d191e481a5b9a5d1a585b1a5e995960921b606082015260800190565b6020808252818101527f4f776e61626c653a2063616c6c6572206973206e6f7420746865206f776e6572604082015260600190565b6020808252602b908201527f496e697469616c697a61626c653a20636f6e7472616374206973206e6f74206960408201526a6e697469616c697a696e6760a81b606082015260800190565b6020808252601f908201527f5265656e7472616e637947756172643a207265656e7472616e742063616c6c00604082015260600190565b600060a082018783526020878185015260a0604085015281875180845260c0860191508289019350845b818110156153dd5784516001600160a01b0316835293830193918301916001016153b8565b50506001600160a01b03969096166060850152505050608001529392505050565b604051601f8201601f1916810167ffffffffffffffff8111828210171561542757615427615649565b604052919050565b600061ffff80831681851680830382111561544c5761544c615633565b01949350505050565b6000821982111561546857615468615633565b500190565b60008261548857634e487b7160e01b81526012600452602481fd5b500490565b600181815b808511156154c85781600019048211156154ae576154ae615633565b808516156154bb57918102915b93841c9390800290615492565b509250929050565b60006109f960ff8416836000826154e9575060016109d4565b816154f6575060006109d4565b816001811461550c576002811461551657615532565b60019150506109d4565b60ff84111561552757615527615633565b50506001821b6109d4565b5060208310610133831016604e8410600b8410161715615555575081810a6109d4565b61555f838361548d565b806000190482111561557357615573615633565b029392505050565b600081600019048311821515161561559557615595615633565b500290565b6000828210156155ac576155ac615633565b500390565b60005b838110156155cc5781810151838201526020016155b4565b838111156120265750506000910152565b600181811c908216806155f157607f821691505b6020821081141561561257634e487b7160e01b600052602260045260246000fd5b50919050565b600060001982141561562c5761562c615633565b5060010190565b634e487b7160e01b600052601160045260246000fd5b634e487b7160e01b600052604160045260246000fd5b6001600160a01b0381168114611d8257600080fd5b6001600160a81b0381168114611d8257600080fdfea2646970667358221220708bea4cca1abf983b81d36478a8c5ee8e65ccefde0bfedf5749e826c5520be464736f6c63430008040033",
  "devdoc": {
    "kind": "dev",
    "methods": {
      "allowance(address,address)": {
        "details": "See {IERC20-allowance}."
      },
      "approve(address,uint256)": {
        "details": "See {IERC20-approve}. NOTE: If `amount` is the maximum `uint256`, the allowance is not updated on `transferFrom`. This is semantically equivalent to an infinite approval. Requirements: - `spender` cannot be the zero address."
      },
      "balanceOf(address)": {
        "details": "See {IERC20-balanceOf}."
      },
      "decimals()": {
        "details": "Returns the number of decimals used to get its user representation. For example, if `decimals` equals `2`, a balance of `505` tokens should be displayed to a user as `5.05` (`505 / 10 ** 2`). Tokens usually opt for a value of 18, imitating the relationship between Ether and Wei. This is the value {ERC20} uses, unless this function is overridden; NOTE: This information is only used for _display_ purposes: it in no way affects any of the arithmetic of the contract, including {IERC20-balanceOf} and {IERC20-transfer}."
      },
      "decreaseAllowance(address,uint256)": {
        "details": "Atomically decreases the allowance granted to `spender` by the caller. This is an alternative to {approve} that can be used as a mitigation for problems described in {IERC20-approve}. Emits an {Approval} event indicating the updated allowance. Requirements: - `spender` cannot be the zero address. - `spender` must have allowance for the caller of at least `subtractedValue`."
      },
      "increaseAllowance(address,uint256)": {
        "details": "Atomically increases the allowance granted to `spender` by the caller. This is an alternative to {approve} that can be used as a mitigation for problems described in {IERC20-approve}. Emits an {Approval} event indicating the updated allowance. Requirements: - `spender` cannot be the zero address."
      },
      "name()": {
        "details": "Returns the name of the token."
      },
      "owner()": {
        "details": "Returns the address of the current owner."
      },
      "renounceOwnership()": {
        "details": "Leaves the contract without owner. It will not be possible to call `onlyOwner` functions anymore. Can only be called by the current owner. NOTE: Renouncing ownership will leave the contract without an owner, thereby removing any functionality that is only available to the owner."
      },
      "symbol()": {
        "details": "Returns the symbol of the token, usually a shorter version of the name."
      },
      "totalSupply()": {
        "details": "See {IERC20-totalSupply}."
      },
      "transfer(address,uint256)": {
        "details": "See {IERC20-transfer}. Requirements: - `to` cannot be the zero address. - the caller must have a balance of at least `amount`."
      },
      "transferFrom(address,address,uint256)": {
        "details": "See {IERC20-transferFrom}. Emits an {Approval} event indicating the updated allowance. This is not required by the EIP. See the note at the beginning of {ERC20}. NOTE: Does not update the allowance if the current allowance is the maximum `uint256`. Requirements: - `from` and `to` cannot be the zero address. - `from` must have a balance of at least `amount`. - the caller must have allowance for ``from``'s tokens of at least `amount`."
      },
      "transferOwnership(address)": {
        "details": "Transfers ownership of the contract to a new account (`newOwner`). Can only be called by the current owner."
      }
    },
    "version": 1
  },
  "userdoc": {
    "kind": "user",
    "methods": {},
    "version": 1
  },
  "storageLayout": {
    "storage": [
      {
        "astId": 34444,
        "contract": "contracts/theta-vault/ThetaVaultContracts.sol:CVIUSDCThetaVault",
        "label": "_initialized",
        "offset": 0,
        "slot": "0",
        "type": "t_uint8"
      },
      {
        "astId": 34447,
        "contract": "contracts/theta-vault/ThetaVaultContracts.sol:CVIUSDCThetaVault",
        "label": "_initializing",
        "offset": 1,
        "slot": "0",
        "type": "t_bool"
      },
      {
        "astId": 37301,
        "contract": "contracts/theta-vault/ThetaVaultContracts.sol:CVIUSDCThetaVault",
        "label": "__gap",
        "offset": 0,
        "slot": "1",
        "type": "t_array(t_uint256)50_storage"
      },
      {
        "astId": 34324,
        "contract": "contracts/theta-vault/ThetaVaultContracts.sol:CVIUSDCThetaVault",
        "label": "_owner",
        "offset": 0,
        "slot": "51",
        "type": "t_address"
      },
      {
        "astId": 34436,
        "contract": "contracts/theta-vault/ThetaVaultContracts.sol:CVIUSDCThetaVault",
        "label": "__gap",
        "offset": 0,
        "slot": "52",
        "type": "t_array(t_uint256)49_storage"
      },
      {
        "astId": 34657,
        "contract": "contracts/theta-vault/ThetaVaultContracts.sol:CVIUSDCThetaVault",
        "label": "_balances",
        "offset": 0,
        "slot": "101",
        "type": "t_mapping(t_address,t_uint256)"
      },
      {
        "astId": 34663,
        "contract": "contracts/theta-vault/ThetaVaultContracts.sol:CVIUSDCThetaVault",
        "label": "_allowances",
        "offset": 0,
        "slot": "102",
        "type": "t_mapping(t_address,t_mapping(t_address,t_uint256))"
      },
      {
        "astId": 34665,
        "contract": "contracts/theta-vault/ThetaVaultContracts.sol:CVIUSDCThetaVault",
        "label": "_totalSupply",
        "offset": 0,
        "slot": "103",
        "type": "t_uint256"
      },
      {
        "astId": 34667,
        "contract": "contracts/theta-vault/ThetaVaultContracts.sol:CVIUSDCThetaVault",
        "label": "_name",
        "offset": 0,
        "slot": "104",
        "type": "t_string_storage"
      },
      {
        "astId": 34669,
        "contract": "contracts/theta-vault/ThetaVaultContracts.sol:CVIUSDCThetaVault",
        "label": "_symbol",
        "offset": 0,
        "slot": "105",
        "type": "t_string_storage"
      },
      {
        "astId": 35248,
        "contract": "contracts/theta-vault/ThetaVaultContracts.sol:CVIUSDCThetaVault",
        "label": "__gap",
        "offset": 0,
        "slot": "106",
        "type": "t_array(t_uint256)45_storage"
      },
      {
        "astId": 34593,
        "contract": "contracts/theta-vault/ThetaVaultContracts.sol:CVIUSDCThetaVault",
        "label": "_status",
        "offset": 0,
        "slot": "151",
        "type": "t_uint256"
      },
      {
        "astId": 34637,
        "contract": "contracts/theta-vault/ThetaVaultContracts.sol:CVIUSDCThetaVault",
        "label": "__gap",
        "offset": 0,
        "slot": "152",
        "type": "t_array(t_uint256)49_storage"
      },
      {
        "astId": 10478,
        "contract": "contracts/theta-vault/ThetaVaultContracts.sol:CVIUSDCThetaVault",
        "label": "fulfiller",
        "offset": 0,
        "slot": "201",
        "type": "t_address"
      },
      {
        "astId": 10481,
        "contract": "contracts/theta-vault/ThetaVaultContracts.sol:CVIUSDCThetaVault",
        "label": "token",
        "offset": 0,
        "slot": "202",
        "type": "t_contract(IERC20Upgradeable)35327"
      },
      {
        "astId": 10484,
        "contract": "contracts/theta-vault/ThetaVaultContracts.sol:CVIUSDCThetaVault",
        "label": "platform",
        "offset": 0,
        "slot": "203",
        "type": "t_contract(IPlatform)18123"
      },
      {
        "astId": 10488,
        "contract": "contracts/theta-vault/ThetaVaultContracts.sol:CVIUSDCThetaVault",
        "label": "volToken",
        "offset": 0,
        "slot": "204",
        "type": "t_contract(IVolatilityToken)19308"
      },
      {
        "astId": 10491,
        "contract": "contracts/theta-vault/ThetaVaultContracts.sol:CVIUSDCThetaVault",
        "label": "router",
        "offset": 0,
        "slot": "205",
        "type": "t_contract(IUniswapV2Router02)16665"
      },
      {
        "astId": 10494,
        "contract": "contracts/theta-vault/ThetaVaultContracts.sol:CVIUSDCThetaVault",
        "label": "nextRequestId",
        "offset": 0,
        "slot": "206",
        "type": "t_uint256"
      },
      {
        "astId": 10500,
        "contract": "contracts/theta-vault/ThetaVaultContracts.sol:CVIUSDCThetaVault",
        "label": "requests",
        "offset": 0,
        "slot": "207",
        "type": "t_mapping(t_uint256,t_struct(Request)10461_storage)"
      },
      {
        "astId": 10504,
        "contract": "contracts/theta-vault/ThetaVaultContracts.sol:CVIUSDCThetaVault",
        "label": "lastDepositTimestamp",
        "offset": 0,
        "slot": "208",
        "type": "t_mapping(t_address,t_uint256)"
      },
      {
        "astId": 10506,
        "contract": "contracts/theta-vault/ThetaVaultContracts.sol:CVIUSDCThetaVault",
        "label": "initialTokenToThetaTokenRate",
        "offset": 0,
        "slot": "209",
        "type": "t_uint256"
      },
      {
        "astId": 10508,
        "contract": "contracts/theta-vault/ThetaVaultContracts.sol:CVIUSDCThetaVault",
        "label": "totalDepositRequestsAmount",
        "offset": 0,
        "slot": "210",
        "type": "t_uint256"
      },
      {
        "astId": 10511,
        "contract": "contracts/theta-vault/ThetaVaultContracts.sol:CVIUSDCThetaVault",
        "label": "totalVaultLeveragedAmount",
        "offset": 0,
        "slot": "211",
        "type": "t_uint256"
      },
      {
        "astId": 10513,
        "contract": "contracts/theta-vault/ThetaVaultContracts.sol:CVIUSDCThetaVault",
        "label": "minPoolSkewPercentage",
        "offset": 0,
        "slot": "212",
        "type": "t_uint16"
      },
      {
        "astId": 10516,
        "contract": "contracts/theta-vault/ThetaVaultContracts.sol:CVIUSDCThetaVault",
        "label": "extraLiqidityPercentage",
        "offset": 2,
        "slot": "212",
        "type": "t_uint16"
      },
      {
        "astId": 10518,
        "contract": "contracts/theta-vault/ThetaVaultContracts.sol:CVIUSDCThetaVault",
        "label": "depositCap",
        "offset": 0,
        "slot": "213",
        "type": "t_uint256"
      },
      {
        "astId": 10520,
        "contract": "contracts/theta-vault/ThetaVaultContracts.sol:CVIUSDCThetaVault",
        "label": "requestDelay",
        "offset": 0,
        "slot": "214",
        "type": "t_uint256"
      },
      {
        "astId": 10522,
        "contract": "contracts/theta-vault/ThetaVaultContracts.sol:CVIUSDCThetaVault",
        "label": "lockupPeriod",
        "offset": 0,
        "slot": "215",
        "type": "t_uint256"
      },
      {
        "astId": 10524,
        "contract": "contracts/theta-vault/ThetaVaultContracts.sol:CVIUSDCThetaVault",
        "label": "liquidationPeriod",
        "offset": 0,
        "slot": "216",
        "type": "t_uint256"
      },
      {
        "astId": 10527,
        "contract": "contracts/theta-vault/ThetaVaultContracts.sol:CVIUSDCThetaVault",
        "label": "minRequestId",
        "offset": 0,
        "slot": "217",
        "type": "t_uint256"
      },
      {
        "astId": 10530,
        "contract": "contracts/theta-vault/ThetaVaultContracts.sol:CVIUSDCThetaVault",
        "label": "maxMinRequestIncrements",
        "offset": 0,
        "slot": "218",
        "type": "t_uint256"
      },
      {
        "astId": 10532,
        "contract": "contracts/theta-vault/ThetaVaultContracts.sol:CVIUSDCThetaVault",
        "label": "minDepositAmount",
        "offset": 0,
        "slot": "219",
        "type": "t_uint256"
      },
      {
        "astId": 10534,
        "contract": "contracts/theta-vault/ThetaVaultContracts.sol:CVIUSDCThetaVault",
        "label": "minWithdrawAmount",
        "offset": 0,
        "slot": "220",
        "type": "t_uint256"
      },
      {
        "astId": 10536,
        "contract": "contracts/theta-vault/ThetaVaultContracts.sol:CVIUSDCThetaVault",
        "label": "totalHoldingsAmount",
        "offset": 0,
        "slot": "221",
        "type": "t_uint256"
      },
      {
        "astId": 10538,
        "contract": "contracts/theta-vault/ThetaVaultContracts.sol:CVIUSDCThetaVault",
        "label": "depositHoldingsPercentage",
        "offset": 0,
        "slot": "222",
        "type": "t_uint16"
      },
      {
        "astId": 10541,
        "contract": "contracts/theta-vault/ThetaVaultContracts.sol:CVIUSDCThetaVault",
        "label": "minDexPercentageAllowed",
        "offset": 2,
        "slot": "222",
        "type": "t_uint16"
      },
      {
        "astId": 10544,
        "contract": "contracts/theta-vault/ThetaVaultContracts.sol:CVIUSDCThetaVault",
        "label": "rewardRouter",
        "offset": 4,
        "slot": "222",
        "type": "t_contract(IRewardRouter)33575"
      }
    ],
    "types": {
      "t_address": {
        "encoding": "inplace",
        "label": "address",
        "numberOfBytes": "20"
      },
      "t_array(t_uint256)45_storage": {
        "base": "t_uint256",
        "encoding": "inplace",
        "label": "uint256[45]",
        "numberOfBytes": "1440"
      },
      "t_array(t_uint256)49_storage": {
        "base": "t_uint256",
        "encoding": "inplace",
        "label": "uint256[49]",
        "numberOfBytes": "1568"
      },
      "t_array(t_uint256)50_storage": {
        "base": "t_uint256",
        "encoding": "inplace",
        "label": "uint256[50]",
        "numberOfBytes": "1600"
      },
      "t_bool": {
        "encoding": "inplace",
        "label": "bool",
        "numberOfBytes": "1"
      },
      "t_contract(IERC20Upgradeable)35327": {
        "encoding": "inplace",
        "label": "contract IERC20Upgradeable",
        "numberOfBytes": "20"
      },
      "t_contract(IPlatform)18123": {
        "encoding": "inplace",
        "label": "contract IPlatform",
        "numberOfBytes": "20"
      },
      "t_contract(IRewardRouter)33575": {
        "encoding": "inplace",
        "label": "contract IRewardRouter",
        "numberOfBytes": "20"
      },
      "t_contract(IUniswapV2Router02)16665": {
        "encoding": "inplace",
        "label": "contract IUniswapV2Router02",
        "numberOfBytes": "20"
      },
      "t_contract(IVolatilityToken)19308": {
        "encoding": "inplace",
        "label": "contract IVolatilityToken",
        "numberOfBytes": "20"
      },
      "t_mapping(t_address,t_mapping(t_address,t_uint256))": {
        "encoding": "mapping",
        "key": "t_address",
        "label": "mapping(address => mapping(address => uint256))",
        "numberOfBytes": "32",
        "value": "t_mapping(t_address,t_uint256)"
      },
      "t_mapping(t_address,t_uint256)": {
        "encoding": "mapping",
        "key": "t_address",
        "label": "mapping(address => uint256)",
        "numberOfBytes": "32",
        "value": "t_uint256"
      },
      "t_mapping(t_uint256,t_struct(Request)10461_storage)": {
        "encoding": "mapping",
        "key": "t_uint256",
        "label": "mapping(uint256 => struct ThetaVault.Request)",
        "numberOfBytes": "32",
        "value": "t_struct(Request)10461_storage"
      },
      "t_string_storage": {
        "encoding": "bytes",
        "label": "string",
        "numberOfBytes": "32"
      },
      "t_struct(Request)10461_storage": {
        "encoding": "inplace",
        "label": "struct ThetaVault.Request",
        "members": [
          {
            "astId": 10452,
            "contract": "contracts/theta-vault/ThetaVaultContracts.sol:CVIUSDCThetaVault",
            "label": "requestType",
            "offset": 0,
            "slot": "0",
            "type": "t_uint8"
          },
          {
            "astId": 10454,
            "contract": "contracts/theta-vault/ThetaVaultContracts.sol:CVIUSDCThetaVault",
            "label": "tokenAmount",
            "offset": 1,
            "slot": "0",
            "type": "t_uint168"
          },
          {
            "astId": 10456,
            "contract": "contracts/theta-vault/ThetaVaultContracts.sol:CVIUSDCThetaVault",
            "label": "targetTimestamp",
            "offset": 22,
            "slot": "0",
            "type": "t_uint32"
          },
          {
            "astId": 10458,
            "contract": "contracts/theta-vault/ThetaVaultContracts.sol:CVIUSDCThetaVault",
            "label": "owner",
            "offset": 0,
            "slot": "1",
            "type": "t_address"
          },
          {
            "astId": 10460,
            "contract": "contracts/theta-vault/ThetaVaultContracts.sol:CVIUSDCThetaVault",
            "label": "shouldStake",
            "offset": 20,
            "slot": "1",
            "type": "t_bool"
          }
        ],
        "numberOfBytes": "64"
      },
      "t_uint16": {
        "encoding": "inplace",
        "label": "uint16",
        "numberOfBytes": "2"
      },
      "t_uint168": {
        "encoding": "inplace",
        "label": "uint168",
        "numberOfBytes": "21"
      },
      "t_uint256": {
        "encoding": "inplace",
        "label": "uint256",
        "numberOfBytes": "32"
      },
      "t_uint32": {
        "encoding": "inplace",
        "label": "uint32",
        "numberOfBytes": "4"
      },
      "t_uint8": {
        "encoding": "inplace",
        "label": "uint8",
        "numberOfBytes": "1"
      }
    }
  }
}