{
  "address": "0x44d8998FCB1f50d0C5463582d7ce9a4C27BA5671",
  "abi": [
    {
      "inputs": [],
      "stateMutability": "nonpayable",
      "type": "constructor"
    },
    {
      "anonymous": false,
      "inputs": [
        {
          "indexed": true,
          "internalType": "address",
          "name": "previousOwner",
          "type": "address"
        },
        {
          "indexed": true,
          "internalType": "address",
          "name": "newOwner",
          "type": "address"
        }
      ],
      "name": "OwnershipTransferred",
      "type": "event"
    },
    {
      "inputs": [],
      "name": "MAX_FEE_PERCENTAGE",
      "outputs": [
        {
          "internalType": "uint168",
          "name": "",
          "type": "uint168"
        }
      ],
      "stateMutability": "view",
      "type": "function"
    },
    {
      "inputs": [],
      "name": "afterTargetMaxTime",
      "outputs": [
        {
          "internalType": "uint32",
          "name": "",
          "type": "uint32"
        }
      ],
      "stateMutability": "view",
      "type": "function"
    },
    {
      "inputs": [],
      "name": "afterTargetMaxTimePenaltyFeePercent",
      "outputs": [
        {
          "internalType": "uint16",
          "name": "",
          "type": "uint16"
        }
      ],
      "stateMutability": "view",
      "type": "function"
    },
    {
      "inputs": [],
      "name": "afterTargetMidTime",
      "outputs": [
        {
          "internalType": "uint32",
          "name": "",
          "type": "uint32"
        }
      ],
      "stateMutability": "view",
      "type": "function"
    },
    {
      "inputs": [],
      "name": "afterTargetMidTimePenaltyFeePercent",
      "outputs": [
        {
          "internalType": "uint16",
          "name": "",
          "type": "uint16"
        }
      ],
      "stateMutability": "view",
      "type": "function"
    },
    {
      "inputs": [],
      "name": "beforeTargetTimeMaxPenaltyFeePercent",
      "outputs": [
        {
          "internalType": "uint16",
          "name": "",
          "type": "uint16"
        }
      ],
      "stateMutability": "view",
      "type": "function"
    },
    {
      "inputs": [
        {
          "internalType": "uint256",
          "name": "_tokensLeftAmount",
          "type": "uint256"
        }
      ],
      "name": "calculateFindersFee",
      "outputs": [
        {
          "internalType": "uint256",
          "name": "findersFeeAmount",
          "type": "uint256"
        }
      ],
      "stateMutability": "view",
      "type": "function"
    },
    {
      "inputs": [
        {
          "internalType": "uint256",
          "name": "_tokensAmount",
          "type": "uint256"
        }
      ],
      "name": "calculateKeepersFee",
      "outputs": [
        {
          "internalType": "uint256",
          "name": "keepersFeeAmount",
          "type": "uint256"
        }
      ],
      "stateMutability": "view",
      "type": "function"
    },
    {
      "inputs": [
        {
          "internalType": "uint256",
          "name": "_timeDelay",
          "type": "uint256"
        }
      ],
      "name": "calculateTimeDelayFee",
      "outputs": [
        {
          "internalType": "uint16",
          "name": "feePercentage",
          "type": "uint16"
        }
      ],
      "stateMutability": "view",
      "type": "function"
    },
    {
      "inputs": [
        {
          "components": [
            {
              "internalType": "uint8",
              "name": "requestType",
              "type": "uint8"
            },
            {
              "internalType": "uint168",
              "name": "tokenAmount",
              "type": "uint168"
            },
            {
              "internalType": "uint16",
              "name": "timeDelayRequestFeesPercent",
              "type": "uint16"
            },
            {
              "internalType": "uint16",
              "name": "maxRequestFeesPercent",
              "type": "uint16"
            },
            {
              "internalType": "address",
              "name": "owner",
              "type": "address"
            },
            {
              "internalType": "uint32",
              "name": "requestTimestamp",
              "type": "uint32"
            },
            {
              "internalType": "uint32",
              "name": "targetTimestamp",
              "type": "uint32"
            },
            {
              "internalType": "bool",
              "name": "useKeepers",
              "type": "bool"
            },
            {
              "internalType": "uint16",
              "name": "maxBuyingPremiumFeePercentage",
              "type": "uint16"
            }
          ],
          "internalType": "struct IVolatilityToken.Request",
          "name": "_request",
          "type": "tuple"
        }
      ],
      "name": "calculateTimePenaltyFee",
      "outputs": [
        {
          "internalType": "uint16",
          "name": "feePercentage",
          "type": "uint16"
        }
      ],
      "stateMutability": "view",
      "type": "function"
    },
    {
      "inputs": [],
      "name": "findersFeePercent",
      "outputs": [
        {
          "internalType": "uint16",
          "name": "",
          "type": "uint16"
        }
      ],
      "stateMutability": "view",
      "type": "function"
    },
    {
      "inputs": [],
      "name": "getMaxFees",
      "outputs": [
        {
          "internalType": "uint16",
          "name": "maxFeesPercent",
          "type": "uint16"
        }
      ],
      "stateMutability": "view",
      "type": "function"
    },
    {
      "inputs": [
        {
          "components": [
            {
              "internalType": "uint8",
              "name": "requestType",
              "type": "uint8"
            },
            {
              "internalType": "uint168",
              "name": "tokenAmount",
              "type": "uint168"
            },
            {
              "internalType": "uint16",
              "name": "timeDelayRequestFeesPercent",
              "type": "uint16"
            },
            {
              "internalType": "uint16",
              "name": "maxRequestFeesPercent",
              "type": "uint16"
            },
            {
              "internalType": "address",
              "name": "owner",
              "type": "address"
            },
            {
              "internalType": "uint32",
              "name": "requestTimestamp",
              "type": "uint32"
            },
            {
              "internalType": "uint32",
              "name": "targetTimestamp",
              "type": "uint32"
            },
            {
              "internalType": "bool",
              "name": "useKeepers",
              "type": "bool"
            },
            {
              "internalType": "uint16",
              "name": "maxBuyingPremiumFeePercentage",
              "type": "uint16"
            }
          ],
          "internalType": "struct IVolatilityToken.Request",
          "name": "_request",
          "type": "tuple"
        }
      ],
      "name": "isLiquidable",
      "outputs": [
        {
          "internalType": "bool",
          "name": "liquidable",
          "type": "bool"
        }
      ],
      "stateMutability": "view",
      "type": "function"
    },
    {
      "inputs": [],
      "name": "keepersFeeMax",
      "outputs": [
        {
          "internalType": "uint256",
          "name": "",
          "type": "uint256"
        }
      ],
      "stateMutability": "view",
      "type": "function"
    },
    {
      "inputs": [],
      "name": "keepersFeePercent",
      "outputs": [
        {
          "internalType": "uint16",
          "name": "",
          "type": "uint16"
        }
      ],
      "stateMutability": "view",
      "type": "function"
    },
    {
      "inputs": [],
      "name": "maxTimeDelayFeePercent",
      "outputs": [
        {
          "internalType": "uint16",
          "name": "",
          "type": "uint16"
        }
      ],
      "stateMutability": "view",
      "type": "function"
    },
    {
      "inputs": [],
      "name": "maxTimeWindow",
      "outputs": [
        {
          "internalType": "uint32",
          "name": "",
          "type": "uint32"
        }
      ],
      "stateMutability": "view",
      "type": "function"
    },
    {
      "inputs": [],
      "name": "minTimeDelayFeePercent",
      "outputs": [
        {
          "internalType": "uint16",
          "name": "",
          "type": "uint16"
        }
      ],
      "stateMutability": "view",
      "type": "function"
    },
    {
      "inputs": [],
      "name": "minTimeWindow",
      "outputs": [
        {
          "internalType": "uint32",
          "name": "",
          "type": "uint32"
        }
      ],
      "stateMutability": "view",
      "type": "function"
    },
    {
      "inputs": [],
      "name": "minWaitTime",
      "outputs": [
        {
          "internalType": "uint32",
          "name": "",
          "type": "uint32"
        }
      ],
      "stateMutability": "view",
      "type": "function"
    },
    {
      "inputs": [],
      "name": "owner",
      "outputs": [
        {
          "internalType": "address",
          "name": "",
          "type": "address"
        }
      ],
      "stateMutability": "view",
      "type": "function"
    },
    {
      "inputs": [],
      "name": "renounceOwnership",
      "outputs": [],
      "stateMutability": "nonpayable",
      "type": "function"
    },
    {
      "inputs": [
        {
          "internalType": "uint16",
          "name": "_findersFeePercent",
          "type": "uint16"
        }
      ],
      "name": "setFindersFee",
      "outputs": [],
      "stateMutability": "nonpayable",
      "type": "function"
    },
    {
      "inputs": [
        {
          "internalType": "uint256",
          "name": "_keepersFeeMax",
          "type": "uint256"
        }
      ],
      "name": "setKeepersFeeMax",
      "outputs": [],
      "stateMutability": "nonpayable",
      "type": "function"
    },
    {
      "inputs": [
        {
          "internalType": "uint16",
          "name": "_keepersFeePercent",
          "type": "uint16"
        }
      ],
      "name": "setKeepersFeePercent",
      "outputs": [],
      "stateMutability": "nonpayable",
      "type": "function"
    },
    {
      "inputs": [
        {
          "internalType": "uint32",
          "name": "_minWaitTime",
          "type": "uint32"
        }
      ],
      "name": "setMinWaitTime",
      "outputs": [],
      "stateMutability": "nonpayable",
      "type": "function"
    },
    {
      "inputs": [
        {
          "internalType": "uint16",
          "name": "_minTimeDelayFeePercent",
          "type": "uint16"
        },
        {
          "internalType": "uint16",
          "name": "_maxTimeDelayFeePercent",
          "type": "uint16"
        }
      ],
      "name": "setTimeDelayFeesParameters",
      "outputs": [],
      "stateMutability": "nonpayable",
      "type": "function"
    },
    {
      "inputs": [
        {
          "internalType": "uint16",
          "name": "_beforeTargetTimeMaxPenaltyFeePercent",
          "type": "uint16"
        },
        {
          "internalType": "uint32",
          "name": "_afterTargetMidTime",
          "type": "uint32"
        },
        {
          "internalType": "uint16",
          "name": "_afterTargetMidTimePenaltyFeePercent",
          "type": "uint16"
        },
        {
          "internalType": "uint32",
          "name": "_afterTargetMaxTime",
          "type": "uint32"
        },
        {
          "internalType": "uint16",
          "name": "_afterTargetMaxTimePenaltyFeePercent",
          "type": "uint16"
        }
      ],
      "name": "setTimePenaltyFeeParameters",
      "outputs": [],
      "stateMutability": "nonpayable",
      "type": "function"
    },
    {
      "inputs": [
        {
          "internalType": "uint32",
          "name": "_minTimeWindow",
          "type": "uint32"
        },
        {
          "internalType": "uint32",
          "name": "_maxTimeWindow",
          "type": "uint32"
        }
      ],
      "name": "setTimeWindow",
      "outputs": [],
      "stateMutability": "nonpayable",
      "type": "function"
    },
    {
      "inputs": [
        {
          "internalType": "address",
          "name": "newOwner",
          "type": "address"
        }
      ],
      "name": "transferOwnership",
      "outputs": [],
      "stateMutability": "nonpayable",
      "type": "function"
    }
  ],
  "transactionHash": "0x32e102cdfcd984aa3780959ab3305529e1038650d5405cbfe7fb11586cb42f71",
  "args": [],
  "numDeployments": 1,
  "solcInputHash": "8d836039a3333aa7ff1a69dee5a5f235",
  "bytecode": "0x6080604052600080546001600160a01b03167e64000000002a3000000e100000000000000000000000000000000000000000179055600180546001600160701b0319166c64138801f4012c012c00000384179055623d0900600255600380546001600160401b03191665a8c000000e1017905534801561007e57600080fd5b506100883361008d565b6100dd565b600080546001600160a01b038381166001600160a01b0319831681178455604051919092169283917f8be0079c531659141344cd1fd0a4f28419497f9722a3daafe3b4186f6b6457e09190a35050565b611363806100ec6000396000f3fe608060405234801561001057600080fd5b50600436106101da5760003560e01c8063738b553f11610104578063a5759c93116100a2578063ce521f2611610071578063ce521f261461042e578063ce6457621461043e578063d0b6865214610451578063f2fde38b1461046857600080fd5b8063a5759c93146103df578063a8859ed1146103f4578063bb8870a91461040b578063bf0ded661461041e57600080fd5b806386734080116100de57806386734080146103895780638da5cb5b1461039e5780639188a6e6146103b9578063956872ca146103cc57600080fd5b8063738b553f1461034e5780637693aa611461036357806377c46f801461037657600080fd5b80634f592a501161017c57806363d7f4c41161014b57806363d7f4c41461030d5780636417b0e0146103205780636f15d7b014610333578063715018a61461034657600080fd5b80634f592a50146102af578063530fd7af146102c4578063558e44d3146102d9578063591b36f7146102fa57600080fd5b806322470032116101b8578063224700321461025957806326db8a311461026e5780632e5ad60514610283578063334a88c81461029857600080fd5b8063051a497b146101df5780630d7310091461020a57806315b3b87314610236575b600080fd5b6101f26101ed3660046111b5565b61047b565b60405161ffff90911681526020015b60405180910390f35b60035461022190600160201b900463ffffffff1681565b60405163ffffffff9091168152602001610201565b6102496102443660046110ed565b6105cd565b6040519015158152602001610201565b6001546101f290600160401b900461ffff1681565b61028161027c3660046111b5565b610617565b005b6001546101f290600160301b900461ffff1681565b6102a160025481565b604051908152602001610201565b6001546101f290600160201b900461ffff1681565b6001546101f290600160501b900461ffff1681565b6102e261271081565b6040516001600160a81b039091168152602001610201565b6102a16103083660046111b5565b610646565b61028161031b366004611105565b610686565b61028161032e3660046111cd565b61071e565b6102816103413660046111e7565b6107c6565b610281610883565b6000546101f290600160f01b900461ffff1681565b6102a16103713660046111b5565b6108b9565b600154600160401b900461ffff166101f2565b6001546101f290600160601b900461ffff1681565b6000546040516001600160a01b039091168152602001610201565b6102816103c7366004611151565b6108e2565b6101f26103da3660046110ed565b610b46565b6000546101f290600160e01b900461ffff1681565b60005461022190600160a01b900463ffffffff1681565b61028161041936600461111f565b610db9565b6003546102219063ffffffff1681565b6001546102219063ffffffff1681565b61028161044c366004611105565b610f16565b60005461022190600160c01b900463ffffffff1681565b6102816104763660046110bf565b610fae565b60008054600160a01b900463ffffffff168210156104d75760405162461bcd60e51b8152602060048201526014602482015273151a5b594819195b185e481d1bdbc81cdb585b1b60621b60448201526064015b60405180910390fd5b600054600160c01b900463ffffffff1682111561052b5760405162461bcd60e51b815260206004820152601260248201527154696d652064656c617920746f6f2062696760701b60448201526064016104ce565b60005461054e9063ffffffff600160a01b8204811691600160c01b9004166112fe565b60005463ffffffff91909116906105799061ffff600160e01b8204811691600160f01b9004166112c4565b60005461ffff919091169061059b90600160a01b900463ffffffff16856112e7565b6105a591906112a5565b6105af9190611285565b6000546105c79190600160f01b900461ffff166112e7565b92915050565b600354600090600160201b900463ffffffff166105f060e0840160c085016111cd565b6105fa919061125d565b63ffffffff1642111561060f57506001919050565b506000919050565b6000546001600160a01b031633146106415760405162461bcd60e51b81526004016104ce90611210565b600255565b60015460009081906127109061066790600160601b900461ffff16856112a5565b6106719190611285565b905060025481106105c7575050600254919050565b6000546001600160a01b031633146106b05760405162461bcd60e51b81526004016104ce90611210565b61271061ffff821611156106fc5760405162461bcd60e51b815260206004820152601360248201527208ccaca40d8c2e4cecae440e8d0c2dc40dac2f606b1b60448201526064016104ce565b6001805461ffff909216600160601b0261ffff60601b19909216919091179055565b6000546001600160a01b031633146107485760405162461bcd60e51b81526004016104ce90611210565b60005463ffffffff600160a01b9091048116908216106107aa5760405162461bcd60e51b815260206004820152601760248201527f4d696e20776169742074696d6520696e2077696e646f7700000000000000000060448201526064016104ce565b6001805463ffffffff191663ffffffff92909216919091179055565b6000546001600160a01b031633146107f05760405162461bcd60e51b81526004016104ce90611210565b8063ffffffff168263ffffffff1611156108435760405162461bcd60e51b815260206004820152601460248201527326b0bc1034b9903632b9b9903a3430b71036b4b760611b60448201526064016104ce565b6000805467ffffffffffffffff60a01b1916600160a01b63ffffffff9485160263ffffffff60c01b191617600160c01b9290931691909102919091179055565b6000546001600160a01b031633146108ad5760405162461bcd60e51b81526004016104ce90611210565b6108b76000611049565b565b600154600090612710906108d890600160501b900461ffff16846112a5565b6105c79190611285565b6000546001600160a01b0316331461090c5760405162461bcd60e51b81526004016104ce90611210565b61271061ffff861611156109625760405162461bcd60e51b815260206004820152601b60248201527f4d696e20666565206c6172676572207468616e206d617820666565000000000060448201526064016104ce565b61271061ffff841611156109b85760405162461bcd60e51b815260206004820152601b60248201527f4d696420666565206c6172676572207468616e206d617820666565000000000060448201526064016104ce565b61271061ffff82161115610a0e5760405162461bcd60e51b815260206004820152601b60248201527f4d617820666565206c6172676572207468616e206d617820666565000000000060448201526064016104ce565b8163ffffffff168463ffffffff161115610a6a5760405162461bcd60e51b815260206004820152601860248201527f4d61782074696d65206265666f7265206d69642074696d65000000000000000060448201526064016104ce565b8061ffff168361ffff161115610ac25760405162461bcd60e51b815260206004820152601960248201527f4d617820666565206c657373207468616e206d6964206665650000000000000060448201526064016104ce565b600180546003805463ffffffff97881667ffffffffffffffff1990911617600160201b9590971685029690961790955567ffffffff000000001990941661ffff95861690920267ffff000000000000191691909117600160301b928516929092029190911769ffff00000000000000001916600160401b9190931602919091179055565b600154600160401b900461ffff16610b6460e0830160c084016111cd565b63ffffffff16421015610c625760015463ffffffff16610b8a60c0840160a085016111cd565b610b94919061125d565b63ffffffff16421015610be25760405162461bcd60e51b815260206004820152601660248201527526b4b7103bb0b4ba103a34b6b2903737ba1037bb32b960511b60448201526064016104ce565b60015463ffffffff16610bfb60c0840160a085016111cd565b610c0b60e0850160c086016111cd565b610c1591906112fe565b610c1f91906112fe565b60015463ffffffff9190911690600160201b900461ffff1642610c4860e0860160c087016111cd565b63ffffffff16610c5891906112e7565b6108d891906112a5565b60035463ffffffff16610c7b60e0840160c085016111cd565b610c85919061125d565b63ffffffff16421015610ccc5760035460015463ffffffff90911690600160301b900461ffff16610cbc60e0850160c086016111cd565b610c589063ffffffff16426112e7565b600354600160201b900463ffffffff16610cec60e0840160c085016111cd565b610cf6919061125d565b63ffffffff16421015610db457600154600354600160301b90910461ffff1690610d309063ffffffff80821691600160201b9004166112fe565b60015463ffffffff9190911690610d5b9061ffff600160301b8204811691600160401b9004166112c4565b60035461ffff919091169063ffffffff16610d7c60e0870160c088016111cd565b610d8c9063ffffffff16426112e7565b610d9691906112e7565b610da091906112a5565b610daa9190611285565b6105c79190611245565b919050565b6000546001600160a01b03163314610de35760405162461bcd60e51b81526004016104ce90611210565b61271061ffff83161115610e395760405162461bcd60e51b815260206004820152601b60248201527f4d696e20666565206c6172676572207468616e206d617820666565000000000060448201526064016104ce565b61271061ffff82161115610e8f5760405162461bcd60e51b815260206004820152601b60248201527f4d617820666565206c6172676572207468616e206d617820666565000000000060448201526064016104ce565b8061ffff168261ffff161115610ede5760405162461bcd60e51b815260206004820152601460248201527326b0bc1034b9903632b9b9903a3430b71036b4b760611b60448201526064016104ce565b600080546001600160e01b0316600160e01b61ffff948516026001600160f01b031617600160f01b9290931691909102919091179055565b6000546001600160a01b03163314610f405760405162461bcd60e51b81526004016104ce90611210565b61271061ffff82161115610f8c5760405162461bcd60e51b815260206004820152601360248201527208ccaca40d8c2e4cecae440e8d0c2dc40dac2f606b1b60448201526064016104ce565b6001805461ffff909216600160501b0261ffff60501b19909216919091179055565b6000546001600160a01b03163314610fd85760405162461bcd60e51b81526004016104ce90611210565b6001600160a01b03811661103d5760405162461bcd60e51b815260206004820152602660248201527f4f776e61626c653a206e6577206f776e657220697320746865207a65726f206160448201526564647265737360d01b60648201526084016104ce565b61104681611049565b50565b600080546001600160a01b038381166001600160a01b0319831681178455604051919092169283917f8be0079c531659141344cd1fd0a4f28419497f9722a3daafe3b4186f6b6457e09190a35050565b803561ffff81168114610db457600080fd5b803563ffffffff81168114610db457600080fd5b6000602082840312156110d0578081fd5b81356001600160a01b03811681146110e6578182fd5b9392505050565b600061012082840312156110ff578081fd5b50919050565b600060208284031215611116578081fd5b6110e682611099565b60008060408385031215611131578081fd5b61113a83611099565b915061114860208401611099565b90509250929050565b600080600080600060a08688031215611168578081fd5b61117186611099565b945061117f602087016110ab565b935061118d60408701611099565b925061119b606087016110ab565b91506111a960808701611099565b90509295509295909350565b6000602082840312156111c6578081fd5b5035919050565b6000602082840312156111de578081fd5b6110e6826110ab565b600080604083850312156111f9578182fd5b611202836110ab565b9150611148602084016110ab565b6020808252818101527f4f776e61626c653a2063616c6c6572206973206e6f7420746865206f776e6572604082015260600190565b6000821982111561125857611258611317565b500190565b600063ffffffff80831681851680830382111561127c5761127c611317565b01949350505050565b6000826112a057634e487b7160e01b81526012600452602481fd5b500490565b60008160001904831182151516156112bf576112bf611317565b500290565b600061ffff838116908316818110156112df576112df611317565b039392505050565b6000828210156112f9576112f9611317565b500390565b600063ffffffff838116908316818110156112df576112df5b634e487b7160e01b600052601160045260246000fdfea2646970667358221220d8e84946906a1eaf64c59ecf80e1ed5e25f0b8d925a88c863350a50a3a5474ab64736f6c63430008040033",
  "devdoc": {
    "kind": "dev",
    "methods": {
      "owner()": {
        "details": "Returns the address of the current owner."
      },
      "renounceOwnership()": {
        "details": "Leaves the contract without owner. It will not be possible to call `onlyOwner` functions anymore. Can only be called by the current owner. NOTE: Renouncing ownership will leave the contract without an owner, thereby removing any functionality that is only available to the owner."
      },
      "transferOwnership(address)": {
        "details": "Transfers ownership of the contract to a new account (`newOwner`). Can only be called by the current owner."
      }
    },
    "version": 1
  },
  "userdoc": {
    "kind": "user",
    "methods": {},
    "version": 1
  },
  "storageLayout": {
    "storage": [
      {
        "astId": 37156,
        "contract": "contracts/volatility-token/RequestFeesCalculatorContracts.sol:CVIUSDCRequestFeesCalculator",
        "label": "_owner",
        "offset": 0,
        "slot": "0",
        "type": "t_address"
      },
      {
        "astId": 8986,
        "contract": "contracts/volatility-token/RequestFeesCalculatorContracts.sol:CVIUSDCRequestFeesCalculator",
        "label": "minTimeWindow",
        "offset": 20,
        "slot": "0",
        "type": "t_uint32"
      },
      {
        "astId": 8989,
        "contract": "contracts/volatility-token/RequestFeesCalculatorContracts.sol:CVIUSDCRequestFeesCalculator",
        "label": "maxTimeWindow",
        "offset": 24,
        "slot": "0",
        "type": "t_uint32"
      },
      {
        "astId": 8992,
        "contract": "contracts/volatility-token/RequestFeesCalculatorContracts.sol:CVIUSDCRequestFeesCalculator",
        "label": "minTimeDelayFeePercent",
        "offset": 28,
        "slot": "0",
        "type": "t_uint16"
      },
      {
        "astId": 8995,
        "contract": "contracts/volatility-token/RequestFeesCalculatorContracts.sol:CVIUSDCRequestFeesCalculator",
        "label": "maxTimeDelayFeePercent",
        "offset": 30,
        "slot": "0",
        "type": "t_uint16"
      },
      {
        "astId": 8999,
        "contract": "contracts/volatility-token/RequestFeesCalculatorContracts.sol:CVIUSDCRequestFeesCalculator",
        "label": "minWaitTime",
        "offset": 0,
        "slot": "1",
        "type": "t_uint32"
      },
      {
        "astId": 9002,
        "contract": "contracts/volatility-token/RequestFeesCalculatorContracts.sol:CVIUSDCRequestFeesCalculator",
        "label": "beforeTargetTimeMaxPenaltyFeePercent",
        "offset": 4,
        "slot": "1",
        "type": "t_uint16"
      },
      {
        "astId": 9005,
        "contract": "contracts/volatility-token/RequestFeesCalculatorContracts.sol:CVIUSDCRequestFeesCalculator",
        "label": "afterTargetMidTimePenaltyFeePercent",
        "offset": 6,
        "slot": "1",
        "type": "t_uint16"
      },
      {
        "astId": 9008,
        "contract": "contracts/volatility-token/RequestFeesCalculatorContracts.sol:CVIUSDCRequestFeesCalculator",
        "label": "afterTargetMaxTimePenaltyFeePercent",
        "offset": 8,
        "slot": "1",
        "type": "t_uint16"
      },
      {
        "astId": 9011,
        "contract": "contracts/volatility-token/RequestFeesCalculatorContracts.sol:CVIUSDCRequestFeesCalculator",
        "label": "findersFeePercent",
        "offset": 10,
        "slot": "1",
        "type": "t_uint16"
      },
      {
        "astId": 9014,
        "contract": "contracts/volatility-token/RequestFeesCalculatorContracts.sol:CVIUSDCRequestFeesCalculator",
        "label": "keepersFeePercent",
        "offset": 12,
        "slot": "1",
        "type": "t_uint16"
      },
      {
        "astId": 9017,
        "contract": "contracts/volatility-token/RequestFeesCalculatorContracts.sol:CVIUSDCRequestFeesCalculator",
        "label": "keepersFeeMax",
        "offset": 0,
        "slot": "2",
        "type": "t_uint256"
      },
      {
        "astId": 9020,
        "contract": "contracts/volatility-token/RequestFeesCalculatorContracts.sol:CVIUSDCRequestFeesCalculator",
        "label": "afterTargetMidTime",
        "offset": 0,
        "slot": "3",
        "type": "t_uint32"
      },
      {
        "astId": 9023,
        "contract": "contracts/volatility-token/RequestFeesCalculatorContracts.sol:CVIUSDCRequestFeesCalculator",
        "label": "afterTargetMaxTime",
        "offset": 4,
        "slot": "3",
        "type": "t_uint32"
      }
    ],
    "types": {
      "t_address": {
        "encoding": "inplace",
        "label": "address",
        "numberOfBytes": "20"
      },
      "t_uint16": {
        "encoding": "inplace",
        "label": "uint16",
        "numberOfBytes": "2"
      },
      "t_uint256": {
        "encoding": "inplace",
        "label": "uint256",
        "numberOfBytes": "32"
      },
      "t_uint32": {
        "encoding": "inplace",
        "label": "uint32",
        "numberOfBytes": "4"
      }
    }
  }
}