{
  "address": "0x0ac1DB24E39d9325cE240B56A150B04847175358",
  "abi": [
    {
      "inputs": [],
      "stateMutability": "nonpayable",
      "type": "constructor"
    },
    {
      "anonymous": false,
      "inputs": [
        {
          "indexed": false,
          "internalType": "uint8",
          "name": "version",
          "type": "uint8"
        }
      ],
      "name": "Initialized",
      "type": "event"
    },
    {
      "anonymous": false,
      "inputs": [
        {
          "indexed": true,
          "internalType": "address",
          "name": "previousOwner",
          "type": "address"
        },
        {
          "indexed": true,
          "internalType": "address",
          "name": "newOwner",
          "type": "address"
        }
      ],
      "name": "OwnershipTransferred",
      "type": "event"
    },
    {
      "inputs": [],
      "name": "BURN_REQUEST_TYPE",
      "outputs": [
        {
          "internalType": "uint8",
          "name": "",
          "type": "uint8"
        }
      ],
      "stateMutability": "view",
      "type": "function"
    },
    {
      "inputs": [],
      "name": "MINT_REQUEST_TYPE",
      "outputs": [
        {
          "internalType": "uint8",
          "name": "",
          "type": "uint8"
        }
      ],
      "stateMutability": "view",
      "type": "function"
    },
    {
      "inputs": [
        {
          "internalType": "bytes",
          "name": "",
          "type": "bytes"
        }
      ],
      "name": "checkUpkeep",
      "outputs": [
        {
          "internalType": "bool",
          "name": "upkeepNeeded",
          "type": "bool"
        },
        {
          "internalType": "bytes",
          "name": "performData",
          "type": "bytes"
        }
      ],
      "stateMutability": "view",
      "type": "function"
    },
    {
      "inputs": [],
      "name": "enableWhitelist",
      "outputs": [
        {
          "internalType": "bool",
          "name": "",
          "type": "bool"
        }
      ],
      "stateMutability": "view",
      "type": "function"
    },
    {
      "inputs": [
        {
          "internalType": "address",
          "name": "",
          "type": "address"
        }
      ],
      "name": "fulfillers",
      "outputs": [
        {
          "internalType": "bool",
          "name": "",
          "type": "bool"
        }
      ],
      "stateMutability": "view",
      "type": "function"
    },
    {
      "inputs": [
        {
          "internalType": "contract IRequestManager",
          "name": "_requestManager",
          "type": "address"
        }
      ],
      "name": "initialize",
      "outputs": [],
      "stateMutability": "nonpayable",
      "type": "function"
    },
    {
      "inputs": [],
      "name": "owner",
      "outputs": [
        {
          "internalType": "address",
          "name": "",
          "type": "address"
        }
      ],
      "stateMutability": "view",
      "type": "function"
    },
    {
      "inputs": [
        {
          "internalType": "bytes",
          "name": "",
          "type": "bytes"
        }
      ],
      "name": "performUpkeep",
      "outputs": [],
      "stateMutability": "nonpayable",
      "type": "function"
    },
    {
      "inputs": [],
      "name": "renounceOwnership",
      "outputs": [],
      "stateMutability": "nonpayable",
      "type": "function"
    },
    {
      "inputs": [],
      "name": "requestManager",
      "outputs": [
        {
          "internalType": "contract IRequestManager",
          "name": "",
          "type": "address"
        }
      ],
      "stateMutability": "view",
      "type": "function"
    },
    {
      "inputs": [
        {
          "internalType": "bool",
          "name": "_enableWhitelist",
          "type": "bool"
        }
      ],
      "name": "setEnableWhitelist",
      "outputs": [],
      "stateMutability": "nonpayable",
      "type": "function"
    },
    {
      "inputs": [
        {
          "internalType": "address",
          "name": "user",
          "type": "address"
        },
        {
          "internalType": "bool",
          "name": "isAllowed",
          "type": "bool"
        }
      ],
      "name": "setFulfillerAddress",
      "outputs": [],
      "stateMutability": "nonpayable",
      "type": "function"
    },
    {
      "inputs": [
        {
          "internalType": "contract IRequestManager",
          "name": "_requestManager",
          "type": "address"
        }
      ],
      "name": "setRequestManager",
      "outputs": [],
      "stateMutability": "nonpayable",
      "type": "function"
    },
    {
      "inputs": [
        {
          "internalType": "address",
          "name": "newOwner",
          "type": "address"
        }
      ],
      "name": "transferOwnership",
      "outputs": [],
      "stateMutability": "nonpayable",
      "type": "function"
    }
  ],
  "transactionHash": "0x9867765f99682faab6035c19cd1ae2ce89204a1a5c420f20263cd0ef49936d9f",
  "args": [],
  "numDeployments": 1,
  "solcInputHash": "7f3c46bae143bb40321ae0fb3b8535cc",
  "bytecode": "0x608060405234801561001057600080fd5b506110f4806100206000396000f3fe608060405234801561001057600080fd5b50600436106100ea5760003560e01c80638da5cb5b1161008c578063cdfb2b4e11610066578063cdfb2b4e146101f0578063e530413b14610204578063f2fde38b1461020c578063fd84030c1461021f57600080fd5b80638da5cb5b14610185578063ae022496146101aa578063c4d66de8146101dd57600080fd5b80636e04ff0d116100c85780636e04ff0d14610136578063715018a61461015757806378f9ccf21461015f57806380a765221461017257600080fd5b80634585e33b146100ef57806347d8ca801461010457806369477ad214610123575b600080fd5b6101026100fd366004610da9565b610232565b005b61010c600181565b60405160ff90911681526020015b60405180910390f35b610102610131366004610d55565b6103e0565b610149610144366004610da9565b610435565b60405161011a929190610f10565b61010261047c565b61010261016d366004610d8d565b6104b2565b610102610180366004610d32565b6104fa565b6033546001600160a01b03165b6040516001600160a01b03909116815260200161011a565b6101cd6101b8366004610d32565b60666020526000908152604090205460ff1681565b604051901515815260200161011a565b6101026101eb366004610d32565b610546565b6065546101cd90600160a01b900460ff1681565b61010c600281565b61010261021a366004610d32565b6105df565b606554610192906001600160a01b031681565b606554600160a01b900460ff16158061025a57503360009081526066602052604090205460ff165b6102995760405162461bcd60e51b815260206004820152600b60248201526a139bdd08185b1b1bddd95960aa1b60448201526064015b60405180910390fd5b60006102a361067a565b9050806000815181106102c657634e487b7160e01b600052603260045260246000fd5b60200260200101516000141561031e5760405162461bcd60e51b815260206004820152601760248201527f4e6f2066756c66696c6c61626c652072657175657374730000000000000000006044820152606401610290565b6000805b825181101561038c57600083828151811061034d57634e487b7160e01b600052603260045260246000fd5b602002602001015190508060001461037957600061036a82610915565b9050801561037757600193505b505b50806103848161106a565b915050610322565b50806103da5760405162461bcd60e51b815260206004820152601a60248201527f4661696c656420746f2066756c66696c6c2072657175657374730000000000006044820152606401610290565b50505050565b6033546001600160a01b0316331461040a5760405162461bcd60e51b815260040161029090610fbb565b6001600160a01b03919091166000908152606660205260409020805460ff1916911515919091179055565b60006060600061044361067a565b90508060008151811061046657634e487b7160e01b600052603260045260246000fd5b6020026020010151600014159250509250929050565b6033546001600160a01b031633146104a65760405162461bcd60e51b815260040161029090610fbb565b6104b06000610aef565b565b6033546001600160a01b031633146104dc5760405162461bcd60e51b815260040161029090610fbb565b60658054911515600160a01b0260ff60a01b19909216919091179055565b6033546001600160a01b031633146105245760405162461bcd60e51b815260040161029090610fbb565b606580546001600160a01b0319166001600160a01b0392909216919091179055565b60006105526001610b41565b9050801561056a576000805461ff0019166101001790555b610572610bce565b606580546001600160a01b0384166001600160a81b031990911617600160a01b17905580156105db576000805461ff0019169055604051600181527f7f26b83ff96e1f2b6a682f133852f6798a09c465da95921460cefb38474024989060200160405180910390a15b5050565b6033546001600160a01b031633146106095760405162461bcd60e51b815260040161029090610fbb565b6001600160a01b03811661066e5760405162461bcd60e51b815260206004820152602660248201527f4f776e61626c653a206e6577206f776e657220697320746865207a65726f206160448201526564647265737360d01b6064820152608401610290565b61067781610aef565b50565b60606000606560009054906101000a90046001600160a01b03166001600160a01b0316636a84a9856040518163ffffffff1660e01b815260040160206040518083038186803b1580156106cc57600080fd5b505afa1580156106e0573d6000803e3d6000fd5b505050506040513d601f19601f820116820180604052508101906107049190610e16565b90506000606560009054906101000a90046001600160a01b03166001600160a01b031663a5cfa15c6040518163ffffffff1660e01b815260040160206040518083038186803b15801561075657600080fd5b505afa15801561076a573d6000803e3d6000fd5b505050506040513d601f19601f8201168201806040525081019061078e9190610e16565b90506000606560009054906101000a90046001600160a01b03166001600160a01b03166376b27f336040518163ffffffff1660e01b815260040160206040518083038186803b1580156107e057600080fd5b505afa1580156107f4573d6000803e3d6000fd5b505050506040513d601f19601f820116820180604052508101906108189190610e16565b90506000610826838361103b565b841061083b57610836838361103b565b61083d565b835b90506108498282611053565b61085490600161103b565b67ffffffffffffffff81111561087a57634e487b7160e01b600052604160045260246000fd5b6040519080825280602002602001820160405280156108a3578160200160208202803683370190505b5094506000825b8281101561090c576108bb81610bfd565b156108fa57808783815181106108e157634e487b7160e01b600052603260045260246000fd5b6020908102919091010152816108f68161106a565b9250505b806109048161106a565b9150506108aa565b50505050505090565b60655460405163103a258b60e31b8152600481018390526000916001600160a01b0316908290819083906381d12c58906024016101206040518083038186803b15801561096157600080fd5b505afa158015610975573d6000803e3d6000fd5b505050506040513d601f19601f820116820180604052508101906109999190610e52565b9850505050505050509150600160ff168260ff161415610a545760405163d0a9278160e01b81526004810186905261ffff82166024820152600160448201526000906001600160a01b0385169063d0a92781906064016040805180830381600087803b158015610a0857600080fd5b505af1158015610a1c573d6000803e3d6000fd5b505050506040513d601f19601f82011682018060405250810190610a409190610e2e565b9150508015610a4e57600194505b50610ae7565b60ff821660021415610ae757604051636d72775560e01b815260048101869052600160248201526001600160a01b03841690636d72775590604401602060405180830381600087803b158015610aa957600080fd5b505af1158015610abd573d6000803e3d6000fd5b505050506040513d601f19601f82011682018060405250810190610ae19190610e16565b50600193505b505050919050565b603380546001600160a01b038381166001600160a01b0319831681179093556040519116919082907f8be0079c531659141344cd1fd0a4f28419497f9722a3daafe3b4186f6b6457e090600090a35050565b60008054610100900460ff1615610b88578160ff166001148015610b645750303b155b610b805760405162461bcd60e51b815260040161029090610f6d565b506000919050565b60005460ff808416911610610baf5760405162461bcd60e51b815260040161029090610f6d565b506000805460ff191660ff92909216919091179055600190565b919050565b600054610100900460ff16610bf55760405162461bcd60e51b815260040161029090610ff0565b6104b0610cd1565b60655460405163103a258b60e31b8152600481018390526000918291829182916001600160a01b03909116906381d12c58906024016101206040518083038186803b158015610c4b57600080fd5b505afa158015610c5f573d6000803e3d6000fd5b505050506040513d601f19601f82011682018060405250810190610c839190610e52565b50975097505096505050505060006001600160a01b0316836001600160a01b031614158015610caf5750805b8015610cc157508163ffffffff164210155b15610ae757506001949350505050565b600054610100900460ff16610cf85760405162461bcd60e51b815260040161029090610ff0565b6104b033610aef565b8051610bc9816110b0565b805161ffff81168114610bc957600080fd5b805163ffffffff81168114610bc957600080fd5b600060208284031215610d43578081fd5b8135610d4e8161109b565b9392505050565b60008060408385031215610d67578081fd5b8235610d728161109b565b91506020830135610d82816110b0565b809150509250929050565b600060208284031215610d9e578081fd5b8135610d4e816110b0565b60008060208385031215610dbb578182fd5b823567ffffffffffffffff80821115610dd2578384fd5b818501915085601f830112610de5578384fd5b813581811115610df3578485fd5b866020828501011115610e04578485fd5b60209290920196919550909350505050565b600060208284031215610e27578081fd5b5051919050565b60008060408385031215610e40578182fd5b825191506020830151610d82816110b0565b60008060008060008060008060006101208a8c031215610e70578485fd5b895160ff81168114610e80578586fd5b60208b01519099506001600160a81b0381168114610e9c578586fd5b9750610eaa60408b01610d0c565b9650610eb860608b01610d0c565b955060808a0151610ec88161109b565b9450610ed660a08b01610d1e565b9350610ee460c08b01610d1e565b9250610ef260e08b01610d01565b9150610f016101008b01610d0c565b90509295985092959850929598565b8215158152600060206040818401528351806040850152825b81811015610f4557858101830151858201606001528201610f29565b81811115610f565783606083870101525b50601f01601f191692909201606001949350505050565b6020808252602e908201527f496e697469616c697a61626c653a20636f6e747261637420697320616c72656160408201526d191e481a5b9a5d1a585b1a5e995960921b606082015260800190565b6020808252818101527f4f776e61626c653a2063616c6c6572206973206e6f7420746865206f776e6572604082015260600190565b6020808252602b908201527f496e697469616c697a61626c653a20636f6e7472616374206973206e6f74206960408201526a6e697469616c697a696e6760a81b606082015260800190565b6000821982111561104e5761104e611085565b500190565b60008282101561106557611065611085565b500390565b600060001982141561107e5761107e611085565b5060010190565b634e487b7160e01b600052601160045260246000fd5b6001600160a01b038116811461067757600080fd5b801515811461067757600080fdfea264697066735822122009dd13799d5a31f2539566bc1add8a8e14cc7fe2e49a7cbe24f373ce4a1bce7564736f6c63430008040033",
  "devdoc": {
    "kind": "dev",
    "methods": {
      "owner()": {
        "details": "Returns the address of the current owner."
      },
      "renounceOwnership()": {
        "details": "Leaves the contract without owner. It will not be possible to call `onlyOwner` functions anymore. Can only be called by the current owner. NOTE: Renouncing ownership will leave the contract without an owner, thereby removing any functionality that is only available to the owner."
      },
      "transferOwnership(address)": {
        "details": "Transfers ownership of the contract to a new account (`newOwner`). Can only be called by the current owner."
      }
    },
    "version": 1
  },
  "userdoc": {
    "kind": "user",
    "methods": {},
    "version": 1
  },
  "storageLayout": {
    "storage": [
      {
        "astId": 33671,
        "contract": "contracts/volatility-token/VolatilityTokenRequestFulfillerContracts.sol:CVIUSDCVolTokenRequestFulfiller",
        "label": "_initialized",
        "offset": 0,
        "slot": "0",
        "type": "t_uint8"
      },
      {
        "astId": 33674,
        "contract": "contracts/volatility-token/VolatilityTokenRequestFulfillerContracts.sol:CVIUSDCVolTokenRequestFulfiller",
        "label": "_initializing",
        "offset": 1,
        "slot": "0",
        "type": "t_bool"
      },
      {
        "astId": 36528,
        "contract": "contracts/volatility-token/VolatilityTokenRequestFulfillerContracts.sol:CVIUSDCVolTokenRequestFulfiller",
        "label": "__gap",
        "offset": 0,
        "slot": "1",
        "type": "t_array(t_uint256)50_storage"
      },
      {
        "astId": 33551,
        "contract": "contracts/volatility-token/VolatilityTokenRequestFulfillerContracts.sol:CVIUSDCVolTokenRequestFulfiller",
        "label": "_owner",
        "offset": 0,
        "slot": "51",
        "type": "t_address"
      },
      {
        "astId": 33663,
        "contract": "contracts/volatility-token/VolatilityTokenRequestFulfillerContracts.sol:CVIUSDCVolTokenRequestFulfiller",
        "label": "__gap",
        "offset": 0,
        "slot": "52",
        "type": "t_array(t_uint256)49_storage"
      },
      {
        "astId": 9468,
        "contract": "contracts/volatility-token/VolatilityTokenRequestFulfillerContracts.sol:CVIUSDCVolTokenRequestFulfiller",
        "label": "requestManager",
        "offset": 0,
        "slot": "101",
        "type": "t_contract(IRequestManager)17839"
      },
      {
        "astId": 9470,
        "contract": "contracts/volatility-token/VolatilityTokenRequestFulfillerContracts.sol:CVIUSDCVolTokenRequestFulfiller",
        "label": "enableWhitelist",
        "offset": 20,
        "slot": "101",
        "type": "t_bool"
      },
      {
        "astId": 9474,
        "contract": "contracts/volatility-token/VolatilityTokenRequestFulfillerContracts.sol:CVIUSDCVolTokenRequestFulfiller",
        "label": "fulfillers",
        "offset": 0,
        "slot": "102",
        "type": "t_mapping(t_address,t_bool)"
      }
    ],
    "types": {
      "t_address": {
        "encoding": "inplace",
        "label": "address",
        "numberOfBytes": "20"
      },
      "t_array(t_uint256)49_storage": {
        "base": "t_uint256",
        "encoding": "inplace",
        "label": "uint256[49]",
        "numberOfBytes": "1568"
      },
      "t_array(t_uint256)50_storage": {
        "base": "t_uint256",
        "encoding": "inplace",
        "label": "uint256[50]",
        "numberOfBytes": "1600"
      },
      "t_bool": {
        "encoding": "inplace",
        "label": "bool",
        "numberOfBytes": "1"
      },
      "t_contract(IRequestManager)17839": {
        "encoding": "inplace",
        "label": "contract IRequestManager",
        "numberOfBytes": "20"
      },
      "t_mapping(t_address,t_bool)": {
        "encoding": "mapping",
        "key": "t_address",
        "label": "mapping(address => bool)",
        "numberOfBytes": "32",
        "value": "t_bool"
      },
      "t_uint256": {
        "encoding": "inplace",
        "label": "uint256",
        "numberOfBytes": "32"
      },
      "t_uint8": {
        "encoding": "inplace",
        "label": "uint8",
        "numberOfBytes": "1"
      }
    }
  }
}