{
  "address": "0x6257Fb12e5aEa66eFa666dD7922744E7870dadCe",
  "abi": [
    {
      "inputs": [],
      "stateMutability": "nonpayable",
      "type": "constructor"
    },
    {
      "anonymous": false,
      "inputs": [
        {
          "indexed": true,
          "internalType": "address",
          "name": "owner",
          "type": "address"
        },
        {
          "indexed": true,
          "internalType": "address",
          "name": "spender",
          "type": "address"
        },
        {
          "indexed": false,
          "internalType": "uint256",
          "name": "amount",
          "type": "uint256"
        }
      ],
      "name": "Approval",
      "type": "event"
    },
    {
      "anonymous": false,
      "inputs": [
        {
          "indexed": false,
          "internalType": "uint256",
          "name": "requestId",
          "type": "uint256"
        },
        {
          "indexed": true,
          "internalType": "address",
          "name": "account",
          "type": "address"
        },
        {
          "indexed": false,
          "internalType": "uint256",
          "name": "tokenAmountBeforeFees",
          "type": "uint256"
        },
        {
          "indexed": false,
          "internalType": "uint256",
          "name": "tokenAmount",
          "type": "uint256"
        },
        {
          "indexed": false,
          "internalType": "uint256",
          "name": "burnedTokens",
          "type": "uint256"
        },
        {
          "indexed": false,
          "internalType": "uint256",
          "name": "closePositionFee",
          "type": "uint256"
        },
        {
          "indexed": false,
          "internalType": "uint256",
          "name": "closingPremiumFee",
          "type": "uint256"
        }
      ],
      "name": "Burn",
      "type": "event"
    },
    {
      "anonymous": false,
      "inputs": [
        {
          "indexed": false,
          "internalType": "uint256",
          "name": "requestId",
          "type": "uint256"
        },
        {
          "indexed": false,
          "internalType": "uint8",
          "name": "requestType",
          "type": "uint8"
        },
        {
          "indexed": true,
          "internalType": "address",
          "name": "account",
          "type": "address"
        },
        {
          "indexed": false,
          "internalType": "uint256",
          "name": "fulfillFeesAmount",
          "type": "uint256"
        },
        {
          "indexed": false,
          "internalType": "bool",
          "name": "isAborted",
          "type": "bool"
        },
        {
          "indexed": false,
          "internalType": "bool",
          "name": "useKeepers",
          "type": "bool"
        },
        {
          "indexed": false,
          "internalType": "bool",
          "name": "keepersCalled",
          "type": "bool"
        },
        {
          "indexed": true,
          "internalType": "address",
          "name": "fulfiller",
          "type": "address"
        },
        {
          "indexed": false,
          "internalType": "uint32",
          "name": "fulfillTimestamp",
          "type": "uint32"
        }
      ],
      "name": "FulfillRequest",
      "type": "event"
    },
    {
      "anonymous": false,
      "inputs": [
        {
          "indexed": false,
          "internalType": "uint8",
          "name": "version",
          "type": "uint8"
        }
      ],
      "name": "Initialized",
      "type": "event"
    },
    {
      "anonymous": false,
      "inputs": [
        {
          "indexed": false,
          "internalType": "uint256",
          "name": "requestId",
          "type": "uint256"
        },
        {
          "indexed": false,
          "internalType": "uint8",
          "name": "requestType",
          "type": "uint8"
        },
        {
          "indexed": true,
          "internalType": "address",
          "name": "account",
          "type": "address"
        },
        {
          "indexed": true,
          "internalType": "address",
          "name": "liquidator",
          "type": "address"
        },
        {
          "indexed": false,
          "internalType": "uint256",
          "name": "findersFeeAmount",
          "type": "uint256"
        },
        {
          "indexed": false,
          "internalType": "bool",
          "name": "useKeepers",
          "type": "bool"
        },
        {
          "indexed": false,
          "internalType": "uint32",
          "name": "liquidateTimestamp",
          "type": "uint32"
        }
      ],
      "name": "LiquidateRequest",
      "type": "event"
    },
    {
      "anonymous": false,
      "inputs": [
        {
          "indexed": false,
          "internalType": "uint256",
          "name": "requestId",
          "type": "uint256"
        },
        {
          "indexed": true,
          "internalType": "address",
          "name": "account",
          "type": "address"
        },
        {
          "indexed": false,
          "internalType": "uint256",
          "name": "tokenAmount",
          "type": "uint256"
        },
        {
          "indexed": false,
          "internalType": "uint256",
          "name": "positionedTokenAmount",
          "type": "uint256"
        },
        {
          "indexed": false,
          "internalType": "uint256",
          "name": "mintedTokens",
          "type": "uint256"
        },
        {
          "indexed": false,
          "internalType": "uint256",
          "name": "openPositionFee",
          "type": "uint256"
        },
        {
          "indexed": false,
          "internalType": "uint256",
          "name": "buyingPremiumFee",
          "type": "uint256"
        }
      ],
      "name": "Mint",
      "type": "event"
    },
    {
      "anonymous": false,
      "inputs": [
        {
          "indexed": true,
          "internalType": "address",
          "name": "previousOwner",
          "type": "address"
        },
        {
          "indexed": true,
          "internalType": "address",
          "name": "newOwner",
          "type": "address"
        }
      ],
      "name": "OwnershipTransferred",
      "type": "event"
    },
    {
      "anonymous": false,
      "inputs": [
        {
          "indexed": false,
          "internalType": "uint256",
          "name": "epoch",
          "type": "uint256"
        },
        {
          "indexed": false,
          "internalType": "uint256",
          "name": "prevScalingFactor",
          "type": "uint256"
        },
        {
          "indexed": false,
          "internalType": "uint256",
          "name": "newScalingFactor",
          "type": "uint256"
        }
      ],
      "name": "Rebase",
      "type": "event"
    },
    {
      "anonymous": false,
      "inputs": [
        {
          "indexed": false,
          "internalType": "uint256",
          "name": "requestId",
          "type": "uint256"
        },
        {
          "indexed": false,
          "internalType": "uint8",
          "name": "requestType",
          "type": "uint8"
        },
        {
          "indexed": true,
          "internalType": "address",
          "name": "account",
          "type": "address"
        },
        {
          "indexed": false,
          "internalType": "uint256",
          "name": "tokenAmount",
          "type": "uint256"
        },
        {
          "indexed": false,
          "internalType": "uint256",
          "name": "submitFeesAmount",
          "type": "uint256"
        },
        {
          "indexed": false,
          "internalType": "uint32",
          "name": "requestTimestamp",
          "type": "uint32"
        },
        {
          "indexed": false,
          "internalType": "uint32",
          "name": "targetTimestamp",
          "type": "uint32"
        },
        {
          "indexed": false,
          "internalType": "bool",
          "name": "useKeepers",
          "type": "bool"
        },
        {
          "indexed": false,
          "internalType": "uint16",
          "name": "maxBuyingPremiumFeePercentage",
          "type": "uint16"
        }
      ],
      "name": "SubmitRequest",
      "type": "event"
    },
    {
      "anonymous": false,
      "inputs": [
        {
          "indexed": true,
          "internalType": "address",
          "name": "from",
          "type": "address"
        },
        {
          "indexed": true,
          "internalType": "address",
          "name": "to",
          "type": "address"
        },
        {
          "indexed": false,
          "internalType": "uint256",
          "name": "amount",
          "type": "uint256"
        }
      ],
      "name": "Transfer",
      "type": "event"
    },
    {
      "inputs": [],
      "name": "BURN_REQUEST_TYPE",
      "outputs": [
        {
          "internalType": "uint8",
          "name": "",
          "type": "uint8"
        }
      ],
      "stateMutability": "view",
      "type": "function"
    },
    {
      "inputs": [],
      "name": "CVI_DECIMALS_FIX",
      "outputs": [
        {
          "internalType": "uint256",
          "name": "",
          "type": "uint256"
        }
      ],
      "stateMutability": "view",
      "type": "function"
    },
    {
      "inputs": [],
      "name": "DELTA_PRECISION_DECIMALS",
      "outputs": [
        {
          "internalType": "uint256",
          "name": "",
          "type": "uint256"
        }
      ],
      "stateMutability": "view",
      "type": "function"
    },
    {
      "inputs": [],
      "name": "MAX_PERCENTAGE",
      "outputs": [
        {
          "internalType": "uint16",
          "name": "",
          "type": "uint16"
        }
      ],
      "stateMutability": "view",
      "type": "function"
    },
    {
      "inputs": [],
      "name": "MINT_REQUEST_TYPE",
      "outputs": [
        {
          "internalType": "uint8",
          "name": "",
          "type": "uint8"
        }
      ],
      "stateMutability": "view",
      "type": "function"
    },
    {
      "inputs": [],
      "name": "PRECISION_DECIMALS",
      "outputs": [
        {
          "internalType": "uint256",
          "name": "",
          "type": "uint256"
        }
      ],
      "stateMutability": "view",
      "type": "function"
    },
    {
      "inputs": [],
      "name": "SCALING_FACTOR_DECIMALS",
      "outputs": [
        {
          "internalType": "uint256",
          "name": "",
          "type": "uint256"
        }
      ],
      "stateMutability": "view",
      "type": "function"
    },
    {
      "inputs": [
        {
          "internalType": "string",
          "name": "name_",
          "type": "string"
        },
        {
          "internalType": "string",
          "name": "symbol_",
          "type": "string"
        },
        {
          "internalType": "uint8",
          "name": "decimals_",
          "type": "uint8"
        }
      ],
      "name": "__ElasticToken_init",
      "outputs": [],
      "stateMutability": "nonpayable",
      "type": "function"
    },
    {
      "inputs": [
        {
          "internalType": "address",
          "name": "owner_",
          "type": "address"
        },
        {
          "internalType": "address",
          "name": "spender",
          "type": "address"
        }
      ],
      "name": "allowance",
      "outputs": [
        {
          "internalType": "uint256",
          "name": "",
          "type": "uint256"
        }
      ],
      "stateMutability": "view",
      "type": "function"
    },
    {
      "inputs": [
        {
          "internalType": "address",
          "name": "spender",
          "type": "address"
        },
        {
          "internalType": "uint256",
          "name": "value",
          "type": "uint256"
        }
      ],
      "name": "approve",
      "outputs": [
        {
          "internalType": "bool",
          "name": "",
          "type": "bool"
        }
      ],
      "stateMutability": "nonpayable",
      "type": "function"
    },
    {
      "inputs": [
        {
          "internalType": "address",
          "name": "who",
          "type": "address"
        }
      ],
      "name": "balanceOf",
      "outputs": [
        {
          "internalType": "uint256",
          "name": "",
          "type": "uint256"
        }
      ],
      "stateMutability": "view",
      "type": "function"
    },
    {
      "inputs": [
        {
          "internalType": "address",
          "name": "who",
          "type": "address"
        }
      ],
      "name": "balanceOfUnderlying",
      "outputs": [
        {
          "internalType": "uint256",
          "name": "",
          "type": "uint256"
        }
      ],
      "stateMutability": "view",
      "type": "function"
    },
    {
      "inputs": [
        {
          "internalType": "uint168",
          "name": "burnAmount",
          "type": "uint168"
        }
      ],
      "name": "burnTokens",
      "outputs": [
        {
          "internalType": "uint256",
          "name": "tokenAmount",
          "type": "uint256"
        }
      ],
      "stateMutability": "nonpayable",
      "type": "function"
    },
    {
      "inputs": [],
      "name": "cappedRebase",
      "outputs": [
        {
          "internalType": "bool",
          "name": "",
          "type": "bool"
        }
      ],
      "stateMutability": "view",
      "type": "function"
    },
    {
      "inputs": [],
      "name": "cviOracle",
      "outputs": [
        {
          "internalType": "contract ICVIOracle",
          "name": "",
          "type": "address"
        }
      ],
      "stateMutability": "view",
      "type": "function"
    },
    {
      "inputs": [],
      "name": "decimals",
      "outputs": [
        {
          "internalType": "uint8",
          "name": "",
          "type": "uint8"
        }
      ],
      "stateMutability": "view",
      "type": "function"
    },
    {
      "inputs": [
        {
          "internalType": "address",
          "name": "spender",
          "type": "address"
        },
        {
          "internalType": "uint256",
          "name": "subtractedValue",
          "type": "uint256"
        }
      ],
      "name": "decreaseAllowance",
      "outputs": [
        {
          "internalType": "bool",
          "name": "",
          "type": "bool"
        }
      ],
      "stateMutability": "nonpayable",
      "type": "function"
    },
    {
      "inputs": [],
      "name": "deviationPerSingleRebaseLag",
      "outputs": [
        {
          "internalType": "uint16",
          "name": "",
          "type": "uint16"
        }
      ],
      "stateMutability": "view",
      "type": "function"
    },
    {
      "inputs": [],
      "name": "feesCalculator",
      "outputs": [
        {
          "internalType": "contract IFeesCalculator",
          "name": "",
          "type": "address"
        }
      ],
      "stateMutability": "view",
      "type": "function"
    },
    {
      "inputs": [],
      "name": "feesCollector",
      "outputs": [
        {
          "internalType": "contract IFeesCollector",
          "name": "",
          "type": "address"
        }
      ],
      "stateMutability": "view",
      "type": "function"
    },
    {
      "inputs": [
        {
          "internalType": "uint256",
          "name": "_requestId",
          "type": "uint256"
        },
        {
          "internalType": "bool",
          "name": "_keepersCalled",
          "type": "bool"
        }
      ],
      "name": "fulfillBurnRequest",
      "outputs": [
        {
          "internalType": "uint256",
          "name": "tokensReceived",
          "type": "uint256"
        }
      ],
      "stateMutability": "nonpayable",
      "type": "function"
    },
    {
      "inputs": [
        {
          "internalType": "uint256",
          "name": "_requestId",
          "type": "uint256"
        },
        {
          "internalType": "uint16",
          "name": "_maxBuyingPremiumFeePercentage",
          "type": "uint16"
        },
        {
          "internalType": "bool",
          "name": "_keepersCalled",
          "type": "bool"
        }
      ],
      "name": "fulfillMintRequest",
      "outputs": [
        {
          "internalType": "uint256",
          "name": "tokensMinted",
          "type": "uint256"
        },
        {
          "internalType": "bool",
          "name": "success",
          "type": "bool"
        }
      ],
      "stateMutability": "nonpayable",
      "type": "function"
    },
    {
      "inputs": [],
      "name": "fulfiller",
      "outputs": [
        {
          "internalType": "address",
          "name": "",
          "type": "address"
        }
      ],
      "stateMutability": "view",
      "type": "function"
    },
    {
      "inputs": [
        {
          "internalType": "address",
          "name": "spender",
          "type": "address"
        },
        {
          "internalType": "uint256",
          "name": "addedValue",
          "type": "uint256"
        }
      ],
      "name": "increaseAllowance",
      "outputs": [
        {
          "internalType": "bool",
          "name": "",
          "type": "bool"
        }
      ],
      "stateMutability": "nonpayable",
      "type": "function"
    },
    {
      "inputs": [],
      "name": "initSupply",
      "outputs": [
        {
          "internalType": "uint256",
          "name": "",
          "type": "uint256"
        }
      ],
      "stateMutability": "view",
      "type": "function"
    },
    {
      "inputs": [],
      "name": "initialTokenToLPTokenRate",
      "outputs": [
        {
          "internalType": "uint256",
          "name": "",
          "type": "uint256"
        }
      ],
      "stateMutability": "view",
      "type": "function"
    },
    {
      "inputs": [
        {
          "internalType": "contract IERC20Upgradeable",
          "name": "_token",
          "type": "address"
        },
        {
          "internalType": "string",
          "name": "_lpTokenName",
          "type": "string"
        },
        {
          "internalType": "string",
          "name": "_lpTokenSymbolName",
          "type": "string"
        },
        {
          "internalType": "uint8",
          "name": "_leverage",
          "type": "uint8"
        },
        {
          "internalType": "uint256",
          "name": "_initialTokenToVolTokenRate",
          "type": "uint256"
        },
        {
          "internalType": "contract IPlatform",
          "name": "_platform",
          "type": "address"
        },
        {
          "internalType": "contract IFeesCollector",
          "name": "_feesCollector",
          "type": "address"
        },
        {
          "internalType": "contract IFeesCalculator",
          "name": "_feesCalculator",
          "type": "address"
        },
        {
          "internalType": "contract IRequestFeesCalculator",
          "name": "_requestFeesCalculator",
          "type": "address"
        },
        {
          "internalType": "contract ICVIOracle",
          "name": "_cviOracle",
          "type": "address"
        }
      ],
      "name": "initialize",
      "outputs": [],
      "stateMutability": "nonpayable",
      "type": "function"
    },
    {
      "inputs": [],
      "name": "keepersFeeVaultAddress",
      "outputs": [
        {
          "internalType": "address",
          "name": "",
          "type": "address"
        }
      ],
      "stateMutability": "view",
      "type": "function"
    },
    {
      "inputs": [],
      "name": "leverage",
      "outputs": [
        {
          "internalType": "uint8",
          "name": "",
          "type": "uint8"
        }
      ],
      "stateMutability": "view",
      "type": "function"
    },
    {
      "inputs": [
        {
          "internalType": "uint256",
          "name": "_requestId",
          "type": "uint256"
        }
      ],
      "name": "liquidateRequest",
      "outputs": [
        {
          "internalType": "uint256",
          "name": "findersFeeAmount",
          "type": "uint256"
        }
      ],
      "stateMutability": "nonpayable",
      "type": "function"
    },
    {
      "inputs": [],
      "name": "maxDeviationPercentage",
      "outputs": [
        {
          "internalType": "uint16",
          "name": "",
          "type": "uint16"
        }
      ],
      "stateMutability": "view",
      "type": "function"
    },
    {
      "inputs": [],
      "name": "maxMinRequestIncrements",
      "outputs": [
        {
          "internalType": "uint256",
          "name": "",
          "type": "uint256"
        }
      ],
      "stateMutability": "view",
      "type": "function"
    },
    {
      "inputs": [],
      "name": "maxScalingFactor",
      "outputs": [
        {
          "internalType": "uint256",
          "name": "",
          "type": "uint256"
        }
      ],
      "stateMutability": "view",
      "type": "function"
    },
    {
      "inputs": [],
      "name": "maxTotalRequestsAmount",
      "outputs": [
        {
          "internalType": "uint256",
          "name": "",
          "type": "uint256"
        }
      ],
      "stateMutability": "view",
      "type": "function"
    },
    {
      "inputs": [],
      "name": "minDeviationPercentage",
      "outputs": [
        {
          "internalType": "uint16",
          "name": "",
          "type": "uint16"
        }
      ],
      "stateMutability": "view",
      "type": "function"
    },
    {
      "inputs": [],
      "name": "minKeepersBurnAmount",
      "outputs": [
        {
          "internalType": "uint256",
          "name": "",
          "type": "uint256"
        }
      ],
      "stateMutability": "view",
      "type": "function"
    },
    {
      "inputs": [],
      "name": "minKeepersMintAmount",
      "outputs": [
        {
          "internalType": "uint256",
          "name": "",
          "type": "uint256"
        }
      ],
      "stateMutability": "view",
      "type": "function"
    },
    {
      "inputs": [],
      "name": "minRequestId",
      "outputs": [
        {
          "internalType": "uint256",
          "name": "",
          "type": "uint256"
        }
      ],
      "stateMutability": "view",
      "type": "function"
    },
    {
      "inputs": [
        {
          "internalType": "uint168",
          "name": "tokenAmount",
          "type": "uint168"
        }
      ],
      "name": "mintTokens",
      "outputs": [
        {
          "internalType": "uint256",
          "name": "mintedTokens",
          "type": "uint256"
        }
      ],
      "stateMutability": "nonpayable",
      "type": "function"
    },
    {
      "inputs": [],
      "name": "minter",
      "outputs": [
        {
          "internalType": "address",
          "name": "",
          "type": "address"
        }
      ],
      "stateMutability": "view",
      "type": "function"
    },
    {
      "inputs": [],
      "name": "name",
      "outputs": [
        {
          "internalType": "string",
          "name": "",
          "type": "string"
        }
      ],
      "stateMutability": "view",
      "type": "function"
    },
    {
      "inputs": [],
      "name": "nextRequestId",
      "outputs": [
        {
          "internalType": "uint256",
          "name": "",
          "type": "uint256"
        }
      ],
      "stateMutability": "view",
      "type": "function"
    },
    {
      "inputs": [],
      "name": "owner",
      "outputs": [
        {
          "internalType": "address",
          "name": "",
          "type": "address"
        }
      ],
      "stateMutability": "view",
      "type": "function"
    },
    {
      "inputs": [],
      "name": "platform",
      "outputs": [
        {
          "internalType": "contract IPlatform",
          "name": "",
          "type": "address"
        }
      ],
      "stateMutability": "view",
      "type": "function"
    },
    {
      "inputs": [],
      "name": "rebaseCVI",
      "outputs": [],
      "stateMutability": "nonpayable",
      "type": "function"
    },
    {
      "inputs": [],
      "name": "rebaser",
      "outputs": [
        {
          "internalType": "address",
          "name": "",
          "type": "address"
        }
      ],
      "stateMutability": "view",
      "type": "function"
    },
    {
      "inputs": [],
      "name": "renounceOwnership",
      "outputs": [],
      "stateMutability": "nonpayable",
      "type": "function"
    },
    {
      "inputs": [],
      "name": "requestFeesCalculator",
      "outputs": [
        {
          "internalType": "contract IRequestFeesCalculator",
          "name": "",
          "type": "address"
        }
      ],
      "stateMutability": "view",
      "type": "function"
    },
    {
      "inputs": [
        {
          "internalType": "uint256",
          "name": "",
          "type": "uint256"
        }
      ],
      "name": "requests",
      "outputs": [
        {
          "internalType": "uint8",
          "name": "requestType",
          "type": "uint8"
        },
        {
          "internalType": "uint168",
          "name": "tokenAmount",
          "type": "uint168"
        },
        {
          "internalType": "uint16",
          "name": "timeDelayRequestFeesPercent",
          "type": "uint16"
        },
        {
          "internalType": "uint16",
          "name": "maxRequestFeesPercent",
          "type": "uint16"
        },
        {
          "internalType": "address",
          "name": "owner",
          "type": "address"
        },
        {
          "internalType": "uint32",
          "name": "requestTimestamp",
          "type": "uint32"
        },
        {
          "internalType": "uint32",
          "name": "targetTimestamp",
          "type": "uint32"
        },
        {
          "internalType": "bool",
          "name": "useKeepers",
          "type": "bool"
        },
        {
          "internalType": "uint16",
          "name": "maxBuyingPremiumFeePercentage",
          "type": "uint16"
        }
      ],
      "stateMutability": "view",
      "type": "function"
    },
    {
      "inputs": [],
      "name": "scalingFactor",
      "outputs": [
        {
          "internalType": "uint256",
          "name": "",
          "type": "uint256"
        }
      ],
      "stateMutability": "view",
      "type": "function"
    },
    {
      "inputs": [
        {
          "internalType": "contract ICVIOracle",
          "name": "_newCVIOracle",
          "type": "address"
        }
      ],
      "name": "setCVIOracle",
      "outputs": [],
      "stateMutability": "nonpayable",
      "type": "function"
    },
    {
      "inputs": [
        {
          "internalType": "bool",
          "name": "_newCappedRebase",
          "type": "bool"
        }
      ],
      "name": "setCappedRebase",
      "outputs": [],
      "stateMutability": "nonpayable",
      "type": "function"
    },
    {
      "inputs": [
        {
          "internalType": "uint16",
          "name": "_newDeviationPercentagePerSingleRebaseLag",
          "type": "uint16"
        },
        {
          "internalType": "uint16",
          "name": "_newMinDeviationPercentage",
          "type": "uint16"
        },
        {
          "internalType": "uint16",
          "name": "_newMaxDeviationPercentage",
          "type": "uint16"
        }
      ],
      "name": "setDeviationParameters",
      "outputs": [],
      "stateMutability": "nonpayable",
      "type": "function"
    },
    {
      "inputs": [
        {
          "internalType": "contract IFeesCalculator",
          "name": "_newFeesCalculator",
          "type": "address"
        }
      ],
      "name": "setFeesCalculator",
      "outputs": [],
      "stateMutability": "nonpayable",
      "type": "function"
    },
    {
      "inputs": [
        {
          "internalType": "contract IFeesCollector",
          "name": "_newCollector",
          "type": "address"
        }
      ],
      "name": "setFeesCollector",
      "outputs": [],
      "stateMutability": "nonpayable",
      "type": "function"
    },
    {
      "inputs": [
        {
          "internalType": "address",
          "name": "_fulfiller",
          "type": "address"
        }
      ],
      "name": "setFulfiller",
      "outputs": [],
      "stateMutability": "nonpayable",
      "type": "function"
    },
    {
      "inputs": [
        {
          "internalType": "address",
          "name": "_newKeepersFeeVaultAddress",
          "type": "address"
        }
      ],
      "name": "setKeepersFeeVaultAddress",
      "outputs": [],
      "stateMutability": "nonpayable",
      "type": "function"
    },
    {
      "inputs": [
        {
          "internalType": "uint256",
          "name": "_newMaxMinRequestIncrements",
          "type": "uint256"
        }
      ],
      "name": "setMaxMinRequestIncrements",
      "outputs": [],
      "stateMutability": "nonpayable",
      "type": "function"
    },
    {
      "inputs": [
        {
          "internalType": "uint256",
          "name": "_maxTotalRequestsAmount",
          "type": "uint256"
        }
      ],
      "name": "setMaxTotalRequestsAmount",
      "outputs": [],
      "stateMutability": "nonpayable",
      "type": "function"
    },
    {
      "inputs": [
        {
          "internalType": "uint256",
          "name": "_newMinKeepersMintAmount",
          "type": "uint256"
        },
        {
          "internalType": "uint256",
          "name": "_newMinKeepersBurnAmount",
          "type": "uint256"
        }
      ],
      "name": "setMinKeepersAmounts",
      "outputs": [],
      "stateMutability": "nonpayable",
      "type": "function"
    },
    {
      "inputs": [
        {
          "internalType": "uint256",
          "name": "_newMinRequestId",
          "type": "uint256"
        }
      ],
      "name": "setMinRequestId",
      "outputs": [],
      "stateMutability": "nonpayable",
      "type": "function"
    },
    {
      "inputs": [
        {
          "internalType": "address",
          "name": "_newMinter",
          "type": "address"
        }
      ],
      "name": "setMinter",
      "outputs": [],
      "stateMutability": "nonpayable",
      "type": "function"
    },
    {
      "inputs": [
        {
          "internalType": "string",
          "name": "_newName",
          "type": "string"
        },
        {
          "internalType": "string",
          "name": "_newSymbol",
          "type": "string"
        }
      ],
      "name": "setNameAndSymbol",
      "outputs": [],
      "stateMutability": "nonpayable",
      "type": "function"
    },
    {
      "inputs": [
        {
          "internalType": "contract IPlatform",
          "name": "_newPlatform",
          "type": "address"
        }
      ],
      "name": "setPlatform",
      "outputs": [],
      "stateMutability": "nonpayable",
      "type": "function"
    },
    {
      "inputs": [
        {
          "internalType": "address",
          "name": "_rebaser",
          "type": "address"
        }
      ],
      "name": "setRebaser",
      "outputs": [],
      "stateMutability": "nonpayable",
      "type": "function"
    },
    {
      "inputs": [
        {
          "internalType": "contract IRequestFeesCalculator",
          "name": "_newRequestFeesCalculator",
          "type": "address"
        }
      ],
      "name": "setRequestFeesCalculator",
      "outputs": [],
      "stateMutability": "nonpayable",
      "type": "function"
    },
    {
      "inputs": [
        {
          "internalType": "bool",
          "name": "_verifyTotalRequestsAmount",
          "type": "bool"
        }
      ],
      "name": "setVerifyTotalRequestsAmount",
      "outputs": [],
      "stateMutability": "nonpayable",
      "type": "function"
    },
    {
      "inputs": [
        {
          "internalType": "uint168",
          "name": "_tokenAmount",
          "type": "uint168"
        },
        {
          "internalType": "uint32",
          "name": "_timeDelay",
          "type": "uint32"
        }
      ],
      "name": "submitBurnRequest",
      "outputs": [
        {
          "internalType": "uint256",
          "name": "requestId",
          "type": "uint256"
        }
      ],
      "stateMutability": "nonpayable",
      "type": "function"
    },
    {
      "inputs": [
        {
          "internalType": "uint168",
          "name": "_tokenAmount",
          "type": "uint168"
        },
        {
          "internalType": "uint32",
          "name": "_timeDelay",
          "type": "uint32"
        }
      ],
      "name": "submitKeepersBurnRequest",
      "outputs": [
        {
          "internalType": "uint256",
          "name": "requestId",
          "type": "uint256"
        }
      ],
      "stateMutability": "nonpayable",
      "type": "function"
    },
    {
      "inputs": [
        {
          "internalType": "uint168",
          "name": "_tokenAmount",
          "type": "uint168"
        },
        {
          "internalType": "uint32",
          "name": "_timeDelay",
          "type": "uint32"
        },
        {
          "internalType": "uint16",
          "name": "_maxBuyingPremiumFeePercentage",
          "type": "uint16"
        }
      ],
      "name": "submitKeepersMintRequest",
      "outputs": [
        {
          "internalType": "uint256",
          "name": "requestId",
          "type": "uint256"
        }
      ],
      "stateMutability": "nonpayable",
      "type": "function"
    },
    {
      "inputs": [
        {
          "internalType": "uint168",
          "name": "_tokenAmount",
          "type": "uint168"
        },
        {
          "internalType": "uint32",
          "name": "_timeDelay",
          "type": "uint32"
        }
      ],
      "name": "submitMintRequest",
      "outputs": [
        {
          "internalType": "uint256",
          "name": "requestId",
          "type": "uint256"
        }
      ],
      "stateMutability": "nonpayable",
      "type": "function"
    },
    {
      "inputs": [],
      "name": "symbol",
      "outputs": [
        {
          "internalType": "string",
          "name": "",
          "type": "string"
        }
      ],
      "stateMutability": "view",
      "type": "function"
    },
    {
      "inputs": [],
      "name": "token",
      "outputs": [
        {
          "internalType": "contract IERC20Upgradeable",
          "name": "",
          "type": "address"
        }
      ],
      "stateMutability": "view",
      "type": "function"
    },
    {
      "inputs": [],
      "name": "totalRequestsAmount",
      "outputs": [
        {
          "internalType": "uint256",
          "name": "",
          "type": "uint256"
        }
      ],
      "stateMutability": "view",
      "type": "function"
    },
    {
      "inputs": [],
      "name": "totalSupply",
      "outputs": [
        {
          "internalType": "uint256",
          "name": "",
          "type": "uint256"
        }
      ],
      "stateMutability": "view",
      "type": "function"
    },
    {
      "inputs": [
        {
          "internalType": "address",
          "name": "to",
          "type": "address"
        },
        {
          "internalType": "uint256",
          "name": "value",
          "type": "uint256"
        }
      ],
      "name": "transfer",
      "outputs": [
        {
          "internalType": "bool",
          "name": "",
          "type": "bool"
        }
      ],
      "stateMutability": "nonpayable",
      "type": "function"
    },
    {
      "inputs": [
        {
          "internalType": "address",
          "name": "from",
          "type": "address"
        },
        {
          "internalType": "address",
          "name": "to",
          "type": "address"
        },
        {
          "internalType": "uint256",
          "name": "value",
          "type": "uint256"
        }
      ],
      "name": "transferFrom",
      "outputs": [
        {
          "internalType": "bool",
          "name": "",
          "type": "bool"
        }
      ],
      "stateMutability": "nonpayable",
      "type": "function"
    },
    {
      "inputs": [
        {
          "internalType": "address",
          "name": "newOwner",
          "type": "address"
        }
      ],
      "name": "transferOwnership",
      "outputs": [],
      "stateMutability": "nonpayable",
      "type": "function"
    },
    {
      "inputs": [
        {
          "internalType": "uint256",
          "name": "unerlyingValue",
          "type": "uint256"
        }
      ],
      "name": "underlyingToValue",
      "outputs": [
        {
          "internalType": "uint256",
          "name": "",
          "type": "uint256"
        }
      ],
      "stateMutability": "view",
      "type": "function"
    },
    {
      "inputs": [
        {
          "internalType": "uint256",
          "name": "value",
          "type": "uint256"
        }
      ],
      "name": "valueToUnderlying",
      "outputs": [
        {
          "internalType": "uint256",
          "name": "",
          "type": "uint256"
        }
      ],
      "stateMutability": "view",
      "type": "function"
    },
    {
      "inputs": [],
      "name": "verifyTotalRequestsAmount",
      "outputs": [
        {
          "internalType": "bool",
          "name": "",
          "type": "bool"
        }
      ],
      "stateMutability": "view",
      "type": "function"
    }
  ],
  "transactionHash": "0x1b627f8dae059abc9562bc1a6c424927e496bffd97d36186ef8d7aa6f8524691",
  "args": [],
  "numDeployments": 2,
  "solcInputHash": "8eb1c0ef5b727899c736a7d3253acc1a",
  "bytecode": "0x608060405234801561001057600080fd5b5061545f806100206000396000f3fe608060405234801561001057600080fd5b506004361061048b5760003560e01c806376b27f3311610262578063b87f187e11610151578063e57a67ac116100ce578063f4b8602311610092578063f4b8602314610acf578063f780d9bc14610ae2578063f7b3af7414610af7578063fc0c546a14610b0a578063fca3b5aa14610b1d578063fe4fbe1914610b3057600080fd5b8063e57a67ac14610a7a578063ea35761014610a8d578063ec27050714610aa0578063ed3437f814610ab3578063f2fde38b14610abc57600080fd5b8063d0a9278111610115578063d0a92781146109eb578063d4a56af114610a13578063dd62ed3e14610a26578063e46adf6214610a5f578063e530413b14610a7257600080fd5b8063b87f187e14610997578063bef7b1d0146109aa578063c43a51b6146109bd578063c98ece90146109d0578063cf6caff3146109e357600080fd5b806397f79e92116101df578063a5cfa15c116101a3578063a5cfa15c1461094d578063a9059cbb14610956578063a9ae12b214610969578063b334ef631461097c578063b6f738d51461098f57600080fd5b806397f79e92146108f25780639c5bb73a146109055780639cf160f6146109185780639d7a32bb1461092b578063a457c2d71461093a57600080fd5b80638da5cb5b116102265780638da5cb5b146108b45780638eb50a38146108c55780638f16d787146108ce57806395d89b41146108e157806397d63f93146108e957600080fd5b806376b27f331461078c5780638094d8831461079557806380b4ec9f1461079e57806381d12c58146107b1578063832d19d8146108a157600080fd5b80633af9e6691161037e57806361944abf116102fb5780636c715641116102bf5780636c715641146107385780636d7277551461074b5780636f7d78281461075e57806370a0823114610771578063715018a61461078457600080fd5b806361944abf146106e25780636945c5ea146106f55780636a84a985146107085780636a9d1119146107115780636c39f4eb1461072457600080fd5b80634c255c97116103425780634c255c971461068a578063526ec4c4146106a65780635a446215146106ba57806360acfdcb146106cd57806360ebfee6146106d657600080fd5b80633af9e66914610630578063419dc5611461065957806341be99741461066257806347d8ca801461066f5780634bde38c81461067757600080fd5b80632900eed21161040c57806335a03bfa116103d057806335a03bfa146105d357806335b86d96146105e6578063373071f2146105f75780633839bdd01461060a578063395093511461061d57600080fd5b80632900eed2146105785780632a093cfc1461058b5780632c86d98e1461059e578063313ce567146105bd578063340e4fd5146105ca57600080fd5b806311fd8a831161045357806311fd8a831461052157806318160ddd146105345780631a8dd8f71461053d5780631c70ca291461055257806323b872dd1461056557600080fd5b806303b70a161461049057806306fdde03146104b657806307546172146104cb578063095ea7b3146104f657806311d3e6c414610519575b600080fd5b6104a361049e366004614c6a565b610b43565b6040519081526020015b60405180910390f35b6104be610b9b565b6040516104ad9190614f61565b60b3546104de906001600160a01b031681565b6040516001600160a01b0390911681526020016104ad565b6105096105043660046149a9565b610c29565b60405190151581526020016104ad565b6104a3610c96565b609d546104de906001600160a01b031681565b6104a3609a5481565b61055061054b366004614915565b610cad565b005b6104a3610560366004614d68565b610cf9565b610509610573366004614969565b610d1e565b610550610586366004614b4e565b610e7b565b610550610599366004614d68565b610ef8565b60a0546105ab9060ff1681565b60405160ff90911681526020016104ad565b6099546105ab9060ff1681565b6104a360aa5481565b60a5546104de906001600160a01b031681565b6104a369d3c21bcecceda100000081565b610550610605366004614915565b610f27565b60b0546104de906001600160a01b031681565b61050961062b3660046149a9565b610fef565b6104a361063e366004614915565b6001600160a01b03166000908152609e602052604090205490565b6104a360b25481565b60ac546105099060ff1681565b6105ab600181565b60a3546104de906001600160a01b031681565b61069361271081565b60405161ffff90911681526020016104ad565b60a0546106939062010000900461ffff1681565b6105506106c8366004614aed565b611075565b6104a360b15481565b6104a36402540be40081565b6105506106f03660046149d4565b6110cb565b610550610703366004614915565b611108565b6104a360a85481565b60a6546104de906001600160a01b031681565b60ac5461050990600160281b900460ff1681565b610550610746366004614915565b6111cb565b6104a3610759366004614d98565b611217565b60a7546104de906001600160a01b031681565b6104a361077f366004614915565b6112fe565b610550611320565b6104a360ad5481565b6104a360ab5481565b6104a36107ac366004614d68565b611356565b6108376107bf366004614d68565b60a9602052600090815260409020805460019091015460ff808316926001600160a81b036101008204169261ffff600160b01b8304811693600160c01b938490048216936001600160a01b0384169363ffffffff600160a01b82048116949282041692600160e01b82041691600160e81b9091041689565b6040805160ff909a168a526001600160a81b0390981660208a015261ffff9687169789019790975293851660608801526001600160a01b03909216608087015263ffffffff90811660a08701521660c0850152151560e084015216610100820152610120016104ad565b6105506108af366004614d68565b611549565b6065546001600160a01b03166104de565b6104a360a15481565b6105506108dc366004614d68565b611578565b6104be6115a7565b6104a3609c5481565b6104a3610900366004614c3d565b6115b4565b6104a3610913366004614c3d565b6115c5565b60a4546104de906001600160a01b031681565b6104a3670de0b6b3a764000081565b6105096109483660046149a9565b6115df565b6104a360ae5481565b6105096109643660046149a9565b6116c6565b610550610977366004614d39565b611797565b61055061098a366004614915565b61180b565b6104a3606481565b6105506109a53660046149d4565b611857565b6104a36109b8366004614c3d565b6118a1565b6104a36109cb366004614d68565b6118de565b6105506109de366004614915565b6118f8565b610550611944565b6109fe6109f9366004614e24565b611cde565b604080519283529015156020830152016104ad565b6104a3610a21366004614bc3565b611dcc565b6104a3610a34366004614931565b6001600160a01b039182166000908152609f6020908152604080832093909416825291909152205490565b610550610a6d366004614915565b611e20565b6105ab600281565b610550610a88366004614915565b611e6c565b610550610a9b366004614a0c565b611eb8565b6104a3610aae366004614bc3565b612044565b6104a3609b5481565b610550610aca366004614915565b612093565b60af546104de906001600160a01b031681565b60ac54610693906301000000900461ffff1681565b610550610b05366004614e5a565b61212b565b60a2546104de906001600160a01b031681565b610550610b2b366004614915565b612160565b60ac5461069390610100900461ffff1681565b6000610b4e846121ac565b60b154846001600160a81b03161015610b825760405162461bcd60e51b8152600401610b79906150b2565b60405180910390fd5b610b9160018585600186612221565b90505b9392505050565b60978054610ba890615308565b80601f0160208091040260200160405190810160405280929190818152602001828054610bd490615308565b8015610c215780601f10610bf657610100808354040283529160200191610c21565b820191906000526020600020905b815481529060010190602001808311610c0457829003601f168201915b505050505081565b336000818152609f602090815260408083206001600160a01b038716808552925280832085905551919290917f8c5be1e5ebec7d5bd14f71427d1e84f3dd0314c0f7b2291e5b200ac8c7c3b92590610c849086815260200190565b60405180910390a35060015b92915050565b6000609c54600019610ca8919061523b565b905090565b6065546001600160a01b03163314610cd75760405162461bcd60e51b8152600401610b7990615032565b60a780546001600160a01b0319166001600160a01b0392909216919091179055565b600069d3c21bcecceda1000000609b5483610d14919061527e565b610c90919061523b565b6000836001600160a01b038116610d475760405162461bcd60e51b8152600401610b7990614fbe565b836001600160a01b038116610d6e5760405162461bcd60e51b8152600401610b7990614fbe565b6001600160a01b0386166000908152609f60209081526040808320338452909152902054610d9d9085906152c5565b6001600160a01b0387166000908152609f60209081526040808320338452909152812091909155610dcd856118de565b6001600160a01b0388166000908152609e6020526040902054909150610df49082906152c5565b6001600160a01b038089166000908152609e60205260408082209390935590881681522054610e249082906151fd565b6001600160a01b038088166000818152609e6020526040908190209390935591519089169060008051602061540a83398151915290610e669089815260200190565b60405180910390a35060019695505050505050565b600054610100900460ff16610ea25760405162461bcd60e51b8152600401610b7990615067565b610eaa61277c565b8251610ebd9060979060208601906147df565b508151610ed19060989060208501906147df565b506099805460ff191660ff92909216919091179055505069d3c21bcecceda1000000609b55565b6065546001600160a01b03163314610f225760405162461bcd60e51b8152600401610b7990615032565b60ab55565b6065546001600160a01b03163314610f515760405162461bcd60e51b8152600401610b7990615032565b60a4546001600160a01b031615801590610f75575060a2546001600160a01b031615155b15610f985760a45460a254610f98916001600160a01b03918216911660006127ab565b60a480546001600160a01b0319166001600160a01b03831690811790915515801590610fce575060a2546001600160a01b031615155b15610fec5760a254610fec906001600160a01b0316826000196127ab565b50565b336000908152609f602090815260408083206001600160a01b038616845290915281205461101e9083906151fd565b336000818152609f602090815260408083206001600160a01b038916808552908352928190208590555193845290927f8c5be1e5ebec7d5bd14f71427d1e84f3dd0314c0f7b2291e5b200ac8c7c3b9259101610c84565b6065546001600160a01b0316331461109f5760405162461bcd60e51b8152600401610b7990615032565b81516110b29060979060208501906147df565b5080516110c69060989060208401906147df565b505050565b6065546001600160a01b031633146110f55760405162461bcd60e51b8152600401610b7990615032565b60ac805460ff1916911515919091179055565b6065546001600160a01b031633146111325760405162461bcd60e51b8152600401610b7990615032565b60a3546001600160a01b031615801590611156575060a2546001600160a01b031615155b1561117a5760a35460a25461117a916001600160a01b0391821691166000196127ab565b60a380546001600160a01b0319166001600160a01b03831690811790915515801590610fce575060a2546001600160a01b031615610fec5760a254610fec906001600160a01b0316826000196127ab565b6065546001600160a01b031633146111f55760405162461bcd60e51b8152600401610b7990615032565b60a580546001600160a01b0319166001600160a01b0392909216919091179055565b6000811580611230575060af546001600160a01b031633145b61123957600080fd5b600083815260a96020908152604091829020825161012081018452815460ff80821683526101008083046001600160a81b031695840195909552600160b01b820461ffff90811696840196909652600160c01b91829004861660608401526001909301546001600160a01b0381166080840152600160a01b810463ffffffff90811660a085015291810490911660c0830152600160e01b8104909216151560e0820152600160e81b909104909216908201526112f6848285612902565b949350505050565b6001600160a01b0381166000908152609e6020526040812054610c9090610cf9565b6065546001600160a01b0316331461134a5760405162461bcd60e51b8152600401610b7990615032565b6113546000612a16565b565b60006002600154141561137b5760405162461bcd60e51b8152600401610b79906150dd565b60026001908155600083815260a96020908152604091829020825161012081018452815460ff8082168084526101008084046001600160a81b031696850196909652600160b01b830461ffff90811697850197909752600160c01b928390048716606085015293909601546001600160a01b0381166080840152600160a01b810463ffffffff90811660a085015291810490911660c0830152600160e01b8104909516151560e0820152600160e81b909404909216908301526114775760405162461bcd60e51b815260206004820152601460248201527314995c5d595cdd081a59081b9bdd08199bdd5b9960621b6044820152606401610b79565b60a6546040516315b3b87360e01b81526001600160a01b03909116906315b3b873906114a7908490600401615114565b60206040518083038186803b1580156114bf57600080fd5b505afa1580156114d3573d6000803e3d6000fd5b505050506040513d601f19601f820116820180604052508101906114f791906149f0565b6115345760405162461bcd60e51b815260206004820152600e60248201526d4e6f74206c697175696461626c6560901b6044820152606401610b79565b61153e8382612a68565b600180559392505050565b6065546001600160a01b031633146115735760405162461bcd60e51b8152600401610b7990615032565b60ad55565b6065546001600160a01b031633146115a25760405162461bcd60e51b8152600401610b7990615032565b60ae55565b60988054610ba890615308565b6000610b9460028484600080612221565b60006115d0836121ac565b610b9460018484600080612221565b336000908152609f602090815260408083206001600160a01b038616845290915281205480831061163357336000908152609f602090815260408083206001600160a01b0388168452909152812055611662565b61163d83826152c5565b336000908152609f602090815260408083206001600160a01b03891684529091529020555b336000818152609f602090815260408083206001600160a01b038916808552908352928190205490519081529192917f8c5be1e5ebec7d5bd14f71427d1e84f3dd0314c0f7b2291e5b200ac8c7c3b925910160405180910390a35060019392505050565b6000826001600160a01b0381166116ef5760405162461bcd60e51b8152600401610b7990614fbe565b60006116fa846118de565b336000908152609e60205260409020549091506117189082906152c5565b336000908152609e6020526040808220929092556001600160a01b038716815220546117459082906151fd565b6001600160a01b0386166000818152609e602052604090819020929092559051339060008051602061540a833981519152906117849088815260200190565b60405180910390a3506001949350505050565b6065546001600160a01b031633146117c15760405162461bcd60e51b8152600401610b7990615032565b60ac805460a0805463ffff000019166201000061ffff9687160217905564ffffffff0019166101009484169490940264ffff00000019169390931763010000009190921602179055565b6065546001600160a01b031633146118355760405162461bcd60e51b8152600401610b7990615032565b60a680546001600160a01b0319166001600160a01b0392909216919091179055565b6065546001600160a01b031633146118815760405162461bcd60e51b8152600401610b7990615032565b60ac8054911515600160281b0265ff000000000019909216919091179055565b600060b254836001600160a81b031610156118ce5760405162461bcd60e51b8152600401610b79906150b2565b610b946002848460016000612221565b609b54600090610d1469d3c21bcecceda10000008461527e565b6065546001600160a01b031633146119225760405162461bcd60e51b8152600401610b7990615032565b60af80546001600160a01b0319166001600160a01b0392909216919091179055565b60a3546040516329b2a60b60e21b815230600482015260009182916001600160a01b039091169063a6ca982c9060240160c06040518083038186803b15801561198c57600080fd5b505afa1580156119a0573d6000803e3d6000fd5b505050506040513d601f19601f820116820180604052508101906119c49190614dbc565b5050505091509150806119e95760405162461bcd60e51b8152600401610b7990614f94565b6000609a546402540be40060a15485611a02919061527e565b611a0c919061527e565b611a16919061523b565b9050600060a760009054906101000a90046001600160a01b03166001600160a01b031663c1639a2b6040518163ffffffff1660e01b815260040160606040518083038186803b158015611a6857600080fd5b505afa158015611a7c573d6000803e3d6000fd5b505050506040513d601f19601f82011682018060405250810190611aa09190614ec4565b505063ffffffff16905060006064611abd6402540be4008461527e565b611ac7919061523b565b9050828111611b185760405162461bcd60e51b815260206004820152601a60248201527f506f7369746976652072656261736520646973616c6c6f7765640000000000006044820152606401610b79565b6000611b2484836152c5565b60ac54909150600160281b900460ff161580611b64575060a05461271090611b569062010000900461ffff168461527e565b611b60919061523b565b8110155b611ba75760405162461bcd60e51b81526020600482015260146024820152732737ba1032b737bab3b4103232bb34b0ba34b7b760611b6044820152606401610b79565b60ac54600160281b900460ff161580611be5575060ac5461271090611bd7906301000000900461ffff168461527e565b611be1919061523b565b8111155b611c255760405162461bcd60e51b8152602060048201526011602482015270446576696174696f6e20746f6f2062696760781b6044820152606401610b79565b60ac54600090600160281b900460ff16611c40576001611c83565b60ac54611c5690610100900461ffff168461527e565b6001611c646127108561527e565b611c6e91906152c5565b611c78919061523b565b611c839060016151fd565b90506001811115611ca757611c98818361523b565b9150611ca482866151fd565b92505b600083611cbc84670de0b6b3a764000061527e565b611cc6919061523b565b9050611cd3816000612d86565b505050505050505050565b600080821580611cf8575060af546001600160a01b031633145b611d0157600080fd5b600085815260a96020908152604091829020825161012081018452815460ff80821683526101008083046001600160a81b031695840195909552600160b01b820461ffff90811696840196909652600160c01b91829004861660608401526001909301546001600160a01b0381166080840152600160a01b810463ffffffff90811660a085015291810490911660c0830152600160e01b8104909216151560e0820152600160e81b90910490921690820152611dbf86828787612f0d565b9250925050935093915050565b60b3546000906001600160a01b03163314611de657600080fd5b60a254611e07906001600160a01b031633306001600160a81b038616613108565b611e1960003384612710600080613146565b5092915050565b6065546001600160a01b03163314611e4a5760405162461bcd60e51b8152600401610b7990615032565b609d80546001600160a01b0319166001600160a01b0392909216919091179055565b6065546001600160a01b03163314611e965760405162461bcd60e51b8152600401610b7990615032565b60b080546001600160a01b0319166001600160a01b0392909216919091179055565b6000611ec460016133d0565b90508015611edc576000805461ff0019166101001790555b60a0805463ffff000019166264000017905560ac805465ffffffffff0019166501138803e800179055600160a881905560ad55601e60ae55611f208a8a6012610e7b565b611f2861345d565b60a280546001600160a01b03199081166001600160a01b038e811691821790935560a3805483168a851617905560a48054831689851617905560a58054831688851617905560a68054831687851617905560a7805490921692851692909217905560a188905560a0805460ff1990811660ff8c1617909155600060aa5564174876e80060ab5560ac8054909116600117905515611ff15760a254611fd8906001600160a01b0316876000196127ab565b60a254611ff1906001600160a01b0316866000196127ab565b8015612037576000805461ff0019169055604051600181527f7f26b83ff96e1f2b6a682f133852f6798a09c465da95921460cefb38474024989060200160405180910390a15b5050505050505050505050565b60b3546000906001600160a01b0316331461205e57600080fd5b6120813330612078610560866001600160a81b03166118de565b30929190613108565b611e196000338460008060008061348c565b6065546001600160a01b031633146120bd5760405162461bcd60e51b8152600401610b7990615032565b6001600160a01b0381166121225760405162461bcd60e51b815260206004820152602660248201527f4f776e61626c653a206e6577206f776e657220697320746865207a65726f206160448201526564647265737360d01b6064820152608401610b79565b610fec81612a16565b6065546001600160a01b031633146121555760405162461bcd60e51b8152600401610b7990615032565b60b19190915560b255565b6065546001600160a01b0316331461218a5760405162461bcd60e51b8152600401610b7990615032565b60b380546001600160a01b0319166001600160a01b0392909216919091179055565b60ac5460ff1615806121d5575060ab5460aa546121d2906001600160a81b0384166151fd565b11155b610fec5760405162461bcd60e51b815260206004820152601e60248201527f546f74616c20726571756573747320616d6f756e7420657863656564656400006044820152606401610b79565b6000600260015414156122465760405162461bcd60e51b8152600401610b79906150dd565b60026001556001600160a81b03851661225e57600080fd5b6040805160a0810182526000602082018190529181018290526060810182905260808101919091526001600160a81b0386168152600260ff881614156122d55760006122b2876001600160a81b03166118de565b905080816001600160a81b0316146122c957600080fd5b6001600160a81b031681525b60a65460405163051a497b60e01b815263ffffffff871660048201526001600160a01b039091169063051a497b9060240160206040518083038186803b15801561231e57600080fd5b505afa158015612332573d6000803e3d6000fd5b505050506040513d601f19601f820116820180604052508101906123569190614d1d565b61ffff1660208083019190915260a6546040805162ef88df60e71b815290516001600160a01b03909216926377c46f8092600480840193829003018186803b1580156123a157600080fd5b505afa1580156123b5573d6000803e3d6000fd5b505050506040513d601f19601f820116820180604052508101906123d99190614d1d565b61ffff908116604083015260208201518251612710926123fa92169061524f565b6124049190615215565b6001600160a81b03166060820152604081015181516127109161242d9161ffff9091169061524f565b6124379190615215565b6001600160a81b0316608082015260a85491506124558260016151fd565b60a855600061246a63ffffffff8716426151fd565b90506040518061012001604052808960ff16815260200183600001516001600160a81b03168152602001836020015161ffff168152602001836040015161ffff168152602001336001600160a01b031681526020014263ffffffff1681526020018263ffffffff16815260200186151581526020018561ffff1681525060a9600085815260200190815260200160002060008201518160000160006101000a81548160ff021916908360ff16021790555060208201518160000160016101000a8154816001600160a81b0302191690836001600160a81b0316021790555060408201518160000160166101000a81548161ffff021916908361ffff16021790555060608201518160000160186101000a81548161ffff021916908361ffff16021790555060808201518160010160006101000a8154816001600160a01b0302191690836001600160a01b0316021790555060a08201518160010160146101000a81548163ffffffff021916908363ffffffff16021790555060c08201518160010160186101000a81548163ffffffff021916908363ffffffff16021790555060e082015181600101601c6101000a81548160ff02191690831515021790555061010082015181600101601d6101000a81548161ffff021916908361ffff160217905550905050600260ff168860ff161461267957866001600160a81b031660aa5461267591906151fd565b60aa555b6126cc88866126bd5760ff8a166002146126a657836080015184606001516126a191906151fd565b6136e4565b6126a18460800151856060015161056091906151fd565b886001600160a81b03166136e4565b337fa670c85a56568fc022a5849f397274f0e963655cd9c383657b23f8617c4a3b88848a8a60ff8216600214612706578660600151612713565b6127138760600151610cf9565b6040805194855260ff90931660208501526001600160a81b0390911691830191909152606082015263ffffffff4281166080830152841660a082015287151560c082015261ffff871660e08201526101000160405180910390a250506001805595945050505050565b600054610100900460ff166127a35760405162461bcd60e51b8152600401610b7990615067565b611354613740565b8015806128345750604051636eb1769f60e11b81523060048201526001600160a01b03838116602483015284169063dd62ed3e9060440160206040518083038186803b1580156127fa57600080fd5b505afa15801561280e573d6000803e3d6000fd5b505050506040513d601f19601f820116820180604052508101906128329190614d80565b155b61289f5760405162461bcd60e51b815260206004820152603660248201527f5361666545524332303a20617070726f76652066726f6d206e6f6e2d7a65726f60448201527520746f206e6f6e2d7a65726f20616c6c6f77616e636560501b6064820152608401610b79565b6040516001600160a01b0383166024820152604481018290526110c690849063095ea7b360e01b906064015b60408051601f198184030181529190526020810180516001600160e01b03166001600160e01b031990931692909217909152613770565b6000600260015414156129275760405162461bcd60e51b8152600401610b79906150dd565b6002600181905550600061293e8585600286613842565b90508060800151612a0a5761295285613cc4565b600061298186866080015184600001518860400151866060015189801561297a57508a60e001515b600161348c565b608087810151885160e0808b0151604080518e815260ff909416602085015283018690526000606084015215159382019390935288151560a08201524263ffffffff1660c082015293965091935033926001600160a01b03909216917feaa5448472d06a833e3f8fea197d31076cb3c165c25c1a217def0eabbbd76f88910160405180910390a3505b50600180559392505050565b606580546001600160a01b038381166001600160a01b0319831681179093556040519116919082907f8be0079c531659141344cd1fd0a4f28419497f9722a3daafe3b4186f6b6457e090600090a35050565b600080612a7d83600001518460200151613d87565b60e08401519091506001600160a81b03821690612afb57604084015160009061271090612aae9061ffff168561524f565b612ab89190615215565b9050600061271061ffff16866060015161ffff1685612ad7919061524f565b612ae19190615215565b9050612aed81836151d2565b6001600160a81b0316925050505b835160ff1660021415612b1e57612b13816001613dc6565b50909150612b309050565b612b30826001600160a81b031661403d565b8360e00151612bba5760a654604051637693aa6160e01b8152600481018390526001600160a01b0390911690637693aa619060240160206040518083038186803b158015612b7d57600080fd5b505afa158015612b91573d6000803e3d6000fd5b505050506040513d601f19601f82011682018060405250810190612bb59190614d80565b612c36565b60a65460405163591b36f760e01b8152600481018390526001600160a01b039091169063591b36f79060240160206040518083038186803b158015612bfe57600080fd5b505afa158015612c12573d6000803e3d6000fd5b505050506040513d601f19601f82011682018060405250810190612c369190614d80565b9250612c4185613cc4565b8360e0015115612c76576080840151612c7190612c5e85846152c5565b60a2546001600160a01b03169190614063565b612cf4565b60a4546001600160a01b0316638b0f154d612c9185846152c5565b60a25460405160e084901b6001600160e01b031916815260048101929092526001600160a01b03166024820152604401600060405180830381600087803b158015612cdb57600080fd5b505af1158015612cef573d6000803e3d6000fd5b505050505b60a254612d0b906001600160a01b03163385614063565b608084810151855160e0870151604080518a815260ff909316602084015282018790521515606082015263ffffffff42169281019290925233916001600160a01b03909116907fb0ed9dd07e136565ec73e51759602bc1c92e75cf86ceabcf197b2a8784c094db9060a00160405180910390a3505092915050565b609d546000906001600160a01b03163314612dd15760405162461bcd60e51b815260206004820152600b60248201526a139bdd08185b1b1bddd95960aa1b6044820152606401610b79565b82612e2257609b54604080514281526020810183905280820192909252517fc6642d24d84e7f3d36ca39f5cce10e75639d9b158d5193aa350e2f900653e4c09181900360600190a150609a54610c90565b609b5482612e5c57670de0b6b3a7640000612e3d85826152c5565b609b54612e4a919061527e565b612e54919061523b565b609b55612eb1565b6000670de0b6b3a7640000612e7186826151fd565b609b54612e7e919061527e565b612e88919061523b565b9050612e92610c96565b811015612ea357609b819055612eaf565b612eab610c96565b609b555b505b612ebc609c54610cf9565b609a55609b54604080514281526020810184905280820192909252517fc6642d24d84e7f3d36ca39f5cce10e75639d9b158d5193aa350e2f900653e4c09181900360600190a15050609a5492915050565b6000806000612f1f8787600187613842565b9050806080015115612f3457600191506130fe565b612f588787608001518360000151888a60e001518015612f515750885b6001613146565b909350915081156130fe57612f7986602001516001600160a81b031661403d565b612f8287613cc4565b60a454602082015160408301516001600160a01b0390921691638b0f154d91612faa916151d2565b60a25460405160e084901b6001600160e01b03191681526001600160a81b0390921660048301526001600160a01b03166024820152604401600060405180830381600087803b158015612ffc57600080fd5b505af1158015613010573d6000803e3d6000fd5b505050506101008101516001600160a81b0316156130555760b05461010082015160a254613055926001600160a01b03918216929116906001600160a81b0316614063565b336001600160a01b031686608001516001600160a01b03167feaa5448472d06a833e3f8fea197d31076cb3c165c25c1a217def0eabbbd76f8889896000015185610100015186602001516130a991906151d2565b60e08c8101516040805195865260ff90941660208601526001600160a81b0390921692840192909252600060608401521515608083015288151560a083015263ffffffff421660c08301520160405180910390a35b5094509492505050565b6040516001600160a01b03808516602483015283166044820152606481018290526131409085906323b872dd60e01b906084016128cb565b50505050565b60a35460405163055f575160e41b81523060048201526000918291829160019183916001600160a01b0316906355f575109060240160a06040518083038186803b15801561319357600080fd5b505afa1580156131a7573d6000803e3d6000fd5b505050506040513d601f19601f820116820180604052508101906131cb9190614ca9565b505050506001600160a81b03169050806000146132685760a3546040516329b2a60b60e21b81523060048201526001600160a01b039091169063a6ca982c9060240160c06040518083038186803b15801561322557600080fd5b505afa158015613239573d6000803e3d6000fd5b505050506040513d601f19601f8201168201806040525081019061325d9190614dbc565b509396509194505050505b816132855760405162461bcd60e51b8152600401610b7990614f94565b5050609a54600080808061329b8c8c8c8c614093565b94506001600160a81b031694506001600160a81b031694506001600160a81b031694505080156133bf576000851180156132d55750600086115b156132f657856132e5868661527e565b6132ef919061523b565b9750613306565b60a154613303908561527e565b97505b604080518f81526001600160a81b038e166020820152908101859052606081018990526080810184905260a081018390526001600160a01b038e16907f1ea03bd5ed908c036eb222c88975259903b8a291fb411a82ae9c8205d6c7d7ac9060c00160405180910390a2600088116133b05760405162461bcd60e51b815260206004820152600e60248201526d546f6f2066657720746f6b656e7360901b6044820152606401610b79565b6133ba8d89614463565b600196505b505050505050965096945050505050565b60008054610100900460ff1615613417578160ff1660011480156133f35750303b155b61340f5760405162461bcd60e51b8152600401610b7990614fe4565b506000919050565b60005460ff80841691161061343e5760405162461bcd60e51b8152600401610b7990614fe4565b506000805460ff191660ff92909216919091179055600190565b919050565b600054610100900460ff166134845760405162461bcd60e51b8152600401610b7990615067565b611354614583565b60008060008060006134a78a6001600160a81b031687613dc6565b9194509250905060006127106134c161ffff8c168661527e565b6134cb919061523b565b90506127106134de61ffff8b168661527e565b6134e8919061523b565b9450600088156135715760a65460405163591b36f760e01b8152600481018790526001600160a01b039091169063591b36f79060240160206040518083038186803b15801561353657600080fd5b505afa15801561354a573d6000803e3d6000fd5b505050506040513d601f19601f8201168201806040525081019061356e9190614d80565b90505b808261357d88886152c5565b61358791906152c5565b61359191906152c5565b9650600061359f83886151fd565b11156136235760a4546001600160a01b0316638b0f154d6135c084896151fd565b60a25460405160e084901b6001600160e01b031916815260048101929092526001600160a01b03166024820152604401600060405180830381600087803b15801561360a57600080fd5b505af115801561361e573d6000803e3d6000fd5b505050505b80156136535760b05460a254613646916001600160a01b03918216911683614063565b61365081876151fd565b95505b505060a25461366c906001600160a01b03168c87614063565b604080518d8152602081018590529081018690526001600160a81b038b1660608201526080810183905260a081018290526001600160a01b038c16907f6c4de564b51b3953a8d2eab8336cee66368f4ca65fbc7d31d535368983c1e1819060c00160405180910390a250505097509795505050505050565b60ff82166002141561372857806136fa336112fe565b10156137185760405162461bcd60e51b8152600401610b79906150b2565b61372430338184613108565b5050565b60a254613724906001600160a01b0316333084613108565b600054610100900460ff166137675760405162461bcd60e51b8152600401610b7990615067565b61135433612a16565b60006137c5826040518060400160405280602081526020017f5361666545524332303a206c6f772d6c6576656c2063616c6c206661696c6564815250856001600160a01b03166145b09092919063ffffffff16565b8051909150156110c657808060200190518101906137e391906149f0565b6110c65760405162461bcd60e51b815260206004820152602a60248201527f5361666545524332303a204552433230206f7065726174696f6e20646964206e6044820152691bdd081cdd58d8d9595960b21b6064820152608401610b79565b6040805161012081018252600080825260208201819052918101829052606081018290526080810182905260a0810182905260c0810182905260e0810182905261010081019190915281801561389957508360e001515b806138b0575060808401516001600160a01b031633145b6138b957600080fd5b8260ff16846000015160ff16146139075760405162461bcd60e51b815260206004820152601260248201527157726f6e672072657175657374207479706560701b6044820152606401610b79565b60a6546040516315b3b87360e01b81526001600160a01b03909116906315b3b87390613937908790600401615114565b60206040518083038186803b15801561394f57600080fd5b505afa158015613963573d6000803e3d6000fd5b505050506040513d601f19601f8201168201806040525081019061398791906149f0565b156139a3576139968585612a68565b50600160808201526112f6565b8115806139ba57508360c0015163ffffffff164210155b613a065760405162461bcd60e51b815260206004820152601760248201527f5461726765742074696d65206e6f7420726561636865640000000000000000006044820152606401610b79565b8360e001518015613a2157508360c0015163ffffffff164210155b613aaa5760a654604051634ab4396560e11b81526001600160a01b039091169063956872ca90613a55908790600401615114565b60206040518083038186803b158015613a6d57600080fd5b505afa158015613a81573d6000803e3d6000fd5b505050506040513d601f19601f82011682018060405250810190613aa59190614d1d565b613aad565b60005b61ffff90811660608301526040850151602086015161271092613ad192169061524f565b613adb9190615215565b6001600160a81b03166040820152835160ff1660011415613c18578360e001518015613b045750815b15613ba35760a654602085015160405163591b36f760e01b81526001600160a81b0390911660048201526001600160a01b039091169063591b36f79060240160206040518083038186803b158015613b5b57600080fd5b505afa158015613b6f573d6000803e3d6000fd5b505050506040513d601f19601f82011682018060405250810190613b939190614d80565b6001600160a81b03166101008201525b61271061ffff16816060015161ffff168560200151613bc2919061524f565b613bcc9190615215565b6001600160a81b03166020808301829052610100830151604084015191870151909291613bf89161529d565b613c02919061529d565b613c0c919061529d565b6001600160a81b031681525b8360e00151613c92576000613c77856000015161271061ffff16876060015161ffff168860200151613c4a919061524f565b613c549190615215565b84604001518860200151613c68919061529d565b613c72919061529d565b613d87565b6001600160a81b03169050613c908560000151826136e4565b505b835160ff16600214156112f657613cb184600001518560200151613d87565b6001600160a81b03168152949350505050565b600081815260a96020526040812080546001600160d01b031916815560010180546001600160f81b031916905560ad5490805b60a85483108015613d09575060ae5482105b8015613d505750600083815260a960205260409020600101546001600160a01b03161580613d505750600083815260a96020526040902060010154600160e01b900460ff16155b15613d795781613d5f81615343565b9250508280613d6d90615343565b93505060019050613cf7565b801561314057505060ad5550565b600060ff8316600214613d9b575080610c90565b6000613daf836001600160a81b0316610cf9565b905080816001600160a81b031614610b9457600080fd5b60a3546040516329b2a60b60e21b815230600482015260009182918291829182916001600160a01b03169063a6ca982c9060240160c06040518083038186803b158015613e1257600080fd5b505afa158015613e26573d6000803e3d6000fd5b505050506040513d601f19601f82011682018060405250810190613e4a9190614dbc565b505050925092505081613e6f5760405162461bcd60e51b8152600401610b7990614f94565b609a54600090613e88896001600160a81b03851661527e565b613e92919061523b565b9050806001600160a81b03168114613eec5760405162461bcd60e51b815260206004820152601760248201527f546f6f206d75636820706f736974696f6e20756e6974730000000000000000006044820152606401610b79565b801561401e5786613f895760a354604051635d357c1960e11b81526001600160a81b0383166004820152600160248201526001600160a01b039091169063ba6af83290604401606060405180830381600087803b158015613f4c57600080fd5b505af1158015613f60573d6000803e3d6000fd5b505050506040513d601f19601f82011682018060405250810190613f849190614e7b565b614016565b60a35460405163c657549160e01b81526001600160a81b0383166004820152600160248201526001600160a01b039091169063c657549190604401606060405180830381600087803b158015613fde57600080fd5b505af1158015613ff2573d6000803e3d6000fd5b505050506040513d601f19601f820116820180604052508101906140169190614e7b565b919750955093505b6140333061402e6105608b6118de565b6145bf565b5050509250925092565b60aa5481111561404f57600060aa5550565b8060aa5461405d91906152c5565b60aa5550565b6040516001600160a01b0383166024820152604481018290526110c690849063a9059cbb60e01b906064016128cb565b6000808080600186156142165760a3546040805163d934c20b60e01b8152905160009283926001600160a01b0390911691633c885ff960e21b918e91849163d934c20b916004808301926020929190829003018186803b1580156140f657600080fd5b505afa15801561410a573d6000803e3d6000fd5b505050506040513d601f19601f8201168201806040525081019061412e9190614ea8565b604080516001600160a81b03909316602084015263ffffffff9091169082015261ffff8d1660608201526001608082015260a00160408051601f19818403018152908290526141809291602001614f14565b60408051601f198184030181529082905261419a91614f45565b6000604051808303816000865af19150503d80600081146141d7576040519150601f19603f3d011682016040523d82523d6000602084013e6141dc565b606091505b5091509150811561420a57808060200190518101906141fb9190614bdf565b9299509097509550935061420f565b600092505b5050614458565b851561433c5760a3546040805163d934c20b60e01b815290516001600160a01b039092169163f2217fe4918c91849163d934c20b916004808301926020929190829003018186803b15801561426a57600080fd5b505afa15801561427e573d6000803e3d6000fd5b505050506040513d601f19601f820116820180604052508101906142a29190614ea8565b6040516001600160e01b031960e085901b1681526001600160a81b03909216600483015263ffffffff16602482015261ffff8b16604482015260016064820152608401608060405180830381600087803b1580156142ff57600080fd5b505af1158015614313573d6000803e3d6000fd5b505050506040513d601f19601f820116820180604052508101906143379190614bdf565b61444d565b60a3546040805163d934c20b60e01b815290516001600160a01b03909216916353997f61918c91849163d934c20b916004808301926020929190829003018186803b15801561438a57600080fd5b505afa15801561439e573d6000803e3d6000fd5b505050506040513d601f19601f820116820180604052508101906143c29190614ea8565b6040516001600160e01b031960e085901b1681526001600160a81b03909216600483015263ffffffff16602482015260016044820152606401608060405180830381600087803b15801561441557600080fd5b505af1158015614429573d6000803e3d6000fd5b505050506040513d601f19601f8201168201806040525081019061444d9190614bdf565b929750909550935091505b945094509450945094565b816001600160a01b03811661448a5760405162461bcd60e51b8152600401610b7990614fbe565b81609a5461449891906151fd565b609a5560006144a6836118de565b905080609c546144b691906151fd565b609c556144c1610c96565b609b5411156145125760405162461bcd60e51b815260206004820152601a60248201527f4d6178207363616c696e6720666163746f7220746f6f206c6f770000000000006044820152606401610b79565b6001600160a01b0384166000908152609e60205260409020546145369082906151fd565b6001600160a01b0385166000818152609e602052604080822093909355915190919060008051602061540a833981519152906145759087815260200190565b60405180910390a350505050565b600054610100900460ff166145aa5760405162461bcd60e51b8152600401610b7990615067565b60018055565b6060610b918484600085614675565b816001600160a01b0381166145e65760405162461bcd60e51b8152600401610b7990614fbe565b81609a546145f491906152c5565b609a556000614602836118de565b905080609c5461461291906152c5565b609c556001600160a01b0384166000908152609e60205260409020546146399082906152c5565b6001600160a01b0385166000818152609e602052604080822093909355915160008051602061540a833981519152906145759087815260200190565b6060824710156146d65760405162461bcd60e51b815260206004820152602660248201527f416464726573733a20696e73756666696369656e742062616c616e636520666f6044820152651c8818d85b1b60d21b6064820152608401610b79565b6001600160a01b0385163b61472d5760405162461bcd60e51b815260206004820152601d60248201527f416464726573733a2063616c6c20746f206e6f6e2d636f6e74726163740000006044820152606401610b79565b600080866001600160a01b031685876040516147499190614f45565b60006040518083038185875af1925050503d8060008114614786576040519150601f19603f3d011682016040523d82523d6000602084013e61478b565b606091505b509150915061479b8282866147a6565b979650505050505050565b606083156147b5575081610b94565b8251156147c55782518084602001fd5b8160405162461bcd60e51b8152600401610b799190614f61565b8280546147eb90615308565b90600052602060002090601f01602090048101928261480d5760008555614853565b82601f1061482657805160ff1916838001178555614853565b82800160010185558215614853579182015b82811115614853578251825591602001919060010190614838565b5061485f929150614863565b5090565b5b8082111561485f5760008155600101614864565b8035613458816153a0565b600082601f830112614893578081fd5b813567ffffffffffffffff808211156148ae576148ae61538a565b604051601f8301601f19908116603f011681019082821181831017156148d6576148d661538a565b816040528381528660208588010111156148ee578485fd5b8360208701602083013792830160200193909352509392505050565b8035613458816153fa565b600060208284031215614926578081fd5b8135610b94816153a0565b60008060408385031215614943578081fd5b823561494e816153a0565b9150602083013561495e816153a0565b809150509250929050565b60008060006060848603121561497d578081fd5b8335614988816153a0565b92506020840135614998816153a0565b929592945050506040919091013590565b600080604083850312156149bb578182fd5b82356149c6816153a0565b946020939093013593505050565b6000602082840312156149e5578081fd5b8135610b94816153b5565b600060208284031215614a01578081fd5b8151610b94816153b5565b6000806000806000806000806000806101408b8d031215614a2b578586fd5b614a348b614878565b995060208b013567ffffffffffffffff80821115614a50578788fd5b614a5c8e838f01614883565b9a5060408d0135915080821115614a71578788fd5b50614a7e8d828e01614883565b985050614a8d60608c0161490a565b965060808b01359550614aa260a08c01614878565b9450614ab060c08c01614878565b9350614abe60e08c01614878565b9250614acd6101008c01614878565b9150614adc6101208c01614878565b90509295989b9194979a5092959850565b60008060408385031215614aff578182fd5b823567ffffffffffffffff80821115614b16578384fd5b614b2286838701614883565b93506020850135915080821115614b37578283fd5b50614b4485828601614883565b9150509250929050565b600080600060608486031215614b62578081fd5b833567ffffffffffffffff80821115614b79578283fd5b614b8587838801614883565b94506020860135915080821115614b9a578283fd5b50614ba786828701614883565b9250506040840135614bb8816153fa565b809150509250925092565b600060208284031215614bd4578081fd5b8135610b94816153d3565b60008060008060808587031215614bf4578182fd5b8451614bff816153d3565b6020860151909450614c10816153d3565b6040860151909350614c21816153d3565b6060860151909250614c32816153d3565b939692955090935050565b60008060408385031215614c4f578182fd5b8235614c5a816153d3565b9150602083013561495e816153e8565b600080600060608486031215614c7e578081fd5b8335614c89816153d3565b92506020840135614c99816153e8565b91506040840135614bb8816153c3565b600080600080600060a08688031215614cc0578283fd5b8551614ccb816153d3565b6020870151909550614cdc816153fa565b6040870151909450614ced816153e8565b6060870151909350614cfe816153e8565b6080870151909250614d0f816153e8565b809150509295509295909350565b600060208284031215614d2e578081fd5b8151610b94816153c3565b600080600060608486031215614d4d578081fd5b8335614d58816153c3565b92506020840135614c99816153c3565b600060208284031215614d79578081fd5b5035919050565b600060208284031215614d91578081fd5b5051919050565b60008060408385031215614daa578182fd5b82359150602083013561495e816153b5565b60008060008060008060c08789031215614dd4578384fd5b865195506020870151614de6816153b5565b6040880151909550614df7816153d3565b6060880151909450614e08816153fa565b809350506080870151915060a087015190509295509295509295565b600080600060608486031215614e38578081fd5b833592506020840135614e4a816153c3565b91506040840135614bb8816153b5565b60008060408385031215614e6c578182fd5b50508035926020909101359150565b600080600060608486031215614e8f578081fd5b8351925060208401519150604084015190509250925092565b600060208284031215614eb9578081fd5b8151610b94816153e8565b600080600060608486031215614ed8578081fd5b8351614ee3816153e8565b602085015190935069ffffffffffffffffffff81168114614f02578182fd5b80925050604084015190509250925092565b6001600160e01b0319831681528151600090614f378160048501602087016152dc565b919091016004019392505050565b60008251614f578184602087016152dc565b9190910192915050565b6020815260008251806020840152614f808160408501602087016152dc565b601f01601f19169190910160400192915050565b60208082526010908201526f4e656761746976652062616c616e636560801b604082015260600190565b6020808252600c908201526b5a65726f206164647265737360a01b604082015260600190565b6020808252602e908201527f496e697469616c697a61626c653a20636f6e747261637420697320616c72656160408201526d191e481a5b9a5d1a585b1a5e995960921b606082015260800190565b6020808252818101527f4f776e61626c653a2063616c6c6572206973206e6f7420746865206f776e6572604082015260600190565b6020808252602b908201527f496e697469616c697a61626c653a20636f6e7472616374206973206e6f74206960408201526a6e697469616c697a696e6760a81b606082015260800190565b6020808252601190820152704e6f7420656e6f75676820746f6b656e7360781b604082015260600190565b6020808252601f908201527f5265656e7472616e637947756172643a207265656e7472616e742063616c6c00604082015260600190565b815160ff1681526020808301516001600160a81b0316908201526040808301516101208301916151499084018261ffff169052565b50606083015161515f606084018261ffff169052565b50608083015161517a60808401826001600160a01b03169052565b5060a083015161519260a084018263ffffffff169052565b5060c08301516151aa60c084018263ffffffff169052565b5060e08301516151be60e084018215159052565b506101009283015161ffff16919092015290565b60006001600160a81b038281168482168083038211156151f4576151f461535e565b01949350505050565b600082198211156152105761521061535e565b500190565b60006001600160a81b038381168061522f5761522f615374565b92169190910492915050565b60008261524a5761524a615374565b500490565b60006001600160a81b03828116848216811515828404821116156152755761527561535e565b02949350505050565b60008160001904831182151516156152985761529861535e565b500290565b60006001600160a81b03838116908316818110156152bd576152bd61535e565b039392505050565b6000828210156152d7576152d761535e565b500390565b60005b838110156152f75781810151838201526020016152df565b838111156131405750506000910152565b600181811c9082168061531c57607f821691505b6020821081141561533d57634e487b7160e01b600052602260045260246000fd5b50919050565b60006000198214156153575761535761535e565b5060010190565b634e487b7160e01b600052601160045260246000fd5b634e487b7160e01b600052601260045260246000fd5b634e487b7160e01b600052604160045260246000fd5b6001600160a01b0381168114610fec57600080fd5b8015158114610fec57600080fd5b61ffff81168114610fec57600080fd5b6001600160a81b0381168114610fec57600080fd5b63ffffffff81168114610fec57600080fd5b60ff81168114610fec57600080fdfeddf252ad1be2c89b69c2b068fc378daa952ba7f163c4a11628f55a4df523b3efa26469706673582212203446c54788d20e63d45ef866b56422e733f236e8ab2fd5f6c0d7e15a12fb16c464736f6c63430008040033",
  "devdoc": {
    "kind": "dev",
    "methods": {
      "owner()": {
        "details": "Returns the address of the current owner."
      },
      "renounceOwnership()": {
        "details": "Leaves the contract without owner. It will not be possible to call `onlyOwner` functions anymore. Can only be called by the current owner. NOTE: Renouncing ownership will leave the contract without an owner, thereby removing any functionality that is only available to the owner."
      },
      "transferOwnership(address)": {
        "details": "Transfers ownership of the contract to a new account (`newOwner`). Can only be called by the current owner."
      }
    },
    "version": 1
  },
  "userdoc": {
    "kind": "user",
    "methods": {},
    "version": 1
  },
  "storageLayout": {
    "storage": [
      {
        "astId": 34426,
        "contract": "contracts/volatility-token/VolatilityTokenContracts.sol:CVIUSDCVolatilityToken",
        "label": "_initialized",
        "offset": 0,
        "slot": "0",
        "type": "t_uint8"
      },
      {
        "astId": 34429,
        "contract": "contracts/volatility-token/VolatilityTokenContracts.sol:CVIUSDCVolatilityToken",
        "label": "_initializing",
        "offset": 1,
        "slot": "0",
        "type": "t_bool"
      },
      {
        "astId": 34575,
        "contract": "contracts/volatility-token/VolatilityTokenContracts.sol:CVIUSDCVolatilityToken",
        "label": "_status",
        "offset": 0,
        "slot": "1",
        "type": "t_uint256"
      },
      {
        "astId": 34619,
        "contract": "contracts/volatility-token/VolatilityTokenContracts.sol:CVIUSDCVolatilityToken",
        "label": "__gap",
        "offset": 0,
        "slot": "2",
        "type": "t_array(t_uint256)49_storage"
      },
      {
        "astId": 37283,
        "contract": "contracts/volatility-token/VolatilityTokenContracts.sol:CVIUSDCVolatilityToken",
        "label": "__gap",
        "offset": 0,
        "slot": "51",
        "type": "t_array(t_uint256)50_storage"
      },
      {
        "astId": 34306,
        "contract": "contracts/volatility-token/VolatilityTokenContracts.sol:CVIUSDCVolatilityToken",
        "label": "_owner",
        "offset": 0,
        "slot": "101",
        "type": "t_address"
      },
      {
        "astId": 34418,
        "contract": "contracts/volatility-token/VolatilityTokenContracts.sol:CVIUSDCVolatilityToken",
        "label": "__gap",
        "offset": 0,
        "slot": "102",
        "type": "t_array(t_uint256)49_storage"
      },
      {
        "astId": 327,
        "contract": "contracts/volatility-token/VolatilityTokenContracts.sol:CVIUSDCVolatilityToken",
        "label": "name",
        "offset": 0,
        "slot": "151",
        "type": "t_string_storage"
      },
      {
        "astId": 329,
        "contract": "contracts/volatility-token/VolatilityTokenContracts.sol:CVIUSDCVolatilityToken",
        "label": "symbol",
        "offset": 0,
        "slot": "152",
        "type": "t_string_storage"
      },
      {
        "astId": 331,
        "contract": "contracts/volatility-token/VolatilityTokenContracts.sol:CVIUSDCVolatilityToken",
        "label": "decimals",
        "offset": 0,
        "slot": "153",
        "type": "t_uint8"
      },
      {
        "astId": 333,
        "contract": "contracts/volatility-token/VolatilityTokenContracts.sol:CVIUSDCVolatilityToken",
        "label": "totalSupply",
        "offset": 0,
        "slot": "154",
        "type": "t_uint256"
      },
      {
        "astId": 335,
        "contract": "contracts/volatility-token/VolatilityTokenContracts.sol:CVIUSDCVolatilityToken",
        "label": "scalingFactor",
        "offset": 0,
        "slot": "155",
        "type": "t_uint256"
      },
      {
        "astId": 337,
        "contract": "contracts/volatility-token/VolatilityTokenContracts.sol:CVIUSDCVolatilityToken",
        "label": "initSupply",
        "offset": 0,
        "slot": "156",
        "type": "t_uint256"
      },
      {
        "astId": 339,
        "contract": "contracts/volatility-token/VolatilityTokenContracts.sol:CVIUSDCVolatilityToken",
        "label": "rebaser",
        "offset": 0,
        "slot": "157",
        "type": "t_address"
      },
      {
        "astId": 343,
        "contract": "contracts/volatility-token/VolatilityTokenContracts.sol:CVIUSDCVolatilityToken",
        "label": "_underlyingBalances",
        "offset": 0,
        "slot": "158",
        "type": "t_mapping(t_address,t_uint256)"
      },
      {
        "astId": 349,
        "contract": "contracts/volatility-token/VolatilityTokenContracts.sol:CVIUSDCVolatilityToken",
        "label": "_allowedFragments",
        "offset": 0,
        "slot": "159",
        "type": "t_mapping(t_address,t_mapping(t_address,t_uint256))"
      },
      {
        "astId": 13460,
        "contract": "contracts/volatility-token/VolatilityTokenContracts.sol:CVIUSDCVolatilityToken",
        "label": "leverage",
        "offset": 0,
        "slot": "160",
        "type": "t_uint8"
      },
      {
        "astId": 13462,
        "contract": "contracts/volatility-token/VolatilityTokenContracts.sol:CVIUSDCVolatilityToken",
        "label": "rebaseLag",
        "offset": 1,
        "slot": "160",
        "type": "t_uint8"
      },
      {
        "astId": 13464,
        "contract": "contracts/volatility-token/VolatilityTokenContracts.sol:CVIUSDCVolatilityToken",
        "label": "minDeviationPercentage",
        "offset": 2,
        "slot": "160",
        "type": "t_uint16"
      },
      {
        "astId": 13467,
        "contract": "contracts/volatility-token/VolatilityTokenContracts.sol:CVIUSDCVolatilityToken",
        "label": "initialTokenToLPTokenRate",
        "offset": 0,
        "slot": "161",
        "type": "t_uint256"
      },
      {
        "astId": 13470,
        "contract": "contracts/volatility-token/VolatilityTokenContracts.sol:CVIUSDCVolatilityToken",
        "label": "token",
        "offset": 0,
        "slot": "162",
        "type": "t_contract(IERC20Upgradeable)35309"
      },
      {
        "astId": 13474,
        "contract": "contracts/volatility-token/VolatilityTokenContracts.sol:CVIUSDCVolatilityToken",
        "label": "platform",
        "offset": 0,
        "slot": "163",
        "type": "t_contract(IPlatform)18105"
      },
      {
        "astId": 13477,
        "contract": "contracts/volatility-token/VolatilityTokenContracts.sol:CVIUSDCVolatilityToken",
        "label": "feesCollector",
        "offset": 0,
        "slot": "164",
        "type": "t_contract(IFeesCollector)17539"
      },
      {
        "astId": 13480,
        "contract": "contracts/volatility-token/VolatilityTokenContracts.sol:CVIUSDCVolatilityToken",
        "label": "feesCalculator",
        "offset": 0,
        "slot": "165",
        "type": "t_contract(IFeesCalculator)17527"
      },
      {
        "astId": 13484,
        "contract": "contracts/volatility-token/VolatilityTokenContracts.sol:CVIUSDCVolatilityToken",
        "label": "requestFeesCalculator",
        "offset": 0,
        "slot": "166",
        "type": "t_contract(IRequestFeesCalculator)18544"
      },
      {
        "astId": 13487,
        "contract": "contracts/volatility-token/VolatilityTokenContracts.sol:CVIUSDCVolatilityToken",
        "label": "cviOracle",
        "offset": 0,
        "slot": "167",
        "type": "t_contract(ICVIOracle)17026"
      },
      {
        "astId": 13490,
        "contract": "contracts/volatility-token/VolatilityTokenContracts.sol:CVIUSDCVolatilityToken",
        "label": "nextRequestId",
        "offset": 0,
        "slot": "168",
        "type": "t_uint256"
      },
      {
        "astId": 13496,
        "contract": "contracts/volatility-token/VolatilityTokenContracts.sol:CVIUSDCVolatilityToken",
        "label": "requests",
        "offset": 0,
        "slot": "169",
        "type": "t_mapping(t_uint256,t_struct(Request)18986_storage)"
      },
      {
        "astId": 13498,
        "contract": "contracts/volatility-token/VolatilityTokenContracts.sol:CVIUSDCVolatilityToken",
        "label": "totalRequestsAmount",
        "offset": 0,
        "slot": "170",
        "type": "t_uint256"
      },
      {
        "astId": 13500,
        "contract": "contracts/volatility-token/VolatilityTokenContracts.sol:CVIUSDCVolatilityToken",
        "label": "maxTotalRequestsAmount",
        "offset": 0,
        "slot": "171",
        "type": "t_uint256"
      },
      {
        "astId": 13502,
        "contract": "contracts/volatility-token/VolatilityTokenContracts.sol:CVIUSDCVolatilityToken",
        "label": "verifyTotalRequestsAmount",
        "offset": 0,
        "slot": "172",
        "type": "t_bool"
      },
      {
        "astId": 13504,
        "contract": "contracts/volatility-token/VolatilityTokenContracts.sol:CVIUSDCVolatilityToken",
        "label": "deviationPerSingleRebaseLag",
        "offset": 1,
        "slot": "172",
        "type": "t_uint16"
      },
      {
        "astId": 13506,
        "contract": "contracts/volatility-token/VolatilityTokenContracts.sol:CVIUSDCVolatilityToken",
        "label": "maxDeviationPercentage",
        "offset": 3,
        "slot": "172",
        "type": "t_uint16"
      },
      {
        "astId": 13508,
        "contract": "contracts/volatility-token/VolatilityTokenContracts.sol:CVIUSDCVolatilityToken",
        "label": "cappedRebase",
        "offset": 5,
        "slot": "172",
        "type": "t_bool"
      },
      {
        "astId": 13517,
        "contract": "contracts/volatility-token/VolatilityTokenContracts.sol:CVIUSDCVolatilityToken",
        "label": "minRequestId",
        "offset": 0,
        "slot": "173",
        "type": "t_uint256"
      },
      {
        "astId": 13520,
        "contract": "contracts/volatility-token/VolatilityTokenContracts.sol:CVIUSDCVolatilityToken",
        "label": "maxMinRequestIncrements",
        "offset": 0,
        "slot": "174",
        "type": "t_uint256"
      },
      {
        "astId": 13522,
        "contract": "contracts/volatility-token/VolatilityTokenContracts.sol:CVIUSDCVolatilityToken",
        "label": "fulfiller",
        "offset": 0,
        "slot": "175",
        "type": "t_address"
      },
      {
        "astId": 13524,
        "contract": "contracts/volatility-token/VolatilityTokenContracts.sol:CVIUSDCVolatilityToken",
        "label": "keepersFeeVaultAddress",
        "offset": 0,
        "slot": "176",
        "type": "t_address"
      },
      {
        "astId": 13526,
        "contract": "contracts/volatility-token/VolatilityTokenContracts.sol:CVIUSDCVolatilityToken",
        "label": "minKeepersMintAmount",
        "offset": 0,
        "slot": "177",
        "type": "t_uint256"
      },
      {
        "astId": 13528,
        "contract": "contracts/volatility-token/VolatilityTokenContracts.sol:CVIUSDCVolatilityToken",
        "label": "minKeepersBurnAmount",
        "offset": 0,
        "slot": "178",
        "type": "t_uint256"
      },
      {
        "astId": 13530,
        "contract": "contracts/volatility-token/VolatilityTokenContracts.sol:CVIUSDCVolatilityToken",
        "label": "minter",
        "offset": 0,
        "slot": "179",
        "type": "t_address"
      }
    ],
    "types": {
      "t_address": {
        "encoding": "inplace",
        "label": "address",
        "numberOfBytes": "20"
      },
      "t_array(t_uint256)49_storage": {
        "base": "t_uint256",
        "encoding": "inplace",
        "label": "uint256[49]",
        "numberOfBytes": "1568"
      },
      "t_array(t_uint256)50_storage": {
        "base": "t_uint256",
        "encoding": "inplace",
        "label": "uint256[50]",
        "numberOfBytes": "1600"
      },
      "t_bool": {
        "encoding": "inplace",
        "label": "bool",
        "numberOfBytes": "1"
      },
      "t_contract(ICVIOracle)17026": {
        "encoding": "inplace",
        "label": "contract ICVIOracle",
        "numberOfBytes": "20"
      },
      "t_contract(IERC20Upgradeable)35309": {
        "encoding": "inplace",
        "label": "contract IERC20Upgradeable",
        "numberOfBytes": "20"
      },
      "t_contract(IFeesCalculator)17527": {
        "encoding": "inplace",
        "label": "contract IFeesCalculator",
        "numberOfBytes": "20"
      },
      "t_contract(IFeesCollector)17539": {
        "encoding": "inplace",
        "label": "contract IFeesCollector",
        "numberOfBytes": "20"
      },
      "t_contract(IPlatform)18105": {
        "encoding": "inplace",
        "label": "contract IPlatform",
        "numberOfBytes": "20"
      },
      "t_contract(IRequestFeesCalculator)18544": {
        "encoding": "inplace",
        "label": "contract IRequestFeesCalculator",
        "numberOfBytes": "20"
      },
      "t_mapping(t_address,t_mapping(t_address,t_uint256))": {
        "encoding": "mapping",
        "key": "t_address",
        "label": "mapping(address => mapping(address => uint256))",
        "numberOfBytes": "32",
        "value": "t_mapping(t_address,t_uint256)"
      },
      "t_mapping(t_address,t_uint256)": {
        "encoding": "mapping",
        "key": "t_address",
        "label": "mapping(address => uint256)",
        "numberOfBytes": "32",
        "value": "t_uint256"
      },
      "t_mapping(t_uint256,t_struct(Request)18986_storage)": {
        "encoding": "mapping",
        "key": "t_uint256",
        "label": "mapping(uint256 => struct IVolatilityToken.Request)",
        "numberOfBytes": "32",
        "value": "t_struct(Request)18986_storage"
      },
      "t_string_storage": {
        "encoding": "bytes",
        "label": "string",
        "numberOfBytes": "32"
      },
      "t_struct(Request)18986_storage": {
        "encoding": "inplace",
        "label": "struct IVolatilityToken.Request",
        "members": [
          {
            "astId": 18969,
            "contract": "contracts/volatility-token/VolatilityTokenContracts.sol:CVIUSDCVolatilityToken",
            "label": "requestType",
            "offset": 0,
            "slot": "0",
            "type": "t_uint8"
          },
          {
            "astId": 18971,
            "contract": "contracts/volatility-token/VolatilityTokenContracts.sol:CVIUSDCVolatilityToken",
            "label": "tokenAmount",
            "offset": 1,
            "slot": "0",
            "type": "t_uint168"
          },
          {
            "astId": 18973,
            "contract": "contracts/volatility-token/VolatilityTokenContracts.sol:CVIUSDCVolatilityToken",
            "label": "timeDelayRequestFeesPercent",
            "offset": 22,
            "slot": "0",
            "type": "t_uint16"
          },
          {
            "astId": 18975,
            "contract": "contracts/volatility-token/VolatilityTokenContracts.sol:CVIUSDCVolatilityToken",
            "label": "maxRequestFeesPercent",
            "offset": 24,
            "slot": "0",
            "type": "t_uint16"
          },
          {
            "astId": 18977,
            "contract": "contracts/volatility-token/VolatilityTokenContracts.sol:CVIUSDCVolatilityToken",
            "label": "owner",
            "offset": 0,
            "slot": "1",
            "type": "t_address"
          },
          {
            "astId": 18979,
            "contract": "contracts/volatility-token/VolatilityTokenContracts.sol:CVIUSDCVolatilityToken",
            "label": "requestTimestamp",
            "offset": 20,
            "slot": "1",
            "type": "t_uint32"
          },
          {
            "astId": 18981,
            "contract": "contracts/volatility-token/VolatilityTokenContracts.sol:CVIUSDCVolatilityToken",
            "label": "targetTimestamp",
            "offset": 24,
            "slot": "1",
            "type": "t_uint32"
          },
          {
            "astId": 18983,
            "contract": "contracts/volatility-token/VolatilityTokenContracts.sol:CVIUSDCVolatilityToken",
            "label": "useKeepers",
            "offset": 28,
            "slot": "1",
            "type": "t_bool"
          },
          {
            "astId": 18985,
            "contract": "contracts/volatility-token/VolatilityTokenContracts.sol:CVIUSDCVolatilityToken",
            "label": "maxBuyingPremiumFeePercentage",
            "offset": 29,
            "slot": "1",
            "type": "t_uint16"
          }
        ],
        "numberOfBytes": "64"
      },
      "t_uint16": {
        "encoding": "inplace",
        "label": "uint16",
        "numberOfBytes": "2"
      },
      "t_uint168": {
        "encoding": "inplace",
        "label": "uint168",
        "numberOfBytes": "21"
      },
      "t_uint256": {
        "encoding": "inplace",
        "label": "uint256",
        "numberOfBytes": "32"
      },
      "t_uint32": {
        "encoding": "inplace",
        "label": "uint32",
        "numberOfBytes": "4"
      },
      "t_uint8": {
        "encoding": "inplace",
        "label": "uint8",
        "numberOfBytes": "1"
      }
    }
  }
}