{
  "address": "0x500B8f46C42B5d6AE78DC3034E45DdDf9de72523",
  "abi": [
    {
      "inputs": [],
      "stateMutability": "nonpayable",
      "type": "constructor"
    },
    {
      "anonymous": false,
      "inputs": [
        {
          "indexed": false,
          "internalType": "uint8",
          "name": "version",
          "type": "uint8"
        }
      ],
      "name": "Initialized",
      "type": "event"
    },
    {
      "anonymous": false,
      "inputs": [
        {
          "indexed": true,
          "internalType": "address",
          "name": "previousOwner",
          "type": "address"
        },
        {
          "indexed": true,
          "internalType": "address",
          "name": "newOwner",
          "type": "address"
        }
      ],
      "name": "OwnershipTransferred",
      "type": "event"
    },
    {
      "inputs": [],
      "name": "DEPOSIT_REQUEST_TYPE",
      "outputs": [
        {
          "internalType": "uint8",
          "name": "",
          "type": "uint8"
        }
      ],
      "stateMutability": "view",
      "type": "function"
    },
    {
      "inputs": [],
      "name": "WITHDRAW_REQUEST_TYPE",
      "outputs": [
        {
          "internalType": "uint8",
          "name": "",
          "type": "uint8"
        }
      ],
      "stateMutability": "view",
      "type": "function"
    },
    {
      "inputs": [
        {
          "internalType": "bytes",
          "name": "",
          "type": "bytes"
        }
      ],
      "name": "checkUpkeep",
      "outputs": [
        {
          "internalType": "bool",
          "name": "upkeepNeeded",
          "type": "bool"
        },
        {
          "internalType": "bytes",
          "name": "performData",
          "type": "bytes"
        }
      ],
      "stateMutability": "view",
      "type": "function"
    },
    {
      "inputs": [],
      "name": "enableWhitelist",
      "outputs": [
        {
          "internalType": "bool",
          "name": "",
          "type": "bool"
        }
      ],
      "stateMutability": "view",
      "type": "function"
    },
    {
      "inputs": [
        {
          "internalType": "address",
          "name": "",
          "type": "address"
        }
      ],
      "name": "fulfillers",
      "outputs": [
        {
          "internalType": "bool",
          "name": "",
          "type": "bool"
        }
      ],
      "stateMutability": "view",
      "type": "function"
    },
    {
      "inputs": [
        {
          "internalType": "contract IRequestManager",
          "name": "_requestManager",
          "type": "address"
        }
      ],
      "name": "initialize",
      "outputs": [],
      "stateMutability": "nonpayable",
      "type": "function"
    },
    {
      "inputs": [],
      "name": "owner",
      "outputs": [
        {
          "internalType": "address",
          "name": "",
          "type": "address"
        }
      ],
      "stateMutability": "view",
      "type": "function"
    },
    {
      "inputs": [
        {
          "internalType": "bytes",
          "name": "",
          "type": "bytes"
        }
      ],
      "name": "performUpkeep",
      "outputs": [],
      "stateMutability": "nonpayable",
      "type": "function"
    },
    {
      "inputs": [],
      "name": "renounceOwnership",
      "outputs": [],
      "stateMutability": "nonpayable",
      "type": "function"
    },
    {
      "inputs": [],
      "name": "requestManager",
      "outputs": [
        {
          "internalType": "contract IRequestManager",
          "name": "",
          "type": "address"
        }
      ],
      "stateMutability": "view",
      "type": "function"
    },
    {
      "inputs": [
        {
          "internalType": "bool",
          "name": "_enableWhitelist",
          "type": "bool"
        }
      ],
      "name": "setEnableWhitelist",
      "outputs": [],
      "stateMutability": "nonpayable",
      "type": "function"
    },
    {
      "inputs": [
        {
          "internalType": "address",
          "name": "user",
          "type": "address"
        },
        {
          "internalType": "bool",
          "name": "isAllowed",
          "type": "bool"
        }
      ],
      "name": "setFulfillerAddress",
      "outputs": [],
      "stateMutability": "nonpayable",
      "type": "function"
    },
    {
      "inputs": [
        {
          "internalType": "contract IRequestManager",
          "name": "_requestManager",
          "type": "address"
        }
      ],
      "name": "setRequestManager",
      "outputs": [],
      "stateMutability": "nonpayable",
      "type": "function"
    },
    {
      "inputs": [
        {
          "internalType": "address",
          "name": "newOwner",
          "type": "address"
        }
      ],
      "name": "transferOwnership",
      "outputs": [],
      "stateMutability": "nonpayable",
      "type": "function"
    }
  ],
  "transactionHash": "0x7c2c6d9dc1507f7f2d06f82a7873a68acc9aee8dcdbe8c21b81aaa4cce5579fc",
  "args": [],
  "numDeployments": 1,
  "solcInputHash": "7f3c46bae143bb40321ae0fb3b8535cc",
  "bytecode": "0x608060405234801561001057600080fd5b50611018806100206000396000f3fe608060405234801561001057600080fd5b50600436106100ea5760003560e01c806380a765221161008c578063c4d66de811610066578063c4d66de8146101e5578063cdfb2b4e146101f8578063f2fde38b1461020c578063fd84030c1461021f57600080fd5b806380a765221461017a5780638da5cb5b1461018d578063ae022496146101b257600080fd5b806369477ad2116100c857806369477ad21461012b5780636e04ff0d1461013e578063715018a61461015f57806378f9ccf21461016757600080fd5b80633e9bc3c9146100ef5780634585e33b1461010e57806360e3fb6c14610123575b600080fd5b6100f7600181565b60405160ff90911681526020015b60405180910390f35b61012161011c366004610d23565b610232565b005b6100f7600281565b610121610139366004610ccf565b6103e0565b61015161014c366004610d23565b610435565b604051610105929190610e34565b61012161047c565b610121610175366004610d07565b6104b2565b610121610188366004610cac565b6104fa565b6033546001600160a01b03165b6040516001600160a01b039091168152602001610105565b6101d56101c0366004610cac565b60666020526000908152604090205460ff1681565b6040519015158152602001610105565b6101216101f3366004610cac565b610546565b6065546101d590600160a01b900460ff1681565b61012161021a366004610cac565b6105df565b60655461019a906001600160a01b031681565b606554600160a01b900460ff16158061025a57503360009081526066602052604090205460ff165b6102995760405162461bcd60e51b815260206004820152600b60248201526a139bdd08185b1b1bddd95960aa1b60448201526064015b60405180910390fd5b60006102a361067a565b9050806000815181106102c657634e487b7160e01b600052603260045260246000fd5b60200260200101516000141561031e5760405162461bcd60e51b815260206004820152601760248201527f4e6f2066756c66696c6c61626c652072657175657374730000000000000000006044820152606401610290565b6000805b825181101561038c57600083828151811061034d57634e487b7160e01b600052603260045260246000fd5b602002602001015190508060001461037957600061036a82610915565b9050801561037757600193505b505b508061038481610f8e565b915050610322565b50806103da5760405162461bcd60e51b815260206004820152601a60248201527f4661696c656420746f2066756c66696c6c2072657175657374730000000000006044820152606401610290565b50505050565b6033546001600160a01b0316331461040a5760405162461bcd60e51b815260040161029090610edf565b6001600160a01b03919091166000908152606660205260409020805460ff1916911515919091179055565b60006060600061044361067a565b90508060008151811061046657634e487b7160e01b600052603260045260246000fd5b6020026020010151600014159250509250929050565b6033546001600160a01b031633146104a65760405162461bcd60e51b815260040161029090610edf565b6104b06000610abb565b565b6033546001600160a01b031633146104dc5760405162461bcd60e51b815260040161029090610edf565b60658054911515600160a01b0260ff60a01b19909216919091179055565b6033546001600160a01b031633146105245760405162461bcd60e51b815260040161029090610edf565b606580546001600160a01b0319166001600160a01b0392909216919091179055565b60006105526001610b0d565b9050801561056a576000805461ff0019166101001790555b610572610b95565b606580546001600160a01b0384166001600160a81b031990911617600160a01b17905580156105db576000805461ff0019169055604051600181527f7f26b83ff96e1f2b6a682f133852f6798a09c465da95921460cefb38474024989060200160405180910390a15b5050565b6033546001600160a01b031633146106095760405162461bcd60e51b815260040161029090610edf565b6001600160a01b03811661066e5760405162461bcd60e51b815260206004820152602660248201527f4f776e61626c653a206e6577206f776e657220697320746865207a65726f206160448201526564647265737360d01b6064820152608401610290565b61067781610abb565b50565b60606000606560009054906101000a90046001600160a01b03166001600160a01b0316636a84a9856040518163ffffffff1660e01b815260040160206040518083038186803b1580156106cc57600080fd5b505afa1580156106e0573d6000803e3d6000fd5b505050506040513d601f19601f820116820180604052508101906107049190610d90565b90506000606560009054906101000a90046001600160a01b03166001600160a01b031663a5cfa15c6040518163ffffffff1660e01b815260040160206040518083038186803b15801561075657600080fd5b505afa15801561076a573d6000803e3d6000fd5b505050506040513d601f19601f8201168201806040525081019061078e9190610d90565b90506000606560009054906101000a90046001600160a01b03166001600160a01b03166376b27f336040518163ffffffff1660e01b815260040160206040518083038186803b1580156107e057600080fd5b505afa1580156107f4573d6000803e3d6000fd5b505050506040513d601f19601f820116820180604052508101906108189190610d90565b905060006108268383610f5f565b841061083b576108368383610f5f565b61083d565b835b90506108498282610f77565b610854906001610f5f565b67ffffffffffffffff81111561087a57634e487b7160e01b600052604160045260246000fd5b6040519080825280602002602001820160405280156108a3578160200160208202803683370190505b5094506000825b8281101561090c576108bb81610bc4565b156108fa57808783815181106108e157634e487b7160e01b600052603260045260246000fd5b6020908102919091010152816108f681610f8e565b9250505b8061090481610f8e565b9150506108aa565b50505050505090565b60655460405163103a258b60e31b8152600481018390526000916001600160a01b031690829082906381d12c589060240160a06040518083038186803b15801561095e57600080fd5b505afa158015610972573d6000803e3d6000fd5b505050506040513d601f19601f820116820180604052508101906109969190610da8565b5092935050505060ff811660011415610a2957604051631c473c7f60e31b8152600481018590526001600160a01b0383169063e239e3f890602401602060405180830381600087803b1580156109eb57600080fd5b505af11580156109ff573d6000803e3d6000fd5b505050506040513d601f19601f82011682018060405250810190610a239190610d90565b50610ab1565b60ff811660021415610ab15760405163f21d5bbf60e01b8152600481018590526001600160a01b0383169063f21d5bbf90602401602060405180830381600087803b158015610a7757600080fd5b505af1158015610a8b573d6000803e3d6000fd5b505050506040513d601f19601f82011682018060405250810190610aaf9190610d90565b505b5060019392505050565b603380546001600160a01b038381166001600160a01b0319831681179093556040519116919082907f8be0079c531659141344cd1fd0a4f28419497f9722a3daafe3b4186f6b6457e090600090a35050565b60008054610100900460ff1615610b54578160ff166001148015610b305750303b155b610b4c5760405162461bcd60e51b815260040161029090610e91565b506000919050565b60005460ff808416911610610b7b5760405162461bcd60e51b815260040161029090610e91565b506000805460ff191660ff92909216919091179055600190565b600054610100900460ff16610bbc5760405162461bcd60e51b815260040161029090610f14565b6104b0610c7c565b60655460405163103a258b60e31b815260048101839052600091829182916001600160a01b0316906381d12c589060240160a06040518083038186803b158015610c0d57600080fd5b505afa158015610c21573d6000803e3d6000fd5b505050506040513d601f19601f82011682018060405250810190610c459190610da8565b50909450925050506001600160a01b03811615801590610c6b57508163ffffffff164210155b15610c7557600192505b5050919050565b600054610100900460ff16610ca35760405162461bcd60e51b815260040161029090610f14565b6104b033610abb565b600060208284031215610cbd578081fd5b8135610cc881610fbf565b9392505050565b60008060408385031215610ce1578081fd5b8235610cec81610fbf565b91506020830135610cfc81610fd4565b809150509250929050565b600060208284031215610d18578081fd5b8135610cc881610fd4565b60008060208385031215610d35578182fd5b823567ffffffffffffffff80821115610d4c578384fd5b818501915085601f830112610d5f578384fd5b813581811115610d6d578485fd5b866020828501011115610d7e578485fd5b60209290920196919550909350505050565b600060208284031215610da1578081fd5b5051919050565b600080600080600060a08688031215610dbf578081fd5b855160ff81168114610dcf578182fd5b60208701519095506001600160a81b0381168114610deb578182fd5b604087015190945063ffffffff81168114610e04578182fd5b6060870151909350610e1581610fbf565b6080870151909250610e2681610fd4565b809150509295509295909350565b8215158152600060206040818401528351806040850152825b81811015610e6957858101830151858201606001528201610e4d565b81811115610e7a5783606083870101525b50601f01601f191692909201606001949350505050565b6020808252602e908201527f496e697469616c697a61626c653a20636f6e747261637420697320616c72656160408201526d191e481a5b9a5d1a585b1a5e995960921b606082015260800190565b6020808252818101527f4f776e61626c653a2063616c6c6572206973206e6f7420746865206f776e6572604082015260600190565b6020808252602b908201527f496e697469616c697a61626c653a20636f6e7472616374206973206e6f74206960408201526a6e697469616c697a696e6760a81b606082015260800190565b60008219821115610f7257610f72610fa9565b500190565b600082821015610f8957610f89610fa9565b500390565b6000600019821415610fa257610fa2610fa9565b5060010190565b634e487b7160e01b600052601160045260246000fd5b6001600160a01b038116811461067757600080fd5b801515811461067757600080fdfea26469706673582212200e0e7c17b13c17474e2fdc4e826c04833e661e134bcbb5c2adc7c1740b24a8b164736f6c63430008040033",
  "devdoc": {
    "kind": "dev",
    "methods": {
      "owner()": {
        "details": "Returns the address of the current owner."
      },
      "renounceOwnership()": {
        "details": "Leaves the contract without owner. It will not be possible to call `onlyOwner` functions anymore. Can only be called by the current owner. NOTE: Renouncing ownership will leave the contract without an owner, thereby removing any functionality that is only available to the owner."
      },
      "transferOwnership(address)": {
        "details": "Transfers ownership of the contract to a new account (`newOwner`). Can only be called by the current owner."
      }
    },
    "version": 1
  },
  "userdoc": {
    "kind": "user",
    "methods": {},
    "version": 1
  },
  "storageLayout": {
    "storage": [
      {
        "astId": 33671,
        "contract": "contracts/theta-vault/ThetaVaultRequestFulfillerContracts.sol:CVIUSDCThetaVaultRequestFulfiller",
        "label": "_initialized",
        "offset": 0,
        "slot": "0",
        "type": "t_uint8"
      },
      {
        "astId": 33674,
        "contract": "contracts/theta-vault/ThetaVaultRequestFulfillerContracts.sol:CVIUSDCThetaVaultRequestFulfiller",
        "label": "_initializing",
        "offset": 1,
        "slot": "0",
        "type": "t_bool"
      },
      {
        "astId": 36528,
        "contract": "contracts/theta-vault/ThetaVaultRequestFulfillerContracts.sol:CVIUSDCThetaVaultRequestFulfiller",
        "label": "__gap",
        "offset": 0,
        "slot": "1",
        "type": "t_array(t_uint256)50_storage"
      },
      {
        "astId": 33551,
        "contract": "contracts/theta-vault/ThetaVaultRequestFulfillerContracts.sol:CVIUSDCThetaVaultRequestFulfiller",
        "label": "_owner",
        "offset": 0,
        "slot": "51",
        "type": "t_address"
      },
      {
        "astId": 33663,
        "contract": "contracts/theta-vault/ThetaVaultRequestFulfillerContracts.sol:CVIUSDCThetaVaultRequestFulfiller",
        "label": "__gap",
        "offset": 0,
        "slot": "52",
        "type": "t_array(t_uint256)49_storage"
      },
      {
        "astId": 9468,
        "contract": "contracts/theta-vault/ThetaVaultRequestFulfillerContracts.sol:CVIUSDCThetaVaultRequestFulfiller",
        "label": "requestManager",
        "offset": 0,
        "slot": "101",
        "type": "t_contract(IRequestManager)17839"
      },
      {
        "astId": 9470,
        "contract": "contracts/theta-vault/ThetaVaultRequestFulfillerContracts.sol:CVIUSDCThetaVaultRequestFulfiller",
        "label": "enableWhitelist",
        "offset": 20,
        "slot": "101",
        "type": "t_bool"
      },
      {
        "astId": 9474,
        "contract": "contracts/theta-vault/ThetaVaultRequestFulfillerContracts.sol:CVIUSDCThetaVaultRequestFulfiller",
        "label": "fulfillers",
        "offset": 0,
        "slot": "102",
        "type": "t_mapping(t_address,t_bool)"
      }
    ],
    "types": {
      "t_address": {
        "encoding": "inplace",
        "label": "address",
        "numberOfBytes": "20"
      },
      "t_array(t_uint256)49_storage": {
        "base": "t_uint256",
        "encoding": "inplace",
        "label": "uint256[49]",
        "numberOfBytes": "1568"
      },
      "t_array(t_uint256)50_storage": {
        "base": "t_uint256",
        "encoding": "inplace",
        "label": "uint256[50]",
        "numberOfBytes": "1600"
      },
      "t_bool": {
        "encoding": "inplace",
        "label": "bool",
        "numberOfBytes": "1"
      },
      "t_contract(IRequestManager)17839": {
        "encoding": "inplace",
        "label": "contract IRequestManager",
        "numberOfBytes": "20"
      },
      "t_mapping(t_address,t_bool)": {
        "encoding": "mapping",
        "key": "t_address",
        "label": "mapping(address => bool)",
        "numberOfBytes": "32",
        "value": "t_bool"
      },
      "t_uint256": {
        "encoding": "inplace",
        "label": "uint256",
        "numberOfBytes": "32"
      },
      "t_uint8": {
        "encoding": "inplace",
        "label": "uint8",
        "numberOfBytes": "1"
      }
    }
  }
}