{
  "address": "0x8a53460ea9Cd297B2283085AF8ff675cd9f8FC09",
  "abi": [
    {
      "inputs": [],
      "stateMutability": "nonpayable",
      "type": "constructor"
    },
    {
      "anonymous": false,
      "inputs": [
        {
          "indexed": true,
          "internalType": "address",
          "name": "owner",
          "type": "address"
        },
        {
          "indexed": true,
          "internalType": "address",
          "name": "spender",
          "type": "address"
        },
        {
          "indexed": false,
          "internalType": "uint256",
          "name": "value",
          "type": "uint256"
        }
      ],
      "name": "Approval",
      "type": "event"
    },
    {
      "anonymous": false,
      "inputs": [
        {
          "indexed": true,
          "internalType": "address",
          "name": "account",
          "type": "address"
        },
        {
          "indexed": false,
          "internalType": "uint256",
          "name": "tokenAmount",
          "type": "uint256"
        },
        {
          "indexed": false,
          "internalType": "uint256",
          "name": "feeAmount",
          "type": "uint256"
        },
        {
          "indexed": false,
          "internalType": "uint256",
          "name": "positionUnitsAmount",
          "type": "uint256"
        },
        {
          "indexed": false,
          "internalType": "uint8",
          "name": "leverage",
          "type": "uint8"
        },
        {
          "indexed": false,
          "internalType": "uint256",
          "name": "cviValue",
          "type": "uint256"
        }
      ],
      "name": "ClosePosition",
      "type": "event"
    },
    {
      "anonymous": false,
      "inputs": [
        {
          "indexed": true,
          "internalType": "address",
          "name": "account",
          "type": "address"
        },
        {
          "indexed": false,
          "internalType": "uint256",
          "name": "tokenAmount",
          "type": "uint256"
        },
        {
          "indexed": false,
          "internalType": "uint256",
          "name": "lpTokensAmount",
          "type": "uint256"
        },
        {
          "indexed": false,
          "internalType": "uint256",
          "name": "feeAmount",
          "type": "uint256"
        }
      ],
      "name": "Deposit",
      "type": "event"
    },
    {
      "anonymous": false,
      "inputs": [
        {
          "indexed": false,
          "internalType": "uint8",
          "name": "version",
          "type": "uint8"
        }
      ],
      "name": "Initialized",
      "type": "event"
    },
    {
      "anonymous": false,
      "inputs": [
        {
          "indexed": true,
          "internalType": "address",
          "name": "positionAddress",
          "type": "address"
        },
        {
          "indexed": false,
          "internalType": "uint256",
          "name": "currentPositionBalance",
          "type": "uint256"
        },
        {
          "indexed": false,
          "internalType": "bool",
          "name": "isBalancePositive",
          "type": "bool"
        },
        {
          "indexed": false,
          "internalType": "uint256",
          "name": "positionUnitsAmount",
          "type": "uint256"
        }
      ],
      "name": "LiquidatePosition",
      "type": "event"
    },
    {
      "anonymous": false,
      "inputs": [
        {
          "indexed": true,
          "internalType": "address",
          "name": "account",
          "type": "address"
        },
        {
          "indexed": false,
          "internalType": "uint256",
          "name": "tokenAmount",
          "type": "uint256"
        },
        {
          "indexed": false,
          "internalType": "uint8",
          "name": "leverage",
          "type": "uint8"
        },
        {
          "indexed": false,
          "internalType": "uint256",
          "name": "feeAmount",
          "type": "uint256"
        },
        {
          "indexed": false,
          "internalType": "uint256",
          "name": "positionUnitsAmount",
          "type": "uint256"
        },
        {
          "indexed": false,
          "internalType": "uint256",
          "name": "cviValue",
          "type": "uint256"
        }
      ],
      "name": "OpenPosition",
      "type": "event"
    },
    {
      "anonymous": false,
      "inputs": [
        {
          "indexed": true,
          "internalType": "address",
          "name": "previousOwner",
          "type": "address"
        },
        {
          "indexed": true,
          "internalType": "address",
          "name": "newOwner",
          "type": "address"
        }
      ],
      "name": "OwnershipTransferred",
      "type": "event"
    },
    {
      "anonymous": false,
      "inputs": [
        {
          "indexed": true,
          "internalType": "address",
          "name": "from",
          "type": "address"
        },
        {
          "indexed": true,
          "internalType": "address",
          "name": "to",
          "type": "address"
        },
        {
          "indexed": false,
          "internalType": "uint256",
          "name": "value",
          "type": "uint256"
        }
      ],
      "name": "Transfer",
      "type": "event"
    },
    {
      "anonymous": false,
      "inputs": [
        {
          "indexed": true,
          "internalType": "address",
          "name": "account",
          "type": "address"
        },
        {
          "indexed": false,
          "internalType": "uint256",
          "name": "tokenAmount",
          "type": "uint256"
        },
        {
          "indexed": false,
          "internalType": "uint256",
          "name": "lpTokensAmount",
          "type": "uint256"
        },
        {
          "indexed": false,
          "internalType": "uint256",
          "name": "feeAmount",
          "type": "uint256"
        }
      ],
      "name": "Withdraw",
      "type": "event"
    },
    {
      "inputs": [],
      "name": "MAX_FEE_PERCENTAGE",
      "outputs": [
        {
          "internalType": "uint168",
          "name": "",
          "type": "uint168"
        }
      ],
      "stateMutability": "view",
      "type": "function"
    },
    {
      "inputs": [],
      "name": "PRECISION_DECIMALS",
      "outputs": [
        {
          "internalType": "uint256",
          "name": "",
          "type": "uint256"
        }
      ],
      "stateMutability": "view",
      "type": "function"
    },
    {
      "inputs": [
        {
          "internalType": "address",
          "name": "owner",
          "type": "address"
        },
        {
          "internalType": "address",
          "name": "spender",
          "type": "address"
        }
      ],
      "name": "allowance",
      "outputs": [
        {
          "internalType": "uint256",
          "name": "",
          "type": "uint256"
        }
      ],
      "stateMutability": "view",
      "type": "function"
    },
    {
      "inputs": [
        {
          "internalType": "address",
          "name": "spender",
          "type": "address"
        },
        {
          "internalType": "uint256",
          "name": "amount",
          "type": "uint256"
        }
      ],
      "name": "approve",
      "outputs": [
        {
          "internalType": "bool",
          "name": "",
          "type": "bool"
        }
      ],
      "stateMutability": "nonpayable",
      "type": "function"
    },
    {
      "inputs": [
        {
          "internalType": "address",
          "name": "account",
          "type": "address"
        }
      ],
      "name": "balanceOf",
      "outputs": [
        {
          "internalType": "uint256",
          "name": "",
          "type": "uint256"
        }
      ],
      "stateMutability": "view",
      "type": "function"
    },
    {
      "inputs": [],
      "name": "buyersLockupPeriod",
      "outputs": [
        {
          "internalType": "uint256",
          "name": "",
          "type": "uint256"
        }
      ],
      "stateMutability": "view",
      "type": "function"
    },
    {
      "inputs": [],
      "name": "calculateLatestTurbulenceIndicatorPercent",
      "outputs": [
        {
          "internalType": "uint16",
          "name": "",
          "type": "uint16"
        }
      ],
      "stateMutability": "view",
      "type": "function"
    },
    {
      "inputs": [
        {
          "internalType": "address",
          "name": "_positionAddress",
          "type": "address"
        }
      ],
      "name": "calculatePositionBalance",
      "outputs": [
        {
          "internalType": "uint256",
          "name": "currentPositionBalance",
          "type": "uint256"
        },
        {
          "internalType": "bool",
          "name": "isPositive",
          "type": "bool"
        },
        {
          "internalType": "uint168",
          "name": "positionUnitsAmount",
          "type": "uint168"
        },
        {
          "internalType": "uint8",
          "name": "leverage",
          "type": "uint8"
        },
        {
          "internalType": "uint256",
          "name": "fundingFees",
          "type": "uint256"
        },
        {
          "internalType": "uint256",
          "name": "marginDebt",
          "type": "uint256"
        }
      ],
      "stateMutability": "view",
      "type": "function"
    },
    {
      "inputs": [
        {
          "internalType": "address",
          "name": "_positionAddress",
          "type": "address"
        },
        {
          "internalType": "uint168",
          "name": "_positionUnitsAmount",
          "type": "uint168"
        }
      ],
      "name": "calculatePositionPendingFees",
      "outputs": [
        {
          "internalType": "uint256",
          "name": "pendingFees",
          "type": "uint256"
        }
      ],
      "stateMutability": "view",
      "type": "function"
    },
    {
      "inputs": [
        {
          "internalType": "uint168",
          "name": "_positionUnitsAmount",
          "type": "uint168"
        },
        {
          "internalType": "uint32",
          "name": "_minCVI",
          "type": "uint32"
        }
      ],
      "name": "closePosition",
      "outputs": [
        {
          "internalType": "uint256",
          "name": "tokenAmount",
          "type": "uint256"
        },
        {
          "internalType": "uint256",
          "name": "closePositionFee",
          "type": "uint256"
        },
        {
          "internalType": "uint256",
          "name": "closingPremiumFee",
          "type": "uint256"
        }
      ],
      "stateMutability": "nonpayable",
      "type": "function"
    },
    {
      "inputs": [
        {
          "internalType": "uint168",
          "name": "_positionUnitsAmount",
          "type": "uint168"
        },
        {
          "internalType": "uint32",
          "name": "_minCVI",
          "type": "uint32"
        }
      ],
      "name": "closePositionWithoutFee",
      "outputs": [
        {
          "internalType": "uint256",
          "name": "tokenAmount",
          "type": "uint256"
        },
        {
          "internalType": "uint256",
          "name": "closePositionFee",
          "type": "uint256"
        },
        {
          "internalType": "uint256",
          "name": "closingPremiumFee",
          "type": "uint256"
        }
      ],
      "stateMutability": "nonpayable",
      "type": "function"
    },
    {
      "inputs": [],
      "name": "cviOracle",
      "outputs": [
        {
          "internalType": "contract ICVIOracle",
          "name": "",
          "type": "address"
        }
      ],
      "stateMutability": "view",
      "type": "function"
    },
    {
      "inputs": [
        {
          "internalType": "uint256",
          "name": "",
          "type": "uint256"
        }
      ],
      "name": "cviSnapshots",
      "outputs": [
        {
          "internalType": "uint256",
          "name": "",
          "type": "uint256"
        }
      ],
      "stateMutability": "view",
      "type": "function"
    },
    {
      "inputs": [],
      "name": "decimals",
      "outputs": [
        {
          "internalType": "uint8",
          "name": "",
          "type": "uint8"
        }
      ],
      "stateMutability": "view",
      "type": "function"
    },
    {
      "inputs": [
        {
          "internalType": "address",
          "name": "spender",
          "type": "address"
        },
        {
          "internalType": "uint256",
          "name": "subtractedValue",
          "type": "uint256"
        }
      ],
      "name": "decreaseAllowance",
      "outputs": [
        {
          "internalType": "bool",
          "name": "",
          "type": "bool"
        }
      ],
      "stateMutability": "nonpayable",
      "type": "function"
    },
    {
      "inputs": [
        {
          "internalType": "uint256",
          "name": "_tokenAmount",
          "type": "uint256"
        },
        {
          "internalType": "uint256",
          "name": "_minLPTokenAmount",
          "type": "uint256"
        }
      ],
      "name": "deposit",
      "outputs": [
        {
          "internalType": "uint256",
          "name": "lpTokenAmount",
          "type": "uint256"
        }
      ],
      "stateMutability": "nonpayable",
      "type": "function"
    },
    {
      "inputs": [],
      "name": "emergencyWithdrawAllowed",
      "outputs": [
        {
          "internalType": "bool",
          "name": "",
          "type": "bool"
        }
      ],
      "stateMutability": "view",
      "type": "function"
    },
    {
      "inputs": [],
      "name": "feesCalculator",
      "outputs": [
        {
          "internalType": "contract IFeesCalculator",
          "name": "",
          "type": "address"
        }
      ],
      "stateMutability": "view",
      "type": "function"
    },
    {
      "inputs": [],
      "name": "feesCollector",
      "outputs": [
        {
          "internalType": "contract IFeesCollector",
          "name": "",
          "type": "address"
        }
      ],
      "stateMutability": "view",
      "type": "function"
    },
    {
      "inputs": [
        {
          "internalType": "address",
          "name": "spender",
          "type": "address"
        },
        {
          "internalType": "uint256",
          "name": "addedValue",
          "type": "uint256"
        }
      ],
      "name": "increaseAllowance",
      "outputs": [
        {
          "internalType": "bool",
          "name": "",
          "type": "bool"
        }
      ],
      "stateMutability": "nonpayable",
      "type": "function"
    },
    {
      "inputs": [
        {
          "internalType": "uint256",
          "name": "_tokenAmount",
          "type": "uint256"
        }
      ],
      "name": "increaseSharedPool",
      "outputs": [],
      "stateMutability": "nonpayable",
      "type": "function"
    },
    {
      "inputs": [
        {
          "internalType": "address",
          "name": "",
          "type": "address"
        }
      ],
      "name": "increaseSharedPoolAllowedAddresses",
      "outputs": [
        {
          "internalType": "bool",
          "name": "",
          "type": "bool"
        }
      ],
      "stateMutability": "view",
      "type": "function"
    },
    {
      "inputs": [],
      "name": "initialTokenToLPTokenRate",
      "outputs": [
        {
          "internalType": "uint256",
          "name": "",
          "type": "uint256"
        }
      ],
      "stateMutability": "view",
      "type": "function"
    },
    {
      "inputs": [
        {
          "internalType": "contract IERC20Upgradeable",
          "name": "_token",
          "type": "address"
        },
        {
          "internalType": "string",
          "name": "_lpTokenName",
          "type": "string"
        },
        {
          "internalType": "string",
          "name": "_lpTokenSymbolName",
          "type": "string"
        },
        {
          "internalType": "uint256",
          "name": "_initialTokenToLPTokenRate",
          "type": "uint256"
        },
        {
          "internalType": "uint32",
          "name": "_maxCVIValue",
          "type": "uint32"
        },
        {
          "internalType": "contract IFeesCalculator",
          "name": "_feesCalculator",
          "type": "address"
        },
        {
          "internalType": "contract ICVIOracle",
          "name": "_cviOracle",
          "type": "address"
        },
        {
          "internalType": "contract ILiquidation",
          "name": "_liquidation",
          "type": "address"
        }
      ],
      "name": "initialize",
      "outputs": [],
      "stateMutability": "nonpayable",
      "type": "function"
    },
    {
      "inputs": [
        {
          "internalType": "address",
          "name": "",
          "type": "address"
        }
      ],
      "name": "lastDepositTimestamp",
      "outputs": [
        {
          "internalType": "uint256",
          "name": "",
          "type": "uint256"
        }
      ],
      "stateMutability": "view",
      "type": "function"
    },
    {
      "inputs": [],
      "name": "latestFundingFees",
      "outputs": [
        {
          "internalType": "uint256",
          "name": "",
          "type": "uint256"
        }
      ],
      "stateMutability": "view",
      "type": "function"
    },
    {
      "inputs": [],
      "name": "latestOracleRoundId",
      "outputs": [
        {
          "internalType": "uint80",
          "name": "",
          "type": "uint80"
        }
      ],
      "stateMutability": "view",
      "type": "function"
    },
    {
      "inputs": [],
      "name": "latestSnapshotTimestamp",
      "outputs": [
        {
          "internalType": "uint32",
          "name": "",
          "type": "uint32"
        }
      ],
      "stateMutability": "view",
      "type": "function"
    },
    {
      "inputs": [
        {
          "internalType": "address[]",
          "name": "_positionOwners",
          "type": "address[]"
        }
      ],
      "name": "liquidatePositions",
      "outputs": [
        {
          "internalType": "uint256",
          "name": "finderFeeAmount",
          "type": "uint256"
        }
      ],
      "stateMutability": "nonpayable",
      "type": "function"
    },
    {
      "inputs": [],
      "name": "liquidation",
      "outputs": [
        {
          "internalType": "contract ILiquidation",
          "name": "",
          "type": "address"
        }
      ],
      "stateMutability": "view",
      "type": "function"
    },
    {
      "inputs": [
        {
          "internalType": "address",
          "name": "",
          "type": "address"
        }
      ],
      "name": "liquidityProviders",
      "outputs": [
        {
          "internalType": "bool",
          "name": "",
          "type": "bool"
        }
      ],
      "stateMutability": "view",
      "type": "function"
    },
    {
      "inputs": [],
      "name": "lpsLockupPeriod",
      "outputs": [
        {
          "internalType": "uint256",
          "name": "",
          "type": "uint256"
        }
      ],
      "stateMutability": "view",
      "type": "function"
    },
    {
      "inputs": [],
      "name": "maxAllowedLeverage",
      "outputs": [
        {
          "internalType": "uint8",
          "name": "",
          "type": "uint8"
        }
      ],
      "stateMutability": "view",
      "type": "function"
    },
    {
      "inputs": [],
      "name": "maxCVIValue",
      "outputs": [
        {
          "internalType": "uint32",
          "name": "",
          "type": "uint32"
        }
      ],
      "stateMutability": "view",
      "type": "function"
    },
    {
      "inputs": [],
      "name": "maxTimeAllowedAfterLatestRound",
      "outputs": [
        {
          "internalType": "uint32",
          "name": "",
          "type": "uint32"
        }
      ],
      "stateMutability": "view",
      "type": "function"
    },
    {
      "inputs": [],
      "name": "name",
      "outputs": [
        {
          "internalType": "string",
          "name": "",
          "type": "string"
        }
      ],
      "stateMutability": "view",
      "type": "function"
    },
    {
      "inputs": [
        {
          "internalType": "address",
          "name": "",
          "type": "address"
        }
      ],
      "name": "noLockPositionAddresses",
      "outputs": [
        {
          "internalType": "bool",
          "name": "",
          "type": "bool"
        }
      ],
      "stateMutability": "view",
      "type": "function"
    },
    {
      "inputs": [
        {
          "internalType": "uint168",
          "name": "_tokenAmount",
          "type": "uint168"
        },
        {
          "internalType": "uint32",
          "name": "_maxCVI",
          "type": "uint32"
        },
        {
          "internalType": "uint16",
          "name": "_maxBuyingPremiumFeePercentage",
          "type": "uint16"
        },
        {
          "internalType": "uint8",
          "name": "_leverage",
          "type": "uint8"
        }
      ],
      "name": "openPosition",
      "outputs": [
        {
          "internalType": "uint168",
          "name": "positionUnitsAmount",
          "type": "uint168"
        },
        {
          "internalType": "uint168",
          "name": "positionedTokenAmount",
          "type": "uint168"
        },
        {
          "internalType": "uint168",
          "name": "openPositionFee",
          "type": "uint168"
        },
        {
          "internalType": "uint168",
          "name": "buyingPremiumFee",
          "type": "uint168"
        }
      ],
      "stateMutability": "nonpayable",
      "type": "function"
    },
    {
      "inputs": [
        {
          "internalType": "uint168",
          "name": "_tokenAmount",
          "type": "uint168"
        },
        {
          "internalType": "uint32",
          "name": "_maxCVI",
          "type": "uint32"
        },
        {
          "internalType": "uint8",
          "name": "_leverage",
          "type": "uint8"
        }
      ],
      "name": "openPositionWithoutFee",
      "outputs": [
        {
          "internalType": "uint168",
          "name": "positionUnitsAmount",
          "type": "uint168"
        },
        {
          "internalType": "uint168",
          "name": "positionedTokenAmount",
          "type": "uint168"
        },
        {
          "internalType": "uint168",
          "name": "openPositionFee",
          "type": "uint168"
        },
        {
          "internalType": "uint168",
          "name": "buyingPremiumFee",
          "type": "uint168"
        }
      ],
      "stateMutability": "nonpayable",
      "type": "function"
    },
    {
      "inputs": [],
      "name": "owner",
      "outputs": [
        {
          "internalType": "address",
          "name": "",
          "type": "address"
        }
      ],
      "stateMutability": "view",
      "type": "function"
    },
    {
      "inputs": [
        {
          "internalType": "address",
          "name": "",
          "type": "address"
        }
      ],
      "name": "positionHoldersAllowedAddresses",
      "outputs": [
        {
          "internalType": "bool",
          "name": "",
          "type": "bool"
        }
      ],
      "stateMutability": "view",
      "type": "function"
    },
    {
      "inputs": [
        {
          "internalType": "address",
          "name": "",
          "type": "address"
        }
      ],
      "name": "positions",
      "outputs": [
        {
          "internalType": "uint168",
          "name": "positionUnitsAmount",
          "type": "uint168"
        },
        {
          "internalType": "uint8",
          "name": "leverage",
          "type": "uint8"
        },
        {
          "internalType": "uint32",
          "name": "openCVIValue",
          "type": "uint32"
        },
        {
          "internalType": "uint32",
          "name": "creationTimestamp",
          "type": "uint32"
        },
        {
          "internalType": "uint32",
          "name": "originalCreationTimestamp",
          "type": "uint32"
        }
      ],
      "stateMutability": "view",
      "type": "function"
    },
    {
      "inputs": [],
      "name": "renounceOwnership",
      "outputs": [],
      "stateMutability": "nonpayable",
      "type": "function"
    },
    {
      "inputs": [
        {
          "internalType": "address",
          "name": "",
          "type": "address"
        }
      ],
      "name": "revertLockedTransfered",
      "outputs": [
        {
          "internalType": "bool",
          "name": "",
          "type": "bool"
        }
      ],
      "stateMutability": "view",
      "type": "function"
    },
    {
      "inputs": [],
      "name": "rewards",
      "outputs": [
        {
          "internalType": "contract IRewardsCollector",
          "name": "",
          "type": "address"
        }
      ],
      "stateMutability": "view",
      "type": "function"
    },
    {
      "inputs": [
        {
          "internalType": "address",
          "name": "_holderAddress",
          "type": "address"
        },
        {
          "internalType": "bool",
          "name": "_shouldLockPosition",
          "type": "bool"
        },
        {
          "internalType": "bool",
          "name": "_positionHolderAllowed",
          "type": "bool"
        },
        {
          "internalType": "bool",
          "name": "_increaseSharedPoolAllowed",
          "type": "bool"
        },
        {
          "internalType": "bool",
          "name": "_isLiquidityProvider",
          "type": "bool"
        }
      ],
      "name": "setAddressSpecificParameters",
      "outputs": [],
      "stateMutability": "nonpayable",
      "type": "function"
    },
    {
      "inputs": [
        {
          "internalType": "bool",
          "name": "_newEmergencyWithdrawAllowed",
          "type": "bool"
        },
        {
          "internalType": "bool",
          "name": "_newCanPurgeSnapshots",
          "type": "bool"
        }
      ],
      "name": "setEmergencyParameters",
      "outputs": [],
      "stateMutability": "nonpayable",
      "type": "function"
    },
    {
      "inputs": [
        {
          "internalType": "contract IFeesCalculator",
          "name": "_newCalculator",
          "type": "address"
        }
      ],
      "name": "setFeesCalculator",
      "outputs": [],
      "stateMutability": "nonpayable",
      "type": "function"
    },
    {
      "inputs": [
        {
          "internalType": "uint80",
          "name": "_newOracleRoundId",
          "type": "uint80"
        }
      ],
      "name": "setLatestOracleRoundId",
      "outputs": [],
      "stateMutability": "nonpayable",
      "type": "function"
    },
    {
      "inputs": [
        {
          "internalType": "uint256",
          "name": "_newLPLockupPeriod",
          "type": "uint256"
        },
        {
          "internalType": "uint256",
          "name": "_newBuyersLockupPeriod",
          "type": "uint256"
        }
      ],
      "name": "setLockupPeriods",
      "outputs": [],
      "stateMutability": "nonpayable",
      "type": "function"
    },
    {
      "inputs": [
        {
          "internalType": "uint8",
          "name": "_newMaxAllowedLeverage",
          "type": "uint8"
        }
      ],
      "name": "setMaxAllowedLeverage",
      "outputs": [],
      "stateMutability": "nonpayable",
      "type": "function"
    },
    {
      "inputs": [
        {
          "internalType": "uint32",
          "name": "_newMaxTimeAllowedAfterLatestRound",
          "type": "uint32"
        }
      ],
      "name": "setMaxTimeAllowedAfterLatestRound",
      "outputs": [],
      "stateMutability": "nonpayable",
      "type": "function"
    },
    {
      "inputs": [
        {
          "internalType": "bool",
          "name": "_revertLockedTransfers",
          "type": "bool"
        }
      ],
      "name": "setRevertLockedTransfers",
      "outputs": [],
      "stateMutability": "nonpayable",
      "type": "function"
    },
    {
      "inputs": [
        {
          "internalType": "contract IFeesCollector",
          "name": "_newCollector",
          "type": "address"
        },
        {
          "internalType": "contract ICVIOracle",
          "name": "_newOracle",
          "type": "address"
        },
        {
          "internalType": "contract IRewardsCollector",
          "name": "_newRewards",
          "type": "address"
        },
        {
          "internalType": "contract ILiquidation",
          "name": "_newLiquidation",
          "type": "address"
        },
        {
          "internalType": "address",
          "name": "_newStakingContractAddress",
          "type": "address"
        }
      ],
      "name": "setSubContracts",
      "outputs": [],
      "stateMutability": "nonpayable",
      "type": "function"
    },
    {
      "inputs": [],
      "name": "stakingContractAddress",
      "outputs": [
        {
          "internalType": "address",
          "name": "",
          "type": "address"
        }
      ],
      "stateMutability": "view",
      "type": "function"
    },
    {
      "inputs": [],
      "name": "symbol",
      "outputs": [
        {
          "internalType": "string",
          "name": "",
          "type": "string"
        }
      ],
      "stateMutability": "view",
      "type": "function"
    },
    {
      "inputs": [],
      "name": "token",
      "outputs": [
        {
          "internalType": "contract IERC20Upgradeable",
          "name": "",
          "type": "address"
        }
      ],
      "stateMutability": "view",
      "type": "function"
    },
    {
      "inputs": [
        {
          "internalType": "bool",
          "name": "_withAddendum",
          "type": "bool"
        }
      ],
      "name": "totalBalance",
      "outputs": [
        {
          "internalType": "uint256",
          "name": "balance",
          "type": "uint256"
        }
      ],
      "stateMutability": "view",
      "type": "function"
    },
    {
      "inputs": [],
      "name": "totalFundingFeesAmount",
      "outputs": [
        {
          "internalType": "uint256",
          "name": "",
          "type": "uint256"
        }
      ],
      "stateMutability": "view",
      "type": "function"
    },
    {
      "inputs": [],
      "name": "totalLeveragedTokensAmount",
      "outputs": [
        {
          "internalType": "uint256",
          "name": "",
          "type": "uint256"
        }
      ],
      "stateMutability": "view",
      "type": "function"
    },
    {
      "inputs": [],
      "name": "totalPositionUnitsAmount",
      "outputs": [
        {
          "internalType": "uint256",
          "name": "",
          "type": "uint256"
        }
      ],
      "stateMutability": "view",
      "type": "function"
    },
    {
      "inputs": [],
      "name": "totalSupply",
      "outputs": [
        {
          "internalType": "uint256",
          "name": "",
          "type": "uint256"
        }
      ],
      "stateMutability": "view",
      "type": "function"
    },
    {
      "inputs": [
        {
          "internalType": "address",
          "name": "to",
          "type": "address"
        },
        {
          "internalType": "uint256",
          "name": "amount",
          "type": "uint256"
        }
      ],
      "name": "transfer",
      "outputs": [
        {
          "internalType": "bool",
          "name": "",
          "type": "bool"
        }
      ],
      "stateMutability": "nonpayable",
      "type": "function"
    },
    {
      "inputs": [
        {
          "internalType": "address",
          "name": "from",
          "type": "address"
        },
        {
          "internalType": "address",
          "name": "to",
          "type": "address"
        },
        {
          "internalType": "uint256",
          "name": "amount",
          "type": "uint256"
        }
      ],
      "name": "transferFrom",
      "outputs": [
        {
          "internalType": "bool",
          "name": "",
          "type": "bool"
        }
      ],
      "stateMutability": "nonpayable",
      "type": "function"
    },
    {
      "inputs": [
        {
          "internalType": "address",
          "name": "newOwner",
          "type": "address"
        }
      ],
      "name": "transferOwnership",
      "outputs": [],
      "stateMutability": "nonpayable",
      "type": "function"
    },
    {
      "inputs": [
        {
          "internalType": "uint256",
          "name": "_tokenAmount",
          "type": "uint256"
        },
        {
          "internalType": "uint256",
          "name": "_maxLPTokenBurnAmount",
          "type": "uint256"
        }
      ],
      "name": "withdraw",
      "outputs": [
        {
          "internalType": "uint256",
          "name": "burntAmount",
          "type": "uint256"
        },
        {
          "internalType": "uint256",
          "name": "withdrawnAmount",
          "type": "uint256"
        }
      ],
      "stateMutability": "nonpayable",
      "type": "function"
    },
    {
      "inputs": [
        {
          "internalType": "uint256",
          "name": "_lpTokensAmount",
          "type": "uint256"
        }
      ],
      "name": "withdrawLPTokens",
      "outputs": [
        {
          "internalType": "uint256",
          "name": "burntAmount",
          "type": "uint256"
        },
        {
          "internalType": "uint256",
          "name": "withdrawnAmount",
          "type": "uint256"
        }
      ],
      "stateMutability": "nonpayable",
      "type": "function"
    }
  ],
  "transactionHash": "0x22460c3db1e25d75be16071ee953ba2f12c02718b57a11f4136e7ce7e6f6ec97",
  "args": [],
  "numDeployments": 1,
  "solcInputHash": "8d836039a3333aa7ff1a69dee5a5f235",
  "bytecode": "0x608060405234801561001057600080fd5b5061544c806100206000396000f3fe608060405234801561001057600080fd5b50600436106103f15760003560e01c806383d3b20e11610215578063b17e141111610125578063dd907e8b116100b8578063f2217fe411610087578063f2217fe414610a60578063f2dfbf6614610a73578063f2fde38b14610a86578063f9c47ead14610a99578063fc0c546a14610abc57600080fd5b8063dd907e8b14610a19578063e2bbb15814610a21578063e51379ba14610a34578063ebc1daf614610a5757600080fd5b8063d934c20b116100f4578063d934c20b146109b9578063d9c36290146109d0578063dbd94267146109e3578063dd62ed3e14610a0657600080fd5b8063b17e141114610952578063ba6af83214610965578063c657549114610993578063ca832799146109a657600080fd5b80639c266c32116101a8578063a6ca982c11610177578063a6ca982c146108a4578063a9059cbb146108f5578063aceda7f914610908578063b152b2951461091c578063b17b849f1461093f57600080fd5b80639c266c32146108545780639cf160f61461086b5780639ec5a8941461087e578063a457c2d71461089157600080fd5b80638eb50a38116101e45780638eb50a381461081d578063913536381461082657806395d89b411461083957806395f20fac1461084157600080fd5b806383d3b20e146107dc5780638c7e7475146107ef5780638d4d7e31146108035780638da5cb5b1461080c57600080fd5b8063452d003f116103105780636185aa3a116102a357806370a082311161027257806370a0823114610732578063715018a61461075b578063745dd850146107635780637b04bc06146107915780638202c681146107bc57600080fd5b80636185aa3a146106c0578063655d8dec146106ec5780636c7156411461070c5780636f7d78281461071f57600080fd5b8063558e44d3116102df578063558e44d3146105e257806355f575101461060357806360ebfee6146106995780636162129b146106a557600080fd5b8063452d003f1461056d578063486072501461058057806353997f6114610593578063547ef3e6146105d957600080fd5b806323b872dd116103885780633535f48b116103575780633535f48b146104f457806335a03bfa1461051f5780633950935114610532578063441a3e701461054557600080fd5b806323b872dd146104ba5780632f811c22146104cd578063313ce567146104d657806332527992146104eb57600080fd5b80630a545fe5116103c45780630a545fe5146104695780630af127b91461047c578063124805861461049f57806318160ddd146104b257600080fd5b806302b1ba6f146103f657806305621f1a1461041c57806306fdde0314610431578063095ea7b314610446575b600080fd5b610409610404366004614ae4565b610acf565b6040519081526020015b60405180910390f35b61042f61042a366004615002565b610be8565b005b610439610c3b565b6040516104139190615054565b610459610454366004614b11565b610ccd565b6040519015158152602001610413565b61042f610477366004614f56565b610ce5565b61045961048a3660046149e0565b60dc6020526000908152604090205460ff1681565b6104096104ad366004614b3c565b610d3a565b606754610409565b6104596104c8366004614a34565b610fcc565b61040960d35481565b60125b60405160ff9091168152602001610413565b61040960d15481565b60d654610507906001600160a01b031681565b6040516001600160a01b039091168152602001610413565b60ce54610507906001600160a01b031681565b610459610540366004614b11565b610ff2565b610558610553366004614f56565b611014565b60408051928352602083019190915201610413565b61055861057b366004614f26565b611049565b61042f61058e36600461501c565b61108b565b6105a66105a1366004614ea7565b6110da565b604080516001600160a81b0395861681529385166020850152918416918301919091529091166060820152608001610413565b61040960d45481565b6105eb61271081565b6040516001600160a81b039091168152602001610413565b61065a6106113660046149e0565b60d960205260009081526040902080546001909101546001600160a81b0382169160ff600160a81b8204169163ffffffff600160b01b8304811692600160d01b90048116911685565b604080516001600160a81b03909616865260ff909416602086015263ffffffff928316938501939093528116606084015216608082015260a001610413565b6104096402540be40081565b6106ad611100565b60405161ffff9091168152602001610413565b60c9546106d790600160501b900463ffffffff1681565b60405163ffffffff9091168152602001610413565b6104096106fa3660046149e0565b60d86020526000908152604090205481565b61042f61071a3660046149e0565b61136a565b60cc54610507906001600160a01b031681565b6104096107403660046149e0565b6001600160a01b031660009081526065602052604090205490565b61042f6113b6565b61042f610771366004614bac565b33600090815260dd60205260409020805460ff1916911515919091179055565b60c9546107a4906001600160501b031681565b6040516001600160501b039091168152602001610413565b6104096107ca366004614f26565b60d76020526000908152604090205481565b61042f6107ea366004614cdb565b6113ec565b60c9546104d990600160a81b900460ff1681565b61040960d55481565b6033546001600160a01b0316610507565b61040960ca5481565b61042f610834366004614c11565b611502565b61043961163b565b61042f61084f366004614f26565b61164a565b60c9546106d790600160701b900463ffffffff1681565b60cf54610507906001600160a01b031681565b60d054610507906001600160a01b031681565b61045961089f366004614b11565b611656565b6108b76108b23660046149e0565b6116dc565b6040805196875294151560208701526001600160a81b039093169385019390935260ff166060840152608083019190915260a082015260c001610413565b610459610903366004614b11565b611734565b60c95461045990600160981b900460ff1681565b61045961092a3660046149e0565b60dd6020526000908152604090205460ff1681565b61042f61094d366004614a74565b611742565b61042f610960366004614f77565b6117d6565b610978610973366004614e21565b61183b565b60408051938452602084019290925290820152606001610413565b6109786109a1366004614e21565b611859565b61042f6109b4366004614be4565b61186a565b60c9546106d790600160b01b900463ffffffff1681565b6104096109de366004614bac565b6118c8565b6104596109f13660046149e0565b60de6020526000908152604090205460ff1681565b610409610a143660046149fc565b611991565b6104096119bc565b610409610a2f366004614f56565b6119e7565b610459610a423660046149e0565b60da6020526000908152604090205460ff1681565b61040960d25481565b6105a6610a6e366004614e4e565b611a0d565b60cd54610507906001600160a01b031681565b61042f610a943660046149e0565b611a37565b610459610aa73660046149e0565b60db6020526000908152604090205460ff1681565b60cb54610507906001600160a01b031681565b6001600160a01b038216600090815260d960209081526040808320815160a08101835281546001600160a81b03811680835260ff600160a81b8304169583019590955263ffffffff600160b01b8204811694830194909452600160d01b900483166060820152600190910154909116608082015290610b4d57600080fd5b80600001516001600160a81b0316836001600160a81b03161115610b7057600080fd5b60c954610b9390600160501b900463ffffffff166001600160a81b038516611acf565b606082015163ffffffff908116600090815260d760205260408082205460c954600160501b90049093168252902054610bd691906001600160a81b038716611bbe565b610be091906151e1565b949350505050565b6033546001600160a01b03163314610c1b5760405162461bcd60e51b8152600401610c12906150d5565b60405180910390fd5b60c9805460ff909216600160a81b0260ff60a81b19909216919091179055565b606060688054610c4a9061530f565b80601f0160208091040260200160405190810160405280929190818152602001828054610c769061530f565b8015610cc35780601f10610c9857610100808354040283529160200191610cc3565b820191906000526020600020905b815481529060010190602001808311610ca657829003601f168201915b5050505050905090565b600033610cdb818585611be5565b5060019392505050565b6033546001600160a01b03163314610d0f5760405162461bcd60e51b8152600401610c12906150d5565b62127500821115610d1f57600080fd5b60d182905562093a80811115610d3457600080fd5b60d25550565b600060026097541415610d5f5760405162461bcd60e51b8152600401610c1290615155565b6002609755610d6e6001611d09565b5050506000805b83811015610f5f57600060d96000878785818110610da357634e487b7160e01b600052603260045260246000fd5b9050602002016020810190610db891906149e0565b6001600160a01b031681526020808201929092526040908101600020815160a08101835281546001600160a81b03811680835260ff600160a81b8304169583019590955263ffffffff600160b01b8204811694830194909452600160d01b9004831660608201526001909101549091166080820152915015610f4c576000806000610e78898987818110610e5c57634e487b7160e01b600052603260045260246000fd5b9050602002016020810190610e7191906149e0565b6000612050565b9250925092508215610f485760cd5484516040808701516020880151915163b191ad2d60e01b81526004810187905285151560248201526001600160a81b03909316604484015263ffffffff16606483015260ff166084820152600197506001600160a01b039091169063b191ad2d9060a40160206040518083038186803b158015610f0357600080fd5b505afa158015610f17573d6000803e3d6000fd5b505050506040513d601f19601f82011682018060405250810190610f3b9190614f3e565b610f4590886151e1565b96505b5050505b5080610f578161534a565b915050610d75565b5080610fa65760405162461bcd60e51b81526020600482015260166024820152752737903634b8bab4b230b13632903837b9b4ba34b7b760511b6044820152606401610c12565b8160d554610fb491906152a9565b60d555610fc082612252565b50600160975592915050565b600033610fda858285612269565b610fe58585856122e3565b60019150505b9392505050565b600033610cdb8185856110058383611991565b61100f91906151e1565b611be5565b33600090815260de6020526040812054819060ff1661103257600080fd5b61103e846000856124bc565b909590945092505050565b33600090815260de6020526040812054819060ff1661106757600080fd5b6000831161107457600080fd5b61108160006001856124bc565b9094909350915050565b6033546001600160a01b031633146110b55760405162461bcd60e51b8152600401610c12906150d5565b60c9805469ffffffffffffffffffff19166001600160501b0392909216919091179055565b6000806000806110ef87876000886000612820565b935093509350935093509350935093565b60cc5460c954604051635a7b84b160e01b81526001600160501b03909116600482015260009182916001600160a01b0390911690635a7b84b190602401604080518083038186803b15801561115457600080fd5b505afa158015611168573d6000803e3d6000fd5b505050506040513d601f19601f8201168201806040525081019061118c9190614f93565b5060ce5460c95442600090815260d7602052604080822054600160501b840463ffffffff168084528284205460d55460d3549451635c9f97e560e01b81526004810193909352602483019390935260448201526001600160501b039094166064850152608484015260a48301529293506001600160a01b0390911690635c9f97e59060c4016101606040518083038186803b15801561122a57600080fd5b505afa15801561123e573d6000803e3d6000fd5b505050506040513d601f19601f820116820180604052508101906112629190614d3d565b90508061014001511561131c5760ce54604082810151606084015160c085015192516307b68b8160e01b81526004810192909252602482015263ffffffff808616604483015290911660648201526001600160a01b03909116906307b68b819060840160206040518083038186803b1580156112dd57600080fd5b505afa1580156112f1573d6000803e3d6000fd5b505050506040513d601f19601f820116820180604052508101906113159190614eed565b9250505090565b60ce60009054906101000a90046001600160a01b03166001600160a01b031663f359b46f6040518163ffffffff1660e01b815260040160206040518083038186803b1580156112dd57600080fd5b6033546001600160a01b031633146113945760405162461bcd60e51b8152600401610c12906150d5565b60ce80546001600160a01b0319166001600160a01b0392909216919091179055565b6033546001600160a01b031633146113e05760405162461bcd60e51b8152600401610c12906150d5565b6113ea600061309c565b565b6033546001600160a01b031633146114165760405162461bcd60e51b8152600401610c12906150d5565b60cf546001600160a01b03161580159061143a575060cb546001600160a01b031615155b1561145d5760cf5460cb5461145d916001600160a01b03918216911660006130ee565b60cf80546001600160a01b0319166001600160a01b03871690811790915515801590611493575060cb546001600160a01b031615155b156114b15760cb546114b1906001600160a01b0316866000196130ee565b60cc80546001600160a01b039586166001600160a01b03199182161790915560d080549486169482169490941790935560cd80549285169284169290921790915560d6805491909316911617905550565b600061150e600161324a565b90508015611526576000805461ff0019166101001790555b60c9805467ffffffffffffffff60701b1916661010000000046560741b1790556203f48060d15561546060d25560d680546001600160a01b031916905561156b6132d7565b611573613306565b61157d8888613335565b60cb80546001600160a01b03199081166001600160a01b038c81169190911790925560ca88905560c9805463ffffffff60b01b1916600160b01b63ffffffff8a160217905560ce8054821687841617905560cc8054821686841617905560cd80549091169184169190911790558015611630576000805461ff0019169055604051600181527f7f26b83ff96e1f2b6a682f133852f6798a09c465da95921460cefb38474024989060200160405180910390a15b505050505050505050565b606060698054610c4a9061530f565b6116538161336a565b50565b600033816116648286611991565b9050838110156116c45760405162461bcd60e51b815260206004820152602560248201527f45524332303a2064656372656173656420616c6c6f77616e63652062656c6f77604482015264207a65726f60d81b6064820152608401610c12565b6116d18286868403611be5565b506001949350505050565b6001600160a01b038116600090815260d9602052604081205481906001600160a81b03811690600160a81b900460ff1682808361171857600080fd5b6117238760016133d0565b929a91995095975093955092915050565b600033610cdb8185856122e3565b6033546001600160a01b0316331461176c5760405162461bcd60e51b8152600401610c12906150d5565b6001600160a01b0394909416600090815260da602090815260408083208054961560ff1997881617905560db8252808320805487169515159590951790945560dc8152838220805486169315159390931790925560de909152208054909116911515919091179055565b6033546001600160a01b031633146118005760405162461bcd60e51b8152600401610c12906150d5565b610e108163ffffffff16101561181557600080fd5b60c9805463ffffffff909216600160701b0263ffffffff60701b19909216919091179055565b600080600061184c85856000613567565b9250925092509250925092565b600080600061184c85856001613567565b6033546001600160a01b031633146118945760405162461bcd60e51b8152600401610c12906150d5565b60c9805461ffff60981b1916600160981b9315159390930260ff60a01b191692909217600160a01b91151591909102179055565b60008060cc60009054906101000a90046001600160a01b03166001600160a01b031663c1639a2b6040518163ffffffff1660e01b815260040160606040518083038186803b15801561191957600080fd5b505afa15801561192d573d6000803e3d6000fd5b505050506040513d601f19601f820116820180604052508101906119519190614fc0565b505090508261196157600061197e565b60c95460d35461197e91600160501b900463ffffffff1690611acf565b61198782613aa5565b610feb91906151e1565b6001600160a01b03918216600090815260666020908152604080832093909416825291909152205490565b60006119e260c9600a9054906101000a900463ffffffff1663ffffffff1660d354611acf565b905090565b33600090815260de602052604081205460ff16611a0357600080fd5b610feb8383613af4565b600080600080611a2588888861ffff16886001612820565b929b919a509850909650945050505050565b6033546001600160a01b03163314611a615760405162461bcd60e51b8152600401610c12906150d5565b6001600160a01b038116611ac65760405162461bcd60e51b815260206004820152602660248201527f4f776e61626c653a206e6577206f776e657220697320746865207a65726f206160448201526564647265737360d01b6064820152608401610c12565b6116538161309c565b60ce5460c95442600090815260d7602052604080822054600160501b840463ffffffff168084528284205460d55460d3549451635c9f97e560e01b81526004810193909352602483019390935260448201526001600160501b039094166064850152608484015260a48301529182916001600160a01b0390911690635c9f97e59060c4016101606040518083038186803b158015611b6c57600080fd5b505afa158015611b80573d6000803e3d6000fd5b505050506040513d601f19601f82011682018060405250810190611ba49190614d3d565b600085815260d760205260409020548151919250610be091855b60006402540be40082611bd186866152a9565b611bdb9190615262565b610be0919061521f565b6001600160a01b038316611c475760405162461bcd60e51b8152602060048201526024808201527f45524332303a20617070726f76652066726f6d20746865207a65726f206164646044820152637265737360e01b6064820152608401610c12565b6001600160a01b038216611ca85760405162461bcd60e51b815260206004820152602260248201527f45524332303a20617070726f766520746f20746865207a65726f206164647265604482015261737360f01b6064820152608401610c12565b6001600160a01b0383811660008181526066602090815260408083209487168084529482529182902085905590518481527f8c5be1e5ebec7d5bd14f71427d1e84f3dd0314c0f7b2291e5b200ac8c7c3b925910160405180910390a3505050565b60c95460ce5442600090815260d7602052604080822054600160501b850463ffffffff168084528284205460d55460d3549451635c9f97e560e01b815260048101849052602481019490945260448401919091526001600160501b0390961660648301819052608483019690965260a482019290925291938493849391929184916001600160a01b031690635c9f97e59060c4016101606040518083038186803b158015611db657600080fd5b505afa158015611dca573d6000803e3d6000fd5b505050506040513d601f19601f82011682018060405250810190611dee9190614d3d565b90508060e0015115611e4457805142600090815260d7602090815260409091209190915560d354908201516402540be40091611e2991615262565b611e33919061521f565b60d454611e4091906151e1565b60d4555b80610100015115611e775760a081015160c9805469ffffffffffffffffffff19166001600160501b039092169190911790555b80610140015115611f905760cc54604051635a7b84b160e01b81526001600160501b03851660048201526001600160a01b0390911690635a7b84b190602401604080518083038186803b158015611ecd57600080fd5b505afa158015611ee1573d6000803e3d6000fd5b505050506040513d601f19601f82011682018060405250810190611f059190614f93565b5060ce54604083810151606085015160c0860151925163d622662f60e01b81526004810192909252602482015263ffffffff808516604483015290911660648201529197506001600160a01b03169063d622662f90608401600060405180830381600087803b158015611f7757600080fd5b505af1158015611f8b573d6000803e3d6000fd5b505050505b8061012001511561200b5760c9805463ffffffff60501b1916600160501b4263ffffffff16021790819055600160901b900460ff168015611fda575060c954600160a01b900460ff165b15611fef57600082815260d760205260408120555b60c9805460ff60901b1916600160901b89151502179055612035565b60c954600160901b900460ff16156120355760c9805460ff60901b1916600160901b891515021790555b60c08101518151608090920151909891975095509350505050565b600080600080600080600061206589896133d0565b6001600160a01b038d8116600090815260d96020908152604091829020825160a08101845281546001600160a81b03811680835260ff600160a81b83041694830185905263ffffffff600160b01b83048116848801819052600160d01b90930481166060850152600190940154909316608083015260cd549451633e67022960e01b8152600481018b90528915156024820152604481019390935260648301526084820192909252969c50949a508b99508a98509296509094509192911690633e6702299060a40160206040518083038186803b15801561214557600080fd5b505afa158015612159573d6000803e3d6000fd5b505050506040513d601f19601f8201168201806040525081019061217d9190614bc8565b1561224657600080612193836000015186613d99565b60d382905560d481905560d55491935091506121b09085906152a9565b60d55582516040805189815288151560208201526001600160a81b03909216908201526001600160a01b038d16907f302eaf71224bcd9ed28854139aa87a32dc89622b38a4d8ce4160475aa57a7f139060600160405180910390a250506001600160a01b038a16600090815260d96020526040902080546001600160f01b03191681556001908101805463ffffffff1916905597505b50505050509250925092565b60cb54611653906001600160a01b03163383613ddd565b60006122758484611991565b905060001981146122dd57818110156122d05760405162461bcd60e51b815260206004820152601d60248201527f45524332303a20696e73756666696369656e7420616c6c6f77616e63650000006044820152606401610c12565b6122dd8484848403611be5565b50505050565b6001600160a01b0383166123475760405162461bcd60e51b815260206004820152602560248201527f45524332303a207472616e736665722066726f6d20746865207a65726f206164604482015264647265737360d81b6064820152608401610c12565b6001600160a01b0382166123a95760405162461bcd60e51b815260206004820152602360248201527f45524332303a207472616e7366657220746f20746865207a65726f206164647260448201526265737360e81b6064820152608401610c12565b6123b4838383613e0d565b6001600160a01b0383166000908152606560205260409020548181101561242c5760405162461bcd60e51b815260206004820152602660248201527f45524332303a207472616e7366657220616d6f756e7420657863656564732062604482015265616c616e636560d01b6064820152608401610c12565b6001600160a01b038085166000908152606560205260408082208585039055918516815290812080548492906124639084906151e1565b92505081905550826001600160a01b0316846001600160a01b03167fddf252ad1be2c89b69c2b068fc378daa952ba7f163c4a11628f55a4df523b3ef846040516124af91815260200190565b60405180910390a36122dd565b600080600260975414156124e25760405162461bcd60e51b8152600401610c1290615155565b600260975560d15433600090815260d860205260409020544291612505916151e1565b11156125465760405162461bcd60e51b815260206004820152601060248201526f119d5b991cc8185c99481b1bd8dad95960821b6044820152606401610c12565b60006125526001611d09565b5050905084156125865760675484935061256b82613aa5565b6125759085615262565b61257f919061521f565b9550612622565b6000861161259357600080fd5b61259c81613aa5565b60016125a760675490565b6125b19089615262565b6125bb91906152a9565b6125c5919061521f565b6125d09060016151e1565b9250838311156126225760405162461bcd60e51b815260206004820152601a60248201527f546f6f206d756368204c5020746f6b656e7320746f206275726e0000000000006044820152606401610c12565b336000908152606560205260409020548311156126815760405162461bcd60e51b815260206004820181905260248201527f4e6f7420656e6f756768204c5020746f6b656e7320666f72206163636f756e746044820152606401610c12565b60c954600160981b900460ff16806126a857508560d35460d5546126a591906152a9565b10155b6126f45760405162461bcd60e51b815260206004820152601760248201527f436f6c6c61746572616c20726174696f2062726f6b656e0000000000000000006044820152606401610c12565b8560d55461270291906152a9565b60d55560ce546040805163495ef70560e01b81529051600092612710926001600160a01b039091169163495ef70591600480820192602092909190829003018186803b15801561275157600080fd5b505afa158015612765573d6000803e3d6000fd5b505050506040513d601f19601f820116820180604052508101906127899190614eed565b6127979061ffff1689615262565b6127a1919061521f565b90506127ad81886152a9565b604080518981526020810187905290810183905290935033907f02f25270a4d87bea75db541cdfe559334a275b4a233520ed6c0a2429667cca949060600160405180910390a26127fd3385613f45565b6128068161409f565b61280f83612252565b505060016097559094909350915050565b600080600080600260975414156128495760405162461bcd60e51b8152600401610c1290615155565b600260975533600090815260db602052604090205460ff1661286a57600080fd5b60008660ff161161287a57600080fd5b60c95460ff600160a81b9091048116908716111561289757600080fd5b6000896001600160a81b0316116128ad57600080fd5b60008863ffffffff161180156128d6575060c95463ffffffff600160b01b909104811690891611155b6128df57600080fd5b6040805161014081018252600080825260208201819052918101829052606081018290526080810182905260a0810182905260c0810182905260e08101829052610100810182905261012081019190915261293a6000611d09565b6080840152602083015263ffffffff90811660e08301819052908a1610156129935760405162461bcd60e51b815260206004820152600c60248201526b086ac9240e8dede40d0d2ced60a31b6044820152606401610c12565b60c954608082015142916129b591600160701b90910463ffffffff16906151e1565b10156129fd5760405162461bcd60e51b81526020600482015260176024820152764c61746573742063766920746f6f206c6f6e672061676f60481b6044820152606401610c12565b60ce54604080516307e3dd0f60e41b815281516001600160a01b0390931692637e3dd0f092600480840193919291829003018186803b158015612a3f57600080fd5b505afa158015612a53573d6000803e3d6000fd5b505050506040513d601f19601f82011682018060405250810190612a779190614f09565b61ffff9081166101208401521661010082015285612a96576000612ac5565b6101008101516127109061ffff16612ab160ff8a168d615233565b612abb9190615233565b612ac591906151f9565b60d554825292508515612c835760e081015160c95463ffffffff91821691600160b01b9091041660ff8916612b066001600160a81b03808816908f166152a9565b612b109190615262565b612b1a9190615262565b612b24919061521f565b6040820152600060ff8816612b39858d615281565b612b439190615233565b8251612b58916001600160a81b0316906151e1565b60ce54835160d35460408601519394506001600160a01b0390921692631437d6d4928f928d929091908790612b8d90836151e1565b6040516001600160e01b031960e089901b1681526001600160a81b03909616600487015260ff909416602486015260448501929092526064840152608483015260a482015260c401604080518083038186803b158015612bec57600080fd5b505afa158015612c00573d6000803e3d6000fd5b505050506040513d601f19601f82011682018060405250810190612c249190614df3565b61ffff1660c084018190529093506001600160a81b038a161015612c815760405162461bcd60e51b81526020600482015260146024820152730a0e4cadad2eada40cccaca40e8dede40d0d2ced60631b6044820152606401610c12565b505b60ff871682612c92858d615281565b612c9c9190615281565b612ca69190615233565b33600090815260d9602052604090208054919550906001600160a81b031615612d8057805460ff898116600160a81b9092041614612ce357600080fd5b6000612d038284602001518560e00151896001600160a81b03168d6140d5565b805160208201516001600160a81b0390811660a087015260608301516040840151929a509293508616612d3960ff8d1684615262565b8651612d4f906001600160a81b038c16906151e1565b612d5991906151e1565b612d6391906151e1565b612d6d91906152a9565b612d7791906152a9565b60d55550612eeb565b60e082015160c95463ffffffff91821691612dac91600160b01b9004166001600160a81b038816615262565b612db6919061521f565b6060830181905295506001600160a81b0386168614612dd457600080fd5b6001600160a81b0380871660a080850182905260408051918201815282825260ff808d16602080850191825260e089015163ffffffff908116868601908152428216606088018181526080890191825233600090815260d990955296909320875181549551925197518416600160d01b0263ffffffff60d01b19988516600160b01b029890981667ffffffffffffffff60b01b1993909716600160a81b026001600160b01b03199096169a169990991793909317929092169290921792909217855551600190940180549490911663ffffffff199094169390931790925560d354612ebf91906151e1565b60d35582516001600160a81b0380861691612edc918916906151e1565b612ee691906151e1565b60d555505b337fe485c81af56f49547b2ea1b6886083d8e3a7ef50fe670c9574bd5d4b2dd7d4628c8a612f1987896151b6565b60e0870151604080516001600160a81b03958616815260ff94909416602085015291841683830152928b16606083015263ffffffff909216608082015290519081900360a00190a2612f738b6001600160a81b03166142de565b6001600160a81b03841615612f9457612f94846001600160a81b031661409f565b60d55460d3541115612fdf5760405162461bcd60e51b81526020600482015260146024820152734e6f7420656e6f756768206c697175696469747960601b6044820152606401610c12565b60d0546001600160a01b031615801590613005575060a08201516001600160a81b031615155b156130865760d05460a0830151604051630bf1944760e21b81523360048201526001600160a81b03909116602482015260ff8a1660448201526001600160a01b0390911690632fc6511c90606401600060405180830381600087803b15801561306d57600080fd5b505af1158015613081573d6000803e3d6000fd5b505050505b5050600160978190555095509550955095915050565b603380546001600160a01b038381166001600160a01b0319831681179093556040519116919082907f8be0079c531659141344cd1fd0a4f28419497f9722a3daafe3b4186f6b6457e090600090a35050565b8015806131775750604051636eb1769f60e11b81523060048201526001600160a01b03838116602483015284169063dd62ed3e9060440160206040518083038186803b15801561313d57600080fd5b505afa158015613151573d6000803e3d6000fd5b505050506040513d601f19601f820116820180604052508101906131759190614f3e565b155b6131e25760405162461bcd60e51b815260206004820152603660248201527f5361666545524332303a20617070726f76652066726f6d206e6f6e2d7a65726f60448201527520746f206e6f6e2d7a65726f20616c6c6f77616e636560501b6064820152608401610c12565b6040516001600160a01b03831660248201526044810182905261324590849063095ea7b360e01b906064015b60408051601f198184030181529190526020810180516001600160e01b03166001600160e01b0319909316929092179091526142f6565b505050565b60008054610100900460ff1615613291578160ff16600114801561326d5750303b155b6132895760405162461bcd60e51b8152600401610c1290615087565b506000919050565b60005460ff8084169116106132b85760405162461bcd60e51b8152600401610c1290615087565b506000805460ff191660ff92909216919091179055600190565b919050565b600054610100900460ff166132fe5760405162461bcd60e51b8152600401610c129061510a565b6113ea6143c8565b600054610100900460ff1661332d5760405162461bcd60e51b8152600401610c129061510a565b6113ea6143f6565b600054610100900460ff1661335c5760405162461bcd60e51b8152600401610c129061510a565b6133668282614426565b5050565b6002609754141561338d5760405162461bcd60e51b8152600401610c1290615155565b600260975533600090815260dc602052604090205460ff166133ae57600080fd5b8060d5546133bc91906151e1565b60d5556133c8816142de565b506001609755565b6001600160a01b03808316600090815260d960209081526040808320815160a08101835281546001600160a81b038116825260ff600160a81b8204169482019490945263ffffffff600160b01b8504811682850152600160d01b9094048416606080830191909152600190920154909316608084015260cc54825163c1639a2b60e01b815292519495869586958695909486949093169263c1639a2b92600480840193829003018186803b15801561348757600080fd5b505afa15801561349b573d6000803e3d6000fd5b505050506040513d601f19601f820116820180604052508101906134bf9190614fc0565b5050606083015163ffffffff908116600090815260d760205260408082205460c954600160501b900490931682529020548451929350613507926001600160a81b0316611bbe565b9350861561353357613530826060015163ffffffff1683600001516001600160a81b0316611acf565b93505b61355582600001516001600160a81b0316836020015183856040015188614474565b919a9099509497509550929350505050565b60008060006002609754141561358f5760405162461bcd60e51b8152600401610c1290615155565b600260975533600090815260db602052604090205460ff166135b057600080fd5b6000866001600160a81b0316116135c657600080fd5b60008563ffffffff161180156135ef575060c95463ffffffff600160b01b909104811690861611155b6135f857600080fd5b33600090815260d96020526040902080546001600160a81b038089169116101561362157600080fd5b60d254815461363d90600160d01b900463ffffffff16426152a9565b101580613659575033600090815260da602052604090205460ff165b6136975760405162461bcd60e51b815260206004820152600f60248201526e141bdcda5d1a5bdb881b1bd8dad959608a1b6044820152606401610c12565b60008060008060006136a96001611d09565b50909250905063ffffffff808c1690831610156136f65760405162461bcd60e51b815260206004820152600b60248201526a43564920746f6f206c6f7760a81b6044820152606401610c12565b600061370d878e6001600160a81b03168486614551565b92985090965094509050801561373457600080600099509950995050505050505050613a94565b50506137408b84613d99565b60d45560d35560008980156137d3575060ce5460408051633b75d72160e11b815290516000926001600160a01b0316916376ebae42916004808301926020929190829003018186803b15801561379557600080fd5b505afa1580156137a9573d6000803e3d6000fd5b505050506040513d601f19601f820116820180604052508101906137cd9190614eed565b61ffff16115b156138655760ce60009054906101000a90046001600160a01b03166001600160a01b03166350e0942b6040518163ffffffff1660e01b815260040160206040518083038186803b15801561382657600080fd5b505afa15801561383a573d6000803e3d6000fd5b505050506040513d601f19601f8201168201806040525081019061385e9190614eed565b61ffff1690505b855461387b908d906001600160a81b0316615281565b86546001600160a81b0319166001600160a81b0391909116178655896138a2576000613961565b60ce54865433600090815260da6020526040908190205490516315435d0560e31b8152600160d01b90920463ffffffff16600483015260ff1615156024820152612710916001600160a01b03169063aa1ae8289060440160206040518083038186803b15801561391157600080fd5b505afa158015613925573d6000803e3d6000fd5b505050506040513d601f19601f820116820180604052508101906139499190614eed565b6139579061ffff1687615262565b613961919061521f565b97506127106139708287615262565b61397a919061521f565b9650337f3989dab79971090c83b28eb2d423aa507b7d4c16f5cf10a4fdb05835cafba36a6139a886886151e1565b866139b38b8d6151e1565b6139bd91906151e1565b89546040805193845260208401929092526001600160a81b0381168383015260ff600160a81b90910416606083015263ffffffff86166080830152519081900360a00190a285546001600160a81b0316613a3d5733600090815260d96020526040902080546001600160f01b0319168155600101805463ffffffff191690555b86838660d554613a4d91906152a9565b613a5791906152a9565b613a6191906151e1565b60d55586613a6f89876152a9565b613a7991906152a9565b9850613a848861409f565b613a8d89612252565b5050505050505b600160978190555093509350939050565b60c95460d35460009163ffffffff600160b01b909104811691613aca91851690615262565b613ad4919061521f565b60d45460d554613ae491906151e1565b613aee91906152a9565b92915050565b600060026097541415613b195760405162461bcd60e51b8152600401610c1290615155565b600260975582613b2857600080fd5b33600090815260d86020526040812042905580613b456001611d09565b60c95492945092504291613b679150600160701b900463ffffffff16836151e1565b1015613baf5760405162461bcd60e51b81526020600482015260176024820152764c61746573742063766920746f6f206c6f6e672061676f60481b6044820152606401610c12565b60006127106001600160a81b031660ce60009054906101000a90046001600160a01b03166001600160a01b031663cc1252ae6040518163ffffffff1660e01b815260040160206040518083038186803b158015613c0b57600080fd5b505afa158015613c1f573d6000803e3d6000fd5b505050506040513d601f19601f82011682018060405250810190613c439190614eed565b613c519061ffff1688615262565b613c5b919061521f565b90506000613c6982886152a9565b90506000613c7660675490565b90506000613c8386613aa5565b9050600082118015613c955750600081115b15613cb65780613ca58385615262565b613caf919061521f565b9650613cc6565b60ca54613cc39084615262565b96505b604080518a81526020810189905290810185905233907f36af321ec8d3c75236829c5317affd40ddb308863a1236d2d277a4025cccee1e9060600160405180910390a287871015613d4d5760405162461bcd60e51b8152602060048201526011602482015270546f6f20666577204c5020746f6b656e7360781b6044820152606401610c12565b60008711613d5a57600080fd5b8260d554613d6891906151e1565b60d555613d7533886145ed565b613d7e896142de565b613d878461409f565b50506001609755509295945050505050565b600080836001600160a81b031660d354613db391906152a9565b915060d4548311613dd1578260d454613dcc91906152a9565b613dd4565b60005b90509250929050565b6040516001600160a01b03831660248201526044810182905261324590849063a9059cbb60e01b9060640161320e565b60d6546001600160a01b0384811691161415613e4157506001600160a01b0316600090815260d86020526040902042905550565b60d1546001600160a01b038416600090815260d860205260409020544291613e68916151e1565b118015613e9557506001600160a01b03808316600090815260d86020526040808220549286168252902054115b8015613eaf575060d6546001600160a01b03838116911614155b15613245576001600160a01b038216600090815260dd602052604090205460ff1615613f1d5760405162461bcd60e51b815260206004820152601f60248201527f526563697069656e742072656675736573206c6f636b656420746f6b656e73006044820152606401610c12565b6001600160a01b03808416600090815260d86020526040808220549285168252902055505050565b6001600160a01b038216613fa55760405162461bcd60e51b815260206004820152602160248201527f45524332303a206275726e2066726f6d20746865207a65726f206164647265736044820152607360f81b6064820152608401610c12565b613fb182600083613e0d565b6001600160a01b038216600090815260656020526040902054818110156140255760405162461bcd60e51b815260206004820152602260248201527f45524332303a206275726e20616d6f756e7420657863656564732062616c616e604482015261636560f01b6064820152608401610c12565b6001600160a01b03831660009081526065602052604081208383039055606780548492906140549084906152a9565b90915550506040518281526000906001600160a01b038516907fddf252ad1be2c89b69c2b068fc378daa952ba7f163c4a11628f55a4df523b3ef9060200160405180910390a3505050565b6000811180156140b9575060cf546001600160a01b031615155b156116535760cb546116539082906001600160a01b03166146d8565b6040805160808082018352600080835260208084018290528385018290526060808501839052855160a081018752958601839052850182905291840181905288546001600160a81b0316918401829052600189015463ffffffff16845291929190819081908190614149908c908c8c614551565b9350935093509350801561418357600060208601819052855160018d01805463ffffffff191663ffffffff90921691909117905593508391505b60c95463ffffffff808b1691600160b01b900416896141a560ff8b1688615262565b6141af91906151e1565b6141b99190615262565b6141c3919061521f565b604086018181526001600160a81b039091168088529051146141e457600080fd5b8a5486516001600160a81b0316600168ffffffffffffffff0160a81b0319909116600160d01b4263ffffffff90811691909102600164ffffffff0160a81b0319169190911791909117600160b01b918b16919091021760ff60a81b1916600160a81b60ff891602178b55602085015161425d9084613d99565b608087018190526060870182905260d4558651614285916001600160a81b03909116906151e1565b60d3556040860182905260608601849052855160208601516001600160a81b03918216911610156142d057602085015186516142c19190615281565b6001600160a81b031660208701525b505050505095945050505050565b60cb54611653906001600160a01b0316333084614742565b600061434b826040518060400160405280602081526020017f5361666545524332303a206c6f772d6c6576656c2063616c6c206661696c6564815250856001600160a01b031661477a9092919063ffffffff16565b80519091501561324557808060200190518101906143699190614bc8565b6132455760405162461bcd60e51b815260206004820152602a60248201527f5361666545524332303a204552433230206f7065726174696f6e20646964206e6044820152691bdd081cdd58d8d9595960b21b6064820152608401610c12565b600054610100900460ff166143ef5760405162461bcd60e51b8152600401610c129061510a565b6001609755565b600054610100900460ff1661441d5760405162461bcd60e51b8152600401610c129061510a565b6113ea3361309c565b600054610100900460ff1661444d5760405162461bcd60e51b8152600401610c129061510a565b815161446090606890602085019061488e565b50805161324590606990602084019061488e565b60c95460009081908190819063ffffffff600160b01b90910481169061449c9089168b615262565b6144a6919061521f565b905060018860ff16116144ba57600061450b565b60c95460ff891690600160b01b900463ffffffff166144da60018b6152c0565b60ff166144ed63ffffffff8a168d615262565b6144f79190615262565b614501919061521f565b61450b919061521f565b9150600061451986846151e1565b90508082106145375761452c81836152a9565b945060019350614544565b61454182826152a9565b94505b5050955095509592505050565b8354600160d01b900463ffffffff16600090815260d76020526040812054819081908190614580908789611bbe565b8854909350600090819081906145b2908b90600160a81b810460ff16908b90600160b01b900463ffffffff168a614474565b925092509250816145d8576145c8336000612050565b50505060019350600095506145df565b8296508094505b505050945094509450949050565b6001600160a01b0382166146435760405162461bcd60e51b815260206004820152601f60248201527f45524332303a206d696e7420746f20746865207a65726f2061646472657373006044820152606401610c12565b61464f60008383613e0d565b806067600082825461466191906151e1565b90915550506001600160a01b0382166000908152606560205260408120805483929061468e9084906151e1565b90915550506040518181526001600160a01b038316906000907fddf252ad1be2c89b69c2b068fc378daa952ba7f163c4a11628f55a4df523b3ef9060200160405180910390a35050565b60cf54604051638b0f154d60e01b8152600481018490526001600160a01b03838116602483015290911690638b0f154d90604401600060405180830381600087803b15801561472657600080fd5b505af115801561473a573d6000803e3d6000fd5b505050505050565b6040516001600160a01b03808516602483015283166044820152606481018290526122dd9085906323b872dd60e01b9060840161320e565b6060610be08484600085856001600160a01b0385163b6147dc5760405162461bcd60e51b815260206004820152601d60248201527f416464726573733a2063616c6c20746f206e6f6e2d636f6e74726163740000006044820152606401610c12565b600080866001600160a01b031685876040516147f89190615038565b60006040518083038185875af1925050503d8060008114614835576040519150601f19603f3d011682016040523d82523d6000602084013e61483a565b606091505b509150915061484a828286614855565b979650505050505050565b60608315614864575081610feb565b8251156148745782518084602001fd5b8160405162461bcd60e51b8152600401610c129190615054565b82805461489a9061530f565b90600052602060002090601f0160209004810192826148bc5760008555614902565b82601f106148d557805160ff1916838001178555614902565b82800160010185558215614902579182015b828111156149025782518255916020019190600101906148e7565b5061490e929150614912565b5090565b5b8082111561490e5760008155600101614913565b80516132d2816153bc565b600082601f830112614942578081fd5b813567ffffffffffffffff8082111561495d5761495d615391565b604051601f8301601f19908116603f0116810190828211818310171561498557614985615391565b8160405283815286602085880101111561499d578485fd5b8360208701602083013792830160200193909352509392505050565b80516132d2816153ef565b803560ff811681146132d257600080fd5b80516132d281615401565b6000602082840312156149f1578081fd5b8135610feb816153a7565b60008060408385031215614a0e578081fd5b8235614a19816153a7565b91506020830135614a29816153a7565b809150509250929050565b600080600060608486031215614a48578081fd5b8335614a53816153a7565b92506020840135614a63816153a7565b929592945050506040919091013590565b600080600080600060a08688031215614a8b578081fd5b8535614a96816153a7565b94506020860135614aa6816153bc565b93506040860135614ab6816153bc565b92506060860135614ac6816153bc565b91506080860135614ad6816153bc565b809150509295509295909350565b60008060408385031215614af6578182fd5b8235614b01816153a7565b91506020830135614a29816153da565b60008060408385031215614b23578182fd5b8235614b2e816153a7565b946020939093013593505050565b60008060208385031215614b4e578182fd5b823567ffffffffffffffff80821115614b65578384fd5b818501915085601f830112614b78578384fd5b813581811115614b86578485fd5b8660208260051b8501011115614b9a578485fd5b60209290920196919550909350505050565b600060208284031215614bbd578081fd5b8135610feb816153bc565b600060208284031215614bd9578081fd5b8151610feb816153bc565b60008060408385031215614bf6578182fd5b8235614c01816153bc565b91506020830135614a29816153bc565b600080600080600080600080610100898b031215614c2d578586fd5b8835614c38816153a7565b9750602089013567ffffffffffffffff80821115614c54578788fd5b614c608c838d01614932565b985060408b0135915080821115614c75578788fd5b50614c828b828c01614932565b965050606089013594506080890135614c9a816153ef565b935060a0890135614caa816153a7565b925060c0890135614cba816153a7565b915060e0890135614cca816153a7565b809150509295985092959890939650565b600080600080600060a08688031215614cf2578283fd5b8535614cfd816153a7565b94506020860135614d0d816153a7565b93506040860135614d1d816153a7565b92506060860135614d2d816153a7565b91506080860135614ad6816153a7565b60006101608284031215614d4f578081fd5b614d5761518c565b8251815260208301516020820152604083015160408201526060830151606082015260808301516080820152614d8f60a084016149d5565b60a0820152614da060c084016149b9565b60c0820152614db160e08401614927565b60e0820152610100614dc4818501614927565b90820152610120614dd6848201614927565b90820152610140614de8848201614927565b908201529392505050565b60008060408385031215614e05578182fd5b8251614e10816153da565b6020840151909250614a29816153ca565b60008060408385031215614e33578182fd5b8235614e3e816153da565b91506020830135614a29816153ef565b60008060008060808587031215614e63578182fd5b8435614e6e816153da565b93506020850135614e7e816153ef565b92506040850135614e8e816153ca565b9150614e9c606086016149c4565b905092959194509250565b600080600060608486031215614ebb578081fd5b8335614ec6816153da565b92506020840135614ed6816153ef565b9150614ee4604085016149c4565b90509250925092565b600060208284031215614efe578081fd5b8151610feb816153ca565b60008060408385031215614f1b578182fd5b8251614e10816153ca565b600060208284031215614f37578081fd5b5035919050565b600060208284031215614f4f578081fd5b5051919050565b60008060408385031215614f68578182fd5b50508035926020909101359150565b600060208284031215614f88578081fd5b8135610feb816153ef565b60008060408385031215614fa5578182fd5b8251614fb0816153ef565b6020939093015192949293505050565b600080600060608486031215614fd4578081fd5b8351614fdf816153ef565b6020850151909350614ff081615401565b80925050604084015190509250925092565b600060208284031215615013578081fd5b610feb826149c4565b60006020828403121561502d578081fd5b8135610feb81615401565b6000825161504a8184602087016152e3565b9190910192915050565b60208152600082518060208401526150738160408501602087016152e3565b601f01601f19169190910160400192915050565b6020808252602e908201527f496e697469616c697a61626c653a20636f6e747261637420697320616c72656160408201526d191e481a5b9a5d1a585b1a5e995960921b606082015260800190565b6020808252818101527f4f776e61626c653a2063616c6c6572206973206e6f7420746865206f776e6572604082015260600190565b6020808252602b908201527f496e697469616c697a61626c653a20636f6e7472616374206973206e6f74206960408201526a6e697469616c697a696e6760a81b606082015260800190565b6020808252601f908201527f5265656e7472616e637947756172643a207265656e7472616e742063616c6c00604082015260600190565b604051610160810167ffffffffffffffff811182821017156151b0576151b0615391565b60405290565b60006001600160a81b038281168482168083038211156151d8576151d8615365565b01949350505050565b600082198211156151f4576151f4615365565b500190565b60006001600160a81b03838116806152135761521361537b565b92169190910492915050565b60008261522e5761522e61537b565b500490565b60006001600160a81b038281168482168115158284048211161561525957615259615365565b02949350505050565b600081600019048311821515161561527c5761527c615365565b500290565b60006001600160a81b03838116908316818110156152a1576152a1615365565b039392505050565b6000828210156152bb576152bb615365565b500390565b600060ff821660ff8416808210156152da576152da615365565b90039392505050565b60005b838110156152fe5781810151838201526020016152e6565b838111156122dd5750506000910152565b600181811c9082168061532357607f821691505b6020821081141561534457634e487b7160e01b600052602260045260246000fd5b50919050565b600060001982141561535e5761535e615365565b5060010190565b634e487b7160e01b600052601160045260246000fd5b634e487b7160e01b600052601260045260246000fd5b634e487b7160e01b600052604160045260246000fd5b6001600160a01b038116811461165357600080fd5b801515811461165357600080fd5b61ffff8116811461165357600080fd5b6001600160a81b038116811461165357600080fd5b63ffffffff8116811461165357600080fd5b6001600160501b038116811461165357600080fdfea2646970667358221220d1fe512f6a1999538a7f9201595dabe2e47f6111b694a54a8a3e3fb47f77a37e64736f6c63430008040033",
  "devdoc": {
    "kind": "dev",
    "methods": {
      "allowance(address,address)": {
        "details": "See {IERC20-allowance}."
      },
      "approve(address,uint256)": {
        "details": "See {IERC20-approve}. NOTE: If `amount` is the maximum `uint256`, the allowance is not updated on `transferFrom`. This is semantically equivalent to an infinite approval. Requirements: - `spender` cannot be the zero address."
      },
      "balanceOf(address)": {
        "details": "See {IERC20-balanceOf}."
      },
      "decimals()": {
        "details": "Returns the number of decimals used to get its user representation. For example, if `decimals` equals `2`, a balance of `505` tokens should be displayed to a user as `5.05` (`505 / 10 ** 2`). Tokens usually opt for a value of 18, imitating the relationship between Ether and Wei. This is the value {ERC20} uses, unless this function is overridden; NOTE: This information is only used for _display_ purposes: it in no way affects any of the arithmetic of the contract, including {IERC20-balanceOf} and {IERC20-transfer}."
      },
      "decreaseAllowance(address,uint256)": {
        "details": "Atomically decreases the allowance granted to `spender` by the caller. This is an alternative to {approve} that can be used as a mitigation for problems described in {IERC20-approve}. Emits an {Approval} event indicating the updated allowance. Requirements: - `spender` cannot be the zero address. - `spender` must have allowance for the caller of at least `subtractedValue`."
      },
      "increaseAllowance(address,uint256)": {
        "details": "Atomically increases the allowance granted to `spender` by the caller. This is an alternative to {approve} that can be used as a mitigation for problems described in {IERC20-approve}. Emits an {Approval} event indicating the updated allowance. Requirements: - `spender` cannot be the zero address."
      },
      "name()": {
        "details": "Returns the name of the token."
      },
      "owner()": {
        "details": "Returns the address of the current owner."
      },
      "renounceOwnership()": {
        "details": "Leaves the contract without owner. It will not be possible to call `onlyOwner` functions anymore. Can only be called by the current owner. NOTE: Renouncing ownership will leave the contract without an owner, thereby removing any functionality that is only available to the owner."
      },
      "symbol()": {
        "details": "Returns the symbol of the token, usually a shorter version of the name."
      },
      "totalSupply()": {
        "details": "See {IERC20-totalSupply}."
      },
      "transfer(address,uint256)": {
        "details": "See {IERC20-transfer}. Requirements: - `to` cannot be the zero address. - the caller must have a balance of at least `amount`."
      },
      "transferFrom(address,address,uint256)": {
        "details": "See {IERC20-transferFrom}. Emits an {Approval} event indicating the updated allowance. This is not required by the EIP. See the note at the beginning of {ERC20}. NOTE: Does not update the allowance if the current allowance is the maximum `uint256`. Requirements: - `from` and `to` cannot be the zero address. - `from` must have a balance of at least `amount`. - the caller must have allowance for ``from``'s tokens of at least `amount`."
      },
      "transferOwnership(address)": {
        "details": "Transfers ownership of the contract to a new account (`newOwner`). Can only be called by the current owner."
      }
    },
    "version": 1
  },
  "userdoc": {
    "kind": "user",
    "methods": {},
    "version": 1
  },
  "storageLayout": {
    "storage": [
      {
        "astId": 33638,
        "contract": "contracts/platform/PlatformContracts.sol:CVIUSDCPlatform",
        "label": "_initialized",
        "offset": 0,
        "slot": "0",
        "type": "t_uint8"
      },
      {
        "astId": 33641,
        "contract": "contracts/platform/PlatformContracts.sol:CVIUSDCPlatform",
        "label": "_initializing",
        "offset": 1,
        "slot": "0",
        "type": "t_bool"
      },
      {
        "astId": 36495,
        "contract": "contracts/platform/PlatformContracts.sol:CVIUSDCPlatform",
        "label": "__gap",
        "offset": 0,
        "slot": "1",
        "type": "t_array(t_uint256)50_storage"
      },
      {
        "astId": 33518,
        "contract": "contracts/platform/PlatformContracts.sol:CVIUSDCPlatform",
        "label": "_owner",
        "offset": 0,
        "slot": "51",
        "type": "t_address"
      },
      {
        "astId": 33630,
        "contract": "contracts/platform/PlatformContracts.sol:CVIUSDCPlatform",
        "label": "__gap",
        "offset": 0,
        "slot": "52",
        "type": "t_array(t_uint256)49_storage"
      },
      {
        "astId": 33851,
        "contract": "contracts/platform/PlatformContracts.sol:CVIUSDCPlatform",
        "label": "_balances",
        "offset": 0,
        "slot": "101",
        "type": "t_mapping(t_address,t_uint256)"
      },
      {
        "astId": 33857,
        "contract": "contracts/platform/PlatformContracts.sol:CVIUSDCPlatform",
        "label": "_allowances",
        "offset": 0,
        "slot": "102",
        "type": "t_mapping(t_address,t_mapping(t_address,t_uint256))"
      },
      {
        "astId": 33859,
        "contract": "contracts/platform/PlatformContracts.sol:CVIUSDCPlatform",
        "label": "_totalSupply",
        "offset": 0,
        "slot": "103",
        "type": "t_uint256"
      },
      {
        "astId": 33861,
        "contract": "contracts/platform/PlatformContracts.sol:CVIUSDCPlatform",
        "label": "_name",
        "offset": 0,
        "slot": "104",
        "type": "t_string_storage"
      },
      {
        "astId": 33863,
        "contract": "contracts/platform/PlatformContracts.sol:CVIUSDCPlatform",
        "label": "_symbol",
        "offset": 0,
        "slot": "105",
        "type": "t_string_storage"
      },
      {
        "astId": 34442,
        "contract": "contracts/platform/PlatformContracts.sol:CVIUSDCPlatform",
        "label": "__gap",
        "offset": 0,
        "slot": "106",
        "type": "t_array(t_uint256)45_storage"
      },
      {
        "astId": 33787,
        "contract": "contracts/platform/PlatformContracts.sol:CVIUSDCPlatform",
        "label": "_status",
        "offset": 0,
        "slot": "151",
        "type": "t_uint256"
      },
      {
        "astId": 33831,
        "contract": "contracts/platform/PlatformContracts.sol:CVIUSDCPlatform",
        "label": "__gap",
        "offset": 0,
        "slot": "152",
        "type": "t_array(t_uint256)49_storage"
      },
      {
        "astId": 3334,
        "contract": "contracts/platform/PlatformContracts.sol:CVIUSDCPlatform",
        "label": "latestOracleRoundId",
        "offset": 0,
        "slot": "201",
        "type": "t_uint80"
      },
      {
        "astId": 3336,
        "contract": "contracts/platform/PlatformContracts.sol:CVIUSDCPlatform",
        "label": "latestSnapshotTimestamp",
        "offset": 10,
        "slot": "201",
        "type": "t_uint32"
      },
      {
        "astId": 3338,
        "contract": "contracts/platform/PlatformContracts.sol:CVIUSDCPlatform",
        "label": "maxTimeAllowedAfterLatestRound",
        "offset": 14,
        "slot": "201",
        "type": "t_uint32"
      },
      {
        "astId": 3340,
        "contract": "contracts/platform/PlatformContracts.sol:CVIUSDCPlatform",
        "label": "canPurgeLatestSnapshot",
        "offset": 18,
        "slot": "201",
        "type": "t_bool"
      },
      {
        "astId": 3342,
        "contract": "contracts/platform/PlatformContracts.sol:CVIUSDCPlatform",
        "label": "emergencyWithdrawAllowed",
        "offset": 19,
        "slot": "201",
        "type": "t_bool"
      },
      {
        "astId": 3344,
        "contract": "contracts/platform/PlatformContracts.sol:CVIUSDCPlatform",
        "label": "purgeSnapshots",
        "offset": 20,
        "slot": "201",
        "type": "t_bool"
      },
      {
        "astId": 3346,
        "contract": "contracts/platform/PlatformContracts.sol:CVIUSDCPlatform",
        "label": "maxAllowedLeverage",
        "offset": 21,
        "slot": "201",
        "type": "t_uint8"
      },
      {
        "astId": 3349,
        "contract": "contracts/platform/PlatformContracts.sol:CVIUSDCPlatform",
        "label": "maxCVIValue",
        "offset": 22,
        "slot": "201",
        "type": "t_uint32"
      },
      {
        "astId": 3358,
        "contract": "contracts/platform/PlatformContracts.sol:CVIUSDCPlatform",
        "label": "initialTokenToLPTokenRate",
        "offset": 0,
        "slot": "202",
        "type": "t_uint256"
      },
      {
        "astId": 3361,
        "contract": "contracts/platform/PlatformContracts.sol:CVIUSDCPlatform",
        "label": "token",
        "offset": 0,
        "slot": "203",
        "type": "t_contract(IERC20Upgradeable)34521"
      },
      {
        "astId": 3365,
        "contract": "contracts/platform/PlatformContracts.sol:CVIUSDCPlatform",
        "label": "cviOracle",
        "offset": 0,
        "slot": "204",
        "type": "t_contract(ICVIOracle)16496"
      },
      {
        "astId": 3368,
        "contract": "contracts/platform/PlatformContracts.sol:CVIUSDCPlatform",
        "label": "liquidation",
        "offset": 0,
        "slot": "205",
        "type": "t_contract(ILiquidation)17187"
      },
      {
        "astId": 3372,
        "contract": "contracts/platform/PlatformContracts.sol:CVIUSDCPlatform",
        "label": "feesCalculator",
        "offset": 0,
        "slot": "206",
        "type": "t_contract(IFeesCalculator)16960"
      },
      {
        "astId": 3375,
        "contract": "contracts/platform/PlatformContracts.sol:CVIUSDCPlatform",
        "label": "feesCollector",
        "offset": 0,
        "slot": "207",
        "type": "t_contract(IFeesCollector)16972"
      },
      {
        "astId": 3378,
        "contract": "contracts/platform/PlatformContracts.sol:CVIUSDCPlatform",
        "label": "rewards",
        "offset": 0,
        "slot": "208",
        "type": "t_contract(IRewardsCollector)18019"
      },
      {
        "astId": 3380,
        "contract": "contracts/platform/PlatformContracts.sol:CVIUSDCPlatform",
        "label": "lpsLockupPeriod",
        "offset": 0,
        "slot": "209",
        "type": "t_uint256"
      },
      {
        "astId": 3383,
        "contract": "contracts/platform/PlatformContracts.sol:CVIUSDCPlatform",
        "label": "buyersLockupPeriod",
        "offset": 0,
        "slot": "210",
        "type": "t_uint256"
      },
      {
        "astId": 3386,
        "contract": "contracts/platform/PlatformContracts.sol:CVIUSDCPlatform",
        "label": "totalPositionUnitsAmount",
        "offset": 0,
        "slot": "211",
        "type": "t_uint256"
      },
      {
        "astId": 3389,
        "contract": "contracts/platform/PlatformContracts.sol:CVIUSDCPlatform",
        "label": "totalFundingFeesAmount",
        "offset": 0,
        "slot": "212",
        "type": "t_uint256"
      },
      {
        "astId": 3392,
        "contract": "contracts/platform/PlatformContracts.sol:CVIUSDCPlatform",
        "label": "totalLeveragedTokensAmount",
        "offset": 0,
        "slot": "213",
        "type": "t_uint256"
      },
      {
        "astId": 3394,
        "contract": "contracts/platform/PlatformContracts.sol:CVIUSDCPlatform",
        "label": "stakingContractAddress",
        "offset": 0,
        "slot": "214",
        "type": "t_address"
      },
      {
        "astId": 3398,
        "contract": "contracts/platform/PlatformContracts.sol:CVIUSDCPlatform",
        "label": "cviSnapshots",
        "offset": 0,
        "slot": "215",
        "type": "t_mapping(t_uint256,t_uint256)"
      },
      {
        "astId": 3402,
        "contract": "contracts/platform/PlatformContracts.sol:CVIUSDCPlatform",
        "label": "lastDepositTimestamp",
        "offset": 0,
        "slot": "216",
        "type": "t_mapping(t_address,t_uint256)"
      },
      {
        "astId": 3408,
        "contract": "contracts/platform/PlatformContracts.sol:CVIUSDCPlatform",
        "label": "positions",
        "offset": 0,
        "slot": "217",
        "type": "t_mapping(t_address,t_struct(Position)17205_storage)"
      },
      {
        "astId": 3412,
        "contract": "contracts/platform/PlatformContracts.sol:CVIUSDCPlatform",
        "label": "noLockPositionAddresses",
        "offset": 0,
        "slot": "218",
        "type": "t_mapping(t_address,t_bool)"
      },
      {
        "astId": 3416,
        "contract": "contracts/platform/PlatformContracts.sol:CVIUSDCPlatform",
        "label": "positionHoldersAllowedAddresses",
        "offset": 0,
        "slot": "219",
        "type": "t_mapping(t_address,t_bool)"
      },
      {
        "astId": 3420,
        "contract": "contracts/platform/PlatformContracts.sol:CVIUSDCPlatform",
        "label": "increaseSharedPoolAllowedAddresses",
        "offset": 0,
        "slot": "220",
        "type": "t_mapping(t_address,t_bool)"
      },
      {
        "astId": 3424,
        "contract": "contracts/platform/PlatformContracts.sol:CVIUSDCPlatform",
        "label": "revertLockedTransfered",
        "offset": 0,
        "slot": "221",
        "type": "t_mapping(t_address,t_bool)"
      },
      {
        "astId": 3428,
        "contract": "contracts/platform/PlatformContracts.sol:CVIUSDCPlatform",
        "label": "liquidityProviders",
        "offset": 0,
        "slot": "222",
        "type": "t_mapping(t_address,t_bool)"
      }
    ],
    "types": {
      "t_address": {
        "encoding": "inplace",
        "label": "address",
        "numberOfBytes": "20"
      },
      "t_array(t_uint256)45_storage": {
        "base": "t_uint256",
        "encoding": "inplace",
        "label": "uint256[45]",
        "numberOfBytes": "1440"
      },
      "t_array(t_uint256)49_storage": {
        "base": "t_uint256",
        "encoding": "inplace",
        "label": "uint256[49]",
        "numberOfBytes": "1568"
      },
      "t_array(t_uint256)50_storage": {
        "base": "t_uint256",
        "encoding": "inplace",
        "label": "uint256[50]",
        "numberOfBytes": "1600"
      },
      "t_bool": {
        "encoding": "inplace",
        "label": "bool",
        "numberOfBytes": "1"
      },
      "t_contract(ICVIOracle)16496": {
        "encoding": "inplace",
        "label": "contract ICVIOracle",
        "numberOfBytes": "20"
      },
      "t_contract(IERC20Upgradeable)34521": {
        "encoding": "inplace",
        "label": "contract IERC20Upgradeable",
        "numberOfBytes": "20"
      },
      "t_contract(IFeesCalculator)16960": {
        "encoding": "inplace",
        "label": "contract IFeesCalculator",
        "numberOfBytes": "20"
      },
      "t_contract(IFeesCollector)16972": {
        "encoding": "inplace",
        "label": "contract IFeesCollector",
        "numberOfBytes": "20"
      },
      "t_contract(ILiquidation)17187": {
        "encoding": "inplace",
        "label": "contract ILiquidation",
        "numberOfBytes": "20"
      },
      "t_contract(IRewardsCollector)18019": {
        "encoding": "inplace",
        "label": "contract IRewardsCollector",
        "numberOfBytes": "20"
      },
      "t_mapping(t_address,t_bool)": {
        "encoding": "mapping",
        "key": "t_address",
        "label": "mapping(address => bool)",
        "numberOfBytes": "32",
        "value": "t_bool"
      },
      "t_mapping(t_address,t_mapping(t_address,t_uint256))": {
        "encoding": "mapping",
        "key": "t_address",
        "label": "mapping(address => mapping(address => uint256))",
        "numberOfBytes": "32",
        "value": "t_mapping(t_address,t_uint256)"
      },
      "t_mapping(t_address,t_struct(Position)17205_storage)": {
        "encoding": "mapping",
        "key": "t_address",
        "label": "mapping(address => struct IPlatform.Position)",
        "numberOfBytes": "32",
        "value": "t_struct(Position)17205_storage"
      },
      "t_mapping(t_address,t_uint256)": {
        "encoding": "mapping",
        "key": "t_address",
        "label": "mapping(address => uint256)",
        "numberOfBytes": "32",
        "value": "t_uint256"
      },
      "t_mapping(t_uint256,t_uint256)": {
        "encoding": "mapping",
        "key": "t_uint256",
        "label": "mapping(uint256 => uint256)",
        "numberOfBytes": "32",
        "value": "t_uint256"
      },
      "t_string_storage": {
        "encoding": "bytes",
        "label": "string",
        "numberOfBytes": "32"
      },
      "t_struct(Position)17205_storage": {
        "encoding": "inplace",
        "label": "struct IPlatform.Position",
        "members": [
          {
            "astId": 17196,
            "contract": "contracts/platform/PlatformContracts.sol:CVIUSDCPlatform",
            "label": "positionUnitsAmount",
            "offset": 0,
            "slot": "0",
            "type": "t_uint168"
          },
          {
            "astId": 17198,
            "contract": "contracts/platform/PlatformContracts.sol:CVIUSDCPlatform",
            "label": "leverage",
            "offset": 21,
            "slot": "0",
            "type": "t_uint8"
          },
          {
            "astId": 17200,
            "contract": "contracts/platform/PlatformContracts.sol:CVIUSDCPlatform",
            "label": "openCVIValue",
            "offset": 22,
            "slot": "0",
            "type": "t_uint32"
          },
          {
            "astId": 17202,
            "contract": "contracts/platform/PlatformContracts.sol:CVIUSDCPlatform",
            "label": "creationTimestamp",
            "offset": 26,
            "slot": "0",
            "type": "t_uint32"
          },
          {
            "astId": 17204,
            "contract": "contracts/platform/PlatformContracts.sol:CVIUSDCPlatform",
            "label": "originalCreationTimestamp",
            "offset": 0,
            "slot": "1",
            "type": "t_uint32"
          }
        ],
        "numberOfBytes": "64"
      },
      "t_uint168": {
        "encoding": "inplace",
        "label": "uint168",
        "numberOfBytes": "21"
      },
      "t_uint256": {
        "encoding": "inplace",
        "label": "uint256",
        "numberOfBytes": "32"
      },
      "t_uint32": {
        "encoding": "inplace",
        "label": "uint32",
        "numberOfBytes": "4"
      },
      "t_uint8": {
        "encoding": "inplace",
        "label": "uint8",
        "numberOfBytes": "1"
      },
      "t_uint80": {
        "encoding": "inplace",
        "label": "uint80",
        "numberOfBytes": "10"
      }
    }
  }
}