{
  "address": "0x4e20637dc4497AFda5a5e1C7812e75cb14FE2375",
  "abi": [
    {
      "inputs": [
        {
          "internalType": "contract IERC20",
          "name": "_usdcToken",
          "type": "address"
        }
      ],
      "stateMutability": "nonpayable",
      "type": "constructor"
    },
    {
      "anonymous": false,
      "inputs": [
        {
          "indexed": true,
          "internalType": "address",
          "name": "previousOwner",
          "type": "address"
        },
        {
          "indexed": true,
          "internalType": "address",
          "name": "newOwner",
          "type": "address"
        }
      ],
      "name": "OwnershipTransferred",
      "type": "event"
    },
    {
      "inputs": [],
      "name": "extractUSDC",
      "outputs": [],
      "stateMutability": "nonpayable",
      "type": "function"
    },
    {
      "inputs": [],
      "name": "extractor",
      "outputs": [
        {
          "internalType": "address",
          "name": "",
          "type": "address"
        }
      ],
      "stateMutability": "view",
      "type": "function"
    },
    {
      "inputs": [],
      "name": "owner",
      "outputs": [
        {
          "internalType": "address",
          "name": "",
          "type": "address"
        }
      ],
      "stateMutability": "view",
      "type": "function"
    },
    {
      "inputs": [],
      "name": "renounceOwnership",
      "outputs": [],
      "stateMutability": "nonpayable",
      "type": "function"
    },
    {
      "inputs": [
        {
          "internalType": "address",
          "name": "_newExtractor",
          "type": "address"
        }
      ],
      "name": "setExtractor",
      "outputs": [],
      "stateMutability": "nonpayable",
      "type": "function"
    },
    {
      "inputs": [
        {
          "internalType": "address",
          "name": "newOwner",
          "type": "address"
        }
      ],
      "name": "transferOwnership",
      "outputs": [],
      "stateMutability": "nonpayable",
      "type": "function"
    },
    {
      "inputs": [],
      "name": "usdcToken",
      "outputs": [
        {
          "internalType": "contract IERC20",
          "name": "",
          "type": "address"
        }
      ],
      "stateMutability": "view",
      "type": "function"
    }
  ],
  "transactionHash": "0xe2c23ad3ba9daec011cb8a4f578e3d823913e0ccbf86f20e52b25ac637526412",
  "args": [
    "0xff970a61a04b1ca14834a43f5de4533ebddb5cc8"
  ],
  "numDeployments": 1,
  "solcInputHash": "8d836039a3333aa7ff1a69dee5a5f235",
  "bytecode": "0x608060405234801561001057600080fd5b5060405161087638038061087683398101604081905261002f916100ad565b6100383361005d565b600180546001600160a01b0319166001600160a01b03929092169190911790556100db565b600080546001600160a01b038381166001600160a01b0319831681178455604051919092169283917f8be0079c531659141344cd1fd0a4f28419497f9722a3daafe3b4186f6b6457e09190a35050565b6000602082840312156100be578081fd5b81516001600160a01b03811681146100d4578182fd5b9392505050565b61078c806100ea6000396000f3fe608060405234801561001057600080fd5b506004361061007d5760003560e01c8063715018a61161005b578063715018a6146100ce5780638da5cb5b146100d6578063a944ff84146100e7578063f2fde38b146100fa57600080fd5b806311eac8551461008257806319d16c49146100b1578063661e25c9146100c4575b600080fd5b600154610095906001600160a01b031681565b6040516001600160a01b03909116815260200160405180910390f35b600254610095906001600160a01b031681565b6100cc61010d565b005b6100cc61022d565b6000546001600160a01b0316610095565b6100cc6100f5366004610643565b610263565b6100cc610108366004610643565b6102af565b6002546001600160a01b0316331461015a5760405162461bcd60e51b815260206004820152600b60248201526a139bdd08185b1b1bddd95960aa1b60448201526064015b60405180910390fd5b6001546040516370a0823160e01b81523060048201526000916001600160a01b0316906370a082319060240160206040518083038186803b15801561019e57600080fd5b505afa1580156101b2573d6000803e3d6000fd5b505050506040513d601f19601f820116820180604052508101906101d6919061068a565b9050600081116102135760405162461bcd60e51b81526020600482015260086024820152674e6f2066756e647360c01b6044820152606401610151565b60015461022a906001600160a01b03163383610347565b50565b6000546001600160a01b031633146102575760405162461bcd60e51b8152600401610151906106f1565b610261600061039e565b565b6000546001600160a01b0316331461028d5760405162461bcd60e51b8152600401610151906106f1565b600280546001600160a01b0319166001600160a01b0392909216919091179055565b6000546001600160a01b031633146102d95760405162461bcd60e51b8152600401610151906106f1565b6001600160a01b03811661033e5760405162461bcd60e51b815260206004820152602660248201527f4f776e61626c653a206e6577206f776e657220697320746865207a65726f206160448201526564647265737360d01b6064820152608401610151565b61022a8161039e565b604080516001600160a01b038416602482015260448082018490528251808303909101815260649091019091526020810180516001600160e01b031663a9059cbb60e01b1790526103999084906103ee565b505050565b600080546001600160a01b038381166001600160a01b0319831681178455604051919092169283917f8be0079c531659141344cd1fd0a4f28419497f9722a3daafe3b4186f6b6457e09190a35050565b6000610443826040518060400160405280602081526020017f5361666545524332303a206c6f772d6c6576656c2063616c6c206661696c6564815250856001600160a01b03166104c09092919063ffffffff16565b8051909150156103995780806020019051810190610461919061066a565b6103995760405162461bcd60e51b815260206004820152602a60248201527f5361666545524332303a204552433230206f7065726174696f6e20646964206e6044820152691bdd081cdd58d8d9595960b21b6064820152608401610151565b60606104cf84846000856104d9565b90505b9392505050565b60608247101561053a5760405162461bcd60e51b815260206004820152602660248201527f416464726573733a20696e73756666696369656e742062616c616e636520666f6044820152651c8818d85b1b60d21b6064820152608401610151565b6001600160a01b0385163b6105915760405162461bcd60e51b815260206004820152601d60248201527f416464726573733a2063616c6c20746f206e6f6e2d636f6e74726163740000006044820152606401610151565b600080866001600160a01b031685876040516105ad91906106a2565b60006040518083038185875af1925050503d80600081146105ea576040519150601f19603f3d011682016040523d82523d6000602084013e6105ef565b606091505b50915091506105ff82828661060a565b979650505050505050565b606083156106195750816104d2565b8251156106295782518084602001fd5b8160405162461bcd60e51b815260040161015191906106be565b600060208284031215610654578081fd5b81356001600160a01b03811681146104d2578182fd5b60006020828403121561067b578081fd5b815180151581146104d2578182fd5b60006020828403121561069b578081fd5b5051919050565b600082516106b4818460208701610726565b9190910192915050565b60208152600082518060208401526106dd816040850160208701610726565b601f01601f19169190910160400192915050565b6020808252818101527f4f776e61626c653a2063616c6c6572206973206e6f7420746865206f776e6572604082015260600190565b60005b83811015610741578181015183820152602001610729565b83811115610750576000848401525b5050505056fea264697066735822122039e9cf149c6a5ba231ce894700448bf8667832bd0a11c6ad612178656663900664736f6c63430008040033",
  "devdoc": {
    "kind": "dev",
    "methods": {
      "owner()": {
        "details": "Returns the address of the current owner."
      },
      "renounceOwnership()": {
        "details": "Leaves the contract without owner. It will not be possible to call `onlyOwner` functions anymore. Can only be called by the current owner. NOTE: Renouncing ownership will leave the contract without an owner, thereby removing any functionality that is only available to the owner."
      },
      "transferOwnership(address)": {
        "details": "Transfers ownership of the contract to a new account (`newOwner`). Can only be called by the current owner."
      }
    },
    "version": 1
  },
  "userdoc": {
    "kind": "user",
    "methods": {},
    "version": 1
  },
  "storageLayout": {
    "storage": [
      {
        "astId": 37156,
        "contract": "@coti-cvi/contracts-cvi/contracts/KeepersFeeVault.sol:KeepersFeeVault",
        "label": "_owner",
        "offset": 0,
        "slot": "0",
        "type": "t_address"
      },
      {
        "astId": 2910,
        "contract": "@coti-cvi/contracts-cvi/contracts/KeepersFeeVault.sol:KeepersFeeVault",
        "label": "usdcToken",
        "offset": 0,
        "slot": "1",
        "type": "t_contract(IERC20)37957"
      },
      {
        "astId": 2912,
        "contract": "@coti-cvi/contracts-cvi/contracts/KeepersFeeVault.sol:KeepersFeeVault",
        "label": "extractor",
        "offset": 0,
        "slot": "2",
        "type": "t_address"
      }
    ],
    "types": {
      "t_address": {
        "encoding": "inplace",
        "label": "address",
        "numberOfBytes": "20"
      },
      "t_contract(IERC20)37957": {
        "encoding": "inplace",
        "label": "contract IERC20",
        "numberOfBytes": "20"
      }
    }
  }
}