{
  "address": "0x9Bf7ECA730b5aDeEc8E91A804e2209B4b27F4237",
  "abi": [
    {
      "anonymous": false,
      "inputs": [
        {
          "indexed": false,
          "internalType": "uint8",
          "name": "version",
          "type": "uint8"
        }
      ],
      "name": "Initialized",
      "type": "event"
    },
    {
      "inputs": [
        {
          "internalType": "contract IVolatilityToken",
          "name": "_volToken",
          "type": "address"
        },
        {
          "internalType": "bool",
          "name": "_isKeepers",
          "type": "bool"
        },
        {
          "internalType": "uint256",
          "name": "_volTokensAmount",
          "type": "uint256"
        },
        {
          "internalType": "uint256",
          "name": "_timeWindow",
          "type": "uint256"
        }
      ],
      "name": "calculatePreBurn",
      "outputs": [
        {
          "components": [
            {
              "internalType": "uint256",
              "name": "netBurnAmount",
              "type": "uint256"
            },
            {
              "internalType": "uint256",
              "name": "expectedUSDCAmount",
              "type": "uint256"
            },
            {
              "internalType": "uint256",
              "name": "closeFee",
              "type": "uint256"
            },
            {
              "internalType": "uint256",
              "name": "timeWindowFee",
              "type": "uint256"
            },
            {
              "internalType": "uint256",
              "name": "keepersFee",
              "type": "uint256"
            }
          ],
          "internalType": "struct IPlatformHelper.PreBurnResult",
          "name": "result",
          "type": "tuple"
        }
      ],
      "stateMutability": "view",
      "type": "function"
    },
    {
      "inputs": [
        {
          "internalType": "contract IVolatilityToken",
          "name": "_volToken",
          "type": "address"
        },
        {
          "internalType": "bool",
          "name": "_isKeepers",
          "type": "bool"
        },
        {
          "internalType": "uint256",
          "name": "_usdcAmount",
          "type": "uint256"
        },
        {
          "internalType": "uint256",
          "name": "_timeWindow",
          "type": "uint256"
        }
      ],
      "name": "calculatePreMint",
      "outputs": [
        {
          "components": [
            {
              "internalType": "uint256",
              "name": "netMintAmount",
              "type": "uint256"
            },
            {
              "internalType": "uint256",
              "name": "expectedVolTokensAmount",
              "type": "uint256"
            },
            {
              "internalType": "uint256",
              "name": "buyingPremiumFeePercentage",
              "type": "uint256"
            },
            {
              "internalType": "uint256",
              "name": "openPositionFee",
              "type": "uint256"
            },
            {
              "internalType": "uint256",
              "name": "buyingPremiumFee",
              "type": "uint256"
            },
            {
              "internalType": "uint256",
              "name": "timeWindowFee",
              "type": "uint256"
            },
            {
              "internalType": "uint256",
              "name": "keepersFee",
              "type": "uint256"
            }
          ],
          "internalType": "struct IPlatformHelper.PreMintResult",
          "name": "result",
          "type": "tuple"
        }
      ],
      "stateMutability": "view",
      "type": "function"
    },
    {
      "inputs": [],
      "name": "calculateStakingAPR",
      "outputs": [
        {
          "internalType": "uint256",
          "name": "apr",
          "type": "uint256"
        }
      ],
      "stateMutability": "view",
      "type": "function"
    },
    {
      "inputs": [
        {
          "internalType": "contract IVolatilityToken",
          "name": "_volToken",
          "type": "address"
        },
        {
          "internalType": "uint256",
          "name": "_requestId",
          "type": "uint256"
        },
        {
          "internalType": "bool",
          "name": "_isKeepers",
          "type": "bool"
        }
      ],
      "name": "checkBurnRequest",
      "outputs": [
        {
          "components": [
            {
              "internalType": "uint256",
              "name": "netBurnAmount",
              "type": "uint256"
            },
            {
              "internalType": "uint256",
              "name": "expectedUSDCAmount",
              "type": "uint256"
            },
            {
              "internalType": "uint256",
              "name": "closeFee",
              "type": "uint256"
            },
            {
              "internalType": "uint256",
              "name": "timePenaltyFee",
              "type": "uint256"
            },
            {
              "internalType": "uint256",
              "name": "keepersFee",
              "type": "uint256"
            }
          ],
          "internalType": "struct IPlatformHelper.CheckBurnResult",
          "name": "result",
          "type": "tuple"
        }
      ],
      "stateMutability": "view",
      "type": "function"
    },
    {
      "inputs": [
        {
          "internalType": "contract IVolatilityToken",
          "name": "_volToken",
          "type": "address"
        },
        {
          "internalType": "uint256",
          "name": "_requestId",
          "type": "uint256"
        },
        {
          "internalType": "bool",
          "name": "_isKeepers",
          "type": "bool"
        }
      ],
      "name": "checkMintRequest",
      "outputs": [
        {
          "components": [
            {
              "internalType": "uint256",
              "name": "netMintAmount",
              "type": "uint256"
            },
            {
              "internalType": "uint256",
              "name": "expectedVolTokensAmount",
              "type": "uint256"
            },
            {
              "internalType": "uint256",
              "name": "buyingPremiumFeePercentage",
              "type": "uint256"
            },
            {
              "internalType": "uint256",
              "name": "openPositionFee",
              "type": "uint256"
            },
            {
              "internalType": "uint256",
              "name": "buyingPremiumFee",
              "type": "uint256"
            },
            {
              "internalType": "uint256",
              "name": "timePenaltyFee",
              "type": "uint256"
            },
            {
              "internalType": "uint256",
              "name": "keepersFee",
              "type": "uint256"
            },
            {
              "internalType": "bool",
              "name": "insufficientLiquidity",
              "type": "bool"
            },
            {
              "internalType": "bool",
              "name": "insufficientSlippage",
              "type": "bool"
            }
          ],
          "internalType": "struct IPlatformHelper.CheckMintResult",
          "name": "result",
          "type": "tuple"
        }
      ],
      "stateMutability": "view",
      "type": "function"
    },
    {
      "inputs": [
        {
          "internalType": "contract IPlatform",
          "name": "_platform",
          "type": "address"
        }
      ],
      "name": "collateralRatio",
      "outputs": [
        {
          "internalType": "uint256",
          "name": "",
          "type": "uint256"
        }
      ],
      "stateMutability": "view",
      "type": "function"
    },
    {
      "inputs": [
        {
          "internalType": "uint256",
          "name": "_goviAmount",
          "type": "uint256"
        }
      ],
      "name": "convertGOVIToXGOVI",
      "outputs": [
        {
          "internalType": "uint256",
          "name": "xGOVIAmount",
          "type": "uint256"
        }
      ],
      "stateMutability": "view",
      "type": "function"
    },
    {
      "inputs": [
        {
          "internalType": "uint256",
          "name": "_xGOVIAmount",
          "type": "uint256"
        }
      ],
      "name": "convertXGOVIToGOVI",
      "outputs": [
        {
          "internalType": "uint256",
          "name": "goviAmount",
          "type": "uint256"
        }
      ],
      "stateMutability": "view",
      "type": "function"
    },
    {
      "inputs": [
        {
          "internalType": "contract IPlatform",
          "name": "_platform",
          "type": "address"
        }
      ],
      "name": "dailyFundingFee",
      "outputs": [
        {
          "internalType": "uint256",
          "name": "fundingFeePercent",
          "type": "uint256"
        }
      ],
      "stateMutability": "view",
      "type": "function"
    },
    {
      "inputs": [
        {
          "internalType": "contract IPlatform",
          "name": "_platform",
          "type": "address"
        },
        {
          "internalType": "uint32",
          "name": "_minCVI",
          "type": "uint32"
        },
        {
          "internalType": "uint32",
          "name": "_maxCVI",
          "type": "uint32"
        },
        {
          "internalType": "uint256",
          "name": "_minCollateral",
          "type": "uint256"
        },
        {
          "internalType": "uint256",
          "name": "_maxCollateral",
          "type": "uint256"
        }
      ],
      "name": "fundingFeeValues",
      "outputs": [
        {
          "internalType": "uint256[][]",
          "name": "fundingFeeRatePercent",
          "type": "uint256[][]"
        }
      ],
      "stateMutability": "view",
      "type": "function"
    },
    {
      "inputs": [
        {
          "internalType": "contract IERC20",
          "name": "_govi",
          "type": "address"
        },
        {
          "internalType": "contract IStaking",
          "name": "_staking",
          "type": "address"
        }
      ],
      "name": "initialize",
      "outputs": [],
      "stateMutability": "nonpayable",
      "type": "function"
    },
    {
      "inputs": [
        {
          "internalType": "contract IVolatilityToken",
          "name": "_volToken",
          "type": "address"
        }
      ],
      "name": "maxMintAmount",
      "outputs": [
        {
          "internalType": "uint256",
          "name": "maxAmount",
          "type": "uint256"
        }
      ],
      "stateMutability": "view",
      "type": "function"
    },
    {
      "inputs": [
        {
          "internalType": "contract IThetaVault",
          "name": "_thetaVault",
          "type": "address"
        }
      ],
      "name": "maxWithdrawAmount",
      "outputs": [
        {
          "internalType": "uint256",
          "name": "maxAmount",
          "type": "uint256"
        },
        {
          "internalType": "uint256",
          "name": "maxUSDCAmount",
          "type": "uint256"
        }
      ],
      "stateMutability": "view",
      "type": "function"
    },
    {
      "inputs": [
        {
          "internalType": "contract IPlatform",
          "name": "_platform",
          "type": "address"
        }
      ],
      "name": "premiumFeeCollateralRatio",
      "outputs": [
        {
          "internalType": "uint256",
          "name": "",
          "type": "uint256"
        }
      ],
      "stateMutability": "view",
      "type": "function"
    },
    {
      "inputs": [
        {
          "internalType": "address",
          "name": "_account",
          "type": "address"
        }
      ],
      "name": "stakedGOVI",
      "outputs": [
        {
          "internalType": "uint256",
          "name": "stakedAmount",
          "type": "uint256"
        },
        {
          "internalType": "uint256",
          "name": "share",
          "type": "uint256"
        }
      ],
      "stateMutability": "view",
      "type": "function"
    },
    {
      "inputs": [
        {
          "internalType": "contract IThetaVault",
          "name": "_thetaVault",
          "type": "address"
        }
      ],
      "name": "volTokenDexPrice",
      "outputs": [
        {
          "internalType": "uint256",
          "name": "",
          "type": "uint256"
        }
      ],
      "stateMutability": "view",
      "type": "function"
    },
    {
      "inputs": [
        {
          "internalType": "contract IVolatilityToken",
          "name": "_volToken",
          "type": "address"
        }
      ],
      "name": "volTokenIntrinsicPrice",
      "outputs": [
        {
          "internalType": "uint256",
          "name": "",
          "type": "uint256"
        }
      ],
      "stateMutability": "view",
      "type": "function"
    },
    {
      "inputs": [
        {
          "internalType": "contract IThetaVault",
          "name": "_thetaVault",
          "type": "address"
        },
        {
          "internalType": "uint256",
          "name": "_withdrawAmount",
          "type": "uint256"
        }
      ],
      "name": "willWithdrawSucceed",
      "outputs": [
        {
          "internalType": "bool",
          "name": "success",
          "type": "bool"
        }
      ],
      "stateMutability": "view",
      "type": "function"
    }
  ],
  "transactionHash": "0xa33180c6a308f5661d90fdf6d2f784ff1ad72dd1d359d0c3569f292a9a14b64e",
  "args": [],
  "numDeployments": 2,
  "solcInputHash": "c2ba4d0c07e4b54c5ad062b2b2a03c0c",
  "bytecode": "0x608060405234801561001057600080fd5b50615aa780620000216000396000f3fe608060405234801561001057600080fd5b50600436106101165760003560e01c80636c479457116100a2578063ca40742c11610071578063ca40742c146102d0578063e76740f8146102e3578063e7ab99d41461034c578063ea7f4e1f1461035f578063ea886bd11461037257600080fd5b80636c479457146102775780638e9345d21461028a578063ba3f6bd81461029d578063c988abec146102b057600080fd5b8063188e45b1116100e9578063188e45b1146102015780632c7d9c7a14610214578063485cc9551461022757806354c103941461023c5780636b522aa91461026457600080fd5b8063012b31a81461011b57806306823e5b146101445780630e5444e414610167578063115b8adf1461017d575b600080fd5b61012e6101293660046152fa565b610385565b60405161013b919061573a565b60405180910390f35b6101576101523660046152cf565b61043c565b604051901515815260200161013b565b61016f610636565b60405190815260200161013b565b61019061018b36600461533f565b610790565b60405161013b9190600061012082019050825182526020830151602083015260408301516040830152606083015160608301526080830151608083015260a083015160a083015260c083015160c083015260e0830151151560e0830152610100808401511515818401525092915050565b61016f61020f366004615431565b610b68565b61016f610222366004615431565b610ddc565b61023a61023536600461523d565b611031565b005b61024f61024a366004615205565b6110e1565b6040805192835260208301919091520161013b565b61016f610272366004615205565b611300565b61016f610285366004615205565b611555565b61016f610298366004615205565b61176e565b61024f6102ab366004615205565b6119d6565b6102c36102be366004615275565b611db3565b60405161013b9190615665565b61016f6102de366004615205565b6123d6565b6102f66102f13660046152fa565b6125bd565b60405161013b9190600060e082019050825182526020830151602083015260408301516040830152606083015160608301526080830151608083015260a083015160a083015260c083015160c083015292915050565b61016f61035a366004615205565b6127bc565b61016f61036d366004615205565b61297e565b61012e61038036600461533f565b612b43565b6103b76040518060a0016040528060008152602001600081526020016000815260200160008152602001600081525090565b60006103c38685612db1565b604084018190529091506103d790826159e7565b602083018190526103ec908790879086613129565b60808401819052606084018290526020840151909161040a916159e7565b61041491906159e7565b602083018190528190610427908661599c565b610431919061588e565b825250949350505050565b600080836001600160a01b03166361176a0e6040518163ffffffff1660e01b815260040160206040518083038186803b15801561047857600080fd5b505afa15801561048c573d6000803e3d6000fd5b505050506040513d601f19601f820116820180604052508101906104b09190615221565b6001600160a01b0316634bde38c86040518163ffffffff1660e01b815260040160206040518083038186803b1580156104e857600080fd5b505afa1580156104fc573d6000803e3d6000fd5b505050506040513d601f19601f820116820180604052508101906105209190615221565b90506000816001600160a01b0316632f811c226040518163ffffffff1660e01b815260040160206040518083038186803b15801561055d57600080fd5b505afa158015610571573d6000803e3d6000fd5b505050506040513d601f19601f820116820180604052508101906105959190615449565b90506000826001600160a01b0316638d4d7e316040518163ffffffff1660e01b815260040160206040518083038186803b1580156105d257600080fd5b505afa1580156105e6573d6000803e3d6000fd5b505050506040513d601f19601f8201168201806040525081019061060a9190615449565b9050610617868383613340565b9092509050610628868383886135b0565b101593505050505b92915050565b600080546001546040516370a0823160e01b81526001600160a01b0391821660048201528392620100009004909116906370a082319060240160206040518083038186803b15801561068757600080fd5b505afa15801561069b573d6000803e3d6000fd5b505050506040513d601f19601f820116820180604052508101906106bf9190615449565b90506000600160009054906101000a90046001600160a01b03166001600160a01b0316638f10369a6040518163ffffffff1660e01b815260040160206040518083038186803b15801561071157600080fd5b505afa158015610725573d6000803e3d6000fd5b505050506040513d601f19601f820116820180604052508101906107499190615449565b610756906201518061599c565b6107629061016d61599c565b9050811561078657816107776127108361599c565b610781919061588e565b610789565b60005b9250505090565b6107e3604051806101200160405280600081526020016000815260200160008152602001600081526020016000815260200160008152602001600081526020016000151581526020016000151581525090565b6107eb61517f565b60405163103a258b60e31b8152600481018590526001600160a01b038616906381d12c58906024016101206040518083038186803b15801561082c57600080fd5b505afa158015610840573d6000803e3d6000fd5b505050506040513d601f19601f8201168201806040525081019061086491906155b3565b61ffff166101008a0152151560e089015263ffffffff90811660c08901521660a08701525050506001600160a81b0316602083015260ff168082526001146108e85760405162461bcd60e51b8152602060048201526012602482015271125b9d985b1a59081c995c5d595cdd081a5960721b60448201526064015b60405180910390fd5b600061091c868584602001516001600160a81b03168560a001518660c0015161091191906159fe565b63ffffffff16613129565b60c08501526020830151909150610941908790869085906001600160a81b03166135fe565b60a0840181905260c084015160208401516109669084906001600160a81b03166159e7565b61097091906159e7565b61097a91906159e7565b835260208201516109959087906001600160a81b031661382f565b6040860152608085018190526060850182905284516001600160a81b03918216926109c19216906159e7565b6109cb91906159e7565b83526020820151606084015160808501516109f39289926001600160a81b0390911691614356565b151560e086015250506101008083015160408086015161ffff9092169091119185019190915280516318160ddd60e01b815290516000916001600160a01b038916916318160ddd91600480820192602092909190829003018186803b158015610a5b57600080fd5b505afa158015610a6f573d6000803e3d6000fd5b505050506040513d601f19601f82011682018060405250810190610a939190615449565b90506000610aa088614847565b9050600082118015610ab25750600081115b15610ada5784518190610ac690849061599c565b610ad0919061588e565b6020860152610b5d565b876001600160a01b0316638eb50a386040518163ffffffff1660e01b815260040160206040518083038186803b158015610b1357600080fd5b505afa158015610b27573d6000803e3d6000fd5b505050506040513d601f19601f82011682018060405250810190610b4b9190615449565b8551610b57919061599c565b60208601525b505050509392505050565b600080546001546040516370a0823160e01b81526001600160a01b0391821660048201528392620100009004909116906370a082319060240160206040518083038186803b158015610bb957600080fd5b505afa158015610bcd573d6000803e3d6000fd5b505050506040513d601f19601f82011682018060405250810190610bf19190615449565b90506000600160009054906101000a90046001600160a01b03166001600160a01b031663c8f33c916040518163ffffffff1660e01b815260040160206040518083038186803b158015610c4357600080fd5b505afa158015610c57573d6000803e3d6000fd5b505050506040513d601f19601f82011682018060405250810190610c7b9190615449565b610c8590426159e7565b600160009054906101000a90046001600160a01b03166001600160a01b0316638f10369a6040518163ffffffff1660e01b815260040160206040518083038186803b158015610cd357600080fd5b505afa158015610ce7573d6000803e3d6000fd5b505050506040513d601f19601f82011682018060405250810190610d0b9190615449565b610d15919061599c565b90506000600160009054906101000a90046001600160a01b03166001600160a01b03166318160ddd6040518163ffffffff1660e01b815260040160206040518083038186803b158015610d6757600080fd5b505afa158015610d7b573d6000803e3d6000fd5b505050506040513d601f19601f82011682018060405250810190610d9f9190615449565b90506000610dad8385615857565b1115610dd457610dbd8284615857565b610dc7828761599c565b610dd1919061588e565b93505b505050919050565b600080546001546040516370a0823160e01b81526001600160a01b0391821660048201528392620100009004909116906370a082319060240160206040518083038186803b158015610e2d57600080fd5b505afa158015610e41573d6000803e3d6000fd5b505050506040513d601f19601f82011682018060405250810190610e659190615449565b90506000600160009054906101000a90046001600160a01b03166001600160a01b031663c8f33c916040518163ffffffff1660e01b815260040160206040518083038186803b158015610eb757600080fd5b505afa158015610ecb573d6000803e3d6000fd5b505050506040513d601f19601f82011682018060405250810190610eef9190615449565b610ef990426159e7565b600160009054906101000a90046001600160a01b03166001600160a01b0316638f10369a6040518163ffffffff1660e01b815260040160206040518083038186803b158015610f4757600080fd5b505afa158015610f5b573d6000803e3d6000fd5b505050506040513d601f19601f82011682018060405250810190610f7f9190615449565b610f89919061599c565b90506000600160009054906101000a90046001600160a01b03166001600160a01b03166318160ddd6040518163ffffffff1660e01b815260040160206040518083038186803b158015610fdb57600080fd5b505afa158015610fef573d6000803e3d6000fd5b505050506040513d601f19601f820116820180604052508101906110139190615449565b90508015610dd45780856110278486615857565b610dc7919061599c565b600061103d6001614a19565b90508015611055576000805461ff0019166101001790555b6000805462010000600160b01b031916620100006001600160a01b038681169190910291909117909155600180546001600160a01b03191691841691909117905580156110dc576000805461ff0019169055604051600181527f7f26b83ff96e1f2b6a682f133852f6798a09c465da95921460cefb38474024989060200160405180910390a15b505050565b6001546040516370a0823160e01b81526001600160a01b03838116600483015260009283923092632c7d9c7a9216906370a082319060240160206040518083038186803b15801561113157600080fd5b505afa158015611145573d6000803e3d6000fd5b505050506040513d601f19601f820116820180604052508101906111699190615449565b6040518263ffffffff1660e01b815260040161118791815260200190565b60206040518083038186803b15801561119f57600080fd5b505afa1580156111b3573d6000803e3d6000fd5b505050506040513d601f19601f820116820180604052508101906111d79190615449565b915081156112fb57600160009054906101000a90046001600160a01b03166001600160a01b03166318160ddd6040518163ffffffff1660e01b815260040160206040518083038186803b15801561122d57600080fd5b505afa158015611241573d6000803e3d6000fd5b505050506040513d601f19601f820116820180604052508101906112659190615449565b6001546040516370a0823160e01b81526001600160a01b0386811660048301526127109216906370a082319060240160206040518083038186803b1580156112ac57600080fd5b505afa1580156112c0573d6000803e3d6000fd5b505050506040513d601f19601f820116820180604052508101906112e49190615449565b6112ee919061599c565b6112f8919061588e565b90505b915091565b6000816001600160a01b0316638d4d7e316040518163ffffffff1660e01b815260040160206040518083038186803b15801561133b57600080fd5b505afa15801561134f573d6000803e3d6000fd5b505050506040513d601f19601f820116820180604052508101906113739190615449565b6113805750612710919050565b816001600160a01b03166335a03bfa6040518163ffffffff1660e01b815260040160206040518083038186803b1580156113b957600080fd5b505afa1580156113cd573d6000803e3d6000fd5b505050506040513d601f19601f820116820180604052508101906113f19190615221565b6001600160a01b03166346b55fbb836001600160a01b0316638d4d7e316040518163ffffffff1660e01b815260040160206040518083038186803b15801561143857600080fd5b505afa15801561144c573d6000803e3d6000fd5b505050506040513d601f19601f820116820180604052508101906114709190615449565b846001600160a01b0316632f811c226040518163ffffffff1660e01b815260040160206040518083038186803b1580156114a957600080fd5b505afa1580156114bd573d6000803e3d6000fd5b505050506040513d601f19601f820116820180604052508101906114e19190615449565b6040516001600160e01b031960e085901b1681526004810192909252602482015260440160206040518083038186803b15801561151d57600080fd5b505afa158015611531573d6000803e3d6000fd5b505050506040513d601f19601f820116820180604052508101906106309190615449565b600080826001600160a01b0316636f7d78286040518163ffffffff1660e01b815260040160206040518083038186803b15801561159157600080fd5b505afa1580156115a5573d6000803e3d6000fd5b505050506040513d601f19601f820116820180604052508101906115c99190615221565b6001600160a01b031663c1639a2b6040518163ffffffff1660e01b815260040160606040518083038186803b15801561160157600080fd5b505afa158015611615573d6000803e3d6000fd5b505050506040513d601f19601f820116820180604052508101906116399190615549565b50509050826001600160a01b03166335a03bfa6040518163ffffffff1660e01b815260040160206040518083038186803b15801561167657600080fd5b505afa15801561168a573d6000803e3d6000fd5b505050506040513d601f19601f820116820180604052508101906116ae9190615221565b6001600160a01b0316631bffac9f60405180604001604052806201518081526020018463ffffffff168152506116e386611300565b6040516001600160e01b031960e085901b1681528251600482015260209092015163ffffffff1660248301526044820152606401604080518083038186803b15801561172e57600080fd5b505afa158015611742573d6000803e3d6000fd5b505050506040513d601f19601f8201168201806040525081019061176691906154c1565b949350505050565b600080826001600160a01b0316634bde38c86040518163ffffffff1660e01b815260040160206040518083038186803b1580156117aa57600080fd5b505afa1580156117be573d6000803e3d6000fd5b505050506040513d601f19601f820116820180604052508101906117e29190615221565b6001600160a01b0316636f7d78286040518163ffffffff1660e01b815260040160206040518083038186803b15801561181a57600080fd5b505afa15801561182e573d6000803e3d6000fd5b505050506040513d601f19601f820116820180604052508101906118529190615221565b6001600160a01b031663c1639a2b6040518163ffffffff1660e01b815260040160606040518083038186803b15801561188a57600080fd5b505afa15801561189e573d6000803e3d6000fd5b505050506040513d601f19601f820116820180604052508101906118c29190615549565b505090506000806118d7856000806000614356565b5091509150846001600160a01b0316634bde38c86040518163ffffffff1660e01b815260040160206040518083038186803b15801561191557600080fd5b505afa158015611929573d6000803e3d6000fd5b505050506040513d601f19601f8201168201806040525081019061194d9190615221565b6001600160a01b031663d934c20b6040518163ffffffff1660e01b815260040160206040518083038186803b15801561198557600080fd5b505afa158015611999573d6000803e3d6000fd5b505050506040513d601f19601f820116820180604052508101906119bd919061552d565b63ffffffff168363ffffffff16838361102791906159e7565b6000806000836001600160a01b031663ad7a672f6040518163ffffffff1660e01b815260040160c06040518083038186803b158015611a1457600080fd5b505afa158015611a28573d6000803e3d6000fd5b505050506040513d601f19601f82011682018060405250810190611a4c91906154e4565b505050505090506000846001600160a01b03166318160ddd6040518163ffffffff1660e01b815260040160206040518083038186803b158015611a8e57600080fd5b505afa158015611aa2573d6000803e3d6000fd5b505050506040513d601f19601f82011682018060405250810190611ac69190615449565b90506000856001600160a01b03166361176a0e6040518163ffffffff1660e01b815260040160206040518083038186803b158015611b0357600080fd5b505afa158015611b17573d6000803e3d6000fd5b505050506040513d601f19601f82011682018060405250810190611b3b9190615221565b6001600160a01b0316634bde38c86040518163ffffffff1660e01b815260040160206040518083038186803b158015611b7357600080fd5b505afa158015611b87573d6000803e3d6000fd5b505050506040513d601f19601f82011682018060405250810190611bab9190615221565b6001600160a01b0316638d4d7e316040518163ffffffff1660e01b815260040160206040518083038186803b158015611be357600080fd5b505afa158015611bf7573d6000803e3d6000fd5b505050506040513d601f19601f82011682018060405250810190611c1b9190615449565b90506000866001600160a01b03166361176a0e6040518163ffffffff1660e01b815260040160206040518083038186803b158015611c5857600080fd5b505afa158015611c6c573d6000803e3d6000fd5b505050506040513d601f19601f82011682018060405250810190611c909190615221565b6001600160a01b0316634bde38c86040518163ffffffff1660e01b815260040160206040518083038186803b158015611cc857600080fd5b505afa158015611cdc573d6000803e3d6000fd5b505050506040513d601f19601f82011682018060405250810190611d009190615221565b6001600160a01b0316632f811c226040518163ffffffff1660e01b815260040160206040518083038186803b158015611d3857600080fd5b505afa158015611d4c573d6000803e3d6000fd5b505050506040513d601f19601f82011682018060405250810190611d709190615449565b611d7a90836159e7565b905081611d87848361599c565b611d91919061588e565b955082611d9e858861599c565b611da8919061588e565b945050505050915091565b6060611dbf83836159e7565b611dca906001615857565b67ffffffffffffffff811115611df057634e487b7160e01b600052604160045260246000fd5b604051908082528060200260200182016040528015611e2357816020015b6060815260200190600190039081611e0e5790505b5090506000835b8381116123cb576000611e3d88886159fe565b611e4890600161586f565b63ffffffff1667ffffffffffffffff811115611e7457634e487b7160e01b600052604160045260246000fd5b604051908082528060200260200182016040528015611e9d578160200160208202803683370190505b5090506000808a6001600160a01b03166335a03bfa6040518163ffffffff1660e01b815260040160206040518083038186803b158015611edc57600080fd5b505afa158015611ef0573d6000803e3d6000fd5b505050506040513d601f19601f82011682018060405250810190611f149190615221565b6001600160a01b031663bb60672b6040518163ffffffff1660e01b815260040160206040518083038186803b158015611f4c57600080fd5b505afa158015611f60573d6000803e3d6000fd5b505050506040513d601f19601f82011682018060405250810190611f849190615599565b611f919060ff168b6159bb565b90505b8a6001600160a01b03166335a03bfa6040518163ffffffff1660e01b815260040160206040518083038186803b158015611fcd57600080fd5b505afa158015611fe1573d6000803e3d6000fd5b505050506040513d601f19601f820116820180604052508101906120059190615221565b6001600160a01b031663bb60672b6040518163ffffffff1660e01b815260040160206040518083038186803b15801561203d57600080fd5b505afa158015612051573d6000803e3d6000fd5b505050506040513d601f19601f820116820180604052508101906120759190615599565b6120829060ff168a6159bb565b63ffffffff168163ffffffff161161237b5760008b6001600160a01b03166335a03bfa6040518163ffffffff1660e01b815260040160206040518083038186803b1580156120cf57600080fd5b505afa1580156120e3573d6000803e3d6000fd5b505050506040513d601f19601f820116820180604052508101906121079190615221565b6001600160a01b0316631bffac9f604051806040016040528062015180815260200185606461213691906159bb565b63ffffffff1681525060648f6001600160a01b03166360ebfee66040518163ffffffff1660e01b815260040160206040518083038186803b15801561217a57600080fd5b505afa15801561218e573d6000803e3d6000fd5b505050506040513d601f19601f820116820180604052508101906121b29190615449565b6121bc908a61599c565b6121c6919061588e565b6040516001600160e01b031960e085901b1681528251600482015260209092015163ffffffff1660248301526044820152606401604080518083038186803b15801561221157600080fd5b505afa158015612225573d6000803e3d6000fd5b505050506040513d601f19601f8201168201806040525081019061224991906154c1565b9150508084848151811061226d57634e487b7160e01b600052603260045260246000fd5b6020908102919091010152612283600184615857565b9250508a6001600160a01b03166335a03bfa6040518163ffffffff1660e01b815260040160206040518083038186803b1580156122bf57600080fd5b505afa1580156122d3573d6000803e3d6000fd5b505050506040513d601f19601f820116820180604052508101906122f79190615221565b6001600160a01b031663bb60672b6040518163ffffffff1660e01b815260040160206040518083038186803b15801561232f57600080fd5b505afa158015612343573d6000803e3d6000fd5b505050506040513d601f19601f820116820180604052508101906123679190615599565b6123749060ff168261586f565b9050611f94565b508185858151811061239d57634e487b7160e01b600052603260045260246000fd5b60209081029190910101526123b3600185615857565b935050506001816123c49190615857565b9050611e2a565b505095945050505050565b6000816001600160a01b0316638d4d7e316040518163ffffffff1660e01b815260040160206040518083038186803b15801561241157600080fd5b505afa158015612425573d6000803e3d6000fd5b505050506040513d601f19601f820116820180604052508101906124499190615449565b6124565750612710919050565b816001600160a01b0316638d4d7e316040518163ffffffff1660e01b815260040160206040518083038186803b15801561248f57600080fd5b505afa1580156124a3573d6000803e3d6000fd5b505050506040513d601f19601f820116820180604052508101906124c79190615449565b826001600160a01b03166360ebfee66040518163ffffffff1660e01b815260040160206040518083038186803b15801561250057600080fd5b505afa158015612514573d6000803e3d6000fd5b505050506040513d601f19601f820116820180604052508101906125389190615449565b836001600160a01b0316632f811c226040518163ffffffff1660e01b815260040160206040518083038186803b15801561257157600080fd5b505afa158015612585573d6000803e3d6000fd5b505050506040513d601f19601f820116820180604052508101906125a99190615449565b6125b3919061599c565b610630919061588e565b6125fd6040518060e00160405280600081526020016000815260200160008152602001600081526020016000815260200160008152602001600081525090565b61260985858585613129565b60c0830181905260a083018290529061262290856159e7565b61262c91906159e7565b8152612638858461382f565b6040840152608083018190526060830182905282516001600160a81b0390911691612662916159e7565b61266c91906159e7565b8160000181815250506000856001600160a01b03166318160ddd6040518163ffffffff1660e01b815260040160206040518083038186803b1580156126b057600080fd5b505afa1580156126c4573d6000803e3d6000fd5b505050506040513d601f19601f820116820180604052508101906126e89190615449565b905060006126f587614847565b90506000821180156127075750600081115b1561272f578251819061271b90849061599c565b612725919061588e565b60208401526127b2565b866001600160a01b0316638eb50a386040518163ffffffff1660e01b815260040160206040518083038186803b15801561276857600080fd5b505afa15801561277c573d6000803e3d6000fd5b505050506040513d601f19601f820116820180604052508101906127a09190615449565b83516127ac919061599c565b60208401525b5050949350505050565b600080826001600160a01b03166318160ddd6040518163ffffffff1660e01b815260040160206040518083038186803b1580156127f857600080fd5b505afa15801561280c573d6000803e3d6000fd5b505050506040513d601f19601f820116820180604052508101906128309190615449565b116128695760405162461bcd60e51b81526020600482015260096024820152684e6f20737570706c7960b81b60448201526064016108df565b600061287483614847565b9050826001600160a01b03166318160ddd6040518163ffffffff1660e01b815260040160206040518083038186803b1580156128af57600080fd5b505afa1580156128c3573d6000803e3d6000fd5b505050506040513d601f19601f820116820180604052508101906128e79190615449565b836001600160a01b031663313ce5676040518163ffffffff1660e01b815260040160206040518083038186803b15801561292057600080fd5b505afa158015612934573d6000803e3d6000fd5b505050506040513d601f19601f820116820180604052508101906129589190615599565b61296390600a6158f1565b61296d908361599c565b612977919061588e565b9392505050565b6000806000836001600160a01b0316630902f1ac6040518163ffffffff1660e01b8152600401604080518083038186803b1580156129bb57600080fd5b505afa1580156129cf573d6000803e3d6000fd5b505050506040513d601f19601f820116820180604052508101906129f391906154c1565b91509150600082118015612a075750600081115b612a425760405162461bcd60e51b815260206004820152600c60248201526b4e6f206c697175696469747960a01b60448201526064016108df565b81846001600160a01b03166361176a0e6040518163ffffffff1660e01b815260040160206040518083038186803b158015612a7c57600080fd5b505afa158015612a90573d6000803e3d6000fd5b505050506040513d601f19601f82011682018060405250810190612ab49190615221565b6001600160a01b031663313ce5676040518163ffffffff1660e01b815260040160206040518083038186803b158015612aec57600080fd5b505afa158015612b00573d6000803e3d6000fd5b505050506040513d601f19601f82011682018060405250810190612b249190615599565b612b2f90600a6158f1565b612b39908361599c565b611766919061588e565b612b756040518060a0016040528060008152602001600081526020016000815260200160008152602001600081525090565b612b7d61517f565b60405163103a258b60e31b8152600481018590526001600160a01b038616906381d12c58906024016101206040518083038186803b158015612bbe57600080fd5b505afa158015612bd2573d6000803e3d6000fd5b505050506040513d601f19601f82011682018060405250810190612bf691906155b3565b50151560e089015263ffffffff90811660c08901521660a08701525050506001600160a81b0316602083015260ff16808252600214612c6c5760405162461bcd60e51b8152602060048201526012602482015271125b9d985b1a59081c995c5d595cdd081a5960721b60448201526064016108df565b6020810151604051631c70ca2960e01b81526001600160a81b0390911660048201526000906001600160a01b03871690631c70ca299060240160206040518083038186803b158015612cbd57600080fd5b505afa158015612cd1573d6000803e3d6000fd5b505050506040513d601f19601f82011682018060405250810190612cf59190615449565b90506000612d038783612db1565b60408601819052909150612d1790826159e7565b6020850152612d28878685846135fe565b8460600181815250506000612d51888787602001518760a001518860c0015161091191906159fe565b60808701819052606087015160208801519293509091612d729084906159e7565b612d7c91906159e7565b612d8691906159e7565b602086018190528290612d99908561599c565b612da3919061588e565b855250929695505050505050565b600080836001600160a01b03166318160ddd6040518163ffffffff1660e01b815260040160206040518083038186803b158015612ded57600080fd5b505afa158015612e01573d6000803e3d6000fd5b505050506040513d601f19601f82011682018060405250810190612e259190615449565b612e2e85614847565b612e38908561599c565b612e42919061588e565b915061271061ffff16846001600160a01b0316634bde38c86040518163ffffffff1660e01b815260040160206040518083038186803b158015612e8457600080fd5b505afa158015612e98573d6000803e3d6000fd5b505050506040513d601f19601f82011682018060405250810190612ebc9190615221565b6001600160a01b03166335a03bfa6040518163ffffffff1660e01b815260040160206040518083038186803b158015612ef457600080fd5b505afa158015612f08573d6000803e3d6000fd5b505050506040513d601f19601f82011682018060405250810190612f2c9190615221565b6040516315435d0560e31b815260006004820152600160248201526001600160a01b03919091169063aa1ae8289060440160206040518083038186803b158015612f7557600080fd5b505afa158015612f89573d6000803e3d6000fd5b505050506040513d601f19601f82011682018060405250810190612fad9190615417565b856001600160a01b0316634bde38c86040518163ffffffff1660e01b815260040160206040518083038186803b158015612fe657600080fd5b505afa158015612ffa573d6000803e3d6000fd5b505050506040513d601f19601f8201168201806040525081019061301e9190615221565b6001600160a01b03166335a03bfa6040518163ffffffff1660e01b815260040160206040518083038186803b15801561305657600080fd5b505afa15801561306a573d6000803e3d6000fd5b505050506040513d601f19601f8201168201806040525081019061308e9190615221565b6001600160a01b03166350e0942b6040518163ffffffff1660e01b815260040160206040518083038186803b1580156130c657600080fd5b505afa1580156130da573d6000803e3d6000fd5b505050506040513d601f19601f820116820180604052508101906130fe9190615417565b6131089190615831565b6131169061ffff168461599c565b613120919061588e565b90509250929050565b60008061271061ffff16866001600160a01b0316636a9d11196040518163ffffffff1660e01b815260040160206040518083038186803b15801561316c57600080fd5b505afa158015613180573d6000803e3d6000fd5b505050506040513d601f19601f820116820180604052508101906131a49190615221565b6001600160a01b031663051a497b856040518263ffffffff1660e01b81526004016131d191815260200190565b60206040518083038186803b1580156131e957600080fd5b505afa1580156131fd573d6000803e3d6000fd5b505050506040513d601f19601f820116820180604052508101906132219190615417565b61322f9061ffff168661599c565b613239919061588e565b915084613247576000613335565b856001600160a01b0316636a9d11196040518163ffffffff1660e01b815260040160206040518083038186803b15801561328057600080fd5b505afa158015613294573d6000803e3d6000fd5b505050506040513d601f19601f820116820180604052508101906132b89190615221565b6001600160a01b031663591b36f7856040518263ffffffff1660e01b81526004016132e591815260200190565b60206040518083038186803b1580156132fd57600080fd5b505afa158015613311573d6000803e3d6000fd5b505050506040513d601f19601f820116820180604052508101906133359190615449565b905094509492505050565b600080600061271061ffff16866001600160a01b031663293d09156040518163ffffffff1660e01b815260040160206040518083038186803b15801561338557600080fd5b505afa158015613399573d6000803e3d6000fd5b505050506040513d601f19601f820116820180604052508101906133bd9190615417565b6133c990612710615831565b6133d79061ffff168761599c565b6133e1919061588e565b9050808411156134215760006133f782866159e7565b9050613404868683614aa6565b909450925061341587858584614abd565b90945092506135a79050565b600061342d85836159e7565b90506000806000896001600160a01b031663ad7a672f6040518163ffffffff1660e01b815260040160c06040518083038186803b15801561346d57600080fd5b505afa158015613481573d6000803e3d6000fd5b505050506040513d601f19601f820116820180604052508101906134a591906154e4565b5094505093505092508381836134bb9190615857565b1180156135685750896001600160a01b0316637b5d6fe36040518163ffffffff1660e01b815260040160206040518083038186803b1580156134fc57600080fd5b505afa158015613510573d6000803e3d6000fd5b505050506040513d601f19601f820116820180604052508101906135349190615417565b61ffff1683612710866135478587615857565b61355191906159e7565b61355b919061599c565b613565919061588e565b10155b156135a25760008061357a8c87614afb565b9150915061358a8b8b8484614e38565b909950975061359a898988614e51565b909950975050505b505050505b50935093915050565b60008060006135bf8785614e5e565b90506000806135ce8987614afb565b915091506135de88888484614e38565b90955093506135ee858585614aa6565b909a909950975050505050505050565b6000831580156137165750846001600160a01b0316636a9d11196040518163ffffffff1660e01b815260040160206040518083038186803b15801561364257600080fd5b505afa158015613656573d6000803e3d6000fd5b505050506040513d601f19601f8201168201806040525081019061367a9190615221565b6001600160a01b031663ce521f266040518163ffffffff1660e01b815260040160206040518083038186803b1580156136b257600080fd5b505afa1580156136c6573d6000803e3d6000fd5b505050506040513d601f19601f820116820180604052508101906136ea919061552d565b8360a001516136f9919061586f565b63ffffffff164211801561371657508260c0015163ffffffff1642105b156117665761271061ffff16856001600160a01b0316636a9d11196040518163ffffffff1660e01b815260040160206040518083038186803b15801561375b57600080fd5b505afa15801561376f573d6000803e3d6000fd5b505050506040513d601f19601f820116820180604052508101906137939190615221565b6001600160a01b031663956872ca856040518263ffffffff1660e01b81526004016137be9190615773565b60206040518083038186803b1580156137d657600080fd5b505afa1580156137ea573d6000803e3d6000fd5b505050506040513d601f19601f8201168201806040525081019061380e9190615417565b61381c9061ffff168461599c565b613826919061588e565b95945050505050565b600080600061271061ffff16856001600160a01b0316632c86d98e6040518163ffffffff1660e01b815260040160206040518083038186803b15801561387457600080fd5b505afa158015613888573d6000803e3d6000fd5b505050506040513d601f19601f820116820180604052508101906138ac9190615599565b60ff16866001600160a01b0316634bde38c86040518163ffffffff1660e01b815260040160206040518083038186803b1580156138e857600080fd5b505afa1580156138fc573d6000803e3d6000fd5b505050506040513d601f19601f820116820180604052508101906139209190615221565b6001600160a01b03166335a03bfa6040518163ffffffff1660e01b815260040160206040518083038186803b15801561395857600080fd5b505afa15801561396c573d6000803e3d6000fd5b505050506040513d601f19601f820116820180604052508101906139909190615221565b6001600160a01b031663a2028d976040518163ffffffff1660e01b815260040160206040518083038186803b1580156139c857600080fd5b505afa1580156139dc573d6000803e3d6000fd5b505050506040513d601f19601f82011682018060405250810190613a009190615417565b613a0e9061ffff168761599c565b613a18919061599c565b613a22919061588e565b92506000856001600160a01b0316634bde38c86040518163ffffffff1660e01b815260040160206040518083038186803b158015613a5f57600080fd5b505afa158015613a73573d6000803e3d6000fd5b505050506040513d601f19601f82011682018060405250810190613a979190615221565b6001600160a01b0316636f7d78286040518163ffffffff1660e01b815260040160206040518083038186803b158015613acf57600080fd5b505afa158015613ae3573d6000803e3d6000fd5b505050506040513d601f19601f82011682018060405250810190613b079190615221565b6001600160a01b031663c1639a2b6040518163ffffffff1660e01b815260040160606040518083038186803b158015613b3f57600080fd5b505afa158015613b53573d6000803e3d6000fd5b505050506040513d601f19601f82011682018060405250810190613b779190615549565b505090506000866001600160a01b0316634bde38c86040518163ffffffff1660e01b815260040160206040518083038186803b158015613bb657600080fd5b505afa158015613bca573d6000803e3d6000fd5b505050506040513d601f19601f82011682018060405250810190613bee9190615221565b6001600160a01b0316638d4d7e316040518163ffffffff1660e01b815260040160206040518083038186803b158015613c2657600080fd5b505afa158015613c3a573d6000803e3d6000fd5b505050506040513d601f19601f82011682018060405250810190613c5e9190615449565b90506000876001600160a01b0316634bde38c86040518163ffffffff1660e01b815260040160206040518083038186803b158015613c9b57600080fd5b505afa158015613caf573d6000803e3d6000fd5b505050506040513d601f19601f82011682018060405250810190613cd39190615221565b6001600160a01b0316632f811c226040518163ffffffff1660e01b815260040160206040518083038186803b158015613d0b57600080fd5b505afa158015613d1f573d6000803e3d6000fd5b505050506040513d601f19601f82011682018060405250810190613d439190615449565b905060008363ffffffff16896001600160a01b0316634bde38c86040518163ffffffff1660e01b815260040160206040518083038186803b158015613d8757600080fd5b505afa158015613d9b573d6000803e3d6000fd5b505050506040513d601f19601f82011682018060405250810190613dbf9190615221565b6001600160a01b031663d934c20b6040518163ffffffff1660e01b815260040160206040518083038186803b158015613df757600080fd5b505afa158015613e0b573d6000803e3d6000fd5b505050506040513d601f19601f82011682018060405250810190613e2f919061552d565b63ffffffff168a6001600160a01b0316632c86d98e6040518163ffffffff1660e01b815260040160206040518083038186803b158015613e6e57600080fd5b505afa158015613e82573d6000803e3d6000fd5b505050506040513d601f19601f82011682018060405250810190613ea69190615599565b60ff16613eb38a8c6159e7565b613ebd919061599c565b613ec7919061599c565b613ed1919061588e565b90506000818a6001600160a01b0316634bde38c86040518163ffffffff1660e01b815260040160206040518083038186803b158015613f0f57600080fd5b505afa158015613f23573d6000803e3d6000fd5b505050506040513d601f19601f82011682018060405250810190613f479190615221565b6001600160a01b0316632f811c226040518163ffffffff1660e01b815260040160206040518083038186803b158015613f7f57600080fd5b505afa158015613f93573d6000803e3d6000fd5b505050506040513d601f19601f82011682018060405250810190613fb79190615449565b613fc19190615857565b905060008a6001600160a01b0316632c86d98e6040518163ffffffff1660e01b815260040160206040518083038186803b158015613ffe57600080fd5b505afa158015614012573d6000803e3d6000fd5b505050506040513d601f19601f820116820180604052508101906140369190615599565b60ff166140438a8c6159e7565b61404d919061599c565b8b6001600160a01b0316634bde38c86040518163ffffffff1660e01b815260040160206040518083038186803b15801561408657600080fd5b505afa15801561409a573d6000803e3d6000fd5b505050506040513d601f19601f820116820180604052508101906140be9190615221565b6001600160a01b0316638d4d7e316040518163ffffffff1660e01b815260040160206040518083038186803b1580156140f657600080fd5b505afa15801561410a573d6000803e3d6000fd5b505050506040513d601f19601f8201168201806040525081019061412e9190615449565b6141389190615857565b90508a6001600160a01b0316634bde38c86040518163ffffffff1660e01b815260040160206040518083038186803b15801561417357600080fd5b505afa158015614187573d6000803e3d6000fd5b505050506040513d601f19601f820116820180604052508101906141ab9190615221565b6001600160a01b03166335a03bfa6040518163ffffffff1660e01b815260040160206040518083038186803b1580156141e357600080fd5b505afa1580156141f7573d6000803e3d6000fd5b505050506040513d601f19601f8201168201806040525081019061421b9190615221565b6001600160a01b0316631437d6d48b8d6001600160a01b0316632c86d98e6040518163ffffffff1660e01b815260040160206040518083038186803b15801561426357600080fd5b505afa158015614277573d6000803e3d6000fd5b505050506040513d601f19601f8201168201806040525081019061429b9190615599565b6040516001600160e01b031960e085901b1681526001600160a81b03909216600483015260ff16602482015260448101889052606481018790526084810184905260a4810185905260c401604080518083038186803b1580156142fd57600080fd5b505afa158015614311573d6000803e3d6000fd5b505050506040513d601f19601f820116820180604052508101906143359190615380565b999c6001600160a81b039091169b5061ffff90991699505050505050505050565b600080600080876001600160a01b0316634bde38c86040518163ffffffff1660e01b815260040160206040518083038186803b15801561439557600080fd5b505afa1580156143a9573d6000803e3d6000fd5b505050506040513d601f19601f820116820180604052508101906143cd9190615221565b6001600160a01b0316636f7d78286040518163ffffffff1660e01b815260040160206040518083038186803b15801561440557600080fd5b505afa158015614419573d6000803e3d6000fd5b505050506040513d601f19601f8201168201806040525081019061443d9190615221565b6001600160a01b031663c1639a2b6040518163ffffffff1660e01b815260040160606040518083038186803b15801561447557600080fd5b505afa158015614489573d6000803e3d6000fd5b505050506040513d601f19601f820116820180604052508101906144ad9190615549565b505090506000886001600160a01b0316632c86d98e6040518163ffffffff1660e01b815260040160206040518083038186803b1580156144ec57600080fd5b505afa158015614500573d6000803e3d6000fd5b505050506040513d601f19601f820116820180604052508101906145249190615599565b60ff1686614532898b6159e7565b61453c91906159e7565b614546919061599c565b905060008263ffffffff168a6001600160a01b0316634bde38c86040518163ffffffff1660e01b815260040160206040518083038186803b15801561458a57600080fd5b505afa15801561459e573d6000803e3d6000fd5b505050506040513d601f19601f820116820180604052508101906145c29190615221565b6001600160a01b031663d934c20b6040518163ffffffff1660e01b815260040160206040518083038186803b1580156145fa57600080fd5b505afa15801561460e573d6000803e3d6000fd5b505050506040513d601f19601f82011682018060405250810190614632919061552d565b6146429063ffffffff168461599c565b61464c919061588e565b9050808a6001600160a01b0316634bde38c86040518163ffffffff1660e01b815260040160206040518083038186803b15801561468857600080fd5b505afa15801561469c573d6000803e3d6000fd5b505050506040513d601f19601f820116820180604052508101906146c09190615221565b6001600160a01b0316632f811c226040518163ffffffff1660e01b815260040160206040518083038186803b1580156146f857600080fd5b505afa15801561470c573d6000803e3d6000fd5b505050506040513d601f19601f820116820180604052508101906147309190615449565b61473a9190615857565b955086828b6001600160a01b0316634bde38c86040518163ffffffff1660e01b815260040160206040518083038186803b15801561477757600080fd5b505afa15801561478b573d6000803e3d6000fd5b505050506040513d601f19601f820116820180604052508101906147af9190615221565b6001600160a01b0316638d4d7e316040518163ffffffff1660e01b815260040160206040518083038186803b1580156147e757600080fd5b505afa1580156147fb573d6000803e3d6000fd5b505050506040513d601f19601f8201168201806040525081019061481f9190615449565b6148299190615857565b6148339190615857565b945084861193505050509450945094915050565b600080826001600160a01b0316634bde38c86040518163ffffffff1660e01b815260040160206040518083038186803b15801561488357600080fd5b505afa158015614897573d6000803e3d6000fd5b505050506040513d601f19601f820116820180604052508101906148bb9190615221565b60405163055f575160e41b81526001600160a01b038581166004830152919250600191600091908416906355f575109060240160a06040518083038186803b15801561490657600080fd5b505afa15801561491a573d6000803e3d6000fd5b505050506040513d601f19601f8201168201806040525081019061493e91906153a9565b505050506001600160a81b03169050806000146149d9576040516329b2a60b60e21b81526001600160a01b03868116600483015284169063a6ca982c9060240160c06040518083038186803b15801561499657600080fd5b505afa1580156149aa573d6000803e3d6000fd5b505050506040513d601f19601f820116820180604052508101906149ce9190615461565b509397509194505050505b81610dd45760405162461bcd60e51b815260206004820152601060248201526f4e656761746976652062616c616e636560801b60448201526064016108df565b60008054610100900460ff1615614a60578160ff166001148015614a3c5750303b155b614a585760405162461bcd60e51b81526004016108df906156ec565b506000919050565b60005460ff808416911610614a875760405162461bcd60e51b81526004016108df906156ec565b506000805460ff191660ff92909216919091179055600190565b919050565b826000614ab383856159e7565b9050935093915050565b6000806000614acc8785614e5e565b9050600080614adb8987614afb565b91509150614aea888885614e51565b90955093506135ee85858484615166565b6000806000846001600160a01b03166361176a0e6040518163ffffffff1660e01b815260040160206040518083038186803b158015614b3957600080fd5b505afa158015614b4d573d6000803e3d6000fd5b505050506040513d601f19601f82011682018060405250810190614b719190615221565b90506000816001600160a01b0316634bde38c86040518163ffffffff1660e01b815260040160206040518083038186803b158015614bae57600080fd5b505afa158015614bc2573d6000803e3d6000fd5b505050506040513d601f19601f82011682018060405250810190614be69190615221565b90506000866001600160a01b03166318160ddd6040518163ffffffff1660e01b815260040160206040518083038186803b158015614c2357600080fd5b505afa158015614c37573d6000803e3d6000fd5b505050506040513d601f19601f82011682018060405250810190614c5b9190615449565b90506000836001600160a01b03166318160ddd6040518163ffffffff1660e01b815260040160206040518083038186803b158015614c9857600080fd5b505afa158015614cac573d6000803e3d6000fd5b505050506040513d601f19601f82011682018060405250810190614cd09190615449565b90506000886001600160a01b0316630902f1ac6040518163ffffffff1660e01b8152600401604080518083038186803b158015614d0c57600080fd5b505afa158015614d20573d6000803e3d6000fd5b505050506040513d601f19601f82011682018060405250810190614d4491906154c1565b509050600083614d54838b61599c565b614d5e919061588e565b90506000614d6b87614847565b60405163055f575160e41b81526001600160a01b0389811660048301529192506000918816906355f575109060240160a06040518083038186803b158015614db257600080fd5b505afa158015614dc6573d6000803e3d6000fd5b505050506040513d601f19601f82011682018060405250810190614dea91906153a9565b505050506001600160a81b03169050848184614e06919061599c565b614e10919061588e565b995084614e1d848461599c565b614e27919061588e565b985050505050505050509250929050565b600080614e4584876159e7565b915061333583866159e7565b826000614ab38385615857565b600080836001600160a01b03166361176a0e6040518163ffffffff1660e01b815260040160206040518083038186803b158015614e9a57600080fd5b505afa158015614eae573d6000803e3d6000fd5b505050506040513d601f19601f82011682018060405250810190614ed29190615221565b6001600160a01b0316634bde38c86040518163ffffffff1660e01b815260040160206040518083038186803b158015614f0a57600080fd5b505afa158015614f1e573d6000803e3d6000fd5b505050506040513d601f19601f82011682018060405250810190614f429190615221565b90506000846001600160a01b03166318160ddd6040518163ffffffff1660e01b815260040160206040518083038186803b158015614f7f57600080fd5b505afa158015614f93573d6000803e3d6000fd5b505050506040513d601f19601f82011682018060405250810190614fb79190615449565b6040516370a0823160e01b81526001600160a01b0387811660048301529192506000918416906370a082319060240160206040518083038186803b158015614ffe57600080fd5b505afa158015615012573d6000803e3d6000fd5b505050506040513d601f19601f820116820180604052508101906150369190615449565b9050600082615045838861599c565b61504f919061588e565b604051630d9c362960e41b8152600160048201529091506000906001600160a01b0386169063d9c362909060240160206040518083038186803b15801561509557600080fd5b505afa1580156150a9573d6000803e3d6000fd5b505050506040513d601f19601f820116820180604052508101906150cd9190615449565b90506000856001600160a01b03166318160ddd6040518163ffffffff1660e01b815260040160206040518083038186803b15801561510a57600080fd5b505afa15801561511e573d6000803e3d6000fd5b505050506040513d601f19601f820116820180604052508101906151429190615449565b90508061514f838561599c565b615159919061588e565b9998505050505050505050565b6000806151738487615857565b91506133358386615857565b6040805161012081018252600080825260208201819052918101829052606081018290526080810182905260a0810182905260c0810182905260e0810182905261010081019190915290565b80516001600160a81b0381168114614aa157600080fd5b805161ffff81168114614aa157600080fd5b805160ff81168114614aa157600080fd5b600060208284031215615216578081fd5b813561297781615a39565b600060208284031215615232578081fd5b815161297781615a39565b6000806040838503121561524f578081fd5b823561525a81615a39565b9150602083013561526a81615a39565b809150509250929050565b600080600080600060a0868803121561528c578081fd5b853561529781615a39565b945060208601356152a781615a5f565b935060408601356152b781615a5f565b94979396509394606081013594506080013592915050565b600080604083850312156152e1578182fd5b82356152ec81615a39565b946020939093013593505050565b6000806000806080858703121561530f578182fd5b843561531a81615a39565b9350602085013561532a81615a51565b93969395505050506040820135916060013590565b600080600060608486031215615353578081fd5b833561535e81615a39565b925060208401359150604084013561537581615a51565b809150509250925092565b60008060408385031215615392578182fd5b61539b836151cb565b9150613120602084016151e2565b600080600080600060a086880312156153c0578283fd5b6153c9866151cb565b94506153d7602087016151f4565b935060408601516153e781615a5f565b60608701519093506153f881615a5f565b608087015190925061540981615a5f565b809150509295509295909350565b600060208284031215615428578081fd5b612977826151e2565b600060208284031215615442578081fd5b5035919050565b60006020828403121561545a578081fd5b5051919050565b60008060008060008060c08789031215615479578384fd5b86519550602087015161548b81615a51565b9450615499604088016151cb565b93506154a7606088016151f4565b92506080870151915060a087015190509295509295509295565b600080604083850312156154d3578182fd5b505080516020909101519092909150565b60008060008060008060c087890312156154fc578384fd5b865195506020870151945060408701519350606087015192506080870151915060a087015190509295509295509295565b60006020828403121561553e578081fd5b815161297781615a5f565b60008060006060848603121561555d578081fd5b835161556881615a5f565b602085015190935069ffffffffffffffffffff81168114615587578182fd5b80925050604084015190509250925092565b6000602082840312156155aa578081fd5b612977826151f4565b60008060008060008060008060006101208a8c0312156155d1578687fd5b6155da8a6151f4565b98506155e860208b016151cb565b97506155f660408b016151e2565b965061560460608b016151e2565b955060808a015161561481615a39565b60a08b015190955061562581615a5f565b60c08b015190945061563681615a5f565b60e08b015190935061564781615a51565b91506156566101008b016151e2565b90509295985092959850929598565b6000602080830181845280855180835260408601915060408160051b8701019250838701855b828110156156df57878503603f19018452815180518087529087019087870190895b818110156156c9578351835292890192918901916001016156ad565b509096505050928501929085019060010161568b565b5092979650505050505050565b6020808252602e908201527f496e697469616c697a61626c653a20636f6e747261637420697320616c72656160408201526d191e481a5b9a5d1a585b1a5e995960921b606082015260800190565b60a08101610630828480518252602081015160208301526040810151604083015260608101516060830152608081015160808301525050565b815160ff1681526020808301516001600160a81b0316908201526040808301516101208301916157a89084018261ffff169052565b5060608301516157be606084018261ffff169052565b5060808301516157d960808401826001600160a01b03169052565b5060a08301516157f160a084018263ffffffff169052565b5060c083015161580960c084018263ffffffff169052565b5060e083015161581d60e084018215159052565b506101009283015161ffff16919092015290565b600061ffff80831681851680830382111561584e5761584e615a23565b01949350505050565b6000821982111561586a5761586a615a23565b500190565b600063ffffffff80831681851680830382111561584e5761584e615a23565b6000826158a957634e487b7160e01b81526012600452602481fd5b500490565b600181815b808511156158e95781600019048211156158cf576158cf615a23565b808516156158dc57918102915b93841c93908002906158b3565b509250929050565b600061297760ff84168360008261590a57506001610630565b8161591757506000610630565b816001811461592d576002811461593757615953565b6001915050610630565b60ff84111561594857615948615a23565b50506001821b610630565b5060208310610133831016604e8410600b8410161715615976575081810a610630565b61598083836158ae565b806000190482111561599457615994615a23565b029392505050565b60008160001904831182151516156159b6576159b6615a23565b500290565b600063ffffffff808316818516818304811182151516156159de576159de615a23565b02949350505050565b6000828210156159f9576159f9615a23565b500390565b600063ffffffff83811690831681811015615a1b57615a1b615a23565b039392505050565b634e487b7160e01b600052601160045260246000fd5b6001600160a01b0381168114615a4e57600080fd5b50565b8015158114615a4e57600080fd5b63ffffffff81168114615a4e57600080fdfea2646970667358221220bf0900e1e2b1f497dd80fd16de8acc5cacd27731a651e207b4b204455331a48464736f6c63430008040033",
  "devdoc": {
    "kind": "dev",
    "methods": {},
    "version": 1
  },
  "userdoc": {
    "kind": "user",
    "methods": {},
    "version": 1
  },
  "storageLayout": {
    "storage": [
      {
        "astId": 34444,
        "contract": "@coti-cvi/contracts-cvi/contracts/PlatformHelper.sol:PlatformHelper",
        "label": "_initialized",
        "offset": 0,
        "slot": "0",
        "type": "t_uint8"
      },
      {
        "astId": 34447,
        "contract": "@coti-cvi/contracts-cvi/contracts/PlatformHelper.sol:PlatformHelper",
        "label": "_initializing",
        "offset": 1,
        "slot": "0",
        "type": "t_bool"
      },
      {
        "astId": 6286,
        "contract": "@coti-cvi/contracts-cvi/contracts/PlatformHelper.sol:PlatformHelper",
        "label": "govi",
        "offset": 2,
        "slot": "0",
        "type": "t_contract(IERC20)38763"
      },
      {
        "astId": 6289,
        "contract": "@coti-cvi/contracts-cvi/contracts/PlatformHelper.sol:PlatformHelper",
        "label": "staking",
        "offset": 0,
        "slot": "1",
        "type": "t_contract(IStaking)18732"
      }
    ],
    "types": {
      "t_bool": {
        "encoding": "inplace",
        "label": "bool",
        "numberOfBytes": "1"
      },
      "t_contract(IERC20)38763": {
        "encoding": "inplace",
        "label": "contract IERC20",
        "numberOfBytes": "20"
      },
      "t_contract(IStaking)18732": {
        "encoding": "inplace",
        "label": "contract IStaking",
        "numberOfBytes": "20"
      },
      "t_uint8": {
        "encoding": "inplace",
        "label": "uint8",
        "numberOfBytes": "1"
      }
    }
  }
}