{
  "address": "0xF529bf21CEd3A5c387fE2286487fCAfcD5b1661C",
  "abi": [
    {
      "anonymous": false,
      "inputs": [
        {
          "indexed": true,
          "internalType": "address",
          "name": "owner",
          "type": "address"
        }
      ],
      "name": "DiscountMarkedAsUsed",
      "type": "event"
    },
    {
      "anonymous": false,
      "inputs": [
        {
          "indexed": false,
          "internalType": "uint256",
          "name": "prevValue",
          "type": "uint256"
        },
        {
          "indexed": false,
          "internalType": "uint256",
          "name": "newValue",
          "type": "uint256"
        }
      ],
      "name": "FreeOfChargeTokensWorthChanged",
      "type": "event"
    },
    {
      "anonymous": false,
      "inputs": [
        {
          "indexed": false,
          "internalType": "uint8",
          "name": "version",
          "type": "uint8"
        }
      ],
      "name": "Initialized",
      "type": "event"
    },
    {
      "anonymous": false,
      "inputs": [
        {
          "indexed": true,
          "internalType": "address",
          "name": "previousOwner",
          "type": "address"
        },
        {
          "indexed": true,
          "internalType": "address",
          "name": "newOwner",
          "type": "address"
        }
      ],
      "name": "OwnershipTransferred",
      "type": "event"
    },
    {
      "anonymous": false,
      "inputs": [
        {
          "indexed": false,
          "internalType": "uint16",
          "name": "prevValue",
          "type": "uint16"
        },
        {
          "indexed": false,
          "internalType": "uint16",
          "name": "newValue",
          "type": "uint16"
        }
      ],
      "name": "PremiumDiscountComponentChanged",
      "type": "event"
    },
    {
      "anonymous": false,
      "inputs": [
        {
          "indexed": false,
          "internalType": "contract ILProtectionDiscountNFTInterface",
          "name": "prevValue",
          "type": "address"
        },
        {
          "indexed": false,
          "internalType": "contract ILProtectionDiscountNFTInterface",
          "name": "newValue",
          "type": "address"
        }
      ],
      "name": "ProtectionDiscountNFTChanged",
      "type": "event"
    },
    {
      "anonymous": false,
      "inputs": [
        {
          "indexed": true,
          "internalType": "bytes32",
          "name": "role",
          "type": "bytes32"
        },
        {
          "indexed": true,
          "internalType": "bytes32",
          "name": "previousAdminRole",
          "type": "bytes32"
        },
        {
          "indexed": true,
          "internalType": "bytes32",
          "name": "newAdminRole",
          "type": "bytes32"
        }
      ],
      "name": "RoleAdminChanged",
      "type": "event"
    },
    {
      "anonymous": false,
      "inputs": [
        {
          "indexed": true,
          "internalType": "bytes32",
          "name": "role",
          "type": "bytes32"
        },
        {
          "indexed": true,
          "internalType": "address",
          "name": "account",
          "type": "address"
        },
        {
          "indexed": true,
          "internalType": "address",
          "name": "sender",
          "type": "address"
        }
      ],
      "name": "RoleGranted",
      "type": "event"
    },
    {
      "anonymous": false,
      "inputs": [
        {
          "indexed": true,
          "internalType": "bytes32",
          "name": "role",
          "type": "bytes32"
        },
        {
          "indexed": true,
          "internalType": "address",
          "name": "account",
          "type": "address"
        },
        {
          "indexed": true,
          "internalType": "address",
          "name": "sender",
          "type": "address"
        }
      ],
      "name": "RoleRevoked",
      "type": "event"
    },
    {
      "inputs": [],
      "name": "DEFAULT_ADMIN_ROLE",
      "outputs": [
        {
          "internalType": "bytes32",
          "name": "",
          "type": "bytes32"
        }
      ],
      "stateMutability": "view",
      "type": "function"
    },
    {
      "inputs": [],
      "name": "DISCOUNT_OPERATIONS_ROLE",
      "outputs": [
        {
          "internalType": "bytes32",
          "name": "",
          "type": "bytes32"
        }
      ],
      "stateMutability": "view",
      "type": "function"
    },
    {
      "inputs": [],
      "name": "MAX_PRECISION",
      "outputs": [
        {
          "internalType": "uint16",
          "name": "",
          "type": "uint16"
        }
      ],
      "stateMutability": "view",
      "type": "function"
    },
    {
      "inputs": [],
      "name": "enabled",
      "outputs": [
        {
          "internalType": "bool",
          "name": "",
          "type": "bool"
        }
      ],
      "stateMutability": "view",
      "type": "function"
    },
    {
      "inputs": [],
      "name": "freeOfChargeTokensWorth",
      "outputs": [
        {
          "internalType": "uint256",
          "name": "",
          "type": "uint256"
        }
      ],
      "stateMutability": "view",
      "type": "function"
    },
    {
      "inputs": [
        {
          "internalType": "address",
          "name": "_owner",
          "type": "address"
        }
      ],
      "name": "getDiscountDetails",
      "outputs": [
        {
          "components": [
            {
              "internalType": "enum DiscountNFTType",
              "name": "discountType",
              "type": "uint8"
            },
            {
              "internalType": "bool",
              "name": "isUsed",
              "type": "bool"
            },
            {
              "internalType": "uint16",
              "name": "premiumDiscountComponent",
              "type": "uint16"
            },
            {
              "internalType": "uint256",
              "name": "freeOfChargeTokensWorth",
              "type": "uint256"
            }
          ],
          "internalType": "struct DiscountNFTDetails",
          "name": "",
          "type": "tuple"
        }
      ],
      "stateMutability": "view",
      "type": "function"
    },
    {
      "inputs": [
        {
          "internalType": "bytes32",
          "name": "role",
          "type": "bytes32"
        }
      ],
      "name": "getRoleAdmin",
      "outputs": [
        {
          "internalType": "bytes32",
          "name": "",
          "type": "bytes32"
        }
      ],
      "stateMutability": "view",
      "type": "function"
    },
    {
      "inputs": [
        {
          "internalType": "bytes32",
          "name": "role",
          "type": "bytes32"
        },
        {
          "internalType": "address",
          "name": "account",
          "type": "address"
        }
      ],
      "name": "grantRole",
      "outputs": [],
      "stateMutability": "nonpayable",
      "type": "function"
    },
    {
      "inputs": [
        {
          "internalType": "bytes32",
          "name": "role",
          "type": "bytes32"
        },
        {
          "internalType": "address",
          "name": "account",
          "type": "address"
        }
      ],
      "name": "hasRole",
      "outputs": [
        {
          "internalType": "bool",
          "name": "",
          "type": "bool"
        }
      ],
      "stateMutability": "view",
      "type": "function"
    },
    {
      "inputs": [
        {
          "internalType": "address",
          "name": "_owner",
          "type": "address"
        },
        {
          "internalType": "contract ILProtectionDiscountNFTInterface",
          "name": "_protectionDiscountNFT",
          "type": "address"
        },
        {
          "internalType": "uint16",
          "name": "_premiumDiscountComponent",
          "type": "uint16"
        },
        {
          "internalType": "uint256",
          "name": "_freeOfChargeTokensWorth",
          "type": "uint256"
        },
        {
          "internalType": "bool",
          "name": "_enabled",
          "type": "bool"
        }
      ],
      "name": "initialize",
      "outputs": [],
      "stateMutability": "nonpayable",
      "type": "function"
    },
    {
      "inputs": [
        {
          "internalType": "address",
          "name": "_owner",
          "type": "address"
        }
      ],
      "name": "markDiscountAsUsed",
      "outputs": [],
      "stateMutability": "nonpayable",
      "type": "function"
    },
    {
      "inputs": [],
      "name": "owner",
      "outputs": [
        {
          "internalType": "address",
          "name": "",
          "type": "address"
        }
      ],
      "stateMutability": "view",
      "type": "function"
    },
    {
      "inputs": [],
      "name": "premiumDiscountComponent",
      "outputs": [
        {
          "internalType": "uint16",
          "name": "",
          "type": "uint16"
        }
      ],
      "stateMutability": "view",
      "type": "function"
    },
    {
      "inputs": [],
      "name": "renounceOwnership",
      "outputs": [],
      "stateMutability": "nonpayable",
      "type": "function"
    },
    {
      "inputs": [
        {
          "internalType": "bytes32",
          "name": "role",
          "type": "bytes32"
        },
        {
          "internalType": "address",
          "name": "account",
          "type": "address"
        }
      ],
      "name": "renounceRole",
      "outputs": [],
      "stateMutability": "nonpayable",
      "type": "function"
    },
    {
      "inputs": [
        {
          "internalType": "bytes32",
          "name": "role",
          "type": "bytes32"
        },
        {
          "internalType": "address",
          "name": "account",
          "type": "address"
        }
      ],
      "name": "revokeRole",
      "outputs": [],
      "stateMutability": "nonpayable",
      "type": "function"
    },
    {
      "inputs": [
        {
          "internalType": "bool",
          "name": "_enabled",
          "type": "bool"
        }
      ],
      "name": "setEnabled",
      "outputs": [],
      "stateMutability": "nonpayable",
      "type": "function"
    },
    {
      "inputs": [
        {
          "internalType": "uint256",
          "name": "_freeOfChargeTokensWorth",
          "type": "uint256"
        }
      ],
      "name": "setFreeOfChargeTokensWorth",
      "outputs": [],
      "stateMutability": "nonpayable",
      "type": "function"
    },
    {
      "inputs": [
        {
          "internalType": "uint16",
          "name": "_premiumDiscountComponent",
          "type": "uint16"
        }
      ],
      "name": "setPremiumDiscountComponent",
      "outputs": [],
      "stateMutability": "nonpayable",
      "type": "function"
    },
    {
      "inputs": [
        {
          "internalType": "contract ILProtectionDiscountNFTInterface",
          "name": "_newInstance",
          "type": "address"
        }
      ],
      "name": "setProtectionDiscountNFT",
      "outputs": [],
      "stateMutability": "nonpayable",
      "type": "function"
    },
    {
      "inputs": [
        {
          "internalType": "bytes4",
          "name": "interfaceId",
          "type": "bytes4"
        }
      ],
      "name": "supportsInterface",
      "outputs": [
        {
          "internalType": "bool",
          "name": "",
          "type": "bool"
        }
      ],
      "stateMutability": "view",
      "type": "function"
    },
    {
      "inputs": [
        {
          "internalType": "address",
          "name": "newOwner",
          "type": "address"
        }
      ],
      "name": "transferOwnership",
      "outputs": [],
      "stateMutability": "nonpayable",
      "type": "function"
    }
  ],
  "transactionHash": "0x9e28d9a2c54f26472c4d05e00526f73c67d0d6b85b933bbb86087c00ed43910d",
  "args": [],
  "numDeployments": 1,
  "solcInputHash": "3e38164a73c777cd780c57ef82a1826e",
  "bytecode": "0x608060405234801561001057600080fd5b50611407806100206000396000f3fe608060405234801561001057600080fd5b50600436106101425760003560e01c806389c9f0f8116100b8578063b5f8c9691161007c578063b5f8c969146102bf578063beea6f8e146102d4578063d22c8ce0146102e7578063d547741f146102fa578063f2fde38b1461030d578063f66f91dc1461032057600080fd5b806389c9f0f8146102565780638da5cb5b1461027657806391d1485414610291578063a217fddf146102a4578063aecd5676146102ac57600080fd5b80632f2ff15d1161010a5780632f2ff15d146101f0578063328d8f721461020357806336568abe14610216578063627c586b14610229578063715018a61461023257806373f599da1461023a57600080fd5b806301ffc9a7146101475780630fb832cf1461016f578063238dafe0146101a4578063248a9ca3146101b85780632b385bbb146101db575b600080fd5b61015a610155366004611102565b610333565b60405190151581526020015b60405180910390f35b6101967f444aff8f58950664e1203f8cf39d567bb56beaa29e3eb281c0e5033fa38795ce81565b604051908152602001610166565b60c95461015a90600160b01b900460ff1681565b6101966101c63660046110bb565b60009081526097602052604090206001015490565b6101ee6101e936600461101e565b61036a565b005b6101ee6101fe3660046110d3565b610489565b6101ee61021136600461109f565b6104b3565b6101ee6102243660046110d3565b6104dc565b61019660ca5481565b6101ee61055a565b61024361271081565b60405161ffff9091168152602001610166565b61026961026436600461101e565b6105c0565b60405161016691906112c7565b6033546040516001600160a01b039091168152602001610166565b61015a61029f3660046110d3565b610796565b610196600081565b6101ee6102ba36600461103a565b6107c1565b60c95461024390600160a01b900461ffff1681565b6101ee6102e236600461112a565b610884565b6101ee6102f53660046110bb565b610903565b6101ee6103083660046110d3565b61094f565b6101ee61031b36600461101e565b610974565b6101ee61032e36600461101e565b610a3f565b60006001600160e01b03198216637965db0b60e01b148061036457506301ffc9a760e01b6001600160e01b03198316145b92915050565b7f444aff8f58950664e1203f8cf39d567bb56beaa29e3eb281c0e5033fa38795ce61039481610ab3565b60c954600160b01b900460ff166103f25760405162461bcd60e51b815260206004820152601c60248201527f446973636f756e7420666561747572652069732064697361626c65640000000060448201526064015b60405180910390fd5b60c954604051631ce3ac5b60e21b81526001600160a01b0384811660048301529091169063738eb16c90602401600060405180830381600087803b15801561043957600080fd5b505af115801561044d573d6000803e3d6000fd5b50506040516001600160a01b03851692507f8f47dabc943dfbc0dfb0476be214b1ca5d0d9a7cf2a1246e49af10d9a9c701859150600090a25050565b6000828152609760205260409020600101546104a481610ab3565b6104ae8383610abd565b505050565b6104be600033610b43565b60c98054911515600160b01b0260ff60b01b19909216919091179055565b6001600160a01b038116331461054c5760405162461bcd60e51b815260206004820152602f60248201527f416363657373436f6e74726f6c3a2063616e206f6e6c792072656e6f756e636560448201526e103937b632b9903337b91039b2b63360891b60648201526084016103e9565b6105568282610ba7565b5050565b6033546001600160a01b031633146105b45760405162461bcd60e51b815260206004820181905260248201527f4f776e61626c653a2063616c6c6572206973206e6f7420746865206f776e657260448201526064016103e9565b6105be6000610c0e565b565b60408051608081018252600080825260208201819052918101829052606081019190915260c954600160b01b900460ff161580610606575060c9546001600160a01b0316155b1561063457505060408051608081018252600080825260208201819052918101829052606081019190915290565b60c954604051631f69565f60e01b81526001600160a01b0384811660048301526000928392839290911690631f69565f9060240160606040518083038186803b15801561068057600080fd5b505afa158015610694573d6000803e3d6000fd5b505050506040513d601f19601f820116820180604052508101906106b89190611144565b92509250925082600014806106cd5750826001145b6107195760405162461bcd60e51b815260206004820152601a60248201527f496e76616c696420646973636f756e74206e667420696e64657800000000000060448201526064016103e9565b60008261072857506000610739565b8361073557506001610739565b5060025b604051806080016040528082600281111561076457634e487b7160e01b600052602160045260246000fd5b8152921515602084015260c954600160a01b900461ffff16604084015260ca5460609093019290925250949350505050565b60009182526097602090815260408084206001600160a01b0393909316845291905290205460ff1690565b60006107cd6001610c60565b905080156107e5576000805461ff0019166101001790555b6107ee84610ced565b6107f786610d51565b60c9805460ca8590556001600160a01b0387166001600160b01b031990911617600160a01b61ffff8716021760ff60b01b1916600160b01b84151502179055801561087c576000805461ff0019169055604051600181527f7f26b83ff96e1f2b6a682f133852f6798a09c465da95921460cefb38474024989060200160405180910390a15b505050505050565b61088f600033610b43565b61089881610ced565b60c9546040805161ffff600160a01b9093048316815291831660208301527fe078b1b507a7d0f40fbfb1548da1cef0904ae17d24175d144848c50fe9203cdc910160405180910390a160c9805461ffff909216600160a01b0261ffff60a01b19909216919091179055565b61090e600033610b43565b60ca5460408051918252602082018390527ffb1c1e225b532aefd2bf1013395cf52acda4aa9b44ace8ea551130d01161aa6d910160405180910390a160ca55565b60008281526097602052604090206001015461096a81610ab3565b6104ae8383610ba7565b6033546001600160a01b031633146109ce5760405162461bcd60e51b815260206004820181905260248201527f4f776e61626c653a2063616c6c6572206973206e6f7420746865206f776e657260448201526064016103e9565b6001600160a01b038116610a335760405162461bcd60e51b815260206004820152602660248201527f4f776e61626c653a206e6577206f776e657220697320746865207a65726f206160448201526564647265737360d01b60648201526084016103e9565b610a3c81610c0e565b50565b610a4a600033610b43565b60c954604080516001600160a01b03928316815291831660208301527f082073b10f89d1873780be321b130ad98dda10baf34e0a9894b39ab172346bb8910160405180910390a160c980546001600160a01b0319166001600160a01b0392909216919091179055565b610a3c8133610b43565b610ac78282610796565b6105565760008281526097602090815260408083206001600160a01b03851684529091529020805460ff19166001179055610aff3390565b6001600160a01b0316816001600160a01b0316837f2f8788117e7eff1d82e926ec794901d17c78024a50270940304540a733656f0d60405160405180910390a45050565b610b4d8282610796565b61055657610b65816001600160a01b03166014610d93565b610b70836020610d93565b604051602001610b81929190611186565b60408051601f198184030181529082905262461bcd60e51b82526103e9916004016111fb565b610bb18282610796565b156105565760008281526097602090815260408083206001600160a01b0385168085529252808320805460ff1916905551339285917ff6391f5c32d9c69d2a47ea670b442974b53935d1edc7fd64eb21e047a839171b9190a45050565b603380546001600160a01b038381166001600160a01b0319831681179093556040519116919082907f8be0079c531659141344cd1fd0a4f28419497f9722a3daafe3b4186f6b6457e090600090a35050565b60008054610100900460ff1615610ca7578160ff166001148015610c835750303b155b610c9f5760405162461bcd60e51b81526004016103e99061122e565b506000919050565b60005460ff808416911610610cce5760405162461bcd60e51b81526004016103e99061122e565b506000805460ff191660ff92909216919091179055600190565b919050565b61271061ffff82161115610a3c5760405162461bcd60e51b815260206004820152602560248201527f7072656d69756d446973636f756e74436f6d706f6e656e74206f7574206f662060448201526472616e676560d81b60648201526084016103e9565b600054610100900460ff16610d785760405162461bcd60e51b81526004016103e99061127c565b610d80610f7c565b610d88610fab565b610a33600082610fd2565b60606000610da2836002611332565b610dad90600261131a565b67ffffffffffffffff811115610dd357634e487b7160e01b600052604160045260246000fd5b6040519080825280601f01601f191660200182016040528015610dfd576020820181803683370190505b509050600360fc1b81600081518110610e2657634e487b7160e01b600052603260045260246000fd5b60200101906001600160f81b031916908160001a905350600f60fb1b81600181518110610e6357634e487b7160e01b600052603260045260246000fd5b60200101906001600160f81b031916908160001a9053506000610e87846002611332565b610e9290600161131a565b90505b6001811115610f26576f181899199a1a9b1b9c1cb0b131b232b360811b85600f1660108110610ed457634e487b7160e01b600052603260045260246000fd5b1a60f81b828281518110610ef857634e487b7160e01b600052603260045260246000fd5b60200101906001600160f81b031916908160001a90535060049490941c93610f1f81611381565b9050610e95565b508315610f755760405162461bcd60e51b815260206004820181905260248201527f537472696e67733a20686578206c656e67746820696e73756666696369656e7460448201526064016103e9565b9392505050565b600054610100900460ff16610fa35760405162461bcd60e51b81526004016103e99061127c565b6105be610fdc565b600054610100900460ff166105be5760405162461bcd60e51b81526004016103e99061127c565b6105568282610abd565b600054610100900460ff166110035760405162461bcd60e51b81526004016103e99061127c565b6105be33610c0e565b803561ffff81168114610ce857600080fd5b60006020828403121561102f578081fd5b8135610f75816113ae565b600080600080600060a08688031215611051578081fd5b853561105c816113ae565b9450602086013561106c816113ae565b935061107a6040870161100c565b9250606086013591506080860135611091816113c3565b809150509295509295909350565b6000602082840312156110b0578081fd5b8135610f75816113c3565b6000602082840312156110cc578081fd5b5035919050565b600080604083850312156110e5578182fd5b8235915060208301356110f7816113ae565b809150509250929050565b600060208284031215611113578081fd5b81356001600160e01b031981168114610f75578182fd5b60006020828403121561113b578081fd5b610f758261100c565b600080600060608486031215611158578283fd5b83519250602084015161116a816113c3565b604085015190925061117b816113c3565b809150509250925092565b7f416363657373436f6e74726f6c3a206163636f756e74200000000000000000008152600083516111be816017850160208801611351565b7001034b99036b4b9b9b4b733903937b6329607d1b60179184019182015283516111ef816028840160208801611351565b01602801949350505050565b602081526000825180602084015261121a816040850160208701611351565b601f01601f19169190910160400192915050565b6020808252602e908201527f496e697469616c697a61626c653a20636f6e747261637420697320616c72656160408201526d191e481a5b9a5d1a585b1a5e995960921b606082015260800190565b6020808252602b908201527f496e697469616c697a61626c653a20636f6e7472616374206973206e6f74206960408201526a6e697469616c697a696e6760a81b606082015260800190565b81516080820190600381106112ec57634e487b7160e01b600052602160045260246000fd5b8083525060208301511515602083015261ffff60408401511660408301526060830151606083015292915050565b6000821982111561132d5761132d611398565b500190565b600081600019048311821515161561134c5761134c611398565b500290565b60005b8381101561136c578181015183820152602001611354565b8381111561137b576000848401525b50505050565b60008161139057611390611398565b506000190190565b634e487b7160e01b600052601160045260246000fd5b6001600160a01b0381168114610a3c57600080fd5b8015158114610a3c57600080fdfea2646970667358221220dfd930d03ebf804429c8898c2ea178055814b566b1457b2bf46158261117f1ae64736f6c63430008040033",
  "devdoc": {
    "kind": "dev",
    "methods": {
      "getRoleAdmin(bytes32)": {
        "details": "Returns the admin role that controls `role`. See {grantRole} and {revokeRole}. To change a role's admin, use {_setRoleAdmin}."
      },
      "grantRole(bytes32,address)": {
        "details": "Grants `role` to `account`. If `account` had not been already granted `role`, emits a {RoleGranted} event. Requirements: - the caller must have ``role``'s admin role."
      },
      "hasRole(bytes32,address)": {
        "details": "Returns `true` if `account` has been granted `role`."
      },
      "owner()": {
        "details": "Returns the address of the current owner."
      },
      "renounceOwnership()": {
        "details": "Leaves the contract without owner. It will not be possible to call `onlyOwner` functions anymore. Can only be called by the current owner. NOTE: Renouncing ownership will leave the contract without an owner, thereby removing any functionality that is only available to the owner."
      },
      "renounceRole(bytes32,address)": {
        "details": "Revokes `role` from the calling account. Roles are often managed via {grantRole} and {revokeRole}: this function's purpose is to provide a mechanism for accounts to lose their privileges if they are compromised (such as when a trusted device is misplaced). If the calling account had been revoked `role`, emits a {RoleRevoked} event. Requirements: - the caller must be `account`."
      },
      "revokeRole(bytes32,address)": {
        "details": "Revokes `role` from `account`. If `account` had been granted `role`, emits a {RoleRevoked} event. Requirements: - the caller must have ``role``'s admin role."
      },
      "supportsInterface(bytes4)": {
        "details": "See {IERC165-supportsInterface}."
      },
      "transferOwnership(address)": {
        "details": "Transfers ownership of the contract to a new account (`newOwner`). Can only be called by the current owner."
      }
    },
    "version": 1
  },
  "userdoc": {
    "kind": "user",
    "methods": {},
    "version": 1
  },
  "storageLayout": {
    "storage": [
      {
        "astId": 29805,
        "contract": "@coti-cvi/contracts-il/contracts/ILProtectionDiscountNFTController.sol:ILProtectionDiscountNFTController",
        "label": "_initialized",
        "offset": 0,
        "slot": "0",
        "type": "t_uint8"
      },
      {
        "astId": 29808,
        "contract": "@coti-cvi/contracts-il/contracts/ILProtectionDiscountNFTController.sol:ILProtectionDiscountNFTController",
        "label": "_initializing",
        "offset": 1,
        "slot": "0",
        "type": "t_bool"
      },
      {
        "astId": 32662,
        "contract": "@coti-cvi/contracts-il/contracts/ILProtectionDiscountNFTController.sol:ILProtectionDiscountNFTController",
        "label": "__gap",
        "offset": 0,
        "slot": "1",
        "type": "t_array(t_uint256)50_storage"
      },
      {
        "astId": 29685,
        "contract": "@coti-cvi/contracts-il/contracts/ILProtectionDiscountNFTController.sol:ILProtectionDiscountNFTController",
        "label": "_owner",
        "offset": 0,
        "slot": "51",
        "type": "t_address"
      },
      {
        "astId": 29797,
        "contract": "@coti-cvi/contracts-il/contracts/ILProtectionDiscountNFTController.sol:ILProtectionDiscountNFTController",
        "label": "__gap",
        "offset": 0,
        "slot": "52",
        "type": "t_array(t_uint256)49_storage"
      },
      {
        "astId": 32909,
        "contract": "@coti-cvi/contracts-il/contracts/ILProtectionDiscountNFTController.sol:ILProtectionDiscountNFTController",
        "label": "__gap",
        "offset": 0,
        "slot": "101",
        "type": "t_array(t_uint256)50_storage"
      },
      {
        "astId": 29301,
        "contract": "@coti-cvi/contracts-il/contracts/ILProtectionDiscountNFTController.sol:ILProtectionDiscountNFTController",
        "label": "_roles",
        "offset": 0,
        "slot": "151",
        "type": "t_mapping(t_bytes32,t_struct(RoleData)29296_storage)"
      },
      {
        "astId": 29600,
        "contract": "@coti-cvi/contracts-il/contracts/ILProtectionDiscountNFTController.sol:ILProtectionDiscountNFTController",
        "label": "__gap",
        "offset": 0,
        "slot": "152",
        "type": "t_array(t_uint256)49_storage"
      },
      {
        "astId": 25802,
        "contract": "@coti-cvi/contracts-il/contracts/ILProtectionDiscountNFTController.sol:ILProtectionDiscountNFTController",
        "label": "protectionDiscountNFT",
        "offset": 0,
        "slot": "201",
        "type": "t_contract(ILProtectionDiscountNFTInterface)28329"
      },
      {
        "astId": 25805,
        "contract": "@coti-cvi/contracts-il/contracts/ILProtectionDiscountNFTController.sol:ILProtectionDiscountNFTController",
        "label": "premiumDiscountComponent",
        "offset": 20,
        "slot": "201",
        "type": "t_uint16"
      },
      {
        "astId": 25808,
        "contract": "@coti-cvi/contracts-il/contracts/ILProtectionDiscountNFTController.sol:ILProtectionDiscountNFTController",
        "label": "enabled",
        "offset": 22,
        "slot": "201",
        "type": "t_bool"
      },
      {
        "astId": 25811,
        "contract": "@coti-cvi/contracts-il/contracts/ILProtectionDiscountNFTController.sol:ILProtectionDiscountNFTController",
        "label": "freeOfChargeTokensWorth",
        "offset": 0,
        "slot": "202",
        "type": "t_uint256"
      }
    ],
    "types": {
      "t_address": {
        "encoding": "inplace",
        "label": "address",
        "numberOfBytes": "20"
      },
      "t_array(t_uint256)49_storage": {
        "base": "t_uint256",
        "encoding": "inplace",
        "label": "uint256[49]",
        "numberOfBytes": "1568"
      },
      "t_array(t_uint256)50_storage": {
        "base": "t_uint256",
        "encoding": "inplace",
        "label": "uint256[50]",
        "numberOfBytes": "1600"
      },
      "t_bool": {
        "encoding": "inplace",
        "label": "bool",
        "numberOfBytes": "1"
      },
      "t_bytes32": {
        "encoding": "inplace",
        "label": "bytes32",
        "numberOfBytes": "32"
      },
      "t_contract(ILProtectionDiscountNFTInterface)28329": {
        "encoding": "inplace",
        "label": "contract ILProtectionDiscountNFTInterface",
        "numberOfBytes": "20"
      },
      "t_mapping(t_address,t_bool)": {
        "encoding": "mapping",
        "key": "t_address",
        "label": "mapping(address => bool)",
        "numberOfBytes": "32",
        "value": "t_bool"
      },
      "t_mapping(t_bytes32,t_struct(RoleData)29296_storage)": {
        "encoding": "mapping",
        "key": "t_bytes32",
        "label": "mapping(bytes32 => struct AccessControlUpgradeable.RoleData)",
        "numberOfBytes": "32",
        "value": "t_struct(RoleData)29296_storage"
      },
      "t_struct(RoleData)29296_storage": {
        "encoding": "inplace",
        "label": "struct AccessControlUpgradeable.RoleData",
        "members": [
          {
            "astId": 29293,
            "contract": "@coti-cvi/contracts-il/contracts/ILProtectionDiscountNFTController.sol:ILProtectionDiscountNFTController",
            "label": "members",
            "offset": 0,
            "slot": "0",
            "type": "t_mapping(t_address,t_bool)"
          },
          {
            "astId": 29295,
            "contract": "@coti-cvi/contracts-il/contracts/ILProtectionDiscountNFTController.sol:ILProtectionDiscountNFTController",
            "label": "adminRole",
            "offset": 0,
            "slot": "1",
            "type": "t_bytes32"
          }
        ],
        "numberOfBytes": "64"
      },
      "t_uint16": {
        "encoding": "inplace",
        "label": "uint16",
        "numberOfBytes": "2"
      },
      "t_uint256": {
        "encoding": "inplace",
        "label": "uint256",
        "numberOfBytes": "32"
      },
      "t_uint8": {
        "encoding": "inplace",
        "label": "uint8",
        "numberOfBytes": "1"
      }
    }
  }
}