{
  "address": "0x5fa994e5c6aF1Ed32a2C2AC3B4f47bED41f87aaa",
  "abi": [
    {
      "anonymous": false,
      "inputs": [
        {
          "indexed": false,
          "internalType": "string",
          "name": "token1Symbol",
          "type": "string"
        },
        {
          "indexed": false,
          "internalType": "string",
          "name": "token2Symbol",
          "type": "string"
        },
        {
          "indexed": false,
          "internalType": "uint256",
          "name": "protectionId",
          "type": "uint256"
        },
        {
          "indexed": false,
          "internalType": "uint256",
          "name": "prevPairCollateral",
          "type": "uint256"
        },
        {
          "indexed": false,
          "internalType": "uint256",
          "name": "newPairCollateral",
          "type": "uint256"
        },
        {
          "indexed": false,
          "internalType": "uint256",
          "name": "prevCollateral",
          "type": "uint256"
        },
        {
          "indexed": false,
          "internalType": "uint256",
          "name": "newCollateral",
          "type": "uint256"
        },
        {
          "indexed": false,
          "internalType": "uint256",
          "name": "prevLiquidity",
          "type": "uint256"
        },
        {
          "indexed": false,
          "internalType": "uint256",
          "name": "newLiquidity",
          "type": "uint256"
        }
      ],
      "name": "CollateralUpdated",
      "type": "event"
    },
    {
      "anonymous": false,
      "inputs": [
        {
          "indexed": false,
          "internalType": "contract ILProtectionDiscountNFTControllerInterface",
          "name": "prevValue",
          "type": "address"
        },
        {
          "indexed": false,
          "internalType": "contract ILProtectionDiscountNFTControllerInterface",
          "name": "newValue",
          "type": "address"
        }
      ],
      "name": "ILProtectionDiscountNFTControllerChanged",
      "type": "event"
    },
    {
      "anonymous": false,
      "inputs": [
        {
          "indexed": false,
          "internalType": "uint8",
          "name": "version",
          "type": "uint8"
        }
      ],
      "name": "Initialized",
      "type": "event"
    },
    {
      "anonymous": false,
      "inputs": [
        {
          "indexed": false,
          "internalType": "uint256",
          "name": "prevValue",
          "type": "uint256"
        },
        {
          "indexed": false,
          "internalType": "uint256",
          "name": "newValue",
          "type": "uint256"
        }
      ],
      "name": "MaxProtectionsInUpkeepChanged",
      "type": "event"
    },
    {
      "anonymous": false,
      "inputs": [
        {
          "indexed": true,
          "internalType": "address",
          "name": "previousOwner",
          "type": "address"
        },
        {
          "indexed": true,
          "internalType": "address",
          "name": "newOwner",
          "type": "address"
        }
      ],
      "name": "OwnershipTransferred",
      "type": "event"
    },
    {
      "anonymous": false,
      "inputs": [
        {
          "indexed": true,
          "internalType": "uint256",
          "name": "id",
          "type": "uint256"
        },
        {
          "indexed": true,
          "internalType": "address",
          "name": "owner",
          "type": "address"
        },
        {
          "indexed": false,
          "internalType": "uint256",
          "name": "protectionStartTimestamp",
          "type": "uint256"
        },
        {
          "indexed": false,
          "internalType": "uint256",
          "name": "protectionEndTimestamp",
          "type": "uint256"
        },
        {
          "indexed": false,
          "internalType": "uint256",
          "name": "premiumCostUSD",
          "type": "uint256"
        },
        {
          "indexed": false,
          "internalType": "string",
          "name": "token1Symbol",
          "type": "string"
        },
        {
          "indexed": false,
          "internalType": "string",
          "name": "token2Symbol",
          "type": "string"
        },
        {
          "indexed": false,
          "internalType": "uint256",
          "name": "policyPeriod",
          "type": "uint256"
        },
        {
          "indexed": false,
          "internalType": "uint256",
          "name": "token1EntryPriceUSD",
          "type": "uint256"
        },
        {
          "indexed": false,
          "internalType": "uint256",
          "name": "token2EntryPriceUSD",
          "type": "uint256"
        },
        {
          "indexed": false,
          "internalType": "uint256",
          "name": "collateral",
          "type": "uint256"
        }
      ],
      "name": "ProtectionBought",
      "type": "event"
    },
    {
      "anonymous": false,
      "inputs": [
        {
          "indexed": false,
          "internalType": "uint256",
          "name": "amountPaidUSD",
          "type": "uint256"
        },
        {
          "indexed": true,
          "internalType": "uint256",
          "name": "id",
          "type": "uint256"
        },
        {
          "indexed": true,
          "internalType": "address",
          "name": "owner",
          "type": "address"
        },
        {
          "indexed": false,
          "internalType": "uint256",
          "name": "protectionStartTimestamp",
          "type": "uint256"
        },
        {
          "indexed": false,
          "internalType": "uint256",
          "name": "protectionEndTimestamp",
          "type": "uint256"
        },
        {
          "indexed": false,
          "internalType": "uint256",
          "name": "premiumCostUSD",
          "type": "uint256"
        },
        {
          "indexed": false,
          "internalType": "string",
          "name": "token1Symbol",
          "type": "string"
        },
        {
          "indexed": false,
          "internalType": "string",
          "name": "token2Symbol",
          "type": "string"
        },
        {
          "indexed": false,
          "internalType": "uint256",
          "name": "policyPeriod",
          "type": "uint256"
        },
        {
          "indexed": false,
          "internalType": "uint256",
          "name": "token1EndPriceUSD",
          "type": "uint256"
        },
        {
          "indexed": false,
          "internalType": "uint256",
          "name": "token2EndPriceUSD",
          "type": "uint256"
        },
        {
          "indexed": false,
          "internalType": "uint256",
          "name": "collateral",
          "type": "uint256"
        }
      ],
      "name": "ProtectionClosed",
      "type": "event"
    },
    {
      "anonymous": false,
      "inputs": [
        {
          "indexed": true,
          "internalType": "bytes32",
          "name": "role",
          "type": "bytes32"
        },
        {
          "indexed": true,
          "internalType": "bytes32",
          "name": "previousAdminRole",
          "type": "bytes32"
        },
        {
          "indexed": true,
          "internalType": "bytes32",
          "name": "newAdminRole",
          "type": "bytes32"
        }
      ],
      "name": "RoleAdminChanged",
      "type": "event"
    },
    {
      "anonymous": false,
      "inputs": [
        {
          "indexed": true,
          "internalType": "bytes32",
          "name": "role",
          "type": "bytes32"
        },
        {
          "indexed": true,
          "internalType": "address",
          "name": "account",
          "type": "address"
        },
        {
          "indexed": true,
          "internalType": "address",
          "name": "sender",
          "type": "address"
        }
      ],
      "name": "RoleGranted",
      "type": "event"
    },
    {
      "anonymous": false,
      "inputs": [
        {
          "indexed": true,
          "internalType": "bytes32",
          "name": "role",
          "type": "bytes32"
        },
        {
          "indexed": true,
          "internalType": "address",
          "name": "account",
          "type": "address"
        },
        {
          "indexed": true,
          "internalType": "address",
          "name": "sender",
          "type": "address"
        }
      ],
      "name": "RoleRevoked",
      "type": "event"
    },
    {
      "inputs": [],
      "name": "CVI_DECIMALS_TRUNCATE",
      "outputs": [
        {
          "internalType": "uint256",
          "name": "",
          "type": "uint256"
        }
      ],
      "stateMutability": "view",
      "type": "function"
    },
    {
      "inputs": [],
      "name": "DEFAULT_ADMIN_ROLE",
      "outputs": [
        {
          "internalType": "bytes32",
          "name": "",
          "type": "bytes32"
        }
      ],
      "stateMutability": "view",
      "type": "function"
    },
    {
      "inputs": [],
      "name": "LIQUIDITY_PROVIDER_ROLE",
      "outputs": [
        {
          "internalType": "bytes32",
          "name": "",
          "type": "bytes32"
        }
      ],
      "stateMutability": "view",
      "type": "function"
    },
    {
      "inputs": [],
      "name": "MAX_PRECISION",
      "outputs": [
        {
          "internalType": "uint16",
          "name": "",
          "type": "uint16"
        }
      ],
      "stateMutability": "view",
      "type": "function"
    },
    {
      "inputs": [
        {
          "internalType": "uint256",
          "name": "_amount",
          "type": "uint256"
        }
      ],
      "name": "addLiquidity",
      "outputs": [],
      "stateMutability": "nonpayable",
      "type": "function"
    },
    {
      "inputs": [
        {
          "internalType": "string",
          "name": "_token1Symbol",
          "type": "string"
        },
        {
          "internalType": "string",
          "name": "_token2Symbol",
          "type": "string"
        },
        {
          "internalType": "uint256",
          "name": "_lpTokensWorthAtBuyTimeUSD",
          "type": "uint256"
        },
        {
          "internalType": "uint256",
          "name": "_maxPremiumCostUSD",
          "type": "uint256"
        },
        {
          "internalType": "uint256",
          "name": "_policyPeriod",
          "type": "uint256"
        }
      ],
      "name": "buyProtection",
      "outputs": [],
      "stateMutability": "nonpayable",
      "type": "function"
    },
    {
      "inputs": [
        {
          "internalType": "uint256",
          "name": "_lpTokensWorthAtBuyTimeUSD",
          "type": "uint256"
        },
        {
          "internalType": "uint256",
          "name": "_token1EntryPrice",
          "type": "uint256"
        },
        {
          "internalType": "uint256",
          "name": "_token2EntryPrice",
          "type": "uint256"
        },
        {
          "internalType": "uint256",
          "name": "_token1EndPrice",
          "type": "uint256"
        },
        {
          "internalType": "uint256",
          "name": "_token2EndPrice",
          "type": "uint256"
        }
      ],
      "name": "calcAmountToBePaid",
      "outputs": [
        {
          "internalType": "uint256",
          "name": "",
          "type": "uint256"
        }
      ],
      "stateMutability": "view",
      "type": "function"
    },
    {
      "inputs": [
        {
          "internalType": "uint256",
          "name": "_protectionId",
          "type": "uint256"
        }
      ],
      "name": "calcAmountToBePaidWithProtectionId",
      "outputs": [
        {
          "internalType": "uint256",
          "name": "",
          "type": "uint256"
        }
      ],
      "stateMutability": "view",
      "type": "function"
    },
    {
      "inputs": [
        {
          "internalType": "uint256",
          "name": "_lpTokensWorthAtBuyTimeUSD",
          "type": "uint256"
        },
        {
          "internalType": "uint16",
          "name": "_expectedLPTokensValueGrowth",
          "type": "uint16"
        },
        {
          "internalType": "uint16",
          "name": "_impermanentLoss",
          "type": "uint16"
        }
      ],
      "name": "calcEstimatedAmountToBePaid",
      "outputs": [
        {
          "internalType": "uint256",
          "name": "",
          "type": "uint256"
        }
      ],
      "stateMutability": "pure",
      "type": "function"
    },
    {
      "inputs": [
        {
          "internalType": "string",
          "name": "_token1Symbol",
          "type": "string"
        },
        {
          "internalType": "string",
          "name": "_token2Symbol",
          "type": "string"
        }
      ],
      "name": "calcMaxValueOfTokensWorthToProtect",
      "outputs": [
        {
          "internalType": "uint256",
          "name": "",
          "type": "uint256"
        }
      ],
      "stateMutability": "view",
      "type": "function"
    },
    {
      "inputs": [
        {
          "internalType": "uint256",
          "name": "_lpTokensWorthAtBuyTimeUSD",
          "type": "uint256"
        },
        {
          "internalType": "uint16",
          "name": "_feeComponent",
          "type": "uint16"
        }
      ],
      "name": "calculateFee",
      "outputs": [
        {
          "internalType": "uint256",
          "name": "",
          "type": "uint256"
        }
      ],
      "stateMutability": "pure",
      "type": "function"
    },
    {
      "inputs": [
        {
          "internalType": "uint256",
          "name": "_token1EntryPriceUSD",
          "type": "uint256"
        },
        {
          "internalType": "uint256",
          "name": "_token2EntryPriceUSD",
          "type": "uint256"
        },
        {
          "internalType": "uint256",
          "name": "_token1EndPriceUSD",
          "type": "uint256"
        },
        {
          "internalType": "uint256",
          "name": "_token2EndPriceUSD",
          "type": "uint256"
        }
      ],
      "name": "calculateIL",
      "outputs": [
        {
          "internalType": "uint16",
          "name": "",
          "type": "uint16"
        }
      ],
      "stateMutability": "pure",
      "type": "function"
    },
    {
      "inputs": [
        {
          "internalType": "uint256",
          "name": "_protectionId",
          "type": "uint256"
        }
      ],
      "name": "calculateOpenProtectionIL",
      "outputs": [
        {
          "internalType": "uint16",
          "name": "",
          "type": "uint16"
        }
      ],
      "stateMutability": "view",
      "type": "function"
    },
    {
      "inputs": [
        {
          "internalType": "uint256",
          "name": "_lpTokensWorthAtBuyTimeUSD",
          "type": "uint256"
        },
        {
          "internalType": "uint256",
          "name": "_totalLPTokensWorthAtBuyTimeUSD",
          "type": "uint256"
        },
        {
          "internalType": "uint16",
          "name": "_expectedLPTokensValueGrowth",
          "type": "uint16"
        },
        {
          "internalType": "uint256",
          "name": "_liquidity",
          "type": "uint256"
        },
        {
          "internalType": "uint16",
          "name": "_maxILProtected",
          "type": "uint16"
        },
        {
          "components": [
            {
              "internalType": "int256",
              "name": "A",
              "type": "int256"
            },
            {
              "internalType": "int256",
              "name": "X0",
              "type": "int256"
            },
            {
              "internalType": "int256",
              "name": "C",
              "type": "int256"
            }
          ],
          "internalType": "struct PremiumParams",
          "name": "_premiumParams",
          "type": "tuple"
        },
        {
          "internalType": "uint256",
          "name": "_cvi",
          "type": "uint256"
        },
        {
          "internalType": "uint256",
          "name": "_premiumGrowthStart",
          "type": "uint256"
        },
        {
          "internalType": "uint256",
          "name": "_premiumSlope",
          "type": "uint256"
        }
      ],
      "name": "calculateParameterizedPremium",
      "outputs": [
        {
          "internalType": "uint256",
          "name": "",
          "type": "uint256"
        }
      ],
      "stateMutability": "pure",
      "type": "function"
    },
    {
      "inputs": [
        {
          "internalType": "address",
          "name": "_buyer",
          "type": "address"
        },
        {
          "internalType": "string",
          "name": "_token1Symbol",
          "type": "string"
        },
        {
          "internalType": "string",
          "name": "_token2Symbol",
          "type": "string"
        },
        {
          "internalType": "uint256",
          "name": "_lpTokensWorthAtBuyTimeUSD",
          "type": "uint256"
        },
        {
          "internalType": "uint256",
          "name": "_policyPeriod",
          "type": "uint256"
        }
      ],
      "name": "calculatePremiumDetailsAndMaxAmountToBePaid",
      "outputs": [
        {
          "internalType": "uint256",
          "name": "premium",
          "type": "uint256"
        },
        {
          "internalType": "uint256",
          "name": "premiumDiscount",
          "type": "uint256"
        },
        {
          "internalType": "uint256",
          "name": "fee",
          "type": "uint256"
        },
        {
          "internalType": "uint256",
          "name": "feeDiscount",
          "type": "uint256"
        },
        {
          "internalType": "uint256",
          "name": "maxAmountToBePaid",
          "type": "uint256"
        },
        {
          "internalType": "enum DiscountNFTType",
          "name": "discountNFTType",
          "type": "uint8"
        }
      ],
      "stateMutability": "view",
      "type": "function"
    },
    {
      "inputs": [
        {
          "internalType": "bytes",
          "name": "",
          "type": "bytes"
        }
      ],
      "name": "checkUpkeep",
      "outputs": [
        {
          "internalType": "bool",
          "name": "upkeepNeeded",
          "type": "bool"
        },
        {
          "internalType": "bytes",
          "name": "performData",
          "type": "bytes"
        }
      ],
      "stateMutability": "view",
      "type": "function"
    },
    {
      "inputs": [
        {
          "internalType": "uint256[]",
          "name": "_protectionsIds",
          "type": "uint256[]"
        }
      ],
      "name": "closeProtections",
      "outputs": [],
      "stateMutability": "nonpayable",
      "type": "function"
    },
    {
      "inputs": [
        {
          "internalType": "uint256",
          "name": "",
          "type": "uint256"
        }
      ],
      "name": "closedProtectionsWithMetadata",
      "outputs": [
        {
          "internalType": "uint256",
          "name": "protectionId",
          "type": "uint256"
        },
        {
          "internalType": "uint256",
          "name": "token1EntryPriceUSD",
          "type": "uint256"
        },
        {
          "internalType": "uint256",
          "name": "token2EntryPriceUSD",
          "type": "uint256"
        },
        {
          "internalType": "uint256",
          "name": "token1EndPriceUSD",
          "type": "uint256"
        },
        {
          "internalType": "uint256",
          "name": "token2EndPriceUSD",
          "type": "uint256"
        },
        {
          "internalType": "uint256",
          "name": "maxAmountToBePaid",
          "type": "uint256"
        },
        {
          "internalType": "uint256",
          "name": "amountPaidOnPolicyClose",
          "type": "uint256"
        },
        {
          "internalType": "uint256",
          "name": "mappingIdx",
          "type": "uint256"
        },
        {
          "internalType": "bool",
          "name": "exists",
          "type": "bool"
        },
        {
          "internalType": "uint256",
          "name": "fee",
          "type": "uint256"
        },
        {
          "internalType": "uint16",
          "name": "feeComponent",
          "type": "uint16"
        }
      ],
      "stateMutability": "view",
      "type": "function"
    },
    {
      "inputs": [],
      "name": "collateral",
      "outputs": [
        {
          "internalType": "uint256",
          "name": "",
          "type": "uint256"
        }
      ],
      "stateMutability": "view",
      "type": "function"
    },
    {
      "inputs": [],
      "name": "cumulativeSumLPTokensWorthAtBuyTimeUSD",
      "outputs": [
        {
          "internalType": "uint256",
          "name": "",
          "type": "uint256"
        }
      ],
      "stateMutability": "view",
      "type": "function"
    },
    {
      "inputs": [],
      "name": "cviOracle",
      "outputs": [
        {
          "internalType": "contract CVIOracle",
          "name": "",
          "type": "address"
        }
      ],
      "stateMutability": "view",
      "type": "function"
    },
    {
      "inputs": [],
      "name": "getFinalizedProtectionsIds",
      "outputs": [
        {
          "internalType": "uint256[]",
          "name": "",
          "type": "uint256[]"
        }
      ],
      "stateMutability": "view",
      "type": "function"
    },
    {
      "inputs": [
        {
          "internalType": "bytes32",
          "name": "role",
          "type": "bytes32"
        }
      ],
      "name": "getRoleAdmin",
      "outputs": [
        {
          "internalType": "bytes32",
          "name": "",
          "type": "bytes32"
        }
      ],
      "stateMutability": "view",
      "type": "function"
    },
    {
      "inputs": [
        {
          "internalType": "bytes32",
          "name": "role",
          "type": "bytes32"
        },
        {
          "internalType": "address",
          "name": "account",
          "type": "address"
        }
      ],
      "name": "grantRole",
      "outputs": [],
      "stateMutability": "nonpayable",
      "type": "function"
    },
    {
      "inputs": [
        {
          "internalType": "bytes32",
          "name": "role",
          "type": "bytes32"
        },
        {
          "internalType": "address",
          "name": "account",
          "type": "address"
        }
      ],
      "name": "hasRole",
      "outputs": [
        {
          "internalType": "bool",
          "name": "",
          "type": "bool"
        }
      ],
      "stateMutability": "view",
      "type": "function"
    },
    {
      "inputs": [
        {
          "internalType": "address",
          "name": "_owner",
          "type": "address"
        },
        {
          "internalType": "contract ILProtectionConfigInterface",
          "name": "_protectionConfig",
          "type": "address"
        },
        {
          "internalType": "contract ILiquidityController",
          "name": "_liquidityController",
          "type": "address"
        },
        {
          "internalType": "contract ITokenPairRepository",
          "name": "_tokenPairRepository",
          "type": "address"
        },
        {
          "internalType": "contract ILProtectionNFTInterface",
          "name": "_protectionNFT",
          "type": "address"
        },
        {
          "internalType": "contract ILProtectionDiscountNFTControllerInterface",
          "name": "_protectionDiscountNFTController",
          "type": "address"
        },
        {
          "internalType": "contract CVIOracle",
          "name": "_cviOracle",
          "type": "address"
        },
        {
          "internalType": "uint256",
          "name": "_maxProtectionsInUpkeep",
          "type": "uint256"
        }
      ],
      "name": "initialize",
      "outputs": [],
      "stateMutability": "nonpayable",
      "type": "function"
    },
    {
      "inputs": [],
      "name": "liquidityController",
      "outputs": [
        {
          "internalType": "contract ILiquidityController",
          "name": "",
          "type": "address"
        }
      ],
      "stateMutability": "view",
      "type": "function"
    },
    {
      "inputs": [],
      "name": "maxProtectionsInUpkeep",
      "outputs": [
        {
          "internalType": "uint256",
          "name": "",
          "type": "uint256"
        }
      ],
      "stateMutability": "view",
      "type": "function"
    },
    {
      "inputs": [
        {
          "internalType": "uint256",
          "name": "",
          "type": "uint256"
        }
      ],
      "name": "openProtectionsIds",
      "outputs": [
        {
          "internalType": "uint256",
          "name": "",
          "type": "uint256"
        }
      ],
      "stateMutability": "view",
      "type": "function"
    },
    {
      "inputs": [
        {
          "internalType": "uint256",
          "name": "",
          "type": "uint256"
        }
      ],
      "name": "openProtectionsWithMetadata",
      "outputs": [
        {
          "internalType": "uint256",
          "name": "protectionId",
          "type": "uint256"
        },
        {
          "internalType": "uint256",
          "name": "token1EntryPriceUSD",
          "type": "uint256"
        },
        {
          "internalType": "uint256",
          "name": "token2EntryPriceUSD",
          "type": "uint256"
        },
        {
          "internalType": "uint256",
          "name": "token1EndPriceUSD",
          "type": "uint256"
        },
        {
          "internalType": "uint256",
          "name": "token2EndPriceUSD",
          "type": "uint256"
        },
        {
          "internalType": "uint256",
          "name": "maxAmountToBePaid",
          "type": "uint256"
        },
        {
          "internalType": "uint256",
          "name": "amountPaidOnPolicyClose",
          "type": "uint256"
        },
        {
          "internalType": "uint256",
          "name": "mappingIdx",
          "type": "uint256"
        },
        {
          "internalType": "bool",
          "name": "exists",
          "type": "bool"
        },
        {
          "internalType": "uint256",
          "name": "fee",
          "type": "uint256"
        },
        {
          "internalType": "uint16",
          "name": "feeComponent",
          "type": "uint16"
        }
      ],
      "stateMutability": "view",
      "type": "function"
    },
    {
      "inputs": [],
      "name": "owner",
      "outputs": [
        {
          "internalType": "address",
          "name": "",
          "type": "address"
        }
      ],
      "stateMutability": "view",
      "type": "function"
    },
    {
      "inputs": [
        {
          "internalType": "string",
          "name": "",
          "type": "string"
        },
        {
          "internalType": "string",
          "name": "",
          "type": "string"
        }
      ],
      "name": "pairsCollaterals",
      "outputs": [
        {
          "internalType": "uint256",
          "name": "",
          "type": "uint256"
        }
      ],
      "stateMutability": "view",
      "type": "function"
    },
    {
      "inputs": [
        {
          "internalType": "bytes",
          "name": "_performData",
          "type": "bytes"
        }
      ],
      "name": "performUpkeep",
      "outputs": [],
      "stateMutability": "nonpayable",
      "type": "function"
    },
    {
      "inputs": [],
      "name": "protectionConfig",
      "outputs": [
        {
          "internalType": "contract ILProtectionConfigInterface",
          "name": "",
          "type": "address"
        }
      ],
      "stateMutability": "view",
      "type": "function"
    },
    {
      "inputs": [],
      "name": "protectionDiscountNFTController",
      "outputs": [
        {
          "internalType": "contract ILProtectionDiscountNFTControllerInterface",
          "name": "",
          "type": "address"
        }
      ],
      "stateMutability": "view",
      "type": "function"
    },
    {
      "inputs": [],
      "name": "protectionNFT",
      "outputs": [
        {
          "internalType": "contract ILProtectionNFTInterface",
          "name": "",
          "type": "address"
        }
      ],
      "stateMutability": "view",
      "type": "function"
    },
    {
      "inputs": [],
      "name": "renounceOwnership",
      "outputs": [],
      "stateMutability": "nonpayable",
      "type": "function"
    },
    {
      "inputs": [
        {
          "internalType": "bytes32",
          "name": "role",
          "type": "bytes32"
        },
        {
          "internalType": "address",
          "name": "account",
          "type": "address"
        }
      ],
      "name": "renounceRole",
      "outputs": [],
      "stateMutability": "nonpayable",
      "type": "function"
    },
    {
      "inputs": [
        {
          "internalType": "bytes32",
          "name": "role",
          "type": "bytes32"
        },
        {
          "internalType": "address",
          "name": "account",
          "type": "address"
        }
      ],
      "name": "revokeRole",
      "outputs": [],
      "stateMutability": "nonpayable",
      "type": "function"
    },
    {
      "inputs": [
        {
          "internalType": "contract ILProtectionDiscountNFTControllerInterface",
          "name": "_newInstance",
          "type": "address"
        }
      ],
      "name": "setILProtectionDiscountNFTController",
      "outputs": [],
      "stateMutability": "nonpayable",
      "type": "function"
    },
    {
      "inputs": [
        {
          "internalType": "uint16",
          "name": "_maxILProtected",
          "type": "uint16"
        }
      ],
      "name": "setMaxILProtected",
      "outputs": [],
      "stateMutability": "nonpayable",
      "type": "function"
    },
    {
      "inputs": [
        {
          "internalType": "uint8",
          "name": "_maxProtectionsInUpkeep",
          "type": "uint8"
        }
      ],
      "name": "setMaxProtectionsInUpkeep",
      "outputs": [],
      "stateMutability": "nonpayable",
      "type": "function"
    },
    {
      "inputs": [
        {
          "internalType": "bytes4",
          "name": "interfaceId",
          "type": "bytes4"
        }
      ],
      "name": "supportsInterface",
      "outputs": [
        {
          "internalType": "bool",
          "name": "",
          "type": "bool"
        }
      ],
      "stateMutability": "view",
      "type": "function"
    },
    {
      "inputs": [],
      "name": "tokenPairRepository",
      "outputs": [
        {
          "internalType": "contract ITokenPairRepository",
          "name": "",
          "type": "address"
        }
      ],
      "stateMutability": "view",
      "type": "function"
    },
    {
      "inputs": [],
      "name": "totalLPTokensWorthAtBuyTimeUSD",
      "outputs": [
        {
          "internalType": "uint256",
          "name": "",
          "type": "uint256"
        }
      ],
      "stateMutability": "view",
      "type": "function"
    },
    {
      "inputs": [
        {
          "internalType": "address",
          "name": "newOwner",
          "type": "address"
        }
      ],
      "name": "transferOwnership",
      "outputs": [],
      "stateMutability": "nonpayable",
      "type": "function"
    },
    {
      "inputs": [
        {
          "internalType": "uint256",
          "name": "_amount",
          "type": "uint256"
        },
        {
          "internalType": "address",
          "name": "_to",
          "type": "address"
        }
      ],
      "name": "withdrawLiquidity",
      "outputs": [],
      "stateMutability": "nonpayable",
      "type": "function"
    }
  ],
  "transactionHash": "0x5a4d74e51ff08769ea5f60532f4b5c691a5563e89e9681d10c65a2352b3ccc14",
  "args": [],
  "numDeployments": 28,
  "solcInputHash": "3e38164a73c777cd780c57ef82a1826e",
  "bytecode": "0x608060405234801561001057600080fd5b50615c3680620000216000396000f3fe608060405234801561001057600080fd5b50600436106102955760003560e01c80636f7d78281161016757806392f44448116100ce578063d8dfeb4511610087578063d8dfeb4514610746578063e1e702681461074f578063e5aebe8414610758578063f2fde38b1461076b578063f66496f71461077e578063ffc17ba71461079157600080fd5b806392f44448146106e757806395c196dd146106fa578063a217fddf1461070f578063b5e2452114610717578063d547741f1461072a578063d56f28511461073d57600080fd5b8063871ad1e611610120578063871ad1e614610566578063883019111461062e5780638da5cb5b146106415780638efe1fce146106525780638f29d12d146106c157806391d14854146106d457600080fd5b80636f7d782814610509578063715018a61461051c57806371fd02e01461052457806373f599da14610537578063768da62314610540578063821ff2c51461055357600080fd5b80632d5948071161020b5780634de6df43116101c45780634de6df431461047157806351c6590a146104845780635d77cf191461049757806368fc0c9a146104c25780636e04ff0d146104d55780636f40670d146104f657600080fd5b80632d594807146103f65780632f2ff15d146103ff57806336568abe146104125780633b37bf981461042557806343ebd06e1461044b5780634585e33b1461045e57600080fd5b8063175ef65e1161025d578063175ef65e1461033057806319edb4bd1461033e5780631f3d8c741461035157806320037cdd14610399578063206a2296146103c0578063248a9ca3146103d357600080fd5b806301ffc9a71461029a57806306bebf3c146102c25780630fed70a2146102d757806312d0ad4e146102f857806313c02e5e1461030b575b600080fd5b6102ad6102a8366004614d92565b6107a4565b60405190151581526020015b60405180910390f35b6102d56102d036600461536b565b6107db565b005b6102ea6102e536600461520e565b610890565b6040519081526020016102b9565b6102d5610306366004614b4b565b6108b4565b61031e610319366004614c06565b610972565b6040516102b9969594939291906158f5565b6102ea662386f26fc1000081565b6102ea61034c366004614d4b565b611306565b6102ea61035f366004614e7c565b815160208184018101805160d582529282019482019490942091909352815180830184018051928152908401929093019190912091525481565b6102ea7f42802a37d17e698ec3d88f7a6917f1f5a6abb4d99a8f4255c389e56d10218a6481565b6102ea6103ce366004615232565b611327565b6102ea6103e1366004614d4b565b60009081526097602052604090206001015490565b6102ea60cf5481565b6102d561040d366004614d63565b611381565b6102d5610420366004614d63565b6113ab565b610438610433366004614d4b565b611429565b60405161ffff90911681526020016102b9565b6102d5610459366004614c8a565b611627565b6102d561046c366004614dba565b611e91565b6102ea61047f366004614d4b565b611eaa565b6102d5610492366004614d4b565b6120ab565b60cc546104aa906001600160a01b031681565b6040516001600160a01b0390911681526020016102b9565b6102d56104d0366004614d63565b61218c565b6104e86104e3366004614dba565b61239a565b6040516102b99291906154ef565b60c9546104aa906001600160a01b031681565b60cd546104aa906001600160a01b031681565b6102d56124ca565b6102ea610532366004615273565b612530565b61043861271081565b6102d561054e36600461516e565b6126cd565b6102ea610561366004614e7c565b6127a7565b6105d5610574366004614d4b565b60d160205260009081526040902080546001820154600283015460038401546004850154600586015460068701546007880154600889015460098a0154600a909a01549899979896979596949593949293919260ff909116919061ffff168b565b604080519b8c5260208c019a909a52988a01979097526060890195909552608088019390935260a087019190915260c086015260e0850152151561010084015261012083015261ffff16610140820152610160016102b9565b6102d561063c366004614b67565b612b7e565b6033546001600160a01b03166104aa565b6105d5610660366004614d4b565b60d260205260009081526040902080546001820154600283015460038401546004850154600586015460068701546007880154600889015460098a0154600a909a01549899979896979596949593949293919260ff909116919061ffff168b565b6102d56106cf366004614df9565b612c63565b6102ad6106e2366004614d63565b613500565b60ca546104aa906001600160a01b031681565b61070261352b565b6040516102b991906154ab565b6102ea600081565b6102ea610725366004615331565b6136d8565b6102d5610738366004614d63565b61398c565b6102ea60d35481565b6102ea60ce5481565b6102ea60d45481565b610438610766366004615300565b6139b1565b6102d5610779366004614b4b565b613a54565b60cb546104aa906001600160a01b031681565b60d6546104aa906001600160a01b031681565b60006001600160e01b03198216637965db0b60e01b14806107d557506301ffc9a760e01b6001600160e01b03198316145b92915050565b6107e6600033613b1f565b60008160ff161161084a5760405162461bcd60e51b8152602060048201526024808201527f696e76616c6964206d617850726f74656374696f6e73496e55706b6565702076604482015263616c756560e01b60648201526084015b60405180910390fd5b60d3546040805191825260ff831660208301527f35b3f6968a3b29e3aaeff49ca8f509f08777a354c815de29c8b748a14eaf4113910160405180910390a160ff1660d355565b60006127106108a361ffff841685615ae5565b6108ad91906159df565b9392505050565b6108bf600033613b1f565b806001600160a01b0381166109085760405162461bcd60e51b815260206004820152600f60248201526e496e76616c6964206164647265737360881b6044820152606401610841565b60d654604080516001600160a01b03928316815291841660208301527f42e5d6b0b85ac07d54cc4598c40fdb8bfc151df0f2aab57cb52080254a44cdc7910160405180910390a15060d680546001600160a01b0319166001600160a01b0392909216919091179055565b6000806000806000806109858a8a6127a7565b8811156109fa5760405162461bcd60e51b815260206004820152603a60248201527f6c70546f6b656e73576f727468417442757954696d65555344203e206d61785660448201527f616c75654f66546f6b656e73576f727468546f50726f746563740000000000006064820152608401610841565b60cc5460408051630d34328160e11b815290516000926001600160a01b031691631a686502916004808301926020929190829003018186803b158015610a3f57600080fd5b505afa158015610a53573d6000803e3d6000fd5b505050506040513d601f19601f82011682018060405250810190610a7791906151f6565b60cb5460405163326625a760e21b81529192506000916001600160a01b039091169063c998969c90610ab1908f908f908e906004016155ac565b60606040518083038186803b158015610ac957600080fd5b505afa158015610add573d6000803e3d6000fd5b505050506040513d601f19601f82011682018060405250810190610b019190614f54565b9050610c138a60ca60009054906101000a90046001600160a01b03166001600160a01b03166363aa3bd96040518163ffffffff1660e01b815260040160206040518083038186803b158015610b5557600080fd5b505afa158015610b69573d6000803e3d6000fd5b505050506040513d601f19601f82011682018060405250810190610b8d919061518a565b60ca60009054906101000a90046001600160a01b03166001600160a01b031663da25cb0c6040518163ffffffff1660e01b815260040160206040518083038186803b158015610bdb57600080fd5b505afa158015610bef573d6000803e3d6000fd5b505050506040513d601f19601f820116820180604052508101906103ce919061518a565b935073A44Fd9588BFf29Ba405E428F21224b035A9f13bf63f5a6a39f8b8660ce54610c3e91906159c7565b8585610c48613b83565b60ca60009054906101000a90046001600160a01b03166001600160a01b0316638a981d316040518163ffffffff1660e01b815260040160206040518083038186803b158015610c9657600080fd5b505afa158015610caa573d6000803e3d6000fd5b505050506040513d601f19601f82011682018060405250810190610cce91906151f6565b60ca60009054906101000a90046001600160a01b03166001600160a01b031663a0c5d2136040518163ffffffff1660e01b815260040160206040518083038186803b158015610d1c57600080fd5b505afa158015610d30573d6000803e3d6000fd5b505050506040513d601f19601f82011682018060405250810190610d5491906151f6565b6040518863ffffffff1660e01b8152600401610d769796959493929190615840565b60206040518083038186803b158015610d8e57600080fd5b505af4158015610da2573d6000803e3d6000fd5b505050506040513d601f19601f82011682018060405250810190610dc691906151f6565b9750610e528a60ca60009054906101000a90046001600160a01b03166001600160a01b031663edb1192e6040518163ffffffff1660e01b815260040160206040518083038186803b158015610e1a57600080fd5b505afa158015610e2e573d6000803e3d6000fd5b505050506040513d601f19601f820116820180604052508101906102e5919061518a565b9550600060d660009054906101000a90046001600160a01b03166001600160a01b03166389c9f0f88f6040518263ffffffff1660e01b8152600401610ea691906001600160a01b0391909116815260200190565b60806040518083038186803b158015610ebe57600080fd5b505afa158015610ed2573d6000803e3d6000fd5b505050506040513d601f19601f82011682018060405250810190610ef69190614edc565b90508060000151935060008060d660009054906101000a90046001600160a01b03166001600160a01b031663238dafe06040518163ffffffff1660e01b815260040160206040518083038186803b158015610f5057600080fd5b505afa158015610f64573d6000803e3d6000fd5b505050506040513d601f19601f82011682018060405250810190610f889190614d31565b8015610fb457506000866002811115610fb157634e487b7160e01b600052602160045260246000fd5b14155b8015610fc257508260200151155b156112d657600283516002811115610fea57634e487b7160e01b600052602160045260246000fd5b14156112765782606001518d111561127157600083606001518e61100e9190615b27565b6040850151909150612710906110249082615b04565b61ffff1673A44Fd9588BFf29Ba405E428F21224b035A9f13bf63f5a6a39f848c60ce5461105191906159c7565b8b8b61105b613b83565b60ca60009054906101000a90046001600160a01b03166001600160a01b0316638a981d316040518163ffffffff1660e01b815260040160206040518083038186803b1580156110a957600080fd5b505afa1580156110bd573d6000803e3d6000fd5b505050506040513d601f19601f820116820180604052508101906110e191906151f6565b60ca60009054906101000a90046001600160a01b03166001600160a01b031663a0c5d2136040518163ffffffff1660e01b815260040160206040518083038186803b15801561112f57600080fd5b505afa158015611143573d6000803e3d6000fd5b505050506040513d601f19601f8201168201806040525081019061116791906151f6565b6040518863ffffffff1660e01b81526004016111899796959493929190615840565b60206040518083038186803b1580156111a157600080fd5b505af41580156111b5573d6000803e3d6000fd5b505050506040513d601f19601f820116820180604052508101906111d991906151f6565b6111e39190615ae5565b6111ed91906159df565b6040850151909350612710906112039082615b04565b61ffff166112598360ca60009054906101000a90046001600160a01b03166001600160a01b031663edb1192e6040518163ffffffff1660e01b815260040160206040518083038186803b158015610e1a57600080fd5b6112639190615ae5565b61126d91906159df565b9150505b6112dc565b6040830151612710906112899082615b04565b6112979061ffff168b615ae5565b6112a191906159df565b6040840151909150612710906112b79082615b04565b6112c59061ffff168d615ae5565b6112cf91906159df565b91506112dc565b50899050875b6112e6828c615b27565b99506112f2818a615b27565b975050505050509550955095509550955095565b60d0818154811061131657600080fd5b600091825260209091200154905081565b60008061271061133b61ffff861687615ae5565b61134591906159df565b90508061135484612710615b04565b61ffff1661136461271084615ae5565b61136e91906159df565b6113789190615b27565b95945050505050565b60008281526097602052604090206001015461139c81613c2d565b6113a68383613c37565b505050565b6001600160a01b038116331461141b5760405162461bcd60e51b815260206004820152602f60248201527f416363657373436f6e74726f6c3a2063616e206f6e6c792072656e6f756e636560448201526e103937b632b9903337b91039b2b63360891b6064820152608401610841565b6114258282613cbd565b5050565b600081815260d1602052604081206008015460ff1661145a5760405162461bcd60e51b8152600401610841906156dc565b60c95460405163141165df60e31b8152600481018490526000916001600160a01b03169063a08b2ef89060240160006040518083038186803b15801561149f57600080fd5b505afa1580156114b3573d6000803e3d6000fd5b505050506040513d6000823e601f3d908101601f191682016040526114db9190810190614fae565b60cb5460c082015160e083015160405163ccc0628160e01b81529394506000936001600160a01b039093169263ccc062819261151e929091600190600401615574565b60206040518083038186803b15801561153657600080fd5b505afa15801561154a573d6000803e3d6000fd5b505050506040513d601f19601f8201168201806040525081019061156e91906151f6565b60cb5460c084015160e085015160405163ccc0628160e01b81529394506000936001600160a01b039093169263ccc06281926115b09290918690600401615574565b60206040518083038186803b1580156115c857600080fd5b505afa1580156115dc573d6000803e3d6000fd5b505050506040513d601f19601f8201168201806040525081019061160091906151f6565b600086815260d16020526040902060018101546002909101549192506113789184846139b1565b60008151116116785760405162461bcd60e51b815260206004820152601e60248201527f50726f74656374696f6e732049647320617272617920697320656d70747900006044820152606401610841565b60005b815181101561142557600060d160008484815181106116aa57634e487b7160e01b600052603260045260246000fd5b6020026020010151815260200190815260200160002090508060080160009054906101000a900460ff166116de5750611e7f565b60c95483516000916001600160a01b03169063a08b2ef89086908690811061171657634e487b7160e01b600052603260045260246000fd5b60200260200101516040518263ffffffff1660e01b815260040161173c91815260200190565b60006040518083038186803b15801561175457600080fd5b505afa158015611768573d6000803e3d6000fd5b505050506040513d6000823e601f3d908101601f191682016040526117909190810190614fae565b905042816060015111611e7c5760cb5460c082015160e083015160405163ccc0628160e01b81526000936001600160a01b03169263ccc06281926117d992600190600401615574565b60206040518083038186803b1580156117f157600080fd5b505afa158015611805573d6000803e3d6000fd5b505050506040513d601f19601f8201168201806040525081019061182991906151f6565b60cb5460c084015160e085015160405163ccc0628160e01b81529394506000936001600160a01b039093169263ccc062819261186b9290918690600401615574565b60206040518083038186803b15801561188357600080fd5b505afa158015611897573d6000803e3d6000fd5b505050506040513d601f19601f820116820180604052508101906118bb91906151f6565b90506000806118cc85878686613d24565b91509150806119405760cc54602086015160405163347e064d60e11b8152600481018590526001600160a01b0391821660248201529116906368fc0c9a90604401600060405180830381600087803b15801561192757600080fd5b505af115801561193b573d6000803e3d6000fd5b505050505b600386018490556004860183905560068601829055600586015460ce805460009061196c908490615b27565b9091555050600586015460c086015160405160d59161198a9161541a565b90815260200160405180910390208660e001516040516119aa919061541a565b908152602001604051809103902060008282546119c79190615b27565b909155505060a085015160cf80546000906119e3908490615b27565b909155505060d05460011015611a7e5760d0805460009190611a0790600190615b27565b81548110611a2557634e487b7160e01b600052603260045260246000fd5b906000526020600020015490508060d0886007015481548110611a5857634e487b7160e01b600052603260045260246000fd5b60009182526020808320909101929092556007808a015493825260d19092526040902001555b60d0805480611a9d57634e487b7160e01b600052603160045260246000fd5b600190038181906000526020600020016000905590558560d260008760000151815260200190815260200160002060008201548160000155600182015481600101556002820154816002015560038201548160030155600482015481600401556005820154816005015560068201548160060155600782015481600701556008820160009054906101000a900460ff168160080160006101000a81548160ff02191690831515021790555060098201548160090155600a820160009054906101000a900461ffff1681600a0160006101000a81548161ffff021916908361ffff16021790555090505060d160008660000151815260200190815260200160002060008082016000905560018201600090556002820160009055600382016000905560048201600090556005820160009055600682016000905560078201600090556008820160006101000a81549060ff02191690556009820160009055600a820160006101000a81549061ffff0219169055505084602001516001600160a01b031685600001517f42ed01b98174011efdf2fdef7f80bb58590411efd2604313948ab455bef77b7484886040015189606001518a608001518b60c001518c60e001518d61010001518d8d60ce54604051611c809a99989796959493929190615889565b60405180910390a360c08501805160e08701518751600081815260d26020526040908190206005015494519051611e77959160d591611cbf919061541a565b90815260200160405180910390208a60e00151604051611cdf919061541a565b908152602001604051809103902054611cf891906159c7565b60d58a60c00151604051611d0c919061541a565b90815260200160405180910390208a60e00151604051611d2c919061541a565b90815260200160405180910390205460d260008c6000015181526020019081526020016000206005015460ce54611d6391906159c7565b60ce5460cc5460408051630d34328160e11b815290518c926001600160a01b031691631a686502916004808301926020929190829003018186803b158015611daa57600080fd5b505afa158015611dbe573d6000803e3d6000fd5b505050506040513d601f19601f82011682018060405250810190611de291906151f6565b611dec91906159c7565b60cc60009054906101000a90046001600160a01b03166001600160a01b0316631a6865026040518163ffffffff1660e01b815260040160206040518083038186803b158015611e3a57600080fd5b505afa158015611e4e573d6000803e3d6000fd5b505050506040513d601f19601f82011682018060405250810190611e7291906151f6565b613e00565b505050505b50505b80611e8981615b85565b91505061167b565b6000611e9f82840184614c8a565b90506113a681611627565b600081815260d1602052604081206008015460ff16611edb5760405162461bcd60e51b8152600401610841906156dc565b60c95460405163141165df60e31b8152600481018490526000916001600160a01b03169063a08b2ef89060240160006040518083038186803b158015611f2057600080fd5b505afa158015611f34573d6000803e3d6000fd5b505050506040513d6000823e601f3d908101601f19168201604052611f5c9190810190614fae565b600084815260d1602052604080822060cb5460c085015160e0860151935163ccc0628160e01b815295965091946001600160a01b039091169263ccc0628192611fad92909190600190600401615574565b60206040518083038186803b158015611fc557600080fd5b505afa158015611fd9573d6000803e3d6000fd5b505050506040513d601f19601f82011682018060405250810190611ffd91906151f6565b60cb5460c085015160e086015160405163ccc0628160e01b81529394506000936001600160a01b039093169263ccc062819261203f9290918690600401615574565b60206040518083038186803b15801561205757600080fd5b505afa15801561206b573d6000803e3d6000fd5b505050506040513d601f19601f8201168201806040525081019061208f91906151f6565b9050600061209f85858585613d24565b50979650505050505050565b7f42802a37d17e698ec3d88f7a6917f1f5a6abb4d99a8f4255c389e56d10218a646120d581613c2d565b600082116121255760405162461bcd60e51b815260206004820152601860248201527f496e76616c6964206c697175696469747920616d6f756e7400000000000000006044820152606401610841565b60cc546040516256688760e81b8152336004820152602481018490526001600160a01b0390911690635668870090604401600060405180830381600087803b15801561217057600080fd5b505af1158015612184573d6000803e3d6000fd5b505050505050565b7f42802a37d17e698ec3d88f7a6917f1f5a6abb4d99a8f4255c389e56d10218a646121b681613c2d565b816001600160a01b0381166121ff5760405162461bcd60e51b815260206004820152600f60248201526e496e76616c6964206164647265737360881b6044820152606401610841565b60cc5460408051630d34328160e11b815290516000926001600160a01b031691631a686502916004808301926020929190829003018186803b15801561224457600080fd5b505afa158015612258573d6000803e3d6000fd5b505050506040513d601f19601f8201168201806040525081019061227c91906151f6565b905060008511801561228e5750808511155b6122da5760405162461bcd60e51b815260206004820152601a60248201527f496e76616c696420616d6f756e7420746f2077697468647261770000000000006044820152606401610841565b6122e48582615b27565b60ce54111561232d5760405162461bcd60e51b8152602060048201526015602482015274139bdd08195b9bdd59da0818dbdb1b185d195c985b605a1b6044820152606401610841565b60cc5460405163347e064d60e11b8152600481018790526001600160a01b038681166024830152909116906368fc0c9a90604401600060405180830381600087803b15801561237b57600080fd5b505af115801561238f573d6000803e3d6000fd5b505050505050505050565b6000606060006123a861352b565b8051909150156124bd5760019250600060d3548251116123c95781516123cd565b60d3545b90506000816001600160401b038111156123f757634e487b7160e01b600052604160045260246000fd5b604051908082528060200260200182016040528015612420578160200160208202803683370190505b50905060005b828110156124935783818151811061244e57634e487b7160e01b600052603260045260246000fd5b602002602001015182828151811061247657634e487b7160e01b600052603260045260246000fd5b60209081029190910101528061248b81615b85565b915050612426565b50806040516020016124a591906154ab565b604051602081830303815290604052935050506124c2565b600092505b509250929050565b6033546001600160a01b031633146125245760405162461bcd60e51b815260206004820181905260248201527f4f776e61626c653a2063616c6c6572206973206e6f7420746865206f776e65726044820152606401610841565b61252e6000613e3f565b565b60008087116125815760405162461bcd60e51b815260206004820152601f60248201527f4c6971756964697479206d757374206265206c6172676572207468616e2030006044820152606401610841565b60006125976125908c8c6159c7565b8a89611327565b9050878111156125fb5760405162461bcd60e51b815260206004820152602960248201527f436f6c6c61746572616c206d75737420626520736d616c6c6572207468616e206044820152686c697175696469747960b81b6064820152608401610841565b6040805163f5a6a39f60e01b8152600481018d905260248101839052604481018a905287356064820152602088013560848201529087013560a482015260c4810186905260e48101859052610104810184905273A44Fd9588BFf29Ba405E428F21224b035A9f13bf9063f5a6a39f906101240160206040518083038186803b15801561268657600080fd5b505af415801561269a573d6000803e3d6000fd5b505050506040513d601f19601f820116820180604052508101906126be91906151f6565b9b9a5050505050505050505050565b6126d8600033613b1f565b60d054156127435760405162461bcd60e51b815260206004820152603260248201527f43616e6e6f74206368616e67652076616c75652077697468206578697374696e60448201527167206f70656e2070726f74656374696f6e7360701b6064820152608401610841565b60ca5460405163768da62360e01b815261ffff831660048201526001600160a01b039091169063768da62390602401600060405180830381600087803b15801561278c57600080fd5b505af11580156127a0573d6000803e3d6000fd5b5050505050565b60cb54604051626597ad60e71b815260009182916001600160a01b03909116906332cbd680906127dd908790879060040161554f565b60006040518083038186803b1580156127f557600080fd5b505afa158015612809573d6000803e3d6000fd5b505050506040513d6000823e601f3d908101601f1916820160405261283191908101906150ab565b9050600060ca60009054906101000a90046001600160a01b03166001600160a01b03166363aa3bd96040518163ffffffff1660e01b815260040160206040518083038186803b15801561288357600080fd5b505afa158015612897573d6000803e3d6000fd5b505050506040513d601f19601f820116820180604052508101906128bb919061518a565b61ffff16905060008160ca60009054906101000a90046001600160a01b03166001600160a01b031663da25cb0c6040518163ffffffff1660e01b815260040160206040518083038186803b15801561291257600080fd5b505afa158015612926573d6000803e3d6000fd5b505050506040513d601f19601f8201168201806040525081019061294a919061518a565b61295690612710615b04565b61ffff1661296661271085615ae5565b61297091906159df565b61297a9190615b27565b9050600060cc60009054906101000a90046001600160a01b03166001600160a01b0316631a6865026040518163ffffffff1660e01b815260040160206040518083038186803b1580156129cc57600080fd5b505afa1580156129e0573d6000803e3d6000fd5b505050506040513d601f19601f82011682018060405250810190612a0491906151f6565b90506000612a13828989613e91565b905060d58560000151604051612a29919061541a565b90815260200160405180910390208560200151604051612a49919061541a565b908152602001604051809103902054811115612b7057600073E1db41617188103cD5E4B2EBdA9C2fb2D0f0a375637ae2b5c760d58860000151604051612a8f919061541a565b90815260200160405180910390208860200151604051612aaf919061541a565b90815260200160405180910390205484612ac99190615b27565b60ce54612ad69087615b27565b6040516001600160e01b031960e085901b1681526004810192909252602482015260440160206040518083038186803b158015612b1257600080fd5b505af4158015612b26573d6000803e3d6000fd5b505050506040513d601f19601f82011682018060405250810190612b4a91906151f6565b905083612b5961271083615ae5565b612b6391906159df565b96505050505050506107d5565b6000955050505050506107d5565b6000612b8a6001613f3a565b90508015612ba2576000805461ff0019166101001790555b612bab89613fc7565b60ca80546001600160a01b03199081166001600160a01b038b81169190911790925560cc805482168a841617905560cb8054821689841617905560c98054821688841617905560d68054821687841617905560cd805490911691851691909117905560d3829055801561238f576000805461ff0019169055604051600181527f7f26b83ff96e1f2b6a682f133852f6798a09c465da95921460cefb3847402498906020015b60405180910390a1505050505050505050565b60ca54604051631373a3b760e21b8152600481018390526001600160a01b0390911690634dce8edc9060240160206040518083038186803b158015612ca757600080fd5b505afa158015612cbb573d6000803e3d6000fd5b505050506040513d601f19601f82011682018060405250810190612cdf9190614d31565b612d235760405162461bcd60e51b8152602060048201526015602482015274125b9d985b1a59081c1bdb1a58de481c195c9a5bd9605a1b6044820152606401610841565b60008311612d915760405162461bcd60e51b815260206004820152603560248201527f6c70546f6b656e73576f727468417442757954696d655553442076616c75652060448201527406d757374206265206c6172676572207468616e203605c1b6064820152608401610841565b60ca60009054906101000a90046001600160a01b03166001600160a01b0316639852a4366040518163ffffffff1660e01b815260040160206040518083038186803b158015612ddf57600080fd5b505afa158015612df3573d6000803e3d6000fd5b505050506040513d601f19601f82011682018060405250810190612e179190614d31565b612e635760405162461bcd60e51b815260206004820152601d60248201527f427579696e672070726f74656374696f6e2069732064697361626c65640000006044820152606401610841565b60cc5460408051630d34328160e11b815290516000926001600160a01b031691631a686502916004808301926020929190829003018186803b158015612ea857600080fd5b505afa158015612ebc573d6000803e3d6000fd5b505050506040513d601f19601f82011682018060405250810190612ee091906151f6565b11612f1c5760405162461bcd60e51b815260206004820152600c60248201526b4e6f206c697175696469747960a01b6044820152606401610841565b60cb54604051626597ad60e71b81526000916001600160a01b0316906332cbd68090612f52908b908b908b908b9060040161550a565b60006040518083038186803b158015612f6a57600080fd5b505afa158015612f7e573d6000803e3d6000fd5b505050506040513d6000823e601f3d908101601f19168201604052612fa691908101906150ab565b90508360cf6000828254612fba91906159c7565b925050819055508360d46000828254612fd391906159c7565b92505081905550600080600080600080612ff833886000015189602001518d8c610972565b9550955095509550955095508160ce600082825461301691906159c7565b9091555050856130685760405162461bcd60e51b815260206004820152601760248201527f5072656d69756d20636f737420697320746f6f206c6f770000000000000000006044820152606401610841565b888611156130b85760405162461bcd60e51b815260206004820152601960248201527f4d6178207072656d69756d20636f7374206578636565646564000000000000006044820152606401610841565b60006130c48688615b27565b90508060cc60009054906101000a90046001600160a01b03166001600160a01b0316631a6865026040518163ffffffff1660e01b815260040160206040518083038186803b15801561311557600080fd5b505afa158015613129573d6000803e3d6000fd5b505050506040513d601f19601f8201168201806040525081019061314d91906151f6565b61315791906159c7565b60ce54106131b75760405162461bcd60e51b815260206004820152602760248201527f4e6f7420656e6f75676820636f6c6c61746572616c20746f20706179206261636044820152663590313abcb2b960c91b6064820152608401610841565b61325b88600001518960200151858460cc60009054906101000a90046001600160a01b03166001600160a01b0316631a6865026040518163ffffffff1660e01b815260040160206040518083038186803b15801561321457600080fd5b505afa158015613228573d6000803e3d6000fd5b505050506040513d601f19601f8201168201806040525081019061324c91906151f6565b61325691906159c7565b614009565b60c954604080516398bdf6f560e01b815290516000926001600160a01b0316916398bdf6f591600480830192602092919082900301818787803b1580156132a157600080fd5b505af11580156132b5573d6000803e3d6000fd5b505050506040513d601f19601f820116820180604052508101906132d991906151f6565b905081156134775760006132ed8688615b27565b11156134135760cc546001600160a01b031663140216978233856133118a8c615b27565b60ca60009054906101000a90046001600160a01b03166001600160a01b031663edb1192e6040518163ffffffff1660e01b815260040160206040518083038186803b15801561335f57600080fd5b505afa158015613373573d6000803e3d6000fd5b505050506040513d601f19601f82011682018060405250810190613397919061518a565b6040516001600160e01b031960e088901b16815260048101959095526001600160a01b0390931660248501526044840191909152606483015261ffff16608482015260a401600060405180830381600087803b1580156133f657600080fd5b505af115801561340a573d6000803e3d6000fd5b50505050613477565b60cc546040516256688760e81b8152336004820152602481018490526001600160a01b0390911690635668870090604401600060405180830381600087803b15801561345e57600080fd5b505af1158015613472573d6000803e3d6000fd5b505050505b86156134db5760d654604051632b385bbb60e01b81523360048201526001600160a01b0390911690632b385bbb90602401600060405180830381600087803b1580156134c257600080fd5b505af11580156134d6573d6000803e3d6000fd5b505050505b6134ee338a838f8e8d8d8d8d8c8e61410f565b50505050505050505050505050505050565b60009182526097602090815260408084206001600160a01b0393909316845291905290205460ff1690565b60606000613537614557565b6001600160401b0381111561355c57634e487b7160e01b600052604160045260246000fd5b604051908082528060200260200182016040528015613585578160200160208202803683370190505b5090506000805b60d0548110156136d05760c95460d080546000926001600160a01b03169163a08b2ef891859081106135ce57634e487b7160e01b600052603260045260246000fd5b90600052602060002001546040518263ffffffff1660e01b81526004016135f791815260200190565b60006040518083038186803b15801561360f57600080fd5b505afa158015613623573d6000803e3d6000fd5b505050506040513d6000823e601f3d908101601f1916820160405261364b9190810190614fae565b9050428160600151116136bd5760d0828154811061367957634e487b7160e01b600052603260045260246000fd5b906000526020600020015484848061369090615b85565b9550815181106136b057634e487b7160e01b600052603260045260246000fd5b6020026020010181815250505b50806136c881615b85565b91505061358c565b509092915050565b60008060cb60009054906101000a90046001600160a01b03166001600160a01b0316631af855fd6040518163ffffffff1660e01b815260040160206040518083038186803b15801561372957600080fd5b505afa15801561373d573d6000803e3d6000fd5b505050506040513d601f19601f820116820180604052508101906137619190615387565b90506000613771878787876139b1565b6040516306458b2960e51b8152600481018690526024810188905260ff8416604482015290915060009073E1db41617188103cD5E4B2EBdA9C2fb2D0f0a3759063c8b16520908290829060640160206040518083038186803b1580156137d657600080fd5b505af41580156137ea573d6000803e3d6000fd5b505050506040513d601f19601f8201168201806040525081019061380e91906151f6565b6040516306458b2960e51b8152600481018a9052602481018c905260ff8716604482015273E1db41617188103cD5E4B2EBdA9C2fb2D0f0a3759063c8b165209060640160206040518083038186803b15801561386957600080fd5b505af415801561387d573d6000803e3d6000fd5b505050506040513d601f19601f820116820180604052508101906138a191906151f6565b6138ab91906159c7565b6138b686600a615a3a565b6138c1906002615ae5565b6040516001600160e01b031960e085901b1681526004810192909252602482015260ff8616604482015260640160206040518083038186803b15801561390657600080fd5b505af415801561391a573d6000803e3d6000fd5b505050506040513d601f19601f8201168201806040525081019061393e91906151f6565b9050600061394d84600a615a3a565b613957838c615ae5565b61396191906159df565b905061271061397461ffff851683615ae5565b61397e91906159df565b9a9950505050505050505050565b6000828152609760205260409020600101546139a781613c2d565b6113a68383613cbd565b604051635c441f0160e01b81526004810185905260248101849052604481018390526064810182905261271060848201526000907371b42bEef3ebEeEa766312bEfA26B5fE054d213790635c441f019060a40160206040518083038186803b158015613a1c57600080fd5b505af4158015613a30573d6000803e3d6000fd5b505050506040513d601f19601f82011682018060405250810190611378919061518a565b6033546001600160a01b03163314613aae5760405162461bcd60e51b815260206004820181905260248201527f4f776e61626c653a2063616c6c6572206973206e6f7420746865206f776e65726044820152606401610841565b6001600160a01b038116613b135760405162461bcd60e51b815260206004820152602660248201527f4f776e61626c653a206e6577206f776e657220697320746865207a65726f206160448201526564647265737360d01b6064820152608401610841565b613b1c81613e3f565b50565b613b298282613500565b61142557613b41816001600160a01b0316601461464c565b613b4c83602061464c565b604051602001613b5d929190615436565b60408051601f198184030181529082905262461bcd60e51b82526108419160040161553c565b60008060cd60009054906101000a90046001600160a01b03166001600160a01b031663c1639a2b6040518163ffffffff1660e01b815260040160606040518083038186803b158015613bd457600080fd5b505afa158015613be8573d6000803e3d6000fd5b505050506040513d601f19601f82011682018060405250810190613c0c91906151a6565b50509050662386f26fc100008161ffff16613c279190615ae5565b91505090565b613b1c8133613b1f565b613c418282613500565b6114255760008281526097602090815260408083206001600160a01b03851684529091529020805460ff19166001179055613c793390565b6001600160a01b0316816001600160a01b0316837f2f8788117e7eff1d82e926ec794901d17c78024a50270940304540a733656f0d60405160405180910390a45050565b613cc78282613500565b156114255760008281526097602090815260408083206001600160a01b0385168085529252808320805460ff1916905551339285917ff6391f5c32d9c69d2a47ea670b442974b53935d1edc7fd64eb21e047a839171b9190a45050565b6000806000613d428760a001518760010154886002015488886136d8565b905060008160ca60009054906101000a90046001600160a01b03166001600160a01b031663a38d0aef6040518163ffffffff1660e01b815260040160206040518083038186803b158015613d9557600080fd5b505afa158015613da9573d6000803e3d6000fd5b505050506040513d601f19601f82011682018060405250810190613dcd91906151f6565b1190508015613ddf5760009150613df3565b8660050154821115613df357866005015491505b9097909650945050505050565b7f98a18ec4dddf286e417c85b9ee7e8130a54129d8d1248c8be36f3b25530f43f7898989898989898989604051612c50999897969594939291906155e2565b603380546001600160a01b038381166001600160a01b0319831681179093556040519116919082907f8be0079c531659141344cd1fd0a4f28419497f9722a3daafe3b4186f6b6457e090600090a35050565b60cb5460405163cdf6dab760e01b8152600091612710916001600160a01b039091169063cdf6dab790613eca908790879060040161554f565b60206040518083038186803b158015613ee257600080fd5b505afa158015613ef6573d6000803e3d6000fd5b505050506040513d601f19601f82011682018060405250810190613f1a919061518a565b613f289061ffff1686615ae5565b613f3291906159df565b949350505050565b60008054610100900460ff1615613f81578160ff166001148015613f5d5750303b155b613f795760405162461bcd60e51b815260040161084190615643565b506000919050565b60005460ff808416911610613fa85760405162461bcd60e51b815260040161084190615643565b506000805460ff191660ff92909216919091179055600190565b919050565b600054610100900460ff16613fee5760405162461bcd60e51b815260040161084190615691565b613ff661482d565b613ffe61485c565b613b13600082614883565b6000614016828686613e91565b90508260d586604051614029919061541a565b908152602001604051809103902085604051614045919061541a565b90815260200160405180910390205461405e91906159c7565b8110156140b95760405162461bcd60e51b8152602060048201526024808201527f5061697220636f6c6c61746572616c2063617020686173206265656e2072656160448201526318da195960e21b6064820152608401610841565b8260d5866040516140ca919061541a565b9081526020016040518091039020856040516140e6919061541a565b9081526020016040518091039020600082825461410391906159c7565b90915550505050505050565b6141208b8b8a8a8a8a8a8a8a61488d565b60d08054600181810183556000929092527fe89d44c8fd6a9bac8af33ce47f56337617d449bf7ff3956b618c646de829cbcb018a905560408051610160810182528b815260cb548d5160208f810151945163ccc0628160e01b81529395908601946001600160a01b039093169363ccc06281936141a293929091600401615574565b60206040518083038186803b1580156141ba57600080fd5b505afa1580156141ce573d6000803e3d6000fd5b505050506040513d601f19601f820116820180604052508101906141f291906151f6565b815260cb548c5160208e81015160405163ccc0628160e01b815291909401936001600160a01b039093169263ccc062819261423592909190600090600401615574565b60206040518083038186803b15801561424d57600080fd5b505afa158015614261573d6000803e3d6000fd5b505050506040513d601f19601f8201168201806040525081019061428591906151f6565b8152602001600081526020016000815260200182815260200160008152602001600160d0805490506142b79190615b27565b815260200160011515815260200185815260200160ca60009054906101000a90046001600160a01b03166001600160a01b031663edb1192e6040518163ffffffff1660e01b815260040160206040518083038186803b15801561431957600080fd5b505afa15801561432d573d6000803e3d6000fd5b505050506040513d601f19601f82011682018060405250810190614351919061518a565b61ffff90811690915260008b815260d1602090815260409182902084518155908401516001820155908301516002820155606083015160038201556080830151600482015560a0830151600582015560c0830151600682015560e0830151600782015561010083015160088201805460ff1916911515919091179055610120830151600982015561014090920151600a909201805461ffff1916929091169190911790556144038b8b8b8a8a89614982565b61454a8a600001518b602001518b8460d58f60000151604051614426919061541a565b90815260200160405180910390208f60200151604051614446919061541a565b90815260200160405180910390205461445f9190615b27565b8e5160405160d5916144709161541a565b90815260200160405180910390208f60200151604051614490919061541a565b9081526020016040518091039020548660ce546144ad9190615b27565b60ce546144ba8d8f615b27565b60cc60009054906101000a90046001600160a01b03166001600160a01b0316631a6865026040518163ffffffff1660e01b815260040160206040518083038186803b15801561450857600080fd5b505afa15801561451c573d6000803e3d6000fd5b505050506040513d601f19601f8201168201806040525081019061454091906151f6565b611dec9190615b27565b5050505050505050505050565b6000805b60d0548110156146485760c95460d080546000926001600160a01b03169163a08b2ef8918590811061459d57634e487b7160e01b600052603260045260246000fd5b90600052602060002001546040518263ffffffff1660e01b81526004016145c691815260200190565b60006040518083038186803b1580156145de57600080fd5b505afa1580156145f2573d6000803e3d6000fd5b505050506040513d6000823e601f3d908101601f1916820160405261461a9190810190614fae565b905042816060015111614635578261463181615b85565b9350505b508061464081615b85565b91505061455b565b5090565b6060600061465b836002615ae5565b6146669060026159c7565b6001600160401b0381111561468b57634e487b7160e01b600052604160045260246000fd5b6040519080825280601f01601f1916602001820160405280156146b5576020820181803683370190505b509050600360fc1b816000815181106146de57634e487b7160e01b600052603260045260246000fd5b60200101906001600160f81b031916908160001a905350600f60fb1b8160018151811061471b57634e487b7160e01b600052603260045260246000fd5b60200101906001600160f81b031916908160001a905350600061473f846002615ae5565b61474a9060016159c7565b90505b60018111156147de576f181899199a1a9b1b9c1cb0b131b232b360811b85600f166010811061478c57634e487b7160e01b600052603260045260246000fd5b1a60f81b8282815181106147b057634e487b7160e01b600052603260045260246000fd5b60200101906001600160f81b031916908160001a90535060049490941c936147d781615b6e565b905061474d565b5083156108ad5760405162461bcd60e51b815260206004820181905260248201527f537472696e67733a20686578206c656e67746820696e73756666696369656e746044820152606401610841565b600054610100900460ff166148545760405162461bcd60e51b815260040161084190615691565b61252e614a0b565b600054610100900460ff1661252e5760405162461bcd60e51b815260040161084190615691565b6114258282613c37565b60c95460408051610140810182526001600160a01b038c811682524260208301529092169163e042af9d9181016148c38a614a3b565b81526020016148d2878a6159c7565b81526020018a81526020018b6000015181526020018b60200151815260200189815260200184600281111561491757634e487b7160e01b600052602160045260246000fd5b815260200161492686896159c7565b8152506040518263ffffffff1660e01b81526004016149459190615728565b600060405180830381600087803b15801561495f57600080fd5b505af1158015614973573d6000803e3d6000fd5b50505050505050505050505050565b856001600160a01b0316847f7b8fe50e11f1dd5b25013705912a6af2f4961cf940564ad8cb70ab43c169d526426149b887614a3b565b6149c286886159c7565b8a516020808d015160008d815260d1909252604091829020600181015460029091015460ce5493516149fb98979695948f9392916157dc565b60405180910390a3505050505050565b600054610100900460ff16614a325760405162461bcd60e51b815260040161084190615691565b61252e33613e3f565b60006107d582426159c7565b8051613fc281615bcc565b80518015158114613fc257600080fd5b60008083601f840112614a73578182fd5b5081356001600160401b03811115614a89578182fd5b602083019150836020828501011115614aa157600080fd5b9250929050565b805160038110613fc257600080fd5b600082601f830112614ac7578081fd5b8135614ada614ad5826159a0565b615970565b818152846020838601011115614aee578283fd5b816020850160208301379081016020019190915292915050565b600082601f830112614b18578081fd5b8151614b26614ad5826159a0565b818152846020838601011115614b3a578283fd5b613f32826020830160208701615b3e565b600060208284031215614b5c578081fd5b81356108ad81615bcc565b600080600080600080600080610100898b031215614b83578384fd5b8835614b8e81615bcc565b97506020890135614b9e81615bcc565b96506040890135614bae81615bcc565b95506060890135614bbe81615bcc565b94506080890135614bce81615bcc565b935060a0890135614bde81615bcc565b925060c0890135614bee81615bcc565b8092505060e089013590509295985092959890939650565b600080600080600060a08688031215614c1d578283fd5b8535614c2881615bcc565b945060208601356001600160401b0380821115614c43578485fd5b614c4f89838a01614ab7565b95506040880135915080821115614c64578485fd5b50614c7188828901614ab7565b9598949750949560608101359550608001359392505050565b60006020808385031215614c9c578182fd5b82356001600160401b0380821115614cb2578384fd5b818501915085601f830112614cc5578384fd5b813581811115614cd757614cd7615bb6565b8060051b9150614ce8848301615970565b8181528481019084860184860187018a1015614d02578788fd5b8795505b83861015614d24578035835260019590950194918601918601614d06565b5098975050505050505050565b600060208284031215614d42578081fd5b6108ad82614a52565b600060208284031215614d5c578081fd5b5035919050565b60008060408385031215614d75578182fd5b823591506020830135614d8781615bcc565b809150509250929050565b600060208284031215614da3578081fd5b81356001600160e01b0319811681146108ad578182fd5b60008060208385031215614dcc578182fd5b82356001600160401b03811115614de1578283fd5b614ded85828601614a62565b90969095509350505050565b600080600080600080600060a0888a031215614e13578081fd5b87356001600160401b0380821115614e29578283fd5b614e358b838c01614a62565b909950975060208a0135915080821115614e4d578283fd5b50614e5a8a828b01614a62565b989b979a50986040810135976060820135975060809091013595509350505050565b60008060408385031215614e8e578182fd5b82356001600160401b0380821115614ea4578384fd5b614eb086838701614ab7565b93506020850135915080821115614ec5578283fd5b50614ed285828601614ab7565b9150509250929050565b600060808284031215614eed578081fd5b604051608081018181106001600160401b0382111715614f0f57614f0f615bb6565b604052614f1b83614aa8565b8152614f2960208401614a52565b60208201526040830151614f3c81615be1565b60408201526060928301519281019290925250919050565b600060608284031215614f65578081fd5b604051606081018181106001600160401b0382111715614f8757614f87615bb6565b80604052508251815260208301516020820152604083015160408201528091505092915050565b600060208284031215614fbf578081fd5b81516001600160401b0380821115614fd5578283fd5b908301906101608286031215614fe9578283fd5b614ff1615925565b8251815261500160208401614a47565b602082015260408301516040820152606083015160608201526080830151608082015260a083015160a082015260c08301518281111561503f578485fd5b61504b87828601614b08565b60c08301525060e083015182811115615062578485fd5b61506e87828601614b08565b60e0830152506101008381015190820152610120915061508f828401614aa8565b9181019190915261014091820151918101919091529392505050565b6000602082840312156150bc578081fd5b81516001600160401b03808211156150d2578283fd5b9083019060a082860312156150e5578283fd5b6150ed61594e565b8251828111156150fb578485fd5b61510787828601614b08565b82525060208301518281111561511b578485fd5b61512787828601614b08565b6020830152506040830151915061513d82615bcc565b81604082015261514f60608401614a47565b606082015261516060808401614a52565b608082015295945050505050565b60006020828403121561517f578081fd5b81356108ad81615be1565b60006020828403121561519b578081fd5b81516108ad81615be1565b6000806000606084860312156151ba578081fd5b83516151c581615be1565b602085015190935069ffffffffffffffffffff811681146151e4578182fd5b80925050604084015190509250925092565b600060208284031215615207578081fd5b5051919050565b60008060408385031215615220578182fd5b823591506020830135614d8781615be1565b600080600060608486031215615246578081fd5b83359250602084013561525881615be1565b9150604084013561526881615be1565b809150509250925092565b6000806000806000806000806000898b03610160811215615292578384fd5b8a35995060208b0135985060408b01356152ab81615be1565b975060608b0135965060808b01356152c281615be1565b95506060609f19820112156152d5578384fd5b50979a9699509497939650919460a08401945061010084013593610120810135935061014001359150565b60008060008060808587031215615315578182fd5b5050823594602084013594506040840135936060013592509050565b600080600080600060a08688031215615348578283fd5b505083359560208501359550604085013594606081013594506080013592509050565b60006020828403121561537c578081fd5b81356108ad81615bf1565b600060208284031215615398578081fd5b81516108ad81615bf1565b600081518084526153bb816020860160208601615b3e565b601f01601f19169290920160200192915050565b600381106153ed57634e487b7160e01b600052602160045260246000fd5b9052565b81835281816020850137506000828201602090810191909152601f909101601f19169091010190565b6000825161542c818460208701615b3e565b9190910192915050565b7f416363657373436f6e74726f6c3a206163636f756e742000000000000000000081526000835161546e816017850160208801615b3e565b7001034b99036b4b9b9b4b733903937b6329607d1b601791840191820152835161549f816028840160208801615b3e565b01602801949350505050565b6020808252825182820181905260009190848201906040850190845b818110156154e3578351835292840192918401916001016154c7565b50909695505050505050565b8215158152604060208201526000613f3260408301846153a3565b60408152600061551e6040830186886153f1565b82810360208401526155318185876153f1565b979650505050505050565b6020815260006108ad60208301846153a3565b60408152600061556260408301856153a3565b828103602084015261137881856153a3565b60608152600061558760608301866153a3565b828103602084015261559981866153a3565b9150508215156040830152949350505050565b6060815260006155bf60608301866153a3565b82810360208401526155d181866153a3565b915050826040830152949350505050565b60006101208083526155f68184018d6153a3565b9050828103602084015261560a818c6153a3565b604084019a909a5250506060810196909652608086019490945260a085019290925260c084015260e08301526101009091015292915050565b6020808252602e908201527f496e697469616c697a61626c653a20636f6e747261637420697320616c72656160408201526d191e481a5b9a5d1a585b1a5e995960921b606082015260800190565b6020808252602b908201527f496e697469616c697a61626c653a20636f6e7472616374206973206e6f74206960408201526a6e697469616c697a696e6760a81b606082015260800190565b6020808252602c908201527f50726f74656374696f6e2069732065697468657220636c6f736564206f72206460408201526b1bd95cdb89dd08195e1a5cdd60a21b606082015260800190565b602081526157426020820183516001600160a01b03169052565b602082015160408201526040820151606082015260608201516080820152608082015160a0820152600060a08301516101408060c08501526157886101608501836153a3565b915060c0850151601f198584030160e08601526157a583826153a3565b92505060e08501516101008181870152808701519150506101206157cb818701836153cf565b959095015193019290925250919050565b60006101208b83528a60208401528960408401528060608401526158028184018a6153a3565b9050828103608084015261581681896153a3565b9150508560a08301528460c08301528360e0830152826101008301529a9950505050505050505050565b96875260208088019690965260408088019590955283516060880152948301516080870152919092015160a085015260c084019190915260e08301526101008201526101200190565b60006101408c83528b60208401528a60408401528960608401528060808401526158b58184018a6153a3565b905082810360a08401526158c981896153a3565b9150508560c08301528460e083015283610100830152826101208301529b9a5050505050505050505050565b600060c08201905087825286602083015285604083015284606083015283608083015261553160a08301846153cf565b60405161016081016001600160401b038111828210171561594857615948615bb6565b60405290565b60405160a081016001600160401b038111828210171561594857615948615bb6565b604051601f8201601f191681016001600160401b038111828210171561599857615998615bb6565b604052919050565b60006001600160401b038211156159b9576159b9615bb6565b50601f01601f191660200190565b600082198211156159da576159da615ba0565b500190565b6000826159fa57634e487b7160e01b81526012600452602481fd5b500490565b600181815b808511156124c2578160001904821115615a2057615a20615ba0565b80851615615a2d57918102915b93841c9390800290615a04565b60006108ad60ff841683600082615a53575060016107d5565b81615a60575060006107d5565b8160018114615a765760028114615a8057615a9c565b60019150506107d5565b60ff841115615a9157615a91615ba0565b50506001821b6107d5565b5060208310610133831016604e8410600b8410161715615abf575081810a6107d5565b615ac983836159ff565b8060001904821115615add57615add615ba0565b029392505050565b6000816000190483118215151615615aff57615aff615ba0565b500290565b600061ffff83811690831681811015615b1f57615b1f615ba0565b039392505050565b600082821015615b3957615b39615ba0565b500390565b60005b83811015615b59578181015183820152602001615b41565b83811115615b68576000848401525b50505050565b600081615b7d57615b7d615ba0565b506000190190565b6000600019821415615b9957615b99615ba0565b5060010190565b634e487b7160e01b600052601160045260246000fd5b634e487b7160e01b600052604160045260246000fd5b6001600160a01b0381168114613b1c57600080fd5b61ffff81168114613b1c57600080fd5b60ff81168114613b1c57600080fdfea2646970667358221220d89116edc8ddb3a58f1a5c3e23cd10be0f8c8b57683a9bcbe5343c719f169a7f64736f6c63430008040033",
  "deployedBytecode": "0x608060405234801561001057600080fd5b50600436106102955760003560e01c80636f7d78281161016757806392f44448116100ce578063d8dfeb4511610087578063d8dfeb4514610746578063e1e702681461074f578063e5aebe8414610758578063f2fde38b1461076b578063f66496f71461077e578063ffc17ba71461079157600080fd5b806392f44448146106e757806395c196dd146106fa578063a217fddf1461070f578063b5e2452114610717578063d547741f1461072a578063d56f28511461073d57600080fd5b8063871ad1e611610120578063871ad1e614610566578063883019111461062e5780638da5cb5b146106415780638efe1fce146106525780638f29d12d146106c157806391d14854146106d457600080fd5b80636f7d782814610509578063715018a61461051c57806371fd02e01461052457806373f599da14610537578063768da62314610540578063821ff2c51461055357600080fd5b80632d5948071161020b5780634de6df43116101c45780634de6df431461047157806351c6590a146104845780635d77cf191461049757806368fc0c9a146104c25780636e04ff0d146104d55780636f40670d146104f657600080fd5b80632d594807146103f65780632f2ff15d146103ff57806336568abe146104125780633b37bf981461042557806343ebd06e1461044b5780634585e33b1461045e57600080fd5b8063175ef65e1161025d578063175ef65e1461033057806319edb4bd1461033e5780631f3d8c741461035157806320037cdd14610399578063206a2296146103c0578063248a9ca3146103d357600080fd5b806301ffc9a71461029a57806306bebf3c146102c25780630fed70a2146102d757806312d0ad4e146102f857806313c02e5e1461030b575b600080fd5b6102ad6102a8366004614d92565b6107a4565b60405190151581526020015b60405180910390f35b6102d56102d036600461536b565b6107db565b005b6102ea6102e536600461520e565b610890565b6040519081526020016102b9565b6102d5610306366004614b4b565b6108b4565b61031e610319366004614c06565b610972565b6040516102b9969594939291906158f5565b6102ea662386f26fc1000081565b6102ea61034c366004614d4b565b611306565b6102ea61035f366004614e7c565b815160208184018101805160d582529282019482019490942091909352815180830184018051928152908401929093019190912091525481565b6102ea7f42802a37d17e698ec3d88f7a6917f1f5a6abb4d99a8f4255c389e56d10218a6481565b6102ea6103ce366004615232565b611327565b6102ea6103e1366004614d4b565b60009081526097602052604090206001015490565b6102ea60cf5481565b6102d561040d366004614d63565b611381565b6102d5610420366004614d63565b6113ab565b610438610433366004614d4b565b611429565b60405161ffff90911681526020016102b9565b6102d5610459366004614c8a565b611627565b6102d561046c366004614dba565b611e91565b6102ea61047f366004614d4b565b611eaa565b6102d5610492366004614d4b565b6120ab565b60cc546104aa906001600160a01b031681565b6040516001600160a01b0390911681526020016102b9565b6102d56104d0366004614d63565b61218c565b6104e86104e3366004614dba565b61239a565b6040516102b99291906154ef565b60c9546104aa906001600160a01b031681565b60cd546104aa906001600160a01b031681565b6102d56124ca565b6102ea610532366004615273565b612530565b61043861271081565b6102d561054e36600461516e565b6126cd565b6102ea610561366004614e7c565b6127a7565b6105d5610574366004614d4b565b60d160205260009081526040902080546001820154600283015460038401546004850154600586015460068701546007880154600889015460098a0154600a909a01549899979896979596949593949293919260ff909116919061ffff168b565b604080519b8c5260208c019a909a52988a01979097526060890195909552608088019390935260a087019190915260c086015260e0850152151561010084015261012083015261ffff16610140820152610160016102b9565b6102d561063c366004614b67565b612b7e565b6033546001600160a01b03166104aa565b6105d5610660366004614d4b565b60d260205260009081526040902080546001820154600283015460038401546004850154600586015460068701546007880154600889015460098a0154600a909a01549899979896979596949593949293919260ff909116919061ffff168b565b6102d56106cf366004614df9565b612c63565b6102ad6106e2366004614d63565b613500565b60ca546104aa906001600160a01b031681565b61070261352b565b6040516102b991906154ab565b6102ea600081565b6102ea610725366004615331565b6136d8565b6102d5610738366004614d63565b61398c565b6102ea60d35481565b6102ea60ce5481565b6102ea60d45481565b610438610766366004615300565b6139b1565b6102d5610779366004614b4b565b613a54565b60cb546104aa906001600160a01b031681565b60d6546104aa906001600160a01b031681565b60006001600160e01b03198216637965db0b60e01b14806107d557506301ffc9a760e01b6001600160e01b03198316145b92915050565b6107e6600033613b1f565b60008160ff161161084a5760405162461bcd60e51b8152602060048201526024808201527f696e76616c6964206d617850726f74656374696f6e73496e55706b6565702076604482015263616c756560e01b60648201526084015b60405180910390fd5b60d3546040805191825260ff831660208301527f35b3f6968a3b29e3aaeff49ca8f509f08777a354c815de29c8b748a14eaf4113910160405180910390a160ff1660d355565b60006127106108a361ffff841685615ae5565b6108ad91906159df565b9392505050565b6108bf600033613b1f565b806001600160a01b0381166109085760405162461bcd60e51b815260206004820152600f60248201526e496e76616c6964206164647265737360881b6044820152606401610841565b60d654604080516001600160a01b03928316815291841660208301527f42e5d6b0b85ac07d54cc4598c40fdb8bfc151df0f2aab57cb52080254a44cdc7910160405180910390a15060d680546001600160a01b0319166001600160a01b0392909216919091179055565b6000806000806000806109858a8a6127a7565b8811156109fa5760405162461bcd60e51b815260206004820152603a60248201527f6c70546f6b656e73576f727468417442757954696d65555344203e206d61785660448201527f616c75654f66546f6b656e73576f727468546f50726f746563740000000000006064820152608401610841565b60cc5460408051630d34328160e11b815290516000926001600160a01b031691631a686502916004808301926020929190829003018186803b158015610a3f57600080fd5b505afa158015610a53573d6000803e3d6000fd5b505050506040513d601f19601f82011682018060405250810190610a7791906151f6565b60cb5460405163326625a760e21b81529192506000916001600160a01b039091169063c998969c90610ab1908f908f908e906004016155ac565b60606040518083038186803b158015610ac957600080fd5b505afa158015610add573d6000803e3d6000fd5b505050506040513d601f19601f82011682018060405250810190610b019190614f54565b9050610c138a60ca60009054906101000a90046001600160a01b03166001600160a01b03166363aa3bd96040518163ffffffff1660e01b815260040160206040518083038186803b158015610b5557600080fd5b505afa158015610b69573d6000803e3d6000fd5b505050506040513d601f19601f82011682018060405250810190610b8d919061518a565b60ca60009054906101000a90046001600160a01b03166001600160a01b031663da25cb0c6040518163ffffffff1660e01b815260040160206040518083038186803b158015610bdb57600080fd5b505afa158015610bef573d6000803e3d6000fd5b505050506040513d601f19601f820116820180604052508101906103ce919061518a565b935073__$3f85fbde44ed1f43c30acc3829f71e1fe6$__63f5a6a39f8b8660ce54610c3e91906159c7565b8585610c48613b83565b60ca60009054906101000a90046001600160a01b03166001600160a01b0316638a981d316040518163ffffffff1660e01b815260040160206040518083038186803b158015610c9657600080fd5b505afa158015610caa573d6000803e3d6000fd5b505050506040513d601f19601f82011682018060405250810190610cce91906151f6565b60ca60009054906101000a90046001600160a01b03166001600160a01b031663a0c5d2136040518163ffffffff1660e01b815260040160206040518083038186803b158015610d1c57600080fd5b505afa158015610d30573d6000803e3d6000fd5b505050506040513d601f19601f82011682018060405250810190610d5491906151f6565b6040518863ffffffff1660e01b8152600401610d769796959493929190615840565b60206040518083038186803b158015610d8e57600080fd5b505af4158015610da2573d6000803e3d6000fd5b505050506040513d601f19601f82011682018060405250810190610dc691906151f6565b9750610e528a60ca60009054906101000a90046001600160a01b03166001600160a01b031663edb1192e6040518163ffffffff1660e01b815260040160206040518083038186803b158015610e1a57600080fd5b505afa158015610e2e573d6000803e3d6000fd5b505050506040513d601f19601f820116820180604052508101906102e5919061518a565b9550600060d660009054906101000a90046001600160a01b03166001600160a01b03166389c9f0f88f6040518263ffffffff1660e01b8152600401610ea691906001600160a01b0391909116815260200190565b60806040518083038186803b158015610ebe57600080fd5b505afa158015610ed2573d6000803e3d6000fd5b505050506040513d601f19601f82011682018060405250810190610ef69190614edc565b90508060000151935060008060d660009054906101000a90046001600160a01b03166001600160a01b031663238dafe06040518163ffffffff1660e01b815260040160206040518083038186803b158015610f5057600080fd5b505afa158015610f64573d6000803e3d6000fd5b505050506040513d601f19601f82011682018060405250810190610f889190614d31565b8015610fb457506000866002811115610fb157634e487b7160e01b600052602160045260246000fd5b14155b8015610fc257508260200151155b156112d657600283516002811115610fea57634e487b7160e01b600052602160045260246000fd5b14156112765782606001518d111561127157600083606001518e61100e9190615b27565b6040850151909150612710906110249082615b04565b61ffff1673__$3f85fbde44ed1f43c30acc3829f71e1fe6$__63f5a6a39f848c60ce5461105191906159c7565b8b8b61105b613b83565b60ca60009054906101000a90046001600160a01b03166001600160a01b0316638a981d316040518163ffffffff1660e01b815260040160206040518083038186803b1580156110a957600080fd5b505afa1580156110bd573d6000803e3d6000fd5b505050506040513d601f19601f820116820180604052508101906110e191906151f6565b60ca60009054906101000a90046001600160a01b03166001600160a01b031663a0c5d2136040518163ffffffff1660e01b815260040160206040518083038186803b15801561112f57600080fd5b505afa158015611143573d6000803e3d6000fd5b505050506040513d601f19601f8201168201806040525081019061116791906151f6565b6040518863ffffffff1660e01b81526004016111899796959493929190615840565b60206040518083038186803b1580156111a157600080fd5b505af41580156111b5573d6000803e3d6000fd5b505050506040513d601f19601f820116820180604052508101906111d991906151f6565b6111e39190615ae5565b6111ed91906159df565b6040850151909350612710906112039082615b04565b61ffff166112598360ca60009054906101000a90046001600160a01b03166001600160a01b031663edb1192e6040518163ffffffff1660e01b815260040160206040518083038186803b158015610e1a57600080fd5b6112639190615ae5565b61126d91906159df565b9150505b6112dc565b6040830151612710906112899082615b04565b6112979061ffff168b615ae5565b6112a191906159df565b6040840151909150612710906112b79082615b04565b6112c59061ffff168d615ae5565b6112cf91906159df565b91506112dc565b50899050875b6112e6828c615b27565b99506112f2818a615b27565b975050505050509550955095509550955095565b60d0818154811061131657600080fd5b600091825260209091200154905081565b60008061271061133b61ffff861687615ae5565b61134591906159df565b90508061135484612710615b04565b61ffff1661136461271084615ae5565b61136e91906159df565b6113789190615b27565b95945050505050565b60008281526097602052604090206001015461139c81613c2d565b6113a68383613c37565b505050565b6001600160a01b038116331461141b5760405162461bcd60e51b815260206004820152602f60248201527f416363657373436f6e74726f6c3a2063616e206f6e6c792072656e6f756e636560448201526e103937b632b9903337b91039b2b63360891b6064820152608401610841565b6114258282613cbd565b5050565b600081815260d1602052604081206008015460ff1661145a5760405162461bcd60e51b8152600401610841906156dc565b60c95460405163141165df60e31b8152600481018490526000916001600160a01b03169063a08b2ef89060240160006040518083038186803b15801561149f57600080fd5b505afa1580156114b3573d6000803e3d6000fd5b505050506040513d6000823e601f3d908101601f191682016040526114db9190810190614fae565b60cb5460c082015160e083015160405163ccc0628160e01b81529394506000936001600160a01b039093169263ccc062819261151e929091600190600401615574565b60206040518083038186803b15801561153657600080fd5b505afa15801561154a573d6000803e3d6000fd5b505050506040513d601f19601f8201168201806040525081019061156e91906151f6565b60cb5460c084015160e085015160405163ccc0628160e01b81529394506000936001600160a01b039093169263ccc06281926115b09290918690600401615574565b60206040518083038186803b1580156115c857600080fd5b505afa1580156115dc573d6000803e3d6000fd5b505050506040513d601f19601f8201168201806040525081019061160091906151f6565b600086815260d16020526040902060018101546002909101549192506113789184846139b1565b60008151116116785760405162461bcd60e51b815260206004820152601e60248201527f50726f74656374696f6e732049647320617272617920697320656d70747900006044820152606401610841565b60005b815181101561142557600060d160008484815181106116aa57634e487b7160e01b600052603260045260246000fd5b6020026020010151815260200190815260200160002090508060080160009054906101000a900460ff166116de5750611e7f565b60c95483516000916001600160a01b03169063a08b2ef89086908690811061171657634e487b7160e01b600052603260045260246000fd5b60200260200101516040518263ffffffff1660e01b815260040161173c91815260200190565b60006040518083038186803b15801561175457600080fd5b505afa158015611768573d6000803e3d6000fd5b505050506040513d6000823e601f3d908101601f191682016040526117909190810190614fae565b905042816060015111611e7c5760cb5460c082015160e083015160405163ccc0628160e01b81526000936001600160a01b03169263ccc06281926117d992600190600401615574565b60206040518083038186803b1580156117f157600080fd5b505afa158015611805573d6000803e3d6000fd5b505050506040513d601f19601f8201168201806040525081019061182991906151f6565b60cb5460c084015160e085015160405163ccc0628160e01b81529394506000936001600160a01b039093169263ccc062819261186b9290918690600401615574565b60206040518083038186803b15801561188357600080fd5b505afa158015611897573d6000803e3d6000fd5b505050506040513d601f19601f820116820180604052508101906118bb91906151f6565b90506000806118cc85878686613d24565b91509150806119405760cc54602086015160405163347e064d60e11b8152600481018590526001600160a01b0391821660248201529116906368fc0c9a90604401600060405180830381600087803b15801561192757600080fd5b505af115801561193b573d6000803e3d6000fd5b505050505b600386018490556004860183905560068601829055600586015460ce805460009061196c908490615b27565b9091555050600586015460c086015160405160d59161198a9161541a565b90815260200160405180910390208660e001516040516119aa919061541a565b908152602001604051809103902060008282546119c79190615b27565b909155505060a085015160cf80546000906119e3908490615b27565b909155505060d05460011015611a7e5760d0805460009190611a0790600190615b27565b81548110611a2557634e487b7160e01b600052603260045260246000fd5b906000526020600020015490508060d0886007015481548110611a5857634e487b7160e01b600052603260045260246000fd5b60009182526020808320909101929092556007808a015493825260d19092526040902001555b60d0805480611a9d57634e487b7160e01b600052603160045260246000fd5b600190038181906000526020600020016000905590558560d260008760000151815260200190815260200160002060008201548160000155600182015481600101556002820154816002015560038201548160030155600482015481600401556005820154816005015560068201548160060155600782015481600701556008820160009054906101000a900460ff168160080160006101000a81548160ff02191690831515021790555060098201548160090155600a820160009054906101000a900461ffff1681600a0160006101000a81548161ffff021916908361ffff16021790555090505060d160008660000151815260200190815260200160002060008082016000905560018201600090556002820160009055600382016000905560048201600090556005820160009055600682016000905560078201600090556008820160006101000a81549060ff02191690556009820160009055600a820160006101000a81549061ffff0219169055505084602001516001600160a01b031685600001517f42ed01b98174011efdf2fdef7f80bb58590411efd2604313948ab455bef77b7484886040015189606001518a608001518b60c001518c60e001518d61010001518d8d60ce54604051611c809a99989796959493929190615889565b60405180910390a360c08501805160e08701518751600081815260d26020526040908190206005015494519051611e77959160d591611cbf919061541a565b90815260200160405180910390208a60e00151604051611cdf919061541a565b908152602001604051809103902054611cf891906159c7565b60d58a60c00151604051611d0c919061541a565b90815260200160405180910390208a60e00151604051611d2c919061541a565b90815260200160405180910390205460d260008c6000015181526020019081526020016000206005015460ce54611d6391906159c7565b60ce5460cc5460408051630d34328160e11b815290518c926001600160a01b031691631a686502916004808301926020929190829003018186803b158015611daa57600080fd5b505afa158015611dbe573d6000803e3d6000fd5b505050506040513d601f19601f82011682018060405250810190611de291906151f6565b611dec91906159c7565b60cc60009054906101000a90046001600160a01b03166001600160a01b0316631a6865026040518163ffffffff1660e01b815260040160206040518083038186803b158015611e3a57600080fd5b505afa158015611e4e573d6000803e3d6000fd5b505050506040513d601f19601f82011682018060405250810190611e7291906151f6565b613e00565b505050505b50505b80611e8981615b85565b91505061167b565b6000611e9f82840184614c8a565b90506113a681611627565b600081815260d1602052604081206008015460ff16611edb5760405162461bcd60e51b8152600401610841906156dc565b60c95460405163141165df60e31b8152600481018490526000916001600160a01b03169063a08b2ef89060240160006040518083038186803b158015611f2057600080fd5b505afa158015611f34573d6000803e3d6000fd5b505050506040513d6000823e601f3d908101601f19168201604052611f5c9190810190614fae565b600084815260d1602052604080822060cb5460c085015160e0860151935163ccc0628160e01b815295965091946001600160a01b039091169263ccc0628192611fad92909190600190600401615574565b60206040518083038186803b158015611fc557600080fd5b505afa158015611fd9573d6000803e3d6000fd5b505050506040513d601f19601f82011682018060405250810190611ffd91906151f6565b60cb5460c085015160e086015160405163ccc0628160e01b81529394506000936001600160a01b039093169263ccc062819261203f9290918690600401615574565b60206040518083038186803b15801561205757600080fd5b505afa15801561206b573d6000803e3d6000fd5b505050506040513d601f19601f8201168201806040525081019061208f91906151f6565b9050600061209f85858585613d24565b50979650505050505050565b7f42802a37d17e698ec3d88f7a6917f1f5a6abb4d99a8f4255c389e56d10218a646120d581613c2d565b600082116121255760405162461bcd60e51b815260206004820152601860248201527f496e76616c6964206c697175696469747920616d6f756e7400000000000000006044820152606401610841565b60cc546040516256688760e81b8152336004820152602481018490526001600160a01b0390911690635668870090604401600060405180830381600087803b15801561217057600080fd5b505af1158015612184573d6000803e3d6000fd5b505050505050565b7f42802a37d17e698ec3d88f7a6917f1f5a6abb4d99a8f4255c389e56d10218a646121b681613c2d565b816001600160a01b0381166121ff5760405162461bcd60e51b815260206004820152600f60248201526e496e76616c6964206164647265737360881b6044820152606401610841565b60cc5460408051630d34328160e11b815290516000926001600160a01b031691631a686502916004808301926020929190829003018186803b15801561224457600080fd5b505afa158015612258573d6000803e3d6000fd5b505050506040513d601f19601f8201168201806040525081019061227c91906151f6565b905060008511801561228e5750808511155b6122da5760405162461bcd60e51b815260206004820152601a60248201527f496e76616c696420616d6f756e7420746f2077697468647261770000000000006044820152606401610841565b6122e48582615b27565b60ce54111561232d5760405162461bcd60e51b8152602060048201526015602482015274139bdd08195b9bdd59da0818dbdb1b185d195c985b605a1b6044820152606401610841565b60cc5460405163347e064d60e11b8152600481018790526001600160a01b038681166024830152909116906368fc0c9a90604401600060405180830381600087803b15801561237b57600080fd5b505af115801561238f573d6000803e3d6000fd5b505050505050505050565b6000606060006123a861352b565b8051909150156124bd5760019250600060d3548251116123c95781516123cd565b60d3545b90506000816001600160401b038111156123f757634e487b7160e01b600052604160045260246000fd5b604051908082528060200260200182016040528015612420578160200160208202803683370190505b50905060005b828110156124935783818151811061244e57634e487b7160e01b600052603260045260246000fd5b602002602001015182828151811061247657634e487b7160e01b600052603260045260246000fd5b60209081029190910101528061248b81615b85565b915050612426565b50806040516020016124a591906154ab565b604051602081830303815290604052935050506124c2565b600092505b509250929050565b6033546001600160a01b031633146125245760405162461bcd60e51b815260206004820181905260248201527f4f776e61626c653a2063616c6c6572206973206e6f7420746865206f776e65726044820152606401610841565b61252e6000613e3f565b565b60008087116125815760405162461bcd60e51b815260206004820152601f60248201527f4c6971756964697479206d757374206265206c6172676572207468616e2030006044820152606401610841565b60006125976125908c8c6159c7565b8a89611327565b9050878111156125fb5760405162461bcd60e51b815260206004820152602960248201527f436f6c6c61746572616c206d75737420626520736d616c6c6572207468616e206044820152686c697175696469747960b81b6064820152608401610841565b6040805163f5a6a39f60e01b8152600481018d905260248101839052604481018a905287356064820152602088013560848201529087013560a482015260c4810186905260e48101859052610104810184905273__$3f85fbde44ed1f43c30acc3829f71e1fe6$__9063f5a6a39f906101240160206040518083038186803b15801561268657600080fd5b505af415801561269a573d6000803e3d6000fd5b505050506040513d601f19601f820116820180604052508101906126be91906151f6565b9b9a5050505050505050505050565b6126d8600033613b1f565b60d054156127435760405162461bcd60e51b815260206004820152603260248201527f43616e6e6f74206368616e67652076616c75652077697468206578697374696e60448201527167206f70656e2070726f74656374696f6e7360701b6064820152608401610841565b60ca5460405163768da62360e01b815261ffff831660048201526001600160a01b039091169063768da62390602401600060405180830381600087803b15801561278c57600080fd5b505af11580156127a0573d6000803e3d6000fd5b5050505050565b60cb54604051626597ad60e71b815260009182916001600160a01b03909116906332cbd680906127dd908790879060040161554f565b60006040518083038186803b1580156127f557600080fd5b505afa158015612809573d6000803e3d6000fd5b505050506040513d6000823e601f3d908101601f1916820160405261283191908101906150ab565b9050600060ca60009054906101000a90046001600160a01b03166001600160a01b03166363aa3bd96040518163ffffffff1660e01b815260040160206040518083038186803b15801561288357600080fd5b505afa158015612897573d6000803e3d6000fd5b505050506040513d601f19601f820116820180604052508101906128bb919061518a565b61ffff16905060008160ca60009054906101000a90046001600160a01b03166001600160a01b031663da25cb0c6040518163ffffffff1660e01b815260040160206040518083038186803b15801561291257600080fd5b505afa158015612926573d6000803e3d6000fd5b505050506040513d601f19601f8201168201806040525081019061294a919061518a565b61295690612710615b04565b61ffff1661296661271085615ae5565b61297091906159df565b61297a9190615b27565b9050600060cc60009054906101000a90046001600160a01b03166001600160a01b0316631a6865026040518163ffffffff1660e01b815260040160206040518083038186803b1580156129cc57600080fd5b505afa1580156129e0573d6000803e3d6000fd5b505050506040513d601f19601f82011682018060405250810190612a0491906151f6565b90506000612a13828989613e91565b905060d58560000151604051612a29919061541a565b90815260200160405180910390208560200151604051612a49919061541a565b908152602001604051809103902054811115612b7057600073__$74c27fde70ce8ad359fdaa0b0e8bcf95a8$__637ae2b5c760d58860000151604051612a8f919061541a565b90815260200160405180910390208860200151604051612aaf919061541a565b90815260200160405180910390205484612ac99190615b27565b60ce54612ad69087615b27565b6040516001600160e01b031960e085901b1681526004810192909252602482015260440160206040518083038186803b158015612b1257600080fd5b505af4158015612b26573d6000803e3d6000fd5b505050506040513d601f19601f82011682018060405250810190612b4a91906151f6565b905083612b5961271083615ae5565b612b6391906159df565b96505050505050506107d5565b6000955050505050506107d5565b6000612b8a6001613f3a565b90508015612ba2576000805461ff0019166101001790555b612bab89613fc7565b60ca80546001600160a01b03199081166001600160a01b038b81169190911790925560cc805482168a841617905560cb8054821689841617905560c98054821688841617905560d68054821687841617905560cd805490911691851691909117905560d3829055801561238f576000805461ff0019169055604051600181527f7f26b83ff96e1f2b6a682f133852f6798a09c465da95921460cefb3847402498906020015b60405180910390a1505050505050505050565b60ca54604051631373a3b760e21b8152600481018390526001600160a01b0390911690634dce8edc9060240160206040518083038186803b158015612ca757600080fd5b505afa158015612cbb573d6000803e3d6000fd5b505050506040513d601f19601f82011682018060405250810190612cdf9190614d31565b612d235760405162461bcd60e51b8152602060048201526015602482015274125b9d985b1a59081c1bdb1a58de481c195c9a5bd9605a1b6044820152606401610841565b60008311612d915760405162461bcd60e51b815260206004820152603560248201527f6c70546f6b656e73576f727468417442757954696d655553442076616c75652060448201527406d757374206265206c6172676572207468616e203605c1b6064820152608401610841565b60ca60009054906101000a90046001600160a01b03166001600160a01b0316639852a4366040518163ffffffff1660e01b815260040160206040518083038186803b158015612ddf57600080fd5b505afa158015612df3573d6000803e3d6000fd5b505050506040513d601f19601f82011682018060405250810190612e179190614d31565b612e635760405162461bcd60e51b815260206004820152601d60248201527f427579696e672070726f74656374696f6e2069732064697361626c65640000006044820152606401610841565b60cc5460408051630d34328160e11b815290516000926001600160a01b031691631a686502916004808301926020929190829003018186803b158015612ea857600080fd5b505afa158015612ebc573d6000803e3d6000fd5b505050506040513d601f19601f82011682018060405250810190612ee091906151f6565b11612f1c5760405162461bcd60e51b815260206004820152600c60248201526b4e6f206c697175696469747960a01b6044820152606401610841565b60cb54604051626597ad60e71b81526000916001600160a01b0316906332cbd68090612f52908b908b908b908b9060040161550a565b60006040518083038186803b158015612f6a57600080fd5b505afa158015612f7e573d6000803e3d6000fd5b505050506040513d6000823e601f3d908101601f19168201604052612fa691908101906150ab565b90508360cf6000828254612fba91906159c7565b925050819055508360d46000828254612fd391906159c7565b92505081905550600080600080600080612ff833886000015189602001518d8c610972565b9550955095509550955095508160ce600082825461301691906159c7565b9091555050856130685760405162461bcd60e51b815260206004820152601760248201527f5072656d69756d20636f737420697320746f6f206c6f770000000000000000006044820152606401610841565b888611156130b85760405162461bcd60e51b815260206004820152601960248201527f4d6178207072656d69756d20636f7374206578636565646564000000000000006044820152606401610841565b60006130c48688615b27565b90508060cc60009054906101000a90046001600160a01b03166001600160a01b0316631a6865026040518163ffffffff1660e01b815260040160206040518083038186803b15801561311557600080fd5b505afa158015613129573d6000803e3d6000fd5b505050506040513d601f19601f8201168201806040525081019061314d91906151f6565b61315791906159c7565b60ce54106131b75760405162461bcd60e51b815260206004820152602760248201527f4e6f7420656e6f75676820636f6c6c61746572616c20746f20706179206261636044820152663590313abcb2b960c91b6064820152608401610841565b61325b88600001518960200151858460cc60009054906101000a90046001600160a01b03166001600160a01b0316631a6865026040518163ffffffff1660e01b815260040160206040518083038186803b15801561321457600080fd5b505afa158015613228573d6000803e3d6000fd5b505050506040513d601f19601f8201168201806040525081019061324c91906151f6565b61325691906159c7565b614009565b60c954604080516398bdf6f560e01b815290516000926001600160a01b0316916398bdf6f591600480830192602092919082900301818787803b1580156132a157600080fd5b505af11580156132b5573d6000803e3d6000fd5b505050506040513d601f19601f820116820180604052508101906132d991906151f6565b905081156134775760006132ed8688615b27565b11156134135760cc546001600160a01b031663140216978233856133118a8c615b27565b60ca60009054906101000a90046001600160a01b03166001600160a01b031663edb1192e6040518163ffffffff1660e01b815260040160206040518083038186803b15801561335f57600080fd5b505afa158015613373573d6000803e3d6000fd5b505050506040513d601f19601f82011682018060405250810190613397919061518a565b6040516001600160e01b031960e088901b16815260048101959095526001600160a01b0390931660248501526044840191909152606483015261ffff16608482015260a401600060405180830381600087803b1580156133f657600080fd5b505af115801561340a573d6000803e3d6000fd5b50505050613477565b60cc546040516256688760e81b8152336004820152602481018490526001600160a01b0390911690635668870090604401600060405180830381600087803b15801561345e57600080fd5b505af1158015613472573d6000803e3d6000fd5b505050505b86156134db5760d654604051632b385bbb60e01b81523360048201526001600160a01b0390911690632b385bbb90602401600060405180830381600087803b1580156134c257600080fd5b505af11580156134d6573d6000803e3d6000fd5b505050505b6134ee338a838f8e8d8d8d8d8c8e61410f565b50505050505050505050505050505050565b60009182526097602090815260408084206001600160a01b0393909316845291905290205460ff1690565b60606000613537614557565b6001600160401b0381111561355c57634e487b7160e01b600052604160045260246000fd5b604051908082528060200260200182016040528015613585578160200160208202803683370190505b5090506000805b60d0548110156136d05760c95460d080546000926001600160a01b03169163a08b2ef891859081106135ce57634e487b7160e01b600052603260045260246000fd5b90600052602060002001546040518263ffffffff1660e01b81526004016135f791815260200190565b60006040518083038186803b15801561360f57600080fd5b505afa158015613623573d6000803e3d6000fd5b505050506040513d6000823e601f3d908101601f1916820160405261364b9190810190614fae565b9050428160600151116136bd5760d0828154811061367957634e487b7160e01b600052603260045260246000fd5b906000526020600020015484848061369090615b85565b9550815181106136b057634e487b7160e01b600052603260045260246000fd5b6020026020010181815250505b50806136c881615b85565b91505061358c565b509092915050565b60008060cb60009054906101000a90046001600160a01b03166001600160a01b0316631af855fd6040518163ffffffff1660e01b815260040160206040518083038186803b15801561372957600080fd5b505afa15801561373d573d6000803e3d6000fd5b505050506040513d601f19601f820116820180604052508101906137619190615387565b90506000613771878787876139b1565b6040516306458b2960e51b8152600481018690526024810188905260ff8416604482015290915060009073__$74c27fde70ce8ad359fdaa0b0e8bcf95a8$__9063c8b16520908290829060640160206040518083038186803b1580156137d657600080fd5b505af41580156137ea573d6000803e3d6000fd5b505050506040513d601f19601f8201168201806040525081019061380e91906151f6565b6040516306458b2960e51b8152600481018a9052602481018c905260ff8716604482015273__$74c27fde70ce8ad359fdaa0b0e8bcf95a8$__9063c8b165209060640160206040518083038186803b15801561386957600080fd5b505af415801561387d573d6000803e3d6000fd5b505050506040513d601f19601f820116820180604052508101906138a191906151f6565b6138ab91906159c7565b6138b686600a615a3a565b6138c1906002615ae5565b6040516001600160e01b031960e085901b1681526004810192909252602482015260ff8616604482015260640160206040518083038186803b15801561390657600080fd5b505af415801561391a573d6000803e3d6000fd5b505050506040513d601f19601f8201168201806040525081019061393e91906151f6565b9050600061394d84600a615a3a565b613957838c615ae5565b61396191906159df565b905061271061397461ffff851683615ae5565b61397e91906159df565b9a9950505050505050505050565b6000828152609760205260409020600101546139a781613c2d565b6113a68383613cbd565b604051635c441f0160e01b815260048101859052602481018490526044810183905260648101829052612710608482015260009073__$ea0342ddb0b76de250ae80bcd06f968256$__90635c441f019060a40160206040518083038186803b158015613a1c57600080fd5b505af4158015613a30573d6000803e3d6000fd5b505050506040513d601f19601f82011682018060405250810190611378919061518a565b6033546001600160a01b03163314613aae5760405162461bcd60e51b815260206004820181905260248201527f4f776e61626c653a2063616c6c6572206973206e6f7420746865206f776e65726044820152606401610841565b6001600160a01b038116613b135760405162461bcd60e51b815260206004820152602660248201527f4f776e61626c653a206e6577206f776e657220697320746865207a65726f206160448201526564647265737360d01b6064820152608401610841565b613b1c81613e3f565b50565b613b298282613500565b61142557613b41816001600160a01b0316601461464c565b613b4c83602061464c565b604051602001613b5d929190615436565b60408051601f198184030181529082905262461bcd60e51b82526108419160040161553c565b60008060cd60009054906101000a90046001600160a01b03166001600160a01b031663c1639a2b6040518163ffffffff1660e01b815260040160606040518083038186803b158015613bd457600080fd5b505afa158015613be8573d6000803e3d6000fd5b505050506040513d601f19601f82011682018060405250810190613c0c91906151a6565b50509050662386f26fc100008161ffff16613c279190615ae5565b91505090565b613b1c8133613b1f565b613c418282613500565b6114255760008281526097602090815260408083206001600160a01b03851684529091529020805460ff19166001179055613c793390565b6001600160a01b0316816001600160a01b0316837f2f8788117e7eff1d82e926ec794901d17c78024a50270940304540a733656f0d60405160405180910390a45050565b613cc78282613500565b156114255760008281526097602090815260408083206001600160a01b0385168085529252808320805460ff1916905551339285917ff6391f5c32d9c69d2a47ea670b442974b53935d1edc7fd64eb21e047a839171b9190a45050565b6000806000613d428760a001518760010154886002015488886136d8565b905060008160ca60009054906101000a90046001600160a01b03166001600160a01b031663a38d0aef6040518163ffffffff1660e01b815260040160206040518083038186803b158015613d9557600080fd5b505afa158015613da9573d6000803e3d6000fd5b505050506040513d601f19601f82011682018060405250810190613dcd91906151f6565b1190508015613ddf5760009150613df3565b8660050154821115613df357866005015491505b9097909650945050505050565b7f98a18ec4dddf286e417c85b9ee7e8130a54129d8d1248c8be36f3b25530f43f7898989898989898989604051612c50999897969594939291906155e2565b603380546001600160a01b038381166001600160a01b0319831681179093556040519116919082907f8be0079c531659141344cd1fd0a4f28419497f9722a3daafe3b4186f6b6457e090600090a35050565b60cb5460405163cdf6dab760e01b8152600091612710916001600160a01b039091169063cdf6dab790613eca908790879060040161554f565b60206040518083038186803b158015613ee257600080fd5b505afa158015613ef6573d6000803e3d6000fd5b505050506040513d601f19601f82011682018060405250810190613f1a919061518a565b613f289061ffff1686615ae5565b613f3291906159df565b949350505050565b60008054610100900460ff1615613f81578160ff166001148015613f5d5750303b155b613f795760405162461bcd60e51b815260040161084190615643565b506000919050565b60005460ff808416911610613fa85760405162461bcd60e51b815260040161084190615643565b506000805460ff191660ff92909216919091179055600190565b919050565b600054610100900460ff16613fee5760405162461bcd60e51b815260040161084190615691565b613ff661482d565b613ffe61485c565b613b13600082614883565b6000614016828686613e91565b90508260d586604051614029919061541a565b908152602001604051809103902085604051614045919061541a565b90815260200160405180910390205461405e91906159c7565b8110156140b95760405162461bcd60e51b8152602060048201526024808201527f5061697220636f6c6c61746572616c2063617020686173206265656e2072656160448201526318da195960e21b6064820152608401610841565b8260d5866040516140ca919061541a565b9081526020016040518091039020856040516140e6919061541a565b9081526020016040518091039020600082825461410391906159c7565b90915550505050505050565b6141208b8b8a8a8a8a8a8a8a61488d565b60d08054600181810183556000929092527fe89d44c8fd6a9bac8af33ce47f56337617d449bf7ff3956b618c646de829cbcb018a905560408051610160810182528b815260cb548d5160208f810151945163ccc0628160e01b81529395908601946001600160a01b039093169363ccc06281936141a293929091600401615574565b60206040518083038186803b1580156141ba57600080fd5b505afa1580156141ce573d6000803e3d6000fd5b505050506040513d601f19601f820116820180604052508101906141f291906151f6565b815260cb548c5160208e81015160405163ccc0628160e01b815291909401936001600160a01b039093169263ccc062819261423592909190600090600401615574565b60206040518083038186803b15801561424d57600080fd5b505afa158015614261573d6000803e3d6000fd5b505050506040513d601f19601f8201168201806040525081019061428591906151f6565b8152602001600081526020016000815260200182815260200160008152602001600160d0805490506142b79190615b27565b815260200160011515815260200185815260200160ca60009054906101000a90046001600160a01b03166001600160a01b031663edb1192e6040518163ffffffff1660e01b815260040160206040518083038186803b15801561431957600080fd5b505afa15801561432d573d6000803e3d6000fd5b505050506040513d601f19601f82011682018060405250810190614351919061518a565b61ffff90811690915260008b815260d1602090815260409182902084518155908401516001820155908301516002820155606083015160038201556080830151600482015560a0830151600582015560c0830151600682015560e0830151600782015561010083015160088201805460ff1916911515919091179055610120830151600982015561014090920151600a909201805461ffff1916929091169190911790556144038b8b8b8a8a89614982565b61454a8a600001518b602001518b8460d58f60000151604051614426919061541a565b90815260200160405180910390208f60200151604051614446919061541a565b90815260200160405180910390205461445f9190615b27565b8e5160405160d5916144709161541a565b90815260200160405180910390208f60200151604051614490919061541a565b9081526020016040518091039020548660ce546144ad9190615b27565b60ce546144ba8d8f615b27565b60cc60009054906101000a90046001600160a01b03166001600160a01b0316631a6865026040518163ffffffff1660e01b815260040160206040518083038186803b15801561450857600080fd5b505afa15801561451c573d6000803e3d6000fd5b505050506040513d601f19601f8201168201806040525081019061454091906151f6565b611dec9190615b27565b5050505050505050505050565b6000805b60d0548110156146485760c95460d080546000926001600160a01b03169163a08b2ef8918590811061459d57634e487b7160e01b600052603260045260246000fd5b90600052602060002001546040518263ffffffff1660e01b81526004016145c691815260200190565b60006040518083038186803b1580156145de57600080fd5b505afa1580156145f2573d6000803e3d6000fd5b505050506040513d6000823e601f3d908101601f1916820160405261461a9190810190614fae565b905042816060015111614635578261463181615b85565b9350505b508061464081615b85565b91505061455b565b5090565b6060600061465b836002615ae5565b6146669060026159c7565b6001600160401b0381111561468b57634e487b7160e01b600052604160045260246000fd5b6040519080825280601f01601f1916602001820160405280156146b5576020820181803683370190505b509050600360fc1b816000815181106146de57634e487b7160e01b600052603260045260246000fd5b60200101906001600160f81b031916908160001a905350600f60fb1b8160018151811061471b57634e487b7160e01b600052603260045260246000fd5b60200101906001600160f81b031916908160001a905350600061473f846002615ae5565b61474a9060016159c7565b90505b60018111156147de576f181899199a1a9b1b9c1cb0b131b232b360811b85600f166010811061478c57634e487b7160e01b600052603260045260246000fd5b1a60f81b8282815181106147b057634e487b7160e01b600052603260045260246000fd5b60200101906001600160f81b031916908160001a90535060049490941c936147d781615b6e565b905061474d565b5083156108ad5760405162461bcd60e51b815260206004820181905260248201527f537472696e67733a20686578206c656e67746820696e73756666696369656e746044820152606401610841565b600054610100900460ff166148545760405162461bcd60e51b815260040161084190615691565b61252e614a0b565b600054610100900460ff1661252e5760405162461bcd60e51b815260040161084190615691565b6114258282613c37565b60c95460408051610140810182526001600160a01b038c811682524260208301529092169163e042af9d9181016148c38a614a3b565b81526020016148d2878a6159c7565b81526020018a81526020018b6000015181526020018b60200151815260200189815260200184600281111561491757634e487b7160e01b600052602160045260246000fd5b815260200161492686896159c7565b8152506040518263ffffffff1660e01b81526004016149459190615728565b600060405180830381600087803b15801561495f57600080fd5b505af1158015614973573d6000803e3d6000fd5b50505050505050505050505050565b856001600160a01b0316847f7b8fe50e11f1dd5b25013705912a6af2f4961cf940564ad8cb70ab43c169d526426149b887614a3b565b6149c286886159c7565b8a516020808d015160008d815260d1909252604091829020600181015460029091015460ce5493516149fb98979695948f9392916157dc565b60405180910390a3505050505050565b600054610100900460ff16614a325760405162461bcd60e51b815260040161084190615691565b61252e33613e3f565b60006107d582426159c7565b8051613fc281615bcc565b80518015158114613fc257600080fd5b60008083601f840112614a73578182fd5b5081356001600160401b03811115614a89578182fd5b602083019150836020828501011115614aa157600080fd5b9250929050565b805160038110613fc257600080fd5b600082601f830112614ac7578081fd5b8135614ada614ad5826159a0565b615970565b818152846020838601011115614aee578283fd5b816020850160208301379081016020019190915292915050565b600082601f830112614b18578081fd5b8151614b26614ad5826159a0565b818152846020838601011115614b3a578283fd5b613f32826020830160208701615b3e565b600060208284031215614b5c578081fd5b81356108ad81615bcc565b600080600080600080600080610100898b031215614b83578384fd5b8835614b8e81615bcc565b97506020890135614b9e81615bcc565b96506040890135614bae81615bcc565b95506060890135614bbe81615bcc565b94506080890135614bce81615bcc565b935060a0890135614bde81615bcc565b925060c0890135614bee81615bcc565b8092505060e089013590509295985092959890939650565b600080600080600060a08688031215614c1d578283fd5b8535614c2881615bcc565b945060208601356001600160401b0380821115614c43578485fd5b614c4f89838a01614ab7565b95506040880135915080821115614c64578485fd5b50614c7188828901614ab7565b9598949750949560608101359550608001359392505050565b60006020808385031215614c9c578182fd5b82356001600160401b0380821115614cb2578384fd5b818501915085601f830112614cc5578384fd5b813581811115614cd757614cd7615bb6565b8060051b9150614ce8848301615970565b8181528481019084860184860187018a1015614d02578788fd5b8795505b83861015614d24578035835260019590950194918601918601614d06565b5098975050505050505050565b600060208284031215614d42578081fd5b6108ad82614a52565b600060208284031215614d5c578081fd5b5035919050565b60008060408385031215614d75578182fd5b823591506020830135614d8781615bcc565b809150509250929050565b600060208284031215614da3578081fd5b81356001600160e01b0319811681146108ad578182fd5b60008060208385031215614dcc578182fd5b82356001600160401b03811115614de1578283fd5b614ded85828601614a62565b90969095509350505050565b600080600080600080600060a0888a031215614e13578081fd5b87356001600160401b0380821115614e29578283fd5b614e358b838c01614a62565b909950975060208a0135915080821115614e4d578283fd5b50614e5a8a828b01614a62565b989b979a50986040810135976060820135975060809091013595509350505050565b60008060408385031215614e8e578182fd5b82356001600160401b0380821115614ea4578384fd5b614eb086838701614ab7565b93506020850135915080821115614ec5578283fd5b50614ed285828601614ab7565b9150509250929050565b600060808284031215614eed578081fd5b604051608081018181106001600160401b0382111715614f0f57614f0f615bb6565b604052614f1b83614aa8565b8152614f2960208401614a52565b60208201526040830151614f3c81615be1565b60408201526060928301519281019290925250919050565b600060608284031215614f65578081fd5b604051606081018181106001600160401b0382111715614f8757614f87615bb6565b80604052508251815260208301516020820152604083015160408201528091505092915050565b600060208284031215614fbf578081fd5b81516001600160401b0380821115614fd5578283fd5b908301906101608286031215614fe9578283fd5b614ff1615925565b8251815261500160208401614a47565b602082015260408301516040820152606083015160608201526080830151608082015260a083015160a082015260c08301518281111561503f578485fd5b61504b87828601614b08565b60c08301525060e083015182811115615062578485fd5b61506e87828601614b08565b60e0830152506101008381015190820152610120915061508f828401614aa8565b9181019190915261014091820151918101919091529392505050565b6000602082840312156150bc578081fd5b81516001600160401b03808211156150d2578283fd5b9083019060a082860312156150e5578283fd5b6150ed61594e565b8251828111156150fb578485fd5b61510787828601614b08565b82525060208301518281111561511b578485fd5b61512787828601614b08565b6020830152506040830151915061513d82615bcc565b81604082015261514f60608401614a47565b606082015261516060808401614a52565b608082015295945050505050565b60006020828403121561517f578081fd5b81356108ad81615be1565b60006020828403121561519b578081fd5b81516108ad81615be1565b6000806000606084860312156151ba578081fd5b83516151c581615be1565b602085015190935069ffffffffffffffffffff811681146151e4578182fd5b80925050604084015190509250925092565b600060208284031215615207578081fd5b5051919050565b60008060408385031215615220578182fd5b823591506020830135614d8781615be1565b600080600060608486031215615246578081fd5b83359250602084013561525881615be1565b9150604084013561526881615be1565b809150509250925092565b6000806000806000806000806000898b03610160811215615292578384fd5b8a35995060208b0135985060408b01356152ab81615be1565b975060608b0135965060808b01356152c281615be1565b95506060609f19820112156152d5578384fd5b50979a9699509497939650919460a08401945061010084013593610120810135935061014001359150565b60008060008060808587031215615315578182fd5b5050823594602084013594506040840135936060013592509050565b600080600080600060a08688031215615348578283fd5b505083359560208501359550604085013594606081013594506080013592509050565b60006020828403121561537c578081fd5b81356108ad81615bf1565b600060208284031215615398578081fd5b81516108ad81615bf1565b600081518084526153bb816020860160208601615b3e565b601f01601f19169290920160200192915050565b600381106153ed57634e487b7160e01b600052602160045260246000fd5b9052565b81835281816020850137506000828201602090810191909152601f909101601f19169091010190565b6000825161542c818460208701615b3e565b9190910192915050565b7f416363657373436f6e74726f6c3a206163636f756e742000000000000000000081526000835161546e816017850160208801615b3e565b7001034b99036b4b9b9b4b733903937b6329607d1b601791840191820152835161549f816028840160208801615b3e565b01602801949350505050565b6020808252825182820181905260009190848201906040850190845b818110156154e3578351835292840192918401916001016154c7565b50909695505050505050565b8215158152604060208201526000613f3260408301846153a3565b60408152600061551e6040830186886153f1565b82810360208401526155318185876153f1565b979650505050505050565b6020815260006108ad60208301846153a3565b60408152600061556260408301856153a3565b828103602084015261137881856153a3565b60608152600061558760608301866153a3565b828103602084015261559981866153a3565b9150508215156040830152949350505050565b6060815260006155bf60608301866153a3565b82810360208401526155d181866153a3565b915050826040830152949350505050565b60006101208083526155f68184018d6153a3565b9050828103602084015261560a818c6153a3565b604084019a909a5250506060810196909652608086019490945260a085019290925260c084015260e08301526101009091015292915050565b6020808252602e908201527f496e697469616c697a61626c653a20636f6e747261637420697320616c72656160408201526d191e481a5b9a5d1a585b1a5e995960921b606082015260800190565b6020808252602b908201527f496e697469616c697a61626c653a20636f6e7472616374206973206e6f74206960408201526a6e697469616c697a696e6760a81b606082015260800190565b6020808252602c908201527f50726f74656374696f6e2069732065697468657220636c6f736564206f72206460408201526b1bd95cdb89dd08195e1a5cdd60a21b606082015260800190565b602081526157426020820183516001600160a01b03169052565b602082015160408201526040820151606082015260608201516080820152608082015160a0820152600060a08301516101408060c08501526157886101608501836153a3565b915060c0850151601f198584030160e08601526157a583826153a3565b92505060e08501516101008181870152808701519150506101206157cb818701836153cf565b959095015193019290925250919050565b60006101208b83528a60208401528960408401528060608401526158028184018a6153a3565b9050828103608084015261581681896153a3565b9150508560a08301528460c08301528360e0830152826101008301529a9950505050505050505050565b96875260208088019690965260408088019590955283516060880152948301516080870152919092015160a085015260c084019190915260e08301526101008201526101200190565b60006101408c83528b60208401528a60408401528960608401528060808401526158b58184018a6153a3565b905082810360a08401526158c981896153a3565b9150508560c08301528460e083015283610100830152826101208301529b9a5050505050505050505050565b600060c08201905087825286602083015285604083015284606083015283608083015261553160a08301846153cf565b60405161016081016001600160401b038111828210171561594857615948615bb6565b60405290565b60405160a081016001600160401b038111828210171561594857615948615bb6565b604051601f8201601f191681016001600160401b038111828210171561599857615998615bb6565b604052919050565b60006001600160401b038211156159b9576159b9615bb6565b50601f01601f191660200190565b600082198211156159da576159da615ba0565b500190565b6000826159fa57634e487b7160e01b81526012600452602481fd5b500490565b600181815b808511156124c2578160001904821115615a2057615a20615ba0565b80851615615a2d57918102915b93841c9390800290615a04565b60006108ad60ff841683600082615a53575060016107d5565b81615a60575060006107d5565b8160018114615a765760028114615a8057615a9c565b60019150506107d5565b60ff841115615a9157615a91615ba0565b50506001821b6107d5565b5060208310610133831016604e8410600b8410161715615abf575081810a6107d5565b615ac983836159ff565b8060001904821115615add57615add615ba0565b029392505050565b6000816000190483118215151615615aff57615aff615ba0565b500290565b600061ffff83811690831681811015615b1f57615b1f615ba0565b039392505050565b600082821015615b3957615b39615ba0565b500390565b60005b83811015615b59578181015183820152602001615b41565b83811115615b68576000848401525b50505050565b600081615b7d57615b7d615ba0565b506000190190565b6000600019821415615b9957615b99615ba0565b5060010190565b634e487b7160e01b600052601160045260246000fd5b634e487b7160e01b600052604160045260246000fd5b6001600160a01b0381168114613b1c57600080fd5b61ffff81168114613b1c57600080fd5b60ff81168114613b1c57600080fdfea2646970667358221220d89116edc8ddb3a58f1a5c3e23cd10be0f8c8b57683a9bcbe5343c719f169a7f64736f6c63430008040033",
  "libraries": {
    "ILUtils": "0x71b42bEef3ebEeEa766312bEfA26B5fE054d2137",
    "MathUtils": "0xE1db41617188103cD5E4B2EBdA9C2fb2D0f0a375",
    "PremiumCalculator": "0xA44Fd9588BFf29Ba405E428F21224b035A9f13bf"
  },
  "devdoc": {
    "kind": "dev",
    "methods": {
      "getRoleAdmin(bytes32)": {
        "details": "Returns the admin role that controls `role`. See {grantRole} and {revokeRole}. To change a role's admin, use {_setRoleAdmin}."
      },
      "grantRole(bytes32,address)": {
        "details": "Grants `role` to `account`. If `account` had not been already granted `role`, emits a {RoleGranted} event. Requirements: - the caller must have ``role``'s admin role."
      },
      "hasRole(bytes32,address)": {
        "details": "Returns `true` if `account` has been granted `role`."
      },
      "owner()": {
        "details": "Returns the address of the current owner."
      },
      "renounceOwnership()": {
        "details": "Leaves the contract without owner. It will not be possible to call `onlyOwner` functions anymore. Can only be called by the current owner. NOTE: Renouncing ownership will leave the contract without an owner, thereby removing any functionality that is only available to the owner."
      },
      "renounceRole(bytes32,address)": {
        "details": "Revokes `role` from the calling account. Roles are often managed via {grantRole} and {revokeRole}: this function's purpose is to provide a mechanism for accounts to lose their privileges if they are compromised (such as when a trusted device is misplaced). If the calling account had been revoked `role`, emits a {RoleRevoked} event. Requirements: - the caller must be `account`."
      },
      "revokeRole(bytes32,address)": {
        "details": "Revokes `role` from `account`. If `account` had been granted `role`, emits a {RoleRevoked} event. Requirements: - the caller must have ``role``'s admin role."
      },
      "supportsInterface(bytes4)": {
        "details": "See {IERC165-supportsInterface}."
      },
      "transferOwnership(address)": {
        "details": "Transfers ownership of the contract to a new account (`newOwner`). Can only be called by the current owner."
      }
    },
    "version": 1
  },
  "userdoc": {
    "kind": "user",
    "methods": {},
    "version": 1
  },
  "storageLayout": {
    "storage": [
      {
        "astId": 29805,
        "contract": "@coti-cvi/contracts-il/contracts/ILProtectionController.sol:ILProtectionController",
        "label": "_initialized",
        "offset": 0,
        "slot": "0",
        "type": "t_uint8"
      },
      {
        "astId": 29808,
        "contract": "@coti-cvi/contracts-il/contracts/ILProtectionController.sol:ILProtectionController",
        "label": "_initializing",
        "offset": 1,
        "slot": "0",
        "type": "t_bool"
      },
      {
        "astId": 32662,
        "contract": "@coti-cvi/contracts-il/contracts/ILProtectionController.sol:ILProtectionController",
        "label": "__gap",
        "offset": 0,
        "slot": "1",
        "type": "t_array(t_uint256)50_storage"
      },
      {
        "astId": 29685,
        "contract": "@coti-cvi/contracts-il/contracts/ILProtectionController.sol:ILProtectionController",
        "label": "_owner",
        "offset": 0,
        "slot": "51",
        "type": "t_address"
      },
      {
        "astId": 29797,
        "contract": "@coti-cvi/contracts-il/contracts/ILProtectionController.sol:ILProtectionController",
        "label": "__gap",
        "offset": 0,
        "slot": "52",
        "type": "t_array(t_uint256)49_storage"
      },
      {
        "astId": 32909,
        "contract": "@coti-cvi/contracts-il/contracts/ILProtectionController.sol:ILProtectionController",
        "label": "__gap",
        "offset": 0,
        "slot": "101",
        "type": "t_array(t_uint256)50_storage"
      },
      {
        "astId": 29301,
        "contract": "@coti-cvi/contracts-il/contracts/ILProtectionController.sol:ILProtectionController",
        "label": "_roles",
        "offset": 0,
        "slot": "151",
        "type": "t_mapping(t_bytes32,t_struct(RoleData)29296_storage)"
      },
      {
        "astId": 29600,
        "contract": "@coti-cvi/contracts-il/contracts/ILProtectionController.sol:ILProtectionController",
        "label": "__gap",
        "offset": 0,
        "slot": "152",
        "type": "t_array(t_uint256)49_storage"
      },
      {
        "astId": 23756,
        "contract": "@coti-cvi/contracts-il/contracts/ILProtectionController.sol:ILProtectionController",
        "label": "protectionNFT",
        "offset": 0,
        "slot": "201",
        "type": "t_contract(ILProtectionNFTInterface)28466"
      },
      {
        "astId": 23760,
        "contract": "@coti-cvi/contracts-il/contracts/ILProtectionController.sol:ILProtectionController",
        "label": "protectionConfig",
        "offset": 0,
        "slot": "202",
        "type": "t_contract(ILProtectionConfigInterface)27876"
      },
      {
        "astId": 23764,
        "contract": "@coti-cvi/contracts-il/contracts/ILProtectionController.sol:ILProtectionController",
        "label": "tokenPairRepository",
        "offset": 0,
        "slot": "203",
        "type": "t_contract(ITokenPairRepository)28778"
      },
      {
        "astId": 23768,
        "contract": "@coti-cvi/contracts-il/contracts/ILProtectionController.sol:ILProtectionController",
        "label": "liquidityController",
        "offset": 0,
        "slot": "204",
        "type": "t_contract(ILiquidityController)28572"
      },
      {
        "astId": 23772,
        "contract": "@coti-cvi/contracts-il/contracts/ILProtectionController.sol:ILProtectionController",
        "label": "cviOracle",
        "offset": 0,
        "slot": "205",
        "type": "t_contract(CVIOracle)296"
      },
      {
        "astId": 23775,
        "contract": "@coti-cvi/contracts-il/contracts/ILProtectionController.sol:ILProtectionController",
        "label": "collateral",
        "offset": 0,
        "slot": "206",
        "type": "t_uint256"
      },
      {
        "astId": 23778,
        "contract": "@coti-cvi/contracts-il/contracts/ILProtectionController.sol:ILProtectionController",
        "label": "totalLPTokensWorthAtBuyTimeUSD",
        "offset": 0,
        "slot": "207",
        "type": "t_uint256"
      },
      {
        "astId": 23781,
        "contract": "@coti-cvi/contracts-il/contracts/ILProtectionController.sol:ILProtectionController",
        "label": "openProtectionsIds",
        "offset": 0,
        "slot": "208",
        "type": "t_array(t_uint256)dyn_storage"
      },
      {
        "astId": 23786,
        "contract": "@coti-cvi/contracts-il/contracts/ILProtectionController.sol:ILProtectionController",
        "label": "openProtectionsWithMetadata",
        "offset": 0,
        "slot": "209",
        "type": "t_mapping(t_uint256,t_struct(ILProtectionWithMetadata)23740_storage)"
      },
      {
        "astId": 23791,
        "contract": "@coti-cvi/contracts-il/contracts/ILProtectionController.sol:ILProtectionController",
        "label": "closedProtectionsWithMetadata",
        "offset": 0,
        "slot": "210",
        "type": "t_mapping(t_uint256,t_struct(ILProtectionWithMetadata)23740_storage)"
      },
      {
        "astId": 23793,
        "contract": "@coti-cvi/contracts-il/contracts/ILProtectionController.sol:ILProtectionController",
        "label": "maxProtectionsInUpkeep",
        "offset": 0,
        "slot": "211",
        "type": "t_uint256"
      },
      {
        "astId": 23796,
        "contract": "@coti-cvi/contracts-il/contracts/ILProtectionController.sol:ILProtectionController",
        "label": "cumulativeSumLPTokensWorthAtBuyTimeUSD",
        "offset": 0,
        "slot": "212",
        "type": "t_uint256"
      },
      {
        "astId": 23802,
        "contract": "@coti-cvi/contracts-il/contracts/ILProtectionController.sol:ILProtectionController",
        "label": "pairsCollaterals",
        "offset": 0,
        "slot": "213",
        "type": "t_mapping(t_string_memory_ptr,t_mapping(t_string_memory_ptr,t_uint256))"
      },
      {
        "astId": 23806,
        "contract": "@coti-cvi/contracts-il/contracts/ILProtectionController.sol:ILProtectionController",
        "label": "protectionDiscountNFTController",
        "offset": 0,
        "slot": "214",
        "type": "t_contract(ILProtectionDiscountNFTControllerInterface)28310"
      }
    ],
    "types": {
      "t_address": {
        "encoding": "inplace",
        "label": "address",
        "numberOfBytes": "20"
      },
      "t_array(t_uint256)49_storage": {
        "base": "t_uint256",
        "encoding": "inplace",
        "label": "uint256[49]",
        "numberOfBytes": "1568"
      },
      "t_array(t_uint256)50_storage": {
        "base": "t_uint256",
        "encoding": "inplace",
        "label": "uint256[50]",
        "numberOfBytes": "1600"
      },
      "t_array(t_uint256)dyn_storage": {
        "base": "t_uint256",
        "encoding": "dynamic_array",
        "label": "uint256[]",
        "numberOfBytes": "32"
      },
      "t_bool": {
        "encoding": "inplace",
        "label": "bool",
        "numberOfBytes": "1"
      },
      "t_bytes32": {
        "encoding": "inplace",
        "label": "bytes32",
        "numberOfBytes": "32"
      },
      "t_contract(CVIOracle)296": {
        "encoding": "inplace",
        "label": "contract CVIOracle",
        "numberOfBytes": "20"
      },
      "t_contract(ILProtectionConfigInterface)27876": {
        "encoding": "inplace",
        "label": "contract ILProtectionConfigInterface",
        "numberOfBytes": "20"
      },
      "t_contract(ILProtectionDiscountNFTControllerInterface)28310": {
        "encoding": "inplace",
        "label": "contract ILProtectionDiscountNFTControllerInterface",
        "numberOfBytes": "20"
      },
      "t_contract(ILProtectionNFTInterface)28466": {
        "encoding": "inplace",
        "label": "contract ILProtectionNFTInterface",
        "numberOfBytes": "20"
      },
      "t_contract(ILiquidityController)28572": {
        "encoding": "inplace",
        "label": "contract ILiquidityController",
        "numberOfBytes": "20"
      },
      "t_contract(ITokenPairRepository)28778": {
        "encoding": "inplace",
        "label": "contract ITokenPairRepository",
        "numberOfBytes": "20"
      },
      "t_mapping(t_address,t_bool)": {
        "encoding": "mapping",
        "key": "t_address",
        "label": "mapping(address => bool)",
        "numberOfBytes": "32",
        "value": "t_bool"
      },
      "t_mapping(t_bytes32,t_struct(RoleData)29296_storage)": {
        "encoding": "mapping",
        "key": "t_bytes32",
        "label": "mapping(bytes32 => struct AccessControlUpgradeable.RoleData)",
        "numberOfBytes": "32",
        "value": "t_struct(RoleData)29296_storage"
      },
      "t_mapping(t_string_memory_ptr,t_mapping(t_string_memory_ptr,t_uint256))": {
        "encoding": "mapping",
        "key": "t_string_memory_ptr",
        "label": "mapping(string => mapping(string => uint256))",
        "numberOfBytes": "32",
        "value": "t_mapping(t_string_memory_ptr,t_uint256)"
      },
      "t_mapping(t_string_memory_ptr,t_uint256)": {
        "encoding": "mapping",
        "key": "t_string_memory_ptr",
        "label": "mapping(string => uint256)",
        "numberOfBytes": "32",
        "value": "t_uint256"
      },
      "t_mapping(t_uint256,t_struct(ILProtectionWithMetadata)23740_storage)": {
        "encoding": "mapping",
        "key": "t_uint256",
        "label": "mapping(uint256 => struct ILProtectionWithMetadata)",
        "numberOfBytes": "32",
        "value": "t_struct(ILProtectionWithMetadata)23740_storage"
      },
      "t_string_memory_ptr": {
        "encoding": "bytes",
        "label": "string",
        "numberOfBytes": "32"
      },
      "t_struct(ILProtectionWithMetadata)23740_storage": {
        "encoding": "inplace",
        "label": "struct ILProtectionWithMetadata",
        "members": [
          {
            "astId": 23719,
            "contract": "@coti-cvi/contracts-il/contracts/ILProtectionController.sol:ILProtectionController",
            "label": "protectionId",
            "offset": 0,
            "slot": "0",
            "type": "t_uint256"
          },
          {
            "astId": 23721,
            "contract": "@coti-cvi/contracts-il/contracts/ILProtectionController.sol:ILProtectionController",
            "label": "token1EntryPriceUSD",
            "offset": 0,
            "slot": "1",
            "type": "t_uint256"
          },
          {
            "astId": 23723,
            "contract": "@coti-cvi/contracts-il/contracts/ILProtectionController.sol:ILProtectionController",
            "label": "token2EntryPriceUSD",
            "offset": 0,
            "slot": "2",
            "type": "t_uint256"
          },
          {
            "astId": 23725,
            "contract": "@coti-cvi/contracts-il/contracts/ILProtectionController.sol:ILProtectionController",
            "label": "token1EndPriceUSD",
            "offset": 0,
            "slot": "3",
            "type": "t_uint256"
          },
          {
            "astId": 23727,
            "contract": "@coti-cvi/contracts-il/contracts/ILProtectionController.sol:ILProtectionController",
            "label": "token2EndPriceUSD",
            "offset": 0,
            "slot": "4",
            "type": "t_uint256"
          },
          {
            "astId": 23729,
            "contract": "@coti-cvi/contracts-il/contracts/ILProtectionController.sol:ILProtectionController",
            "label": "maxAmountToBePaid",
            "offset": 0,
            "slot": "5",
            "type": "t_uint256"
          },
          {
            "astId": 23731,
            "contract": "@coti-cvi/contracts-il/contracts/ILProtectionController.sol:ILProtectionController",
            "label": "amountPaidOnPolicyClose",
            "offset": 0,
            "slot": "6",
            "type": "t_uint256"
          },
          {
            "astId": 23733,
            "contract": "@coti-cvi/contracts-il/contracts/ILProtectionController.sol:ILProtectionController",
            "label": "mappingIdx",
            "offset": 0,
            "slot": "7",
            "type": "t_uint256"
          },
          {
            "astId": 23735,
            "contract": "@coti-cvi/contracts-il/contracts/ILProtectionController.sol:ILProtectionController",
            "label": "exists",
            "offset": 0,
            "slot": "8",
            "type": "t_bool"
          },
          {
            "astId": 23737,
            "contract": "@coti-cvi/contracts-il/contracts/ILProtectionController.sol:ILProtectionController",
            "label": "fee",
            "offset": 0,
            "slot": "9",
            "type": "t_uint256"
          },
          {
            "astId": 23739,
            "contract": "@coti-cvi/contracts-il/contracts/ILProtectionController.sol:ILProtectionController",
            "label": "feeComponent",
            "offset": 0,
            "slot": "10",
            "type": "t_uint16"
          }
        ],
        "numberOfBytes": "352"
      },
      "t_struct(RoleData)29296_storage": {
        "encoding": "inplace",
        "label": "struct AccessControlUpgradeable.RoleData",
        "members": [
          {
            "astId": 29293,
            "contract": "@coti-cvi/contracts-il/contracts/ILProtectionController.sol:ILProtectionController",
            "label": "members",
            "offset": 0,
            "slot": "0",
            "type": "t_mapping(t_address,t_bool)"
          },
          {
            "astId": 29295,
            "contract": "@coti-cvi/contracts-il/contracts/ILProtectionController.sol:ILProtectionController",
            "label": "adminRole",
            "offset": 0,
            "slot": "1",
            "type": "t_bytes32"
          }
        ],
        "numberOfBytes": "64"
      },
      "t_uint16": {
        "encoding": "inplace",
        "label": "uint16",
        "numberOfBytes": "2"
      },
      "t_uint256": {
        "encoding": "inplace",
        "label": "uint256",
        "numberOfBytes": "32"
      },
      "t_uint8": {
        "encoding": "inplace",
        "label": "uint8",
        "numberOfBytes": "1"
      }
    }
  }
}