{
  "address": "0xEaDDe92b56E2Da8bBc169aA1E404E655F8e39b54",
  "abi": [
    {
      "anonymous": false,
      "inputs": [
        {
          "indexed": false,
          "internalType": "uint8",
          "name": "version",
          "type": "uint8"
        }
      ],
      "name": "Initialized",
      "type": "event"
    },
    {
      "anonymous": false,
      "inputs": [
        {
          "indexed": true,
          "internalType": "address",
          "name": "from",
          "type": "address"
        },
        {
          "indexed": false,
          "internalType": "uint256",
          "name": "amount",
          "type": "uint256"
        },
        {
          "indexed": false,
          "internalType": "uint256",
          "name": "updatedTotalLiquidity",
          "type": "uint256"
        }
      ],
      "name": "LiquidityAdded",
      "type": "event"
    },
    {
      "anonymous": false,
      "inputs": [
        {
          "indexed": false,
          "internalType": "contract IERC20",
          "name": "prevValue",
          "type": "address"
        },
        {
          "indexed": false,
          "internalType": "contract IERC20",
          "name": "newValue",
          "type": "address"
        }
      ],
      "name": "LiquidityTokenChanged",
      "type": "event"
    },
    {
      "anonymous": false,
      "inputs": [
        {
          "indexed": true,
          "internalType": "address",
          "name": "to",
          "type": "address"
        },
        {
          "indexed": false,
          "internalType": "uint256",
          "name": "amount",
          "type": "uint256"
        },
        {
          "indexed": false,
          "internalType": "uint256",
          "name": "updatedTotalLiquidity",
          "type": "uint256"
        }
      ],
      "name": "LiquidityWithdrawn",
      "type": "event"
    },
    {
      "anonymous": false,
      "inputs": [
        {
          "indexed": true,
          "internalType": "address",
          "name": "previousOwner",
          "type": "address"
        },
        {
          "indexed": true,
          "internalType": "address",
          "name": "newOwner",
          "type": "address"
        }
      ],
      "name": "OwnershipTransferred",
      "type": "event"
    },
    {
      "anonymous": false,
      "inputs": [
        {
          "indexed": true,
          "internalType": "bytes32",
          "name": "role",
          "type": "bytes32"
        },
        {
          "indexed": true,
          "internalType": "bytes32",
          "name": "previousAdminRole",
          "type": "bytes32"
        },
        {
          "indexed": true,
          "internalType": "bytes32",
          "name": "newAdminRole",
          "type": "bytes32"
        }
      ],
      "name": "RoleAdminChanged",
      "type": "event"
    },
    {
      "anonymous": false,
      "inputs": [
        {
          "indexed": true,
          "internalType": "bytes32",
          "name": "role",
          "type": "bytes32"
        },
        {
          "indexed": true,
          "internalType": "address",
          "name": "account",
          "type": "address"
        },
        {
          "indexed": true,
          "internalType": "address",
          "name": "sender",
          "type": "address"
        }
      ],
      "name": "RoleGranted",
      "type": "event"
    },
    {
      "anonymous": false,
      "inputs": [
        {
          "indexed": true,
          "internalType": "bytes32",
          "name": "role",
          "type": "bytes32"
        },
        {
          "indexed": true,
          "internalType": "address",
          "name": "account",
          "type": "address"
        },
        {
          "indexed": true,
          "internalType": "address",
          "name": "sender",
          "type": "address"
        }
      ],
      "name": "RoleRevoked",
      "type": "event"
    },
    {
      "anonymous": false,
      "inputs": [
        {
          "indexed": false,
          "internalType": "contract ITreasuryController",
          "name": "prevValue",
          "type": "address"
        },
        {
          "indexed": false,
          "internalType": "contract ITreasuryController",
          "name": "newValue",
          "type": "address"
        }
      ],
      "name": "TreasuryControllerChanged",
      "type": "event"
    },
    {
      "inputs": [],
      "name": "DEFAULT_ADMIN_ROLE",
      "outputs": [
        {
          "internalType": "bytes32",
          "name": "",
          "type": "bytes32"
        }
      ],
      "stateMutability": "view",
      "type": "function"
    },
    {
      "inputs": [],
      "name": "LIQUIDITY_PROVIDER_ROLE",
      "outputs": [
        {
          "internalType": "bytes32",
          "name": "",
          "type": "bytes32"
        }
      ],
      "stateMutability": "view",
      "type": "function"
    },
    {
      "inputs": [],
      "name": "MAX_PRECISION",
      "outputs": [
        {
          "internalType": "uint16",
          "name": "",
          "type": "uint16"
        }
      ],
      "stateMutability": "view",
      "type": "function"
    },
    {
      "inputs": [
        {
          "internalType": "address",
          "name": "_from",
          "type": "address"
        },
        {
          "internalType": "uint256",
          "name": "_amount",
          "type": "uint256"
        }
      ],
      "name": "addLiquidity",
      "outputs": [],
      "stateMutability": "nonpayable",
      "type": "function"
    },
    {
      "inputs": [
        {
          "internalType": "uint256",
          "name": "_protectionId",
          "type": "uint256"
        },
        {
          "internalType": "address",
          "name": "_from",
          "type": "address"
        },
        {
          "internalType": "uint256",
          "name": "_amountWithoutFee",
          "type": "uint256"
        },
        {
          "internalType": "uint256",
          "name": "_fee",
          "type": "uint256"
        },
        {
          "internalType": "uint16",
          "name": "_feeComponent",
          "type": "uint16"
        }
      ],
      "name": "addLiquidityWithProtectionFee",
      "outputs": [],
      "stateMutability": "nonpayable",
      "type": "function"
    },
    {
      "inputs": [
        {
          "internalType": "uint256",
          "name": "_amount",
          "type": "uint256"
        }
      ],
      "name": "approveTreasury",
      "outputs": [],
      "stateMutability": "nonpayable",
      "type": "function"
    },
    {
      "inputs": [
        {
          "internalType": "bytes32",
          "name": "role",
          "type": "bytes32"
        }
      ],
      "name": "getRoleAdmin",
      "outputs": [
        {
          "internalType": "bytes32",
          "name": "",
          "type": "bytes32"
        }
      ],
      "stateMutability": "view",
      "type": "function"
    },
    {
      "inputs": [
        {
          "internalType": "bytes32",
          "name": "role",
          "type": "bytes32"
        },
        {
          "internalType": "address",
          "name": "account",
          "type": "address"
        }
      ],
      "name": "grantRole",
      "outputs": [],
      "stateMutability": "nonpayable",
      "type": "function"
    },
    {
      "inputs": [
        {
          "internalType": "bytes32",
          "name": "role",
          "type": "bytes32"
        },
        {
          "internalType": "address",
          "name": "account",
          "type": "address"
        }
      ],
      "name": "hasRole",
      "outputs": [
        {
          "internalType": "bool",
          "name": "",
          "type": "bool"
        }
      ],
      "stateMutability": "view",
      "type": "function"
    },
    {
      "inputs": [
        {
          "internalType": "address",
          "name": "_owner",
          "type": "address"
        },
        {
          "internalType": "contract IERC20",
          "name": "_liquidityToken",
          "type": "address"
        },
        {
          "internalType": "contract ITreasuryController",
          "name": "_treasuryController",
          "type": "address"
        }
      ],
      "name": "initialize",
      "outputs": [],
      "stateMutability": "nonpayable",
      "type": "function"
    },
    {
      "inputs": [],
      "name": "liquidity",
      "outputs": [
        {
          "internalType": "uint256",
          "name": "",
          "type": "uint256"
        }
      ],
      "stateMutability": "view",
      "type": "function"
    },
    {
      "inputs": [],
      "name": "liquidityToken",
      "outputs": [
        {
          "internalType": "contract IERC20",
          "name": "",
          "type": "address"
        }
      ],
      "stateMutability": "view",
      "type": "function"
    },
    {
      "inputs": [],
      "name": "liquidityTokenDecimals",
      "outputs": [
        {
          "internalType": "uint8",
          "name": "",
          "type": "uint8"
        }
      ],
      "stateMutability": "view",
      "type": "function"
    },
    {
      "inputs": [],
      "name": "owner",
      "outputs": [
        {
          "internalType": "address",
          "name": "",
          "type": "address"
        }
      ],
      "stateMutability": "view",
      "type": "function"
    },
    {
      "inputs": [],
      "name": "renounceOwnership",
      "outputs": [],
      "stateMutability": "nonpayable",
      "type": "function"
    },
    {
      "inputs": [
        {
          "internalType": "bytes32",
          "name": "role",
          "type": "bytes32"
        },
        {
          "internalType": "address",
          "name": "account",
          "type": "address"
        }
      ],
      "name": "renounceRole",
      "outputs": [],
      "stateMutability": "nonpayable",
      "type": "function"
    },
    {
      "inputs": [
        {
          "internalType": "bytes32",
          "name": "role",
          "type": "bytes32"
        },
        {
          "internalType": "address",
          "name": "account",
          "type": "address"
        }
      ],
      "name": "revokeRole",
      "outputs": [],
      "stateMutability": "nonpayable",
      "type": "function"
    },
    {
      "inputs": [
        {
          "internalType": "contract IERC20",
          "name": "_token",
          "type": "address"
        }
      ],
      "name": "setLiquidityToken",
      "outputs": [],
      "stateMutability": "nonpayable",
      "type": "function"
    },
    {
      "inputs": [
        {
          "internalType": "contract ITreasuryController",
          "name": "_newInstance",
          "type": "address"
        }
      ],
      "name": "setTreasuryController",
      "outputs": [],
      "stateMutability": "nonpayable",
      "type": "function"
    },
    {
      "inputs": [
        {
          "internalType": "bytes4",
          "name": "interfaceId",
          "type": "bytes4"
        }
      ],
      "name": "supportsInterface",
      "outputs": [
        {
          "internalType": "bool",
          "name": "",
          "type": "bool"
        }
      ],
      "stateMutability": "view",
      "type": "function"
    },
    {
      "inputs": [
        {
          "internalType": "address",
          "name": "newOwner",
          "type": "address"
        }
      ],
      "name": "transferOwnership",
      "outputs": [],
      "stateMutability": "nonpayable",
      "type": "function"
    },
    {
      "inputs": [],
      "name": "treasuryController",
      "outputs": [
        {
          "internalType": "contract ITreasuryController",
          "name": "",
          "type": "address"
        }
      ],
      "stateMutability": "view",
      "type": "function"
    },
    {
      "inputs": [
        {
          "internalType": "uint256",
          "name": "_amount",
          "type": "uint256"
        },
        {
          "internalType": "address",
          "name": "_to",
          "type": "address"
        }
      ],
      "name": "withdrawLiquidity",
      "outputs": [],
      "stateMutability": "nonpayable",
      "type": "function"
    }
  ],
  "transactionHash": "0x2fde8f6dfe5350b09d0f55cd35b05ced7ce31775fbd82d98ac088a253420ba1b",
  "args": [],
  "numDeployments": 15,
  "solcInputHash": "e897c88dbbc6e0d512f8ebec1ba049cd",
  "bytecode": "0x608060405234801561001057600080fd5b50611a9e806100206000396000f3fe608060405234801561001057600080fd5b506004361061014d5760003560e01c8063715018a6116100c3578063a217fddf1161007c578063a217fddf146102e8578063a9259754146102f0578063c0c53b8b14610303578063d547741f14610316578063f2fde38b14610329578063fee778f91461033c57600080fd5b8063715018a61461027a57806373f599da146102825780638049e8161461029e57806381a39a7b146102b15780638da5cb5b146102c457806391d14854146102d557600080fd5b80632f2ff15d116101155780632f2ff15d146101dd57806336568abe146101f057806343cd8f7e14610203578063566887001461022e57806364839b5b1461024157806368fc0c9a1461026757600080fd5b806301ffc9a714610152578063140216971461017a5780631a6865021461018f57806320037cdd146101a5578063248a9ca3146101ba575b600080fd5b61016561016036600461172f565b61034f565b60405190151581526020015b60405180910390f35b61018d61018836600461176f565b610386565b005b610197610710565b604051908152602001610171565b610197600080516020611a4983398151915281565b6101976101c83660046116e8565b60009081526097602052604090206001015490565b61018d6101eb366004611700565b610791565b61018d6101fe366004611700565b6107bb565b60c954610216906001600160a01b031681565b6040516001600160a01b039091168152602001610171565b61018d61023c36600461169d565b610839565b60c95461025590600160a01b900460ff1681565b60405160ff9091168152602001610171565b61018d610275366004611700565b610a37565b61018d610bc5565b61028b61271081565b60405161ffff9091168152602001610171565b60ca54610216906001600160a01b031681565b61018d6102bf366004611637565b610c2b565b6033546001600160a01b0316610216565b6101656102e3366004611700565b610cc7565b610197600081565b61018d6102fe3660046116e8565b610cf2565b61018d610311366004611653565b610da5565b61018d610324366004611700565b610ed4565b61018d610337366004611637565b610ef9565b61018d61034a366004611637565b610fc4565b60006001600160e01b03198216637965db0b60e01b148061038057506301ffc9a760e01b6001600160e01b03198316145b92915050565b836001600160a01b0381166103b65760405162461bcd60e51b81526004016103ad90611893565b60405180910390fd5b600080516020611a498339815191526103ce81611147565b6000851161042d5760405162461bcd60e51b815260206004820152602660248201527f416d6f756e74576974686f7574466565206d757374206265206c61726765722060448201526507468616e20360d41b60648201526084016103ad565b6000841161047d5760405162461bcd60e51b815260206004820152601960248201527f466565206d757374206265206c6172676572207468616e20300000000000000060448201526064016103ad565b60008361ffff16116104dd5760405162461bcd60e51b815260206004820152602360248201527f46656520636f6d706f6e656e74206d757374206265206c61726765722074686160448201526206e20360ec1b60648201526084016103ad565b6104e7848661198c565b60c9546040516370a0823160e01b81526001600160a01b038981166004830152909116906370a082319060240160206040518083038186803b15801561052c57600080fd5b505afa158015610540573d6000803e3d6000fd5b505050506040513d601f19601f820116820180604052508101906105649190611757565b10156105a75760405162461bcd60e51b81526020600482015260126024820152714e6f7420656e6f7567682062616c616e636560701b60448201526064016103ad565b60c9546001600160a01b03166323b872dd87306105c4888a61198c565b6040516001600160e01b031960e086901b1681526001600160a01b0393841660048201529290911660248301526044820152606401602060405180830381600087803b15801561061357600080fd5b505af1158015610627573d6000803e3d6000fd5b505050506040513d601f19601f8201168201806040525081019061064b91906116c8565b5060ca5460405163505eb88960e01b8152600481018990526024810186905261ffff851660448201526001600160a01b039091169063505eb88990606401600060405180830381600087803b1580156106a357600080fd5b505af11580156106b7573d6000803e3d6000fd5b50505050856001600160a01b03167fac1d76749e5447b7b16f5ab61447e1bd502f3bb4807af3b28e620d1700a6ee45866106ef610710565b6040805192835260208301919091520160405180910390a250505050505050565b60c9546040516370a0823160e01b81523060048201526000916001600160a01b0316906370a082319060240160206040518083038186803b15801561075457600080fd5b505afa158015610768573d6000803e3d6000fd5b505050506040513d601f19601f8201168201806040525081019061078c9190611757565b905090565b6000828152609760205260409020600101546107ac81611147565b6107b68383611151565b505050565b6001600160a01b038116331461082b5760405162461bcd60e51b815260206004820152602f60248201527f416363657373436f6e74726f6c3a2063616e206f6e6c792072656e6f756e636560448201526e103937b632b9903337b91039b2b63360891b60648201526084016103ad565b61083582826111d7565b5050565b816001600160a01b0381166108605760405162461bcd60e51b81526004016103ad90611893565b600080516020611a4983398151915261087881611147565b600083116108985760405162461bcd60e51b81526004016103ad906118bc565b60c9546040516370a0823160e01b81526001600160a01b038681166004830152859216906370a082319060240160206040518083038186803b1580156108dd57600080fd5b505afa1580156108f1573d6000803e3d6000fd5b505050506040513d601f19601f820116820180604052508101906109159190611757565b10156109585760405162461bcd60e51b81526020600482015260126024820152714e6f7420656e6f7567682062616c616e636560701b60448201526064016103ad565b60c9546040516323b872dd60e01b81526001600160a01b03868116600483015230602483015260448201869052909116906323b872dd90606401602060405180830381600087803b1580156109ac57600080fd5b505af11580156109c0573d6000803e3d6000fd5b505050506040513d601f19601f820116820180604052508101906109e491906116c8565b50836001600160a01b03167fac1d76749e5447b7b16f5ab61447e1bd502f3bb4807af3b28e620d1700a6ee4584610a19610710565b6040805192835260208301919091520160405180910390a250505050565b806001600160a01b038116610a5e5760405162461bcd60e51b81526004016103ad90611893565b600080516020611a49833981519152610a7681611147565b60008411610a965760405162461bcd60e51b81526004016103ad906118bc565b6000610aa0610710565b905084811015610ae95760405162461bcd60e51b81526020600482015260146024820152734e6f7420656e6f756768206c697175696469747960601b60448201526064016103ad565b60c95460405163a9059cbb60e01b81526001600160a01b038681166004830152602482018890529091169063a9059cbb90604401602060405180830381600087803b158015610b3757600080fd5b505af1158015610b4b573d6000803e3d6000fd5b505050506040513d601f19601f82011682018060405250810190610b6f91906116c8565b506001600160a01b0384167fb195a67e698c5700e4f48f7b7748dda3a206ee2767ef024b61a26d7b17b2d63a86610ba681856119c3565b6040805192835260208301919091520160405180910390a25050505050565b6033546001600160a01b03163314610c1f5760405162461bcd60e51b815260206004820181905260248201527f4f776e61626c653a2063616c6c6572206973206e6f7420746865206f776e657260448201526064016103ad565b610c29600061123e565b565b806001600160a01b038116610c525760405162461bcd60e51b81526004016103ad90611893565b610c5d600033611290565b60ca54604080516001600160a01b03928316815291841660208301527f1d83779dd88d898b66eccde84542885399417d5d840c4cbbfca48d8c6bce05a8910160405180910390a15060ca80546001600160a01b0319166001600160a01b0392909216919091179055565b60009182526097602090815260408084206001600160a01b0393909316845291905290205460ff1690565b610cfd600033611290565b60008111610d1d5760405162461bcd60e51b81526004016103ad906118bc565b60c95460ca5460405163095ea7b360e01b81526001600160a01b0391821660048201526024810184905291169063095ea7b390604401602060405180830381600087803b158015610d6d57600080fd5b505af1158015610d81573d6000803e3d6000fd5b505050506040513d601f19601f8201168201806040525081019061083591906116c8565b6000610db160016112f4565b90508015610dc9576000805461ff0019166101001790555b610dd28461137c565b60c980546001600160a01b038086166001600160a01b0319928316811790935560ca8054918616919092161790556040805163313ce56760e01b8152905163313ce56791600480820192602092909190829003018186803b158015610e3657600080fd5b505afa158015610e4a573d6000803e3d6000fd5b505050506040513d601f19601f82011682018060405250810190610e6e91906117ca565b60c960146101000a81548160ff021916908360ff1602179055508015610ece576000805461ff0019169055604051600181527f7f26b83ff96e1f2b6a682f133852f6798a09c465da95921460cefb38474024989060200160405180910390a15b50505050565b600082815260976020526040902060010154610eef81611147565b6107b683836111d7565b6033546001600160a01b03163314610f535760405162461bcd60e51b815260206004820181905260248201527f4f776e61626c653a2063616c6c6572206973206e6f7420746865206f776e657260448201526064016103ad565b6001600160a01b038116610fb85760405162461bcd60e51b815260206004820152602660248201527f4f776e61626c653a206e6577206f776e657220697320746865207a65726f206160448201526564647265737360d01b60648201526084016103ad565b610fc18161123e565b50565b806001600160a01b038116610feb5760405162461bcd60e51b81526004016103ad90611893565b610ff6600033611290565b610ffe610710565b156110565760405162461bcd60e51b815260206004820152602260248201527f43757272656e74206c69717569646974792062616c616e6365206973206e6f74604482015261020360f41b60648201526084016103ad565b60c954604080516001600160a01b03928316815291841660208301527fcf7787ce05f24e5978d1012e072bc5ba60c8ec40326ea36a68218e7e0814024f910160405180910390a160c980546001600160a01b0319166001600160a01b0384169081179091556040805163313ce56760e01b8152905163313ce56791600480820192602092909190829003018186803b1580156110f157600080fd5b505afa158015611105573d6000803e3d6000fd5b505050506040513d601f19601f8201168201806040525081019061112991906117ca565b60c960146101000a81548160ff021916908360ff1602179055505050565b610fc18133611290565b61115b8282610cc7565b6108355760008281526097602090815260408083206001600160a01b03851684529091529020805460ff191660011790556111933390565b6001600160a01b0316816001600160a01b0316837f2f8788117e7eff1d82e926ec794901d17c78024a50270940304540a733656f0d60405160405180910390a45050565b6111e18282610cc7565b156108355760008281526097602090815260408083206001600160a01b0385168085529252808320805460ff1916905551339285917ff6391f5c32d9c69d2a47ea670b442974b53935d1edc7fd64eb21e047a839171b9190a45050565b603380546001600160a01b038381166001600160a01b0319831681179093556040519116919082907f8be0079c531659141344cd1fd0a4f28419497f9722a3daafe3b4186f6b6457e090600090a35050565b61129a8282610cc7565b610835576112b2816001600160a01b031660146113be565b6112bd8360206113be565b6040516020016112ce9291906117eb565b60408051601f198184030181529082905262461bcd60e51b82526103ad91600401611860565b60008054610100900460ff161561133b578160ff1660011480156113175750303b155b6113335760405162461bcd60e51b81526004016103ad906118f3565b506000919050565b60005460ff8084169116106113625760405162461bcd60e51b81526004016103ad906118f3565b506000805460ff191660ff92909216919091179055600190565b600054610100900460ff166113a35760405162461bcd60e51b81526004016103ad90611941565b6113ab6115a7565b6113b36115d6565b610fb86000826115fd565b606060006113cd8360026119a4565b6113d890600261198c565b67ffffffffffffffff8111156113fe57634e487b7160e01b600052604160045260246000fd5b6040519080825280601f01601f191660200182016040528015611428576020820181803683370190505b509050600360fc1b8160008151811061145157634e487b7160e01b600052603260045260246000fd5b60200101906001600160f81b031916908160001a905350600f60fb1b8160018151811061148e57634e487b7160e01b600052603260045260246000fd5b60200101906001600160f81b031916908160001a90535060006114b28460026119a4565b6114bd90600161198c565b90505b6001811115611551576f181899199a1a9b1b9c1cb0b131b232b360811b85600f16601081106114ff57634e487b7160e01b600052603260045260246000fd5b1a60f81b82828151811061152357634e487b7160e01b600052603260045260246000fd5b60200101906001600160f81b031916908160001a90535060049490941c9361154a81611a06565b90506114c0565b5083156115a05760405162461bcd60e51b815260206004820181905260248201527f537472696e67733a20686578206c656e67746820696e73756666696369656e7460448201526064016103ad565b9392505050565b600054610100900460ff166115ce5760405162461bcd60e51b81526004016103ad90611941565b610c29611607565b600054610100900460ff16610c295760405162461bcd60e51b81526004016103ad90611941565b6108358282611151565b600054610100900460ff1661162e5760405162461bcd60e51b81526004016103ad90611941565b610c293361123e565b600060208284031215611648578081fd5b81356115a081611a33565b600080600060608486031215611667578182fd5b833561167281611a33565b9250602084013561168281611a33565b9150604084013561169281611a33565b809150509250925092565b600080604083850312156116af578182fd5b82356116ba81611a33565b946020939093013593505050565b6000602082840312156116d9578081fd5b815180151581146115a0578182fd5b6000602082840312156116f9578081fd5b5035919050565b60008060408385031215611712578182fd5b82359150602083013561172481611a33565b809150509250929050565b600060208284031215611740578081fd5b81356001600160e01b0319811681146115a0578182fd5b600060208284031215611768578081fd5b5051919050565b600080600080600060a08688031215611786578081fd5b85359450602086013561179881611a33565b93506040860135925060608601359150608086013561ffff811681146117bc578182fd5b809150509295509295909350565b6000602082840312156117db578081fd5b815160ff811681146115a0578182fd5b7f416363657373436f6e74726f6c3a206163636f756e74200000000000000000008152600083516118238160178501602088016119da565b7001034b99036b4b9b9b4b733903937b6329607d1b60179184019182015283516118548160288401602088016119da565b01602801949350505050565b602081526000825180602084015261187f8160408501602087016119da565b601f01601f19169190910160400192915050565b6020808252600f908201526e496e76616c6964206164647265737360881b604082015260600190565b6020808252601c908201527f416d6f756e74206d757374206265206c6172676572207468616e203000000000604082015260600190565b6020808252602e908201527f496e697469616c697a61626c653a20636f6e747261637420697320616c72656160408201526d191e481a5b9a5d1a585b1a5e995960921b606082015260800190565b6020808252602b908201527f496e697469616c697a61626c653a20636f6e7472616374206973206e6f74206960408201526a6e697469616c697a696e6760a81b606082015260800190565b6000821982111561199f5761199f611a1d565b500190565b60008160001904831182151516156119be576119be611a1d565b500290565b6000828210156119d5576119d5611a1d565b500390565b60005b838110156119f55781810151838201526020016119dd565b83811115610ece5750506000910152565b600081611a1557611a15611a1d565b506000190190565b634e487b7160e01b600052601160045260246000fd5b6001600160a01b0381168114610fc157600080fdfe42802a37d17e698ec3d88f7a6917f1f5a6abb4d99a8f4255c389e56d10218a64a26469706673582212205dc36d4f07398713de0178e11761279d84e9cce24a29b76bc9ca01065c3a1e2164736f6c63430008040033",
  "devdoc": {
    "kind": "dev",
    "methods": {
      "getRoleAdmin(bytes32)": {
        "details": "Returns the admin role that controls `role`. See {grantRole} and {revokeRole}. To change a role's admin, use {_setRoleAdmin}."
      },
      "grantRole(bytes32,address)": {
        "details": "Grants `role` to `account`. If `account` had not been already granted `role`, emits a {RoleGranted} event. Requirements: - the caller must have ``role``'s admin role."
      },
      "hasRole(bytes32,address)": {
        "details": "Returns `true` if `account` has been granted `role`."
      },
      "owner()": {
        "details": "Returns the address of the current owner."
      },
      "renounceOwnership()": {
        "details": "Leaves the contract without owner. It will not be possible to call `onlyOwner` functions anymore. Can only be called by the current owner. NOTE: Renouncing ownership will leave the contract without an owner, thereby removing any functionality that is only available to the owner."
      },
      "renounceRole(bytes32,address)": {
        "details": "Revokes `role` from the calling account. Roles are often managed via {grantRole} and {revokeRole}: this function's purpose is to provide a mechanism for accounts to lose their privileges if they are compromised (such as when a trusted device is misplaced). If the calling account had been revoked `role`, emits a {RoleRevoked} event. Requirements: - the caller must be `account`."
      },
      "revokeRole(bytes32,address)": {
        "details": "Revokes `role` from `account`. If `account` had been granted `role`, emits a {RoleRevoked} event. Requirements: - the caller must have ``role``'s admin role."
      },
      "supportsInterface(bytes4)": {
        "details": "See {IERC165-supportsInterface}."
      },
      "transferOwnership(address)": {
        "details": "Transfers ownership of the contract to a new account (`newOwner`). Can only be called by the current owner."
      }
    },
    "version": 1
  },
  "userdoc": {
    "kind": "user",
    "methods": {},
    "version": 1
  },
  "storageLayout": {
    "storage": [
      {
        "astId": 27521,
        "contract": "@coti-cvi/contracts-il/contracts/LiquidityController.sol:LiquidityController",
        "label": "_initialized",
        "offset": 0,
        "slot": "0",
        "type": "t_uint8"
      },
      {
        "astId": 27524,
        "contract": "@coti-cvi/contracts-il/contracts/LiquidityController.sol:LiquidityController",
        "label": "_initializing",
        "offset": 1,
        "slot": "0",
        "type": "t_bool"
      },
      {
        "astId": 30378,
        "contract": "@coti-cvi/contracts-il/contracts/LiquidityController.sol:LiquidityController",
        "label": "__gap",
        "offset": 0,
        "slot": "1",
        "type": "t_array(t_uint256)50_storage"
      },
      {
        "astId": 27401,
        "contract": "@coti-cvi/contracts-il/contracts/LiquidityController.sol:LiquidityController",
        "label": "_owner",
        "offset": 0,
        "slot": "51",
        "type": "t_address"
      },
      {
        "astId": 27513,
        "contract": "@coti-cvi/contracts-il/contracts/LiquidityController.sol:LiquidityController",
        "label": "__gap",
        "offset": 0,
        "slot": "52",
        "type": "t_array(t_uint256)49_storage"
      },
      {
        "astId": 30625,
        "contract": "@coti-cvi/contracts-il/contracts/LiquidityController.sol:LiquidityController",
        "label": "__gap",
        "offset": 0,
        "slot": "101",
        "type": "t_array(t_uint256)50_storage"
      },
      {
        "astId": 27017,
        "contract": "@coti-cvi/contracts-il/contracts/LiquidityController.sol:LiquidityController",
        "label": "_roles",
        "offset": 0,
        "slot": "151",
        "type": "t_mapping(t_bytes32,t_struct(RoleData)27012_storage)"
      },
      {
        "astId": 27316,
        "contract": "@coti-cvi/contracts-il/contracts/LiquidityController.sol:LiquidityController",
        "label": "__gap",
        "offset": 0,
        "slot": "152",
        "type": "t_array(t_uint256)49_storage"
      },
      {
        "astId": 24478,
        "contract": "@coti-cvi/contracts-il/contracts/LiquidityController.sol:LiquidityController",
        "label": "liquidityToken",
        "offset": 0,
        "slot": "201",
        "type": "t_contract(IERC20)31447"
      },
      {
        "astId": 24481,
        "contract": "@coti-cvi/contracts-il/contracts/LiquidityController.sol:LiquidityController",
        "label": "liquidityTokenDecimals",
        "offset": 20,
        "slot": "201",
        "type": "t_uint8"
      },
      {
        "astId": 24485,
        "contract": "@coti-cvi/contracts-il/contracts/LiquidityController.sol:LiquidityController",
        "label": "treasuryController",
        "offset": 0,
        "slot": "202",
        "type": "t_contract(ITreasuryController)26654"
      }
    ],
    "types": {
      "t_address": {
        "encoding": "inplace",
        "label": "address",
        "numberOfBytes": "20"
      },
      "t_array(t_uint256)49_storage": {
        "base": "t_uint256",
        "encoding": "inplace",
        "label": "uint256[49]",
        "numberOfBytes": "1568"
      },
      "t_array(t_uint256)50_storage": {
        "base": "t_uint256",
        "encoding": "inplace",
        "label": "uint256[50]",
        "numberOfBytes": "1600"
      },
      "t_bool": {
        "encoding": "inplace",
        "label": "bool",
        "numberOfBytes": "1"
      },
      "t_bytes32": {
        "encoding": "inplace",
        "label": "bytes32",
        "numberOfBytes": "32"
      },
      "t_contract(IERC20)31447": {
        "encoding": "inplace",
        "label": "contract IERC20",
        "numberOfBytes": "20"
      },
      "t_contract(ITreasuryController)26654": {
        "encoding": "inplace",
        "label": "contract ITreasuryController",
        "numberOfBytes": "20"
      },
      "t_mapping(t_address,t_bool)": {
        "encoding": "mapping",
        "key": "t_address",
        "label": "mapping(address => bool)",
        "numberOfBytes": "32",
        "value": "t_bool"
      },
      "t_mapping(t_bytes32,t_struct(RoleData)27012_storage)": {
        "encoding": "mapping",
        "key": "t_bytes32",
        "label": "mapping(bytes32 => struct AccessControlUpgradeable.RoleData)",
        "numberOfBytes": "32",
        "value": "t_struct(RoleData)27012_storage"
      },
      "t_struct(RoleData)27012_storage": {
        "encoding": "inplace",
        "label": "struct AccessControlUpgradeable.RoleData",
        "members": [
          {
            "astId": 27009,
            "contract": "@coti-cvi/contracts-il/contracts/LiquidityController.sol:LiquidityController",
            "label": "members",
            "offset": 0,
            "slot": "0",
            "type": "t_mapping(t_address,t_bool)"
          },
          {
            "astId": 27011,
            "contract": "@coti-cvi/contracts-il/contracts/LiquidityController.sol:LiquidityController",
            "label": "adminRole",
            "offset": 0,
            "slot": "1",
            "type": "t_bytes32"
          }
        ],
        "numberOfBytes": "64"
      },
      "t_uint256": {
        "encoding": "inplace",
        "label": "uint256",
        "numberOfBytes": "32"
      },
      "t_uint8": {
        "encoding": "inplace",
        "label": "uint8",
        "numberOfBytes": "1"
      }
    }
  }
}