{
  "address": "0x9A97A72D480bFd68043F458393aa4c4f17A24453",
  "abi": [
    {
      "inputs": [],
      "name": "TokenPairDoesNotExist",
      "type": "error"
    },
    {
      "anonymous": false,
      "inputs": [
        {
          "indexed": false,
          "internalType": "string",
          "name": "token1Symbol",
          "type": "string"
        },
        {
          "indexed": false,
          "internalType": "string",
          "name": "token2Symbol",
          "type": "string"
        },
        {
          "indexed": false,
          "internalType": "uint16",
          "name": "prevValue",
          "type": "uint16"
        },
        {
          "indexed": false,
          "internalType": "uint16",
          "name": "newValue",
          "type": "uint16"
        }
      ],
      "name": "CollateralCapComponentChanged",
      "type": "event"
    },
    {
      "anonymous": false,
      "inputs": [
        {
          "indexed": false,
          "internalType": "contract ILProtectionConfigInterface",
          "name": "prevValue",
          "type": "address"
        },
        {
          "indexed": false,
          "internalType": "contract ILProtectionConfigInterface",
          "name": "newValue",
          "type": "address"
        }
      ],
      "name": "ILProtectionConfigChanged",
      "type": "event"
    },
    {
      "anonymous": false,
      "inputs": [
        {
          "indexed": false,
          "internalType": "uint8",
          "name": "version",
          "type": "uint8"
        }
      ],
      "name": "Initialized",
      "type": "event"
    },
    {
      "anonymous": false,
      "inputs": [
        {
          "indexed": true,
          "internalType": "address",
          "name": "previousOwner",
          "type": "address"
        },
        {
          "indexed": true,
          "internalType": "address",
          "name": "newOwner",
          "type": "address"
        }
      ],
      "name": "OwnershipTransferred",
      "type": "event"
    },
    {
      "anonymous": false,
      "inputs": [
        {
          "components": [
            {
              "internalType": "string",
              "name": "token1Symbol",
              "type": "string"
            },
            {
              "internalType": "string",
              "name": "token2Symbol",
              "type": "string"
            },
            {
              "internalType": "contract AggregatorV3Interface",
              "name": "token1PriceAggregator",
              "type": "address"
            },
            {
              "internalType": "contract AggregatorV3Interface",
              "name": "token2PriceAggregator",
              "type": "address"
            },
            {
              "internalType": "bool",
              "name": "exists",
              "type": "bool"
            }
          ],
          "indexed": false,
          "internalType": "struct TokenPair",
          "name": "prevValue",
          "type": "tuple"
        },
        {
          "components": [
            {
              "internalType": "string",
              "name": "token1Symbol",
              "type": "string"
            },
            {
              "internalType": "string",
              "name": "token2Symbol",
              "type": "string"
            },
            {
              "internalType": "contract AggregatorV3Interface",
              "name": "token1PriceAggregator",
              "type": "address"
            },
            {
              "internalType": "contract AggregatorV3Interface",
              "name": "token2PriceAggregator",
              "type": "address"
            },
            {
              "internalType": "bool",
              "name": "exists",
              "type": "bool"
            }
          ],
          "indexed": false,
          "internalType": "struct TokenPair",
          "name": "newValue",
          "type": "tuple"
        }
      ],
      "name": "PairSet",
      "type": "event"
    },
    {
      "anonymous": false,
      "inputs": [
        {
          "indexed": false,
          "internalType": "string",
          "name": "token1Symbol",
          "type": "string"
        },
        {
          "indexed": false,
          "internalType": "string",
          "name": "token2Symbol",
          "type": "string"
        },
        {
          "indexed": false,
          "internalType": "uint256",
          "name": "policyPeriod",
          "type": "uint256"
        },
        {
          "components": [
            {
              "internalType": "int256",
              "name": "A",
              "type": "int256"
            },
            {
              "internalType": "int256",
              "name": "X0",
              "type": "int256"
            },
            {
              "internalType": "int256",
              "name": "C",
              "type": "int256"
            }
          ],
          "indexed": false,
          "internalType": "struct PremiumParams",
          "name": "prevValue",
          "type": "tuple"
        },
        {
          "components": [
            {
              "internalType": "int256",
              "name": "A",
              "type": "int256"
            },
            {
              "internalType": "int256",
              "name": "X0",
              "type": "int256"
            },
            {
              "internalType": "int256",
              "name": "C",
              "type": "int256"
            }
          ],
          "indexed": false,
          "internalType": "struct PremiumParams",
          "name": "newValue",
          "type": "tuple"
        }
      ],
      "name": "PremiumParamsChanged",
      "type": "event"
    },
    {
      "anonymous": false,
      "inputs": [
        {
          "indexed": false,
          "internalType": "string",
          "name": "token1Symbol",
          "type": "string"
        },
        {
          "indexed": false,
          "internalType": "string",
          "name": "token2Symbol",
          "type": "string"
        },
        {
          "indexed": false,
          "internalType": "uint256",
          "name": "policyPeriod",
          "type": "uint256"
        },
        {
          "components": [
            {
              "internalType": "int256",
              "name": "A",
              "type": "int256"
            },
            {
              "internalType": "int256",
              "name": "X0",
              "type": "int256"
            },
            {
              "internalType": "int256",
              "name": "C",
              "type": "int256"
            }
          ],
          "indexed": false,
          "internalType": "struct PremiumParams",
          "name": "deletedParams",
          "type": "tuple"
        }
      ],
      "name": "PremiumParamsDeleted",
      "type": "event"
    },
    {
      "anonymous": false,
      "inputs": [
        {
          "indexed": false,
          "internalType": "uint8",
          "name": "prevValue",
          "type": "uint8"
        },
        {
          "indexed": false,
          "internalType": "uint8",
          "name": "newValue",
          "type": "uint8"
        }
      ],
      "name": "PriceTokenDecimalsChanged",
      "type": "event"
    },
    {
      "anonymous": false,
      "inputs": [
        {
          "indexed": true,
          "internalType": "bytes32",
          "name": "role",
          "type": "bytes32"
        },
        {
          "indexed": true,
          "internalType": "bytes32",
          "name": "previousAdminRole",
          "type": "bytes32"
        },
        {
          "indexed": true,
          "internalType": "bytes32",
          "name": "newAdminRole",
          "type": "bytes32"
        }
      ],
      "name": "RoleAdminChanged",
      "type": "event"
    },
    {
      "anonymous": false,
      "inputs": [
        {
          "indexed": true,
          "internalType": "bytes32",
          "name": "role",
          "type": "bytes32"
        },
        {
          "indexed": true,
          "internalType": "address",
          "name": "account",
          "type": "address"
        },
        {
          "indexed": true,
          "internalType": "address",
          "name": "sender",
          "type": "address"
        }
      ],
      "name": "RoleGranted",
      "type": "event"
    },
    {
      "anonymous": false,
      "inputs": [
        {
          "indexed": true,
          "internalType": "bytes32",
          "name": "role",
          "type": "bytes32"
        },
        {
          "indexed": true,
          "internalType": "address",
          "name": "account",
          "type": "address"
        },
        {
          "indexed": true,
          "internalType": "address",
          "name": "sender",
          "type": "address"
        }
      ],
      "name": "RoleRevoked",
      "type": "event"
    },
    {
      "inputs": [],
      "name": "DEFAULT_ADMIN_ROLE",
      "outputs": [
        {
          "internalType": "bytes32",
          "name": "",
          "type": "bytes32"
        }
      ],
      "stateMutability": "view",
      "type": "function"
    },
    {
      "inputs": [],
      "name": "MAX_PRECISION",
      "outputs": [
        {
          "internalType": "uint16",
          "name": "",
          "type": "uint16"
        }
      ],
      "stateMutability": "view",
      "type": "function"
    },
    {
      "inputs": [
        {
          "internalType": "string",
          "name": "_token1Symbol",
          "type": "string"
        },
        {
          "internalType": "string",
          "name": "_token2Symbol",
          "type": "string"
        },
        {
          "internalType": "uint256[]",
          "name": "_policyPeriods",
          "type": "uint256[]"
        }
      ],
      "name": "deletePremiumsParams",
      "outputs": [],
      "stateMutability": "nonpayable",
      "type": "function"
    },
    {
      "inputs": [
        {
          "internalType": "string",
          "name": "_token1Symbol",
          "type": "string"
        },
        {
          "internalType": "string",
          "name": "_token2Symbol",
          "type": "string"
        }
      ],
      "name": "getCollateralCapComponent",
      "outputs": [
        {
          "internalType": "uint16",
          "name": "",
          "type": "uint16"
        }
      ],
      "stateMutability": "view",
      "type": "function"
    },
    {
      "inputs": [
        {
          "internalType": "string",
          "name": "_token1Symbol",
          "type": "string"
        },
        {
          "internalType": "string",
          "name": "_token2Symbol",
          "type": "string"
        }
      ],
      "name": "getOrderedTokenPairIfExists",
      "outputs": [
        {
          "components": [
            {
              "internalType": "string",
              "name": "token1Symbol",
              "type": "string"
            },
            {
              "internalType": "string",
              "name": "token2Symbol",
              "type": "string"
            },
            {
              "internalType": "contract AggregatorV3Interface",
              "name": "token1PriceAggregator",
              "type": "address"
            },
            {
              "internalType": "contract AggregatorV3Interface",
              "name": "token2PriceAggregator",
              "type": "address"
            },
            {
              "internalType": "bool",
              "name": "exists",
              "type": "bool"
            }
          ],
          "internalType": "struct TokenPair",
          "name": "",
          "type": "tuple"
        }
      ],
      "stateMutability": "view",
      "type": "function"
    },
    {
      "inputs": [
        {
          "internalType": "string",
          "name": "_token1Symbol",
          "type": "string"
        },
        {
          "internalType": "string",
          "name": "_token2Symbol",
          "type": "string"
        }
      ],
      "name": "getPair",
      "outputs": [
        {
          "components": [
            {
              "internalType": "string",
              "name": "token1Symbol",
              "type": "string"
            },
            {
              "internalType": "string",
              "name": "token2Symbol",
              "type": "string"
            },
            {
              "internalType": "contract AggregatorV3Interface",
              "name": "token1PriceAggregator",
              "type": "address"
            },
            {
              "internalType": "contract AggregatorV3Interface",
              "name": "token2PriceAggregator",
              "type": "address"
            },
            {
              "internalType": "bool",
              "name": "exists",
              "type": "bool"
            }
          ],
          "internalType": "struct TokenPair",
          "name": "",
          "type": "tuple"
        }
      ],
      "stateMutability": "view",
      "type": "function"
    },
    {
      "inputs": [],
      "name": "getPairs",
      "outputs": [
        {
          "components": [
            {
              "internalType": "string",
              "name": "token1Symbol",
              "type": "string"
            },
            {
              "internalType": "string",
              "name": "token2Symbol",
              "type": "string"
            },
            {
              "internalType": "contract AggregatorV3Interface",
              "name": "token1PriceAggregator",
              "type": "address"
            },
            {
              "internalType": "contract AggregatorV3Interface",
              "name": "token2PriceAggregator",
              "type": "address"
            },
            {
              "internalType": "bool",
              "name": "exists",
              "type": "bool"
            }
          ],
          "internalType": "struct TokenPair[]",
          "name": "",
          "type": "tuple[]"
        }
      ],
      "stateMutability": "view",
      "type": "function"
    },
    {
      "inputs": [
        {
          "internalType": "string",
          "name": "_token1Symbol",
          "type": "string"
        },
        {
          "internalType": "string",
          "name": "_token2Symbol",
          "type": "string"
        },
        {
          "internalType": "uint256",
          "name": "_policyPeriod",
          "type": "uint256"
        }
      ],
      "name": "getPremiumParams",
      "outputs": [
        {
          "components": [
            {
              "internalType": "int256",
              "name": "A",
              "type": "int256"
            },
            {
              "internalType": "int256",
              "name": "X0",
              "type": "int256"
            },
            {
              "internalType": "int256",
              "name": "C",
              "type": "int256"
            }
          ],
          "internalType": "struct PremiumParams",
          "name": "",
          "type": "tuple"
        }
      ],
      "stateMutability": "view",
      "type": "function"
    },
    {
      "inputs": [
        {
          "internalType": "bytes32",
          "name": "role",
          "type": "bytes32"
        }
      ],
      "name": "getRoleAdmin",
      "outputs": [
        {
          "internalType": "bytes32",
          "name": "",
          "type": "bytes32"
        }
      ],
      "stateMutability": "view",
      "type": "function"
    },
    {
      "inputs": [
        {
          "internalType": "string",
          "name": "_token1Symbol",
          "type": "string"
        },
        {
          "internalType": "string",
          "name": "_token2Symbol",
          "type": "string"
        },
        {
          "internalType": "bool",
          "name": "_isFirstTokenPrice",
          "type": "bool"
        }
      ],
      "name": "getTokenPrice",
      "outputs": [
        {
          "internalType": "uint256",
          "name": "",
          "type": "uint256"
        }
      ],
      "stateMutability": "view",
      "type": "function"
    },
    {
      "inputs": [
        {
          "internalType": "bytes32",
          "name": "role",
          "type": "bytes32"
        },
        {
          "internalType": "address",
          "name": "account",
          "type": "address"
        }
      ],
      "name": "grantRole",
      "outputs": [],
      "stateMutability": "nonpayable",
      "type": "function"
    },
    {
      "inputs": [
        {
          "internalType": "bytes32",
          "name": "role",
          "type": "bytes32"
        },
        {
          "internalType": "address",
          "name": "account",
          "type": "address"
        }
      ],
      "name": "hasRole",
      "outputs": [
        {
          "internalType": "bool",
          "name": "",
          "type": "bool"
        }
      ],
      "stateMutability": "view",
      "type": "function"
    },
    {
      "inputs": [
        {
          "internalType": "address",
          "name": "_owner",
          "type": "address"
        },
        {
          "internalType": "uint8",
          "name": "_priceTokenDecimals",
          "type": "uint8"
        },
        {
          "internalType": "contract ILProtectionConfigInterface",
          "name": "_protectionConfig",
          "type": "address"
        }
      ],
      "name": "initialize",
      "outputs": [],
      "stateMutability": "nonpayable",
      "type": "function"
    },
    {
      "inputs": [],
      "name": "owner",
      "outputs": [
        {
          "internalType": "address",
          "name": "",
          "type": "address"
        }
      ],
      "stateMutability": "view",
      "type": "function"
    },
    {
      "inputs": [],
      "name": "priceTokenDecimals",
      "outputs": [
        {
          "internalType": "uint8",
          "name": "",
          "type": "uint8"
        }
      ],
      "stateMutability": "view",
      "type": "function"
    },
    {
      "inputs": [],
      "name": "protectionConfig",
      "outputs": [
        {
          "internalType": "contract ILProtectionConfigInterface",
          "name": "",
          "type": "address"
        }
      ],
      "stateMutability": "view",
      "type": "function"
    },
    {
      "inputs": [],
      "name": "renounceOwnership",
      "outputs": [],
      "stateMutability": "nonpayable",
      "type": "function"
    },
    {
      "inputs": [
        {
          "internalType": "bytes32",
          "name": "role",
          "type": "bytes32"
        },
        {
          "internalType": "address",
          "name": "account",
          "type": "address"
        }
      ],
      "name": "renounceRole",
      "outputs": [],
      "stateMutability": "nonpayable",
      "type": "function"
    },
    {
      "inputs": [
        {
          "internalType": "bytes32",
          "name": "role",
          "type": "bytes32"
        },
        {
          "internalType": "address",
          "name": "account",
          "type": "address"
        }
      ],
      "name": "revokeRole",
      "outputs": [],
      "stateMutability": "nonpayable",
      "type": "function"
    },
    {
      "inputs": [
        {
          "internalType": "string",
          "name": "_token1Symbol",
          "type": "string"
        },
        {
          "internalType": "string",
          "name": "_token2Symbol",
          "type": "string"
        },
        {
          "internalType": "uint16",
          "name": "_collateralCapComponent",
          "type": "uint16"
        }
      ],
      "name": "setCollateralCapComponent",
      "outputs": [],
      "stateMutability": "nonpayable",
      "type": "function"
    },
    {
      "inputs": [
        {
          "internalType": "contract ILProtectionConfigInterface",
          "name": "_newInstance",
          "type": "address"
        }
      ],
      "name": "setILProtectionConfig",
      "outputs": [],
      "stateMutability": "nonpayable",
      "type": "function"
    },
    {
      "inputs": [
        {
          "internalType": "string",
          "name": "_token1Symbol",
          "type": "string"
        },
        {
          "internalType": "string",
          "name": "_token2Symbol",
          "type": "string"
        },
        {
          "internalType": "contract AggregatorV3Interface",
          "name": "_token1PriceAggregator",
          "type": "address"
        },
        {
          "internalType": "contract AggregatorV3Interface",
          "name": "_token2PriceAggregator",
          "type": "address"
        }
      ],
      "name": "setPair",
      "outputs": [],
      "stateMutability": "nonpayable",
      "type": "function"
    },
    {
      "inputs": [
        {
          "internalType": "string",
          "name": "_token1Symbol",
          "type": "string"
        },
        {
          "internalType": "string",
          "name": "_token2Symbol",
          "type": "string"
        },
        {
          "internalType": "uint256[]",
          "name": "_policyPeriods",
          "type": "uint256[]"
        },
        {
          "components": [
            {
              "internalType": "int256",
              "name": "A",
              "type": "int256"
            },
            {
              "internalType": "int256",
              "name": "X0",
              "type": "int256"
            },
            {
              "internalType": "int256",
              "name": "C",
              "type": "int256"
            }
          ],
          "internalType": "struct PremiumParams[]",
          "name": "_premiumsParams",
          "type": "tuple[]"
        }
      ],
      "name": "setPremiumsParams",
      "outputs": [],
      "stateMutability": "nonpayable",
      "type": "function"
    },
    {
      "inputs": [
        {
          "internalType": "uint8",
          "name": "_priceTokenDecimals",
          "type": "uint8"
        }
      ],
      "name": "setPriceTokenDecimals",
      "outputs": [],
      "stateMutability": "nonpayable",
      "type": "function"
    },
    {
      "inputs": [
        {
          "internalType": "bytes4",
          "name": "interfaceId",
          "type": "bytes4"
        }
      ],
      "name": "supportsInterface",
      "outputs": [
        {
          "internalType": "bool",
          "name": "",
          "type": "bool"
        }
      ],
      "stateMutability": "view",
      "type": "function"
    },
    {
      "inputs": [
        {
          "internalType": "string",
          "name": "",
          "type": "string"
        },
        {
          "internalType": "string",
          "name": "",
          "type": "string"
        }
      ],
      "name": "tokensPairs",
      "outputs": [
        {
          "internalType": "string",
          "name": "token1Symbol",
          "type": "string"
        },
        {
          "internalType": "string",
          "name": "token2Symbol",
          "type": "string"
        },
        {
          "internalType": "contract AggregatorV3Interface",
          "name": "token1PriceAggregator",
          "type": "address"
        },
        {
          "internalType": "contract AggregatorV3Interface",
          "name": "token2PriceAggregator",
          "type": "address"
        },
        {
          "internalType": "bool",
          "name": "exists",
          "type": "bool"
        }
      ],
      "stateMutability": "view",
      "type": "function"
    },
    {
      "inputs": [
        {
          "internalType": "string",
          "name": "",
          "type": "string"
        },
        {
          "internalType": "string",
          "name": "",
          "type": "string"
        }
      ],
      "name": "tokensPairsCollateralCapComponents",
      "outputs": [
        {
          "internalType": "uint16",
          "name": "",
          "type": "uint16"
        }
      ],
      "stateMutability": "view",
      "type": "function"
    },
    {
      "inputs": [
        {
          "internalType": "uint256",
          "name": "",
          "type": "uint256"
        }
      ],
      "name": "tokensPairsList",
      "outputs": [
        {
          "internalType": "string",
          "name": "token1Symbol",
          "type": "string"
        },
        {
          "internalType": "string",
          "name": "token2Symbol",
          "type": "string"
        },
        {
          "internalType": "contract AggregatorV3Interface",
          "name": "token1PriceAggregator",
          "type": "address"
        },
        {
          "internalType": "contract AggregatorV3Interface",
          "name": "token2PriceAggregator",
          "type": "address"
        },
        {
          "internalType": "bool",
          "name": "exists",
          "type": "bool"
        }
      ],
      "stateMutability": "view",
      "type": "function"
    },
    {
      "inputs": [
        {
          "internalType": "string",
          "name": "",
          "type": "string"
        },
        {
          "internalType": "string",
          "name": "",
          "type": "string"
        },
        {
          "internalType": "uint256",
          "name": "",
          "type": "uint256"
        }
      ],
      "name": "tokensPairsPremiumParams",
      "outputs": [
        {
          "internalType": "int256",
          "name": "A",
          "type": "int256"
        },
        {
          "internalType": "int256",
          "name": "X0",
          "type": "int256"
        },
        {
          "internalType": "int256",
          "name": "C",
          "type": "int256"
        }
      ],
      "stateMutability": "view",
      "type": "function"
    },
    {
      "inputs": [
        {
          "internalType": "address",
          "name": "newOwner",
          "type": "address"
        }
      ],
      "name": "transferOwnership",
      "outputs": [],
      "stateMutability": "nonpayable",
      "type": "function"
    }
  ],
  "transactionHash": "0xaa9b6261c399f0bfe0eb383d684d961775b475f6718581a1f00e56fcdb7112c7",
  "args": [],
  "numDeployments": 19,
  "solcInputHash": "3e38164a73c777cd780c57ef82a1826e",
  "bytecode": "0x608060405234801561001057600080fd5b5061388a806100206000396000f3fe608060405234801561001057600080fd5b50600436106101da5760003560e01c80637a3cfb4711610104578063cbcfe733116100a2578063d547741f11610071578063d547741f146104fc578063f2fde38b1461050f578063f35f9e4514610522578063f564b4911461053557600080fd5b8063cbcfe73314610447578063ccc06281146104c3578063cdf6dab7146104d6578063d031b84c146104e957600080fd5b806392f44448116100de57806392f44448146103a6578063a217fddf146103be578063b8b657ca146103c6578063c998969c1461041257600080fd5b80637a3cfb471461035b5780638da5cb5b1461036e57806391d148541461039357600080fd5b80632f2ff15d1161017c5780636b1b439b1161014b5780636b1b439b1461030f578063715018a61461032257806373f599da1461032a578063767eb5ef1461034657600080fd5b80632f2ff15d146102c357806332cbd680146102d657806336568abe146102e95780635234aa13146102fc57600080fd5b80631af855fd116101b85780631af855fd1461024b578063248a9ca31461026a578063268a57041461029b5780632f2b22ba146102b057600080fd5b806301ffc9a7146101df5780630d4f263f146102075780631a5056881461022b575b600080fd5b6101f26101ed366004612c8d565b610548565b60405190151581526020015b60405180910390f35b61021a610215366004612c46565b61057f565b6040516101fe959493929190613476565b61023e610239366004612cb5565b6106e8565b6040516101fe919061369b565b60c9546102589060ff1681565b60405160ff90911681526020016101fe565b61028d610278366004612c46565b60009081526097602052604090206001015490565b6040519081526020016101fe565b6102ae6102a9366004612fae565b6108d3565b005b6102ae6102be36600461315f565b610a41565b6102ae6102d1366004612c5e565b610cf5565b61023e6102e4366004612cb5565b610d1f565b6102ae6102f7366004612c5e565b610fe0565b6102ae61030a366004612d1d565b61105e565b6102ae61031d366004612bc4565b611321565b6102ae6113ea565b61033361271081565b60405161ffff90911681526020016101fe565b61034e611450565b6040516101fe9190613402565b6102ae610369366004612f1d565b61160c565b6033546001600160a01b03165b6040516001600160a01b0390911681526020016101fe565b6101f26103a1366004612c5e565b6118a7565b60c95461037b9061010090046001600160a01b031681565b61028d600081565b6103336103d4366004613096565b815160208184018101805160cd82529282019482019490942091909352815180830184018051928152908401929093019190912091525461ffff1681565b610425610420366004613026565b6118d2565b60408051825181526020808401519082015291810151908201526060016101fe565b6104a86104553660046130f6565b825160208185018101805160cb8252928201958201959095209190945282518084018501805192815290850193850193909320925291526000908152604090208054600182015460029092015490919083565b604080519384526020840192909252908201526060016101fe565b61028d6104d1366004612e9d565b611a1e565b6103336104e4366004612cb5565b611a57565b6102ae6104f7366004612db2565b611abb565b6102ae61050a366004612c5e565b611ed5565b6102ae61051d366004612bc4565b611efa565b6102ae610530366004612be0565b611fc5565b61021a610543366004613096565b612064565b60006001600160e01b03198216637965db0b60e01b148061057957506301ffc9a760e01b6001600160e01b03198316145b92915050565b60cc818154811061058f57600080fd5b90600052602060002090600402016000915090508060000180546105b2906137a0565b80601f01602080910402602001604051908101604052809291908181526020018280546105de906137a0565b801561062b5780601f106106005761010080835404028352916020019161062b565b820191906000526020600020905b81548152906001019060200180831161060e57829003601f168201915b505050505090806001018054610640906137a0565b80601f016020809104026020016040519081016040528092919081815260200182805461066c906137a0565b80156106b95780601f1061068e576101008083540402835291602001916106b9565b820191906000526020600020905b81548152906001019060200180831161069c57829003601f168201915b50505050600283015460039093015491926001600160a01b03908116929081169150600160a01b900460ff1685565b6040805160a08101825260608082526020820181905260009282018390528101829052608081018290529061071f86868686610d1f565b905060ca81600001516040516107359190613302565b908152602001604051809103902081602001516040516107559190613302565b90815260200160405180910390206040518060a001604052908160008201805461077e906137a0565b80601f01602080910402602001604051908101604052809291908181526020018280546107aa906137a0565b80156107f75780601f106107cc576101008083540402835291602001916107f7565b820191906000526020600020905b8154815290600101906020018083116107da57829003601f168201915b50505050508152602001600182018054610810906137a0565b80601f016020809104026020016040519081016040528092919081815260200182805461083c906137a0565b80156108895780601f1061085e57610100808354040283529160200191610889565b820191906000526020600020905b81548152906001019060200180831161086c57829003601f168201915b505050918352505060028201546001600160a01b0390811660208301526003909201549182166040820152600160a01b90910460ff1615156060909101529150505b949350505050565b6108de6000336120a7565b61271061ffff821611156109485760405162461bcd60e51b815260206004820152602660248201527f636f6c6c61746572616c436170436f6d706f6e656e74206973206f7574206f666044820152652072616e676560d01b60648201526084015b60405180910390fd5b600061095686868686610d1f565b805160208201516040519293507fa72a11ee5f4e89fe7d34da3e030d56fb9309f63709693b48a9ffbba7897752739260cd90610993908490613302565b908152602001604051809103902084602001516040516109b39190613302565b908152604051908190036020018120546109d793929161ffff9091169087906134c5565b60405180910390a18160cd82600001516040516109f49190613302565b90815260200160405180910390208260200151604051610a149190613302565b908152604051908190036020019020805461ffff9290921661ffff19909216919091179055505050505050565b610a4c6000336120a7565b60cc54610a9b5760405162461bcd60e51b815260206004820152601860248201527f4e6f206578697374696e6720746f6b656e732070616972730000000000000000604482015260640161093f565b60005b60cc54811015610c9d578160ff1660cc8281548110610acd57634e487b7160e01b600052603260045260246000fd5b906000526020600020906004020160020160009054906101000a90046001600160a01b03166001600160a01b031663313ce5676040518163ffffffff1660e01b815260040160206040518083038186803b158015610b2a57600080fd5b505afa158015610b3e573d6000803e3d6000fd5b505050506040513d601f19601f82011682018060405250810190610b6291906131ca565b60ff16148015610c2c57508160ff1660cc8281548110610b9257634e487b7160e01b600052603260045260246000fd5b906000526020600020906004020160030160009054906101000a90046001600160a01b03166001600160a01b031663313ce5676040518163ffffffff1660e01b815260040160206040518083038186803b158015610bef57600080fd5b505afa158015610c03573d6000803e3d6000fd5b505050506040513d601f19601f82011682018060405250810190610c2791906131ca565b60ff16145b610c8b5760405162461bcd60e51b815260206004820152602a60248201527f446563696d616c73206d69736d6174636820776974682063757272656e742061604482015269676772656761746f727360b01b606482015260840161093f565b80610c95816137db565b915050610a9e565b5060c9546040805160ff928316815291831660208301527ff2df6130e3d0378480ebc84808ea99c0cd57b0cbe6eb727a1a2113332787b804910160405180910390a160c9805460ff191660ff92909216919091179055565b600082815260976020526040902060010154610d108161210b565b610d1a8383612115565b505050565b6040805160a08101825260608082526020820181905260008284018190529082018190526080820152905160ca90610d5a90859085906132f2565b90815260200160405180910390208585604051610d789291906132f2565b9081526040519081900360200190206003015460ff600160a01b9091041615610f445760ca8383604051610dad9291906132f2565b90815260200160405180910390208585604051610dcb9291906132f2565b90815260200160405180910390206040518060a0016040529081600082018054610df4906137a0565b80601f0160208091040260200160405190810160405280929190818152602001828054610e20906137a0565b8015610e6d5780601f10610e4257610100808354040283529160200191610e6d565b820191906000526020600020905b815481529060010190602001808311610e5057829003601f168201915b50505050508152602001600182018054610e86906137a0565b80601f0160208091040260200160405190810160405280929190818152602001828054610eb2906137a0565b8015610eff5780601f10610ed457610100808354040283529160200191610eff565b820191906000526020600020905b815481529060010190602001808311610ee257829003601f168201915b505050918352505060028201546001600160a01b0390811660208301526003909201549182166040820152600160a01b90910460ff16151560609091015290506108cb565b60ca8585604051610f569291906132f2565b90815260200160405180910390208383604051610f749291906132f2565b9081526040519081900360200190206003015460ff600160a01b9091041615610fc75760ca8585604051610fa99291906132f2565b90815260200160405180910390208383604051610dcb9291906132f2565b6040516311a4ada760e31b815260040160405180910390fd5b6001600160a01b03811633146110505760405162461bcd60e51b815260206004820152602f60248201527f416363657373436f6e74726f6c3a2063616e206f6e6c792072656e6f756e636560448201526e103937b632b9903337b91039b2b63360891b606482015260840161093f565b61105a828261219b565b5050565b6110696000336120a7565b806110b65760405162461bcd60e51b815260206004820152601a60248201527f456d70747920706f6c69637920706572696f6473206172726179000000000000604482015260640161093f565b60006110c487878787610d1f565b905060005b828110156113175760c95461010090046001600160a01b0316634dce8edc85858481811061110757634e487b7160e01b600052603260045260246000fd5b905060200201356040518263ffffffff1660e01b815260040161112c91815260200190565b60206040518083038186803b15801561114457600080fd5b505afa158015611158573d6000803e3d6000fd5b505050506040513d601f19601f8201168201806040525081019061117c9190612c2a565b6111985760405162461bcd60e51b815260040161093f906135d3565b7ff752f1b2ea309375cc287100c759fa7d9d6cb9a2fb922c71ca0e616e5999c985826000015183602001518686858181106111e357634e487b7160e01b600052603260045260246000fd5b9050602002013560cb86600001516040516111fe9190613302565b9081526020016040518091039020866020015160405161121e9190613302565b9081526020016040518091039020600089898881811061124e57634e487b7160e01b600052603260045260246000fd5b905060200201358152602001908152602001600020604051611273949392919061350a565b60405180910390a1815160405160cb9161128c91613302565b908152602001604051809103902082602001516040516112ac9190613302565b908152602001604051809103902060008585848181106112dc57634e487b7160e01b600052603260045260246000fd5b60209081029290920135835250810191909152604001600090812081815560018101829055600201558061130f816137db565b9150506110c9565b5050505050505050565b61132c6000336120a7565b806001600160a01b0381166113755760405162461bcd60e51b815260206004820152600f60248201526e496e76616c6964206164647265737360881b604482015260640161093f565b60c954604080516001600160a01b036101009093048316815291841660208301527fbe2f13d1c1da716847ac492ec65cba3da720f006fe438f150830ed205b281458910160405180910390a15060c980546001600160a01b0390921661010002610100600160a81b0319909216919091179055565b6033546001600160a01b031633146114445760405162461bcd60e51b815260206004820181905260248201527f4f776e61626c653a2063616c6c6572206973206e6f7420746865206f776e6572604482015260640161093f565b61144e6000612202565b565b606060cc805480602002602001604051908101604052809291908181526020016000905b8282101561160357838290600052602060002090600402016040518060a00160405290816000820180546114a7906137a0565b80601f01602080910402602001604051908101604052809291908181526020018280546114d3906137a0565b80156115205780601f106114f557610100808354040283529160200191611520565b820191906000526020600020905b81548152906001019060200180831161150357829003601f168201915b50505050508152602001600182018054611539906137a0565b80601f0160208091040260200160405190810160405280929190818152602001828054611565906137a0565b80156115b25780601f10611587576101008083540402835291602001916115b2565b820191906000526020600020905b81548152906001019060200180831161159557829003601f168201915b505050918352505060028201546001600160a01b039081166020808401919091526003909301549081166040830152600160a01b900460ff1615156060909101529082526001929092019101611474565b50505050905090565b6116176000336120a7565b841580159061162557508215155b6116665760405162461bcd60e51b8152602060048201526012602482015271115b5c1d1e481d1bdad95b881cde5b589bdb60721b604482015260640161093f565b6001600160a01b0382161580159061168657506001600160a01b03811615155b6116d25760405162461bcd60e51b815260206004820181905260248201527f496e76616c69642070726963652061676772656761746f722061646472657373604482015260640161093f565b600061174b87878080601f01602080910402602001604051908101604052809392919081815260200183838082843760009201919091525050604080516020601f8b0181900481028201810190925289815292508991508890819084018382808284376000920191909152508892508791506122549050565b90507f61b0f64a7429a23b897e48ccb864e63582ddfcf694712436beacb1c6bdea529160ca82600001516040516117829190613302565b908152602001604051809103902082602001516040516117a29190613302565b9081526040519081900360200181206117bc9184906136ae565b60405180910390a18060ca82600001516040516117d99190613302565b908152602001604051809103902082602001516040516117f99190613302565b90815260200160405180910390206000820151816000019080519060200190611823929190612a03565b50602082810151805161183c9260018501920190612a03565b5060408201516002820180546001600160a01b0319166001600160a01b03928316179055606083015160039092018054608090940151929091166001600160a81b031990931692909217600160a01b9115159190910217905561189e81612347565b50505050505050565b60009182526097602090815260408084206001600160a01b0393909316845291905290205460ff1690565b6118f660405180606001604052806000815260200160008152602001600081525090565b60c954604051631373a3b760e21b8152600481018490526101009091046001600160a01b031690634dce8edc9060240160206040518083038186803b15801561193e57600080fd5b505afa158015611952573d6000803e3d6000fd5b505050506040513d601f19601f820116820180604052508101906119769190612c2a565b6119925760405162461bcd60e51b815260040161093f906135d3565b60006119a087878787610d1f565b905060cb81600001516040516119b69190613302565b908152602001604051809103902081602001516040516119d69190613302565b90815260408051918290036020908101832060008781529082528290206060840183528054845260018101549184019190915260020154908201529150505b95945050505050565b600080611a2d87878787610d1f565b90508215611a4a57611a4281604001516125f1565b915050611a15565b611a4281606001516125f1565b600080611a6686868686610d1f565b905060cd8160000151604051611a7c9190613302565b90815260200160405180910390208160200151604051611a9c9190613302565b9081526040519081900360200190205461ffff16915050949350505050565b611ac66000336120a7565b82611b135760405162461bcd60e51b815260206004820152601a60248201527f456d70747920706f6c69637920706572696f6473206172726179000000000000604482015260640161093f565b828114611b7c5760405162461bcd60e51b815260206004820152603160248201527f506f6c69637920706572696f647320616e64207072656d69756d20706172616d6044820152700e640d8cadccee8d040dad2e6dac2e8c6d607b1b606482015260840161093f565b6000611b8a89898989610d1f565b905060005b84811015611ec95760c95461010090046001600160a01b0316634dce8edc878784818110611bcd57634e487b7160e01b600052603260045260246000fd5b905060200201356040518263ffffffff1660e01b8152600401611bf291815260200190565b60206040518083038186803b158015611c0a57600080fd5b505afa158015611c1e573d6000803e3d6000fd5b505050506040513d601f19601f82011682018060405250810190611c429190612c2a565b611c5e5760405162461bcd60e51b815260040161093f906135d3565b7f69b023c106f2c2a41c77177e15789d5a28100b55e0cfcd68693c746553d532ab82600001518360200151888885818110611ca957634e487b7160e01b600052603260045260246000fd5b9050602002013560cb8660000151604051611cc49190613302565b90815260200160405180910390208660200151604051611ce49190613302565b908152602001604051809103902060008b8b88818110611d1457634e487b7160e01b600052603260045260246000fd5b905060200201358152602001908152602001600020888887818110611d4957634e487b7160e01b600052603260045260246000fd5b905060600201604051611d6095949392919061355a565b60405180910390a1815160405160cb91611d7991613302565b90815260200160405180910390208260200151604051611d999190613302565b90815260200160405180910390206000878784818110611dc957634e487b7160e01b600052603260045260246000fd5b6020908102929092013583525081019190915260400160009081208181556001810182905560020155838382818110611e1257634e487b7160e01b600052603260045260246000fd5b90506060020160cb8360000151604051611e2c9190613302565b90815260200160405180910390208360200151604051611e4c9190613302565b90815260200160405180910390206000888885818110611e7c57634e487b7160e01b600052603260045260246000fd5b9050602002013581526020019081526020016000208181611eb491908135815560208201356001820155604082013560028201555050565b50819050611ec1816137db565b915050611b8f565b50505050505050505050565b600082815260976020526040902060010154611ef08161210b565b610d1a838361219b565b6033546001600160a01b03163314611f545760405162461bcd60e51b815260206004820181905260248201527f4f776e61626c653a2063616c6c6572206973206e6f7420746865206f776e6572604482015260640161093f565b6001600160a01b038116611fb95760405162461bcd60e51b815260206004820152602660248201527f4f776e61626c653a206e6577206f776e657220697320746865207a65726f206160448201526564647265737360d01b606482015260840161093f565b611fc281612202565b50565b6000611fd160016126bc565b90508015611fe9576000805461ff0019166101001790555b611ff284612749565b60c980546001600160a01b038416610100026001600160a81b031990911660ff861617179055801561205e576000805461ff0019169055604051600181527f7f26b83ff96e1f2b6a682f133852f6798a09c465da95921460cefb38474024989060200160405180910390a15b50505050565b815160208184018101805160ca8252928201948201949094209190935281518083018401805192815290840192909301919091209152805481906105b2906137a0565b6120b182826118a7565b61105a576120c9816001600160a01b0316601461278b565b6120d483602061278b565b6040516020016120e592919061338d565b60408051601f198184030181529082905262461bcd60e51b825261093f91600401613463565b611fc281336120a7565b61211f82826118a7565b61105a5760008281526097602090815260408083206001600160a01b03851684529091529020805460ff191660011790556121573390565b6001600160a01b0316816001600160a01b0316837f2f8788117e7eff1d82e926ec794901d17c78024a50270940304540a733656f0d60405160405180910390a45050565b6121a582826118a7565b1561105a5760008281526097602090815260408083206001600160a01b0385168085529252808320805460ff1916905551339285917ff6391f5c32d9c69d2a47ea670b442974b53935d1edc7fd64eb21e047a839171b9190a45050565b603380546001600160a01b038381166001600160a01b0319831681179093556040519116919082907f8be0079c531659141344cd1fd0a4f28419497f9722a3daafe3b4186f6b6457e090600090a35050565b6040805160a08101825260608082526020820181905260008284018190529082018190526080820152905160ca9061228d908690613302565b9081526020016040518091039020856040516122a99190613302565b9081526040519081900360200190206003015460ff600160a01b909104161561230f576040518060a00160405280858152602001868152602001836001600160a01b03168152602001846001600160a01b031681526020016001151581525090506108cb565b506040805160a08101825294855260208501939093526001600160a01b03918216928401929092521660608201526001608082015290565b60005b60cc548110156125305781516040516123669190602001613302565b6040516020818303038152906040528051906020012060cc828154811061239d57634e487b7160e01b600052603260045260246000fd5b90600052602060002090600402016000016040516020016123be919061331e565b6040516020818303038152906040528051906020012014801561245f57506020808301516040516123ef9201613302565b6040516020818303038152906040528051906020012060cc828154811061242657634e487b7160e01b600052603260045260246000fd5b9060005260206000209060040201600101604051602001612447919061331e565b60405160208183030381529060405280519060200120145b1561251e57816040015160cc828154811061248a57634e487b7160e01b600052603260045260246000fd5b906000526020600020906004020160020160006101000a8154816001600160a01b0302191690836001600160a01b03160217905550816060015160cc82815481106124e557634e487b7160e01b600052603260045260246000fd5b906000526020600020906004020160030160006101000a8154816001600160a01b0302191690836001600160a01b031602179055505050565b80612528816137db565b91505061234a565b5060cc80546001810182556000919091528151805183926004027f47197230e1e4b29fc0bd84d7d78966c0925452aff72a2a121538b102457e9ebe019161257c91839160200190612a03565b5060208281015180516125959260018501920190612a03565b5060408201516002820180546001600160a01b0319166001600160a01b03928316179055606083015160039092018054608090940151929091166001600160a81b031990931692909217600160a01b9115159190910217905550565b600080826001600160a01b031663feaf968c6040518163ffffffff1660e01b815260040160a06040518083038186803b15801561262d57600080fd5b505afa158015612641573d6000803e3d6000fd5b505050506040513d601f19601f82011682018060405250810190612665919061317b565b50505091505060008112156105795760405162461bcd60e51b815260206004820152601860248201527f496e76616c6964207072696365202d206e656761746976650000000000000000604482015260640161093f565b60008054610100900460ff1615612703578160ff1660011480156126df5750303b155b6126fb5760405162461bcd60e51b815260040161093f90613602565b506000919050565b60005460ff80841691161061272a5760405162461bcd60e51b815260040161093f90613602565b506000805460ff191660ff92909216919091179055600190565b919050565b600054610100900460ff166127705760405162461bcd60e51b815260040161093f90613650565b612778612973565b6127806129a2565b611fb96000826129c9565b6060600061279a83600261373e565b6127a5906002613726565b6001600160401b038111156127ca57634e487b7160e01b600052604160045260246000fd5b6040519080825280601f01601f1916602001820160405280156127f4576020820181803683370190505b509050600360fc1b8160008151811061281d57634e487b7160e01b600052603260045260246000fd5b60200101906001600160f81b031916908160001a905350600f60fb1b8160018151811061285a57634e487b7160e01b600052603260045260246000fd5b60200101906001600160f81b031916908160001a905350600061287e84600261373e565b612889906001613726565b90505b600181111561291d576f181899199a1a9b1b9c1cb0b131b232b360811b85600f16601081106128cb57634e487b7160e01b600052603260045260246000fd5b1a60f81b8282815181106128ef57634e487b7160e01b600052603260045260246000fd5b60200101906001600160f81b031916908160001a90535060049490941c9361291681613789565b905061288c565b50831561296c5760405162461bcd60e51b815260206004820181905260248201527f537472696e67733a20686578206c656e67746820696e73756666696369656e74604482015260640161093f565b9392505050565b600054610100900460ff1661299a5760405162461bcd60e51b815260040161093f90613650565b61144e6129d3565b600054610100900460ff1661144e5760405162461bcd60e51b815260040161093f90613650565b61105a8282612115565b600054610100900460ff166129fa5760405162461bcd60e51b815260040161093f90613650565b61144e33612202565b828054612a0f906137a0565b90600052602060002090601f016020900481019282612a315760008555612a77565b82601f10612a4a57805160ff1916838001178555612a77565b82800160010185558215612a77579182015b82811115612a77578251825591602001919060010190612a5c565b50612a83929150612a87565b5090565b5b80821115612a835760008155600101612a88565b60008083601f840112612aad578182fd5b5081356001600160401b03811115612ac3578182fd5b6020830191508360208260051b8501011115612ade57600080fd5b9250929050565b60008083601f840112612af6578182fd5b5081356001600160401b03811115612b0c578182fd5b602083019150836020828501011115612ade57600080fd5b600082601f830112612b34578081fd5b81356001600160401b0380821115612b4e57612b4e61380c565b604051601f8301601f19908116603f01168101908282118183101715612b7657612b7661380c565b81604052838152866020858801011115612b8e578485fd5b8360208701602083013792830160200193909352509392505050565b805169ffffffffffffffffffff8116811461274457600080fd5b600060208284031215612bd5578081fd5b813561296c81613822565b600080600060608486031215612bf4578182fd5b8335612bff81613822565b92506020840135612c0f81613845565b91506040840135612c1f81613822565b809150509250925092565b600060208284031215612c3b578081fd5b815161296c81613837565b600060208284031215612c57578081fd5b5035919050565b60008060408385031215612c70578182fd5b823591506020830135612c8281613822565b809150509250929050565b600060208284031215612c9e578081fd5b81356001600160e01b03198116811461296c578182fd5b60008060008060408587031215612cca578081fd5b84356001600160401b0380821115612ce0578283fd5b612cec88838901612ae5565b90965094506020870135915080821115612d04578283fd5b50612d1187828801612ae5565b95989497509550505050565b60008060008060008060608789031215612d35578182fd5b86356001600160401b0380821115612d4b578384fd5b612d578a838b01612ae5565b90985096506020890135915080821115612d6f578384fd5b612d7b8a838b01612ae5565b90965094506040890135915080821115612d93578384fd5b50612da089828a01612a9c565b979a9699509497509295939492505050565b6000806000806000806000806080898b031215612dcd578586fd5b88356001600160401b0380821115612de3578788fd5b612def8c838d01612ae5565b909a50985060208b0135915080821115612e07578788fd5b612e138c838d01612ae5565b909850965060408b0135915080821115612e2b578384fd5b612e378c838d01612a9c565b909650945060608b0135915080821115612e4f578384fd5b818b0191508b601f830112612e62578384fd5b813581811115612e70578485fd5b8c6020606083028501011115612e84578485fd5b6020830194508093505050509295985092959890939650565b600080600080600060608688031215612eb4578283fd5b85356001600160401b0380821115612eca578485fd5b612ed689838a01612ae5565b90975095506020880135915080821115612eee578485fd5b50612efb88828901612ae5565b9094509250506040860135612f0f81613837565b809150509295509295909350565b60008060008060008060808789031215612f35578384fd5b86356001600160401b0380821115612f4b578586fd5b612f578a838b01612ae5565b90985096506020890135915080821115612f6f578586fd5b50612f7c89828a01612ae5565b9095509350506040870135612f9081613822565b91506060870135612fa081613822565b809150509295509295509295565b600080600080600060608688031215612fc5578283fd5b85356001600160401b0380821115612fdb578485fd5b612fe789838a01612ae5565b90975095506020880135915080821115612fff578485fd5b5061300c88828901612ae5565b909450925050604086013561ffff81168114612f0f578182fd5b60008060008060006060868803121561303d578283fd5b85356001600160401b0380821115613053578485fd5b61305f89838a01612ae5565b90975095506020880135915080821115613077578485fd5b5061308488828901612ae5565b96999598509660400135949350505050565b600080604083850312156130a8578182fd5b82356001600160401b03808211156130be578384fd5b6130ca86838701612b24565b935060208501359150808211156130df578283fd5b506130ec85828601612b24565b9150509250929050565b60008060006060848603121561310a578081fd5b83356001600160401b0380821115613120578283fd5b61312c87838801612b24565b94506020860135915080821115613141578283fd5b5061314e86828701612b24565b925050604084013590509250925092565b600060208284031215613170578081fd5b813561296c81613845565b600080600080600060a08688031215613192578283fd5b61319b86612baa565b94506020860151935060408601519250606086015191506131be60808701612baa565b90509295509295909350565b6000602082840312156131db578081fd5b815161296c81613845565b600081518084526131fe81602086016020860161375d565b601f01601f19169290920160200192915050565b6000815461321f816137a0565b80855260206001838116801561323c57600181146132505761327e565b60ff1985168884015260408801955061327e565b866000528260002060005b858110156132765781548a820186015290830190840161325b565b890184019650505b505050505092915050565b6000815160a0845261329e60a08501826131e6565b9050602083015184820360208601526132b782826131e6565b915050604083015160018060a01b03808216604087015280606086015116606087015250506080830151151560808501528091505092915050565b8183823760009101908152919050565b6000825161331481846020870161375d565b9190910192915050565b600080835461332c816137a0565b60018281168015613344576001811461335557613381565b60ff19841687528287019450613381565b8786526020808720875b858110156133785781548a82015290840190820161335f565b50505082870194505b50929695505050505050565b7f416363657373436f6e74726f6c3a206163636f756e74200000000000000000008152600083516133c581601785016020880161375d565b7001034b99036b4b9b9b4b733903937b6329607d1b60179184019182015283516133f681602884016020880161375d565b01602801949350505050565b6000602080830181845280855180835260408601915060408160051b8701019250838701855b8281101561345657603f19888603018452613444858351613289565b94509285019290850190600101613428565b5092979650505050505050565b60208152600061296c60208301846131e6565b60a08152600061348960a08301886131e6565b828103602084015261349b81886131e6565b6001600160a01b039687166040850152949095166060830152509015156080909101529392505050565b6080815260006134d860808301876131e6565b82810360208401526134ea81876131e6565b91505061ffff808516604084015280841660608401525095945050505050565b60c08152600061351d60c08301876131e6565b828103602084015261352f81876131e6565b915050836040830152611a156060830184805482526001810154602083015260020154604090910152565b600061012080835261356e818401896131e6565b9050828103602084015261358281886131e6565b9150508460408301526135ad6060830185805482526001810154602083015260020154604090910152565b823560c0830152602083013560e083015260408301356101008301529695505050505050565b602080825260159082015274125b9d985b1a59081c1bdb1a58de481c195c9a5bd9605a1b604082015260600190565b6020808252602e908201527f496e697469616c697a61626c653a20636f6e747261637420697320616c72656160408201526d191e481a5b9a5d1a585b1a5e995960921b606082015260800190565b6020808252602b908201527f496e697469616c697a61626c653a20636f6e7472616374206973206e6f74206960408201526a6e697469616c697a696e6760a81b606082015260800190565b60208152600061296c6020830184613289565b6040815260a0604082015260006136c860e0830185613212565b828103603f190160608401526136e18160018701613212565b60028601546001600160a01b039081166080860152600387015490811660a0868101919091521c60ff16151560c085015283810360208501529050611a158185613289565b60008219821115613739576137396137f6565b500190565b6000816000190483118215151615613758576137586137f6565b500290565b60005b83811015613778578181015183820152602001613760565b8381111561205e5750506000910152565b600081613798576137986137f6565b506000190190565b600181811c908216806137b457607f821691505b602082108114156137d557634e487b7160e01b600052602260045260246000fd5b50919050565b60006000198214156137ef576137ef6137f6565b5060010190565b634e487b7160e01b600052601160045260246000fd5b634e487b7160e01b600052604160045260246000fd5b6001600160a01b0381168114611fc257600080fd5b8015158114611fc257600080fd5b60ff81168114611fc257600080fdfea2646970667358221220797c60500d02acb375e9f282d3d3ccfc57680357c1654cd7247a3fcdb4740bfa64736f6c63430008040033",
  "devdoc": {
    "kind": "dev",
    "methods": {
      "getRoleAdmin(bytes32)": {
        "details": "Returns the admin role that controls `role`. See {grantRole} and {revokeRole}. To change a role's admin, use {_setRoleAdmin}."
      },
      "grantRole(bytes32,address)": {
        "details": "Grants `role` to `account`. If `account` had not been already granted `role`, emits a {RoleGranted} event. Requirements: - the caller must have ``role``'s admin role."
      },
      "hasRole(bytes32,address)": {
        "details": "Returns `true` if `account` has been granted `role`."
      },
      "owner()": {
        "details": "Returns the address of the current owner."
      },
      "renounceOwnership()": {
        "details": "Leaves the contract without owner. It will not be possible to call `onlyOwner` functions anymore. Can only be called by the current owner. NOTE: Renouncing ownership will leave the contract without an owner, thereby removing any functionality that is only available to the owner."
      },
      "renounceRole(bytes32,address)": {
        "details": "Revokes `role` from the calling account. Roles are often managed via {grantRole} and {revokeRole}: this function's purpose is to provide a mechanism for accounts to lose their privileges if they are compromised (such as when a trusted device is misplaced). If the calling account had been revoked `role`, emits a {RoleRevoked} event. Requirements: - the caller must be `account`."
      },
      "revokeRole(bytes32,address)": {
        "details": "Revokes `role` from `account`. If `account` had been granted `role`, emits a {RoleRevoked} event. Requirements: - the caller must have ``role``'s admin role."
      },
      "supportsInterface(bytes4)": {
        "details": "See {IERC165-supportsInterface}."
      },
      "transferOwnership(address)": {
        "details": "Transfers ownership of the contract to a new account (`newOwner`). Can only be called by the current owner."
      }
    },
    "version": 1
  },
  "userdoc": {
    "kind": "user",
    "methods": {},
    "version": 1
  },
  "storageLayout": {
    "storage": [
      {
        "astId": 29805,
        "contract": "@coti-cvi/contracts-il/contracts/TokenPairRepository.sol:TokenPairRepository",
        "label": "_initialized",
        "offset": 0,
        "slot": "0",
        "type": "t_uint8"
      },
      {
        "astId": 29808,
        "contract": "@coti-cvi/contracts-il/contracts/TokenPairRepository.sol:TokenPairRepository",
        "label": "_initializing",
        "offset": 1,
        "slot": "0",
        "type": "t_bool"
      },
      {
        "astId": 32662,
        "contract": "@coti-cvi/contracts-il/contracts/TokenPairRepository.sol:TokenPairRepository",
        "label": "__gap",
        "offset": 0,
        "slot": "1",
        "type": "t_array(t_uint256)50_storage"
      },
      {
        "astId": 29685,
        "contract": "@coti-cvi/contracts-il/contracts/TokenPairRepository.sol:TokenPairRepository",
        "label": "_owner",
        "offset": 0,
        "slot": "51",
        "type": "t_address"
      },
      {
        "astId": 29797,
        "contract": "@coti-cvi/contracts-il/contracts/TokenPairRepository.sol:TokenPairRepository",
        "label": "__gap",
        "offset": 0,
        "slot": "52",
        "type": "t_array(t_uint256)49_storage"
      },
      {
        "astId": 32909,
        "contract": "@coti-cvi/contracts-il/contracts/TokenPairRepository.sol:TokenPairRepository",
        "label": "__gap",
        "offset": 0,
        "slot": "101",
        "type": "t_array(t_uint256)50_storage"
      },
      {
        "astId": 29301,
        "contract": "@coti-cvi/contracts-il/contracts/TokenPairRepository.sol:TokenPairRepository",
        "label": "_roles",
        "offset": 0,
        "slot": "151",
        "type": "t_mapping(t_bytes32,t_struct(RoleData)29296_storage)"
      },
      {
        "astId": 29600,
        "contract": "@coti-cvi/contracts-il/contracts/TokenPairRepository.sol:TokenPairRepository",
        "label": "__gap",
        "offset": 0,
        "slot": "152",
        "type": "t_array(t_uint256)49_storage"
      },
      {
        "astId": 26746,
        "contract": "@coti-cvi/contracts-il/contracts/TokenPairRepository.sol:TokenPairRepository",
        "label": "priceTokenDecimals",
        "offset": 0,
        "slot": "201",
        "type": "t_uint8"
      },
      {
        "astId": 26750,
        "contract": "@coti-cvi/contracts-il/contracts/TokenPairRepository.sol:TokenPairRepository",
        "label": "protectionConfig",
        "offset": 1,
        "slot": "201",
        "type": "t_contract(ILProtectionConfigInterface)27876"
      },
      {
        "astId": 26757,
        "contract": "@coti-cvi/contracts-il/contracts/TokenPairRepository.sol:TokenPairRepository",
        "label": "tokensPairs",
        "offset": 0,
        "slot": "202",
        "type": "t_mapping(t_string_memory_ptr,t_mapping(t_string_memory_ptr,t_struct(TokenPair)28591_storage))"
      },
      {
        "astId": 26766,
        "contract": "@coti-cvi/contracts-il/contracts/TokenPairRepository.sol:TokenPairRepository",
        "label": "tokensPairsPremiumParams",
        "offset": 0,
        "slot": "203",
        "type": "t_mapping(t_string_memory_ptr,t_mapping(t_string_memory_ptr,t_mapping(t_uint256,t_struct(PremiumParams)28985_storage)))"
      },
      {
        "astId": 26770,
        "contract": "@coti-cvi/contracts-il/contracts/TokenPairRepository.sol:TokenPairRepository",
        "label": "tokensPairsList",
        "offset": 0,
        "slot": "204",
        "type": "t_array(t_struct(TokenPair)28591_storage)dyn_storage"
      },
      {
        "astId": 26776,
        "contract": "@coti-cvi/contracts-il/contracts/TokenPairRepository.sol:TokenPairRepository",
        "label": "tokensPairsCollateralCapComponents",
        "offset": 0,
        "slot": "205",
        "type": "t_mapping(t_string_memory_ptr,t_mapping(t_string_memory_ptr,t_uint16))"
      }
    ],
    "types": {
      "t_address": {
        "encoding": "inplace",
        "label": "address",
        "numberOfBytes": "20"
      },
      "t_array(t_struct(TokenPair)28591_storage)dyn_storage": {
        "base": "t_struct(TokenPair)28591_storage",
        "encoding": "dynamic_array",
        "label": "struct TokenPair[]",
        "numberOfBytes": "32"
      },
      "t_array(t_uint256)49_storage": {
        "base": "t_uint256",
        "encoding": "inplace",
        "label": "uint256[49]",
        "numberOfBytes": "1568"
      },
      "t_array(t_uint256)50_storage": {
        "base": "t_uint256",
        "encoding": "inplace",
        "label": "uint256[50]",
        "numberOfBytes": "1600"
      },
      "t_bool": {
        "encoding": "inplace",
        "label": "bool",
        "numberOfBytes": "1"
      },
      "t_bytes32": {
        "encoding": "inplace",
        "label": "bytes32",
        "numberOfBytes": "32"
      },
      "t_contract(AggregatorV3Interface)17089": {
        "encoding": "inplace",
        "label": "contract AggregatorV3Interface",
        "numberOfBytes": "20"
      },
      "t_contract(ILProtectionConfigInterface)27876": {
        "encoding": "inplace",
        "label": "contract ILProtectionConfigInterface",
        "numberOfBytes": "20"
      },
      "t_int256": {
        "encoding": "inplace",
        "label": "int256",
        "numberOfBytes": "32"
      },
      "t_mapping(t_address,t_bool)": {
        "encoding": "mapping",
        "key": "t_address",
        "label": "mapping(address => bool)",
        "numberOfBytes": "32",
        "value": "t_bool"
      },
      "t_mapping(t_bytes32,t_struct(RoleData)29296_storage)": {
        "encoding": "mapping",
        "key": "t_bytes32",
        "label": "mapping(bytes32 => struct AccessControlUpgradeable.RoleData)",
        "numberOfBytes": "32",
        "value": "t_struct(RoleData)29296_storage"
      },
      "t_mapping(t_string_memory_ptr,t_mapping(t_string_memory_ptr,t_mapping(t_uint256,t_struct(PremiumParams)28985_storage)))": {
        "encoding": "mapping",
        "key": "t_string_memory_ptr",
        "label": "mapping(string => mapping(string => mapping(uint256 => struct PremiumParams)))",
        "numberOfBytes": "32",
        "value": "t_mapping(t_string_memory_ptr,t_mapping(t_uint256,t_struct(PremiumParams)28985_storage))"
      },
      "t_mapping(t_string_memory_ptr,t_mapping(t_string_memory_ptr,t_struct(TokenPair)28591_storage))": {
        "encoding": "mapping",
        "key": "t_string_memory_ptr",
        "label": "mapping(string => mapping(string => struct TokenPair))",
        "numberOfBytes": "32",
        "value": "t_mapping(t_string_memory_ptr,t_struct(TokenPair)28591_storage)"
      },
      "t_mapping(t_string_memory_ptr,t_mapping(t_string_memory_ptr,t_uint16))": {
        "encoding": "mapping",
        "key": "t_string_memory_ptr",
        "label": "mapping(string => mapping(string => uint16))",
        "numberOfBytes": "32",
        "value": "t_mapping(t_string_memory_ptr,t_uint16)"
      },
      "t_mapping(t_string_memory_ptr,t_mapping(t_uint256,t_struct(PremiumParams)28985_storage))": {
        "encoding": "mapping",
        "key": "t_string_memory_ptr",
        "label": "mapping(string => mapping(uint256 => struct PremiumParams))",
        "numberOfBytes": "32",
        "value": "t_mapping(t_uint256,t_struct(PremiumParams)28985_storage)"
      },
      "t_mapping(t_string_memory_ptr,t_struct(TokenPair)28591_storage)": {
        "encoding": "mapping",
        "key": "t_string_memory_ptr",
        "label": "mapping(string => struct TokenPair)",
        "numberOfBytes": "32",
        "value": "t_struct(TokenPair)28591_storage"
      },
      "t_mapping(t_string_memory_ptr,t_uint16)": {
        "encoding": "mapping",
        "key": "t_string_memory_ptr",
        "label": "mapping(string => uint16)",
        "numberOfBytes": "32",
        "value": "t_uint16"
      },
      "t_mapping(t_uint256,t_struct(PremiumParams)28985_storage)": {
        "encoding": "mapping",
        "key": "t_uint256",
        "label": "mapping(uint256 => struct PremiumParams)",
        "numberOfBytes": "32",
        "value": "t_struct(PremiumParams)28985_storage"
      },
      "t_string_memory_ptr": {
        "encoding": "bytes",
        "label": "string",
        "numberOfBytes": "32"
      },
      "t_string_storage": {
        "encoding": "bytes",
        "label": "string",
        "numberOfBytes": "32"
      },
      "t_struct(PremiumParams)28985_storage": {
        "encoding": "inplace",
        "label": "struct PremiumParams",
        "members": [
          {
            "astId": 28980,
            "contract": "@coti-cvi/contracts-il/contracts/TokenPairRepository.sol:TokenPairRepository",
            "label": "A",
            "offset": 0,
            "slot": "0",
            "type": "t_int256"
          },
          {
            "astId": 28982,
            "contract": "@coti-cvi/contracts-il/contracts/TokenPairRepository.sol:TokenPairRepository",
            "label": "X0",
            "offset": 0,
            "slot": "1",
            "type": "t_int256"
          },
          {
            "astId": 28984,
            "contract": "@coti-cvi/contracts-il/contracts/TokenPairRepository.sol:TokenPairRepository",
            "label": "C",
            "offset": 0,
            "slot": "2",
            "type": "t_int256"
          }
        ],
        "numberOfBytes": "96"
      },
      "t_struct(RoleData)29296_storage": {
        "encoding": "inplace",
        "label": "struct AccessControlUpgradeable.RoleData",
        "members": [
          {
            "astId": 29293,
            "contract": "@coti-cvi/contracts-il/contracts/TokenPairRepository.sol:TokenPairRepository",
            "label": "members",
            "offset": 0,
            "slot": "0",
            "type": "t_mapping(t_address,t_bool)"
          },
          {
            "astId": 29295,
            "contract": "@coti-cvi/contracts-il/contracts/TokenPairRepository.sol:TokenPairRepository",
            "label": "adminRole",
            "offset": 0,
            "slot": "1",
            "type": "t_bytes32"
          }
        ],
        "numberOfBytes": "64"
      },
      "t_struct(TokenPair)28591_storage": {
        "encoding": "inplace",
        "label": "struct TokenPair",
        "members": [
          {
            "astId": 28580,
            "contract": "@coti-cvi/contracts-il/contracts/TokenPairRepository.sol:TokenPairRepository",
            "label": "token1Symbol",
            "offset": 0,
            "slot": "0",
            "type": "t_string_storage"
          },
          {
            "astId": 28582,
            "contract": "@coti-cvi/contracts-il/contracts/TokenPairRepository.sol:TokenPairRepository",
            "label": "token2Symbol",
            "offset": 0,
            "slot": "1",
            "type": "t_string_storage"
          },
          {
            "astId": 28585,
            "contract": "@coti-cvi/contracts-il/contracts/TokenPairRepository.sol:TokenPairRepository",
            "label": "token1PriceAggregator",
            "offset": 0,
            "slot": "2",
            "type": "t_contract(AggregatorV3Interface)17089"
          },
          {
            "astId": 28588,
            "contract": "@coti-cvi/contracts-il/contracts/TokenPairRepository.sol:TokenPairRepository",
            "label": "token2PriceAggregator",
            "offset": 0,
            "slot": "3",
            "type": "t_contract(AggregatorV3Interface)17089"
          },
          {
            "astId": 28590,
            "contract": "@coti-cvi/contracts-il/contracts/TokenPairRepository.sol:TokenPairRepository",
            "label": "exists",
            "offset": 20,
            "slot": "3",
            "type": "t_bool"
          }
        ],
        "numberOfBytes": "128"
      },
      "t_uint16": {
        "encoding": "inplace",
        "label": "uint16",
        "numberOfBytes": "2"
      },
      "t_uint256": {
        "encoding": "inplace",
        "label": "uint256",
        "numberOfBytes": "32"
      },
      "t_uint8": {
        "encoding": "inplace",
        "label": "uint8",
        "numberOfBytes": "1"
      }
    }
  }
}